{
	"cyfrin/encoding.sol": {
		"Encoding": {
			"abi": [
				{
					"inputs": [],
					"name": "combineStrings",
					"outputs": [
						{
							"internalType": "string",
							"name": "",
							"type": "string"
						}
					],
					"stateMutability": "pure",
					"type": "function"
				},
				{
					"inputs": [],
					"name": "decodeString",
					"outputs": [
						{
							"internalType": "string",
							"name": "",
							"type": "string"
						}
					],
					"stateMutability": "pure",
					"type": "function"
				},
				{
					"inputs": [],
					"name": "encodeNumber",
					"outputs": [
						{
							"internalType": "bytes",
							"name": "",
							"type": "bytes"
						}
					],
					"stateMutability": "pure",
					"type": "function"
				},
				{
					"inputs": [],
					"name": "encodeString",
					"outputs": [
						{
							"internalType": "bytes",
							"name": "",
							"type": "bytes"
						}
					],
					"stateMutability": "pure",
					"type": "function"
				},
				{
					"inputs": [],
					"name": "encodeStringBytes",
					"outputs": [
						{
							"internalType": "bytes",
							"name": "",
							"type": "bytes"
						}
					],
					"stateMutability": "pure",
					"type": "function"
				},
				{
					"inputs": [],
					"name": "encodeStringPacked",
					"outputs": [
						{
							"internalType": "bytes",
							"name": "",
							"type": "bytes"
						}
					],
					"stateMutability": "pure",
					"type": "function"
				},
				{
					"inputs": [],
					"name": "multiDecode",
					"outputs": [
						{
							"internalType": "string",
							"name": "",
							"type": "string"
						},
						{
							"internalType": "string",
							"name": "",
							"type": "string"
						}
					],
					"stateMutability": "pure",
					"type": "function"
				},
				{
					"inputs": [],
					"name": "multiDecodePacked",
					"outputs": [
						{
							"internalType": "string",
							"name": "",
							"type": "string"
						}
					],
					"stateMutability": "pure",
					"type": "function"
				},
				{
					"inputs": [],
					"name": "multiEncode",
					"outputs": [
						{
							"internalType": "bytes",
							"name": "",
							"type": "bytes"
						}
					],
					"stateMutability": "pure",
					"type": "function"
				},
				{
					"inputs": [],
					"name": "multiEncodePacked",
					"outputs": [
						{
							"internalType": "bytes",
							"name": "",
							"type": "bytes"
						}
					],
					"stateMutability": "pure",
					"type": "function"
				},
				{
					"inputs": [],
					"name": "multiStringCastPacked",
					"outputs": [
						{
							"internalType": "string",
							"name": "",
							"type": "string"
						}
					],
					"stateMutability": "pure",
					"type": "function"
				},
				{
					"inputs": [
						{
							"internalType": "address",
							"name": "recentLoser",
							"type": "address"
						}
					],
					"name": "testingWithdraw",
					"outputs": [],
					"stateMutability": "nonpayable",
					"type": "function"
				},
				{
					"inputs": [
						{
							"internalType": "address",
							"name": "recentWinner",
							"type": "address"
						}
					],
					"name": "withdraw",
					"outputs": [],
					"stateMutability": "nonpayable",
					"type": "function"
				}
			],
			"devdoc": {
				"kind": "dev",
				"methods": {},
				"version": 1
			},
			"evm": {
				"assembly": "    /* \"cyfrin/encoding.sol\":188:6953  contract Encoding {... */\n  mstore(0x40, 0x80)\n  callvalue\n  dup1\n  iszero\n  tag_1\n  jumpi\n  0x00\n  dup1\n  revert\ntag_1:\n  pop\n  dataSize(sub_0)\n  dup1\n  dataOffset(sub_0)\n  0x00\n  codecopy\n  0x00\n  return\nstop\n\nsub_0: assembly {\n        /* \"cyfrin/encoding.sol\":188:6953  contract Encoding {... */\n      mstore(0x40, 0x80)\n      callvalue\n      dup1\n      iszero\n      tag_1\n      jumpi\n      0x00\n      dup1\n      revert\n    tag_1:\n      pop\n      jumpi(tag_2, lt(calldatasize, 0x04))\n      shr(0xe0, calldataload(0x00))\n      dup1\n      0x929b807e\n      gt\n      tag_16\n      jumpi\n      dup1\n      0xa77b0360\n      gt\n      tag_17\n      jumpi\n      dup1\n      0xa77b0360\n      eq\n      tag_12\n      jumpi\n      dup1\n      0xb4748718\n      eq\n      tag_13\n      jumpi\n      dup1\n      0xc452d79b\n      eq\n      tag_14\n      jumpi\n      dup1\n      0xed5df365\n      eq\n      tag_15\n      jumpi\n      jump(tag_2)\n    tag_17:\n      dup1\n      0x929b807e\n      eq\n      tag_9\n      jumpi\n      dup1\n      0x94e7c630\n      eq\n      tag_10\n      jumpi\n      dup1\n      0xa6dc49b8\n      eq\n      tag_11\n      jumpi\n      jump(tag_2)\n    tag_16:\n      dup1\n      0x114a7610\n      eq\n      tag_3\n      jumpi\n      dup1\n      0x15889d1a\n      eq\n      tag_4\n      jumpi\n      dup1\n      0x2085f4b9\n      eq\n      tag_5\n      jumpi\n      dup1\n      0x406ec9f2\n      eq\n      tag_6\n      jumpi\n      dup1\n      0x51cff8d9\n      eq\n      tag_7\n      jumpi\n      dup1\n      0x60ee46c3\n      eq\n      tag_8\n      jumpi\n    tag_2:\n      0x00\n      dup1\n      revert\n        /* \"cyfrin/encoding.sol\":212:347  function combineStrings() public pure returns (string memory) {... */\n    tag_3:\n      tag_18\n      tag_19\n      jump\t// in\n    tag_18:\n      mload(0x40)\n      tag_20\n      swap2\n      swap1\n      tag_21\n      jump\t// in\n    tag_20:\n      mload(0x40)\n      dup1\n      swap2\n      sub\n      swap1\n      return\n        /* \"cyfrin/encoding.sol\":2422:2556  function encodeNumber() public pure returns (bytes memory) {... */\n    tag_4:\n      tag_22\n      tag_23\n      jump\t// in\n    tag_22:\n      mload(0x40)\n      tag_24\n      swap2\n      swap1\n      tag_25\n      jump\t// in\n    tag_24:\n      mload(0x40)\n      dup1\n      swap2\n      sub\n      swap1\n      return\n        /* \"cyfrin/encoding.sol\":3064:3230  function encodeStringPacked() public pure returns (bytes memory) {... */\n    tag_5:\n      tag_26\n      tag_27\n      jump\t// in\n    tag_26:\n      mload(0x40)\n      tag_28\n      swap2\n      swap1\n      tag_25\n      jump\t// in\n    tag_28:\n      mload(0x40)\n      dup1\n      swap2\n      sub\n      swap1\n      return\n        /* \"cyfrin/encoding.sol\":3356:3510  function encodeStringBytes() public pure returns (bytes memory) {... */\n    tag_6:\n      tag_29\n      tag_30\n      jump\t// in\n    tag_29:\n      mload(0x40)\n      tag_31\n      swap2\n      swap1\n      tag_25\n      jump\t// in\n    tag_31:\n      mload(0x40)\n      dup1\n      swap2\n      sub\n      swap1\n      return\n        /* \"cyfrin/encoding.sol\":6108:6286  function withdraw(address recentWinner) public {... */\n    tag_7:\n      tag_32\n      0x04\n      dup1\n      calldatasize\n      sub\n      dup2\n      add\n      swap1\n      tag_33\n      swap2\n      swap1\n      tag_34\n      jump\t// in\n    tag_33:\n      tag_35\n      jump\t// in\n    tag_32:\n      stop\n        /* \"cyfrin/encoding.sol\":4560:4727  function multiStringCastPacked() public pure returns (string memory) {... */\n    tag_8:\n      tag_36\n      tag_37\n      jump\t// in\n    tag_36:\n      mload(0x40)\n      tag_38\n      swap2\n      swap1\n      tag_21\n      jump\t// in\n    tag_38:\n      mload(0x40)\n      dup1\n      swap2\n      sub\n      swap1\n      return\n        /* \"cyfrin/encoding.sol\":4341:4518  function multiDecodePacked() public pure returns (string memory) {... */\n    tag_9:\n      tag_39\n      tag_40\n      jump\t// in\n    tag_39:\n      mload(0x40)\n      tag_41\n      swap2\n      swap1\n      tag_21\n      jump\t// in\n    tag_41:\n      mload(0x40)\n      dup1\n      swap2\n      sub\n      swap1\n      return\n        /* \"cyfrin/encoding.sol\":6312:6499  function testingWithdraw(address recentLoser) public {... */\n    tag_10:\n      tag_42\n      0x04\n      dup1\n      calldatasize\n      sub\n      dup2\n      add\n      swap1\n      tag_43\n      swap2\n      swap1\n      tag_34\n      jump\t// in\n    tag_43:\n      tag_44\n      jump\t// in\n    tag_42:\n      stop\n        /* \"cyfrin/encoding.sol\":3689:3858  function multiEncode() public pure returns (bytes memory) {... */\n    tag_11:\n      tag_45\n      tag_46\n      jump\t// in\n    tag_45:\n      mload(0x40)\n      tag_47\n      swap2\n      swap1\n      tag_25\n      jump\t// in\n    tag_47:\n      mload(0x40)\n      dup1\n      swap2\n      sub\n      swap1\n      return\n        /* \"cyfrin/encoding.sol\":3516:3683  function decodeString() public pure returns (string memory) {... */\n    tag_12:\n      tag_48\n      tag_49\n      jump\t// in\n    tag_48:\n      mload(0x40)\n      tag_50\n      swap2\n      swap1\n      tag_21\n      jump\t// in\n    tag_50:\n      mload(0x40)\n      dup1\n      swap2\n      sub\n      swap1\n      return\n        /* \"cyfrin/encoding.sol\":4128:4309  function multiEncodePacked() public pure returns (bytes memory) {... */\n    tag_13:\n      tag_51\n      tag_52\n      jump\t// in\n    tag_51:\n      mload(0x40)\n      tag_53\n      swap2\n      swap1\n      tag_25\n      jump\t// in\n    tag_53:\n      mload(0x40)\n      dup1\n      swap2\n      sub\n      swap1\n      return\n        /* \"cyfrin/encoding.sol\":3882:4122  function multiDecode() public pure returns (string memory, string memory) {... */\n    tag_14:\n      tag_54\n      tag_55\n      jump\t// in\n    tag_54:\n      mload(0x40)\n      tag_56\n      swap3\n      swap2\n      swap1\n      tag_57\n      jump\t// in\n    tag_56:\n      mload(0x40)\n      dup1\n      swap2\n      sub\n      swap1\n      return\n        /* \"cyfrin/encoding.sol\":2611:2765  function encodeString() public pure returns (bytes memory) {... */\n    tag_15:\n      tag_58\n      tag_59\n      jump\t// in\n    tag_58:\n      mload(0x40)\n      tag_60\n      swap2\n      swap1\n      tag_25\n      jump\t// in\n    tag_60:\n      mload(0x40)\n      dup1\n      swap2\n      sub\n      swap1\n      return\n        /* \"cyfrin/encoding.sol\":212:347  function combineStrings() public pure returns (string memory) {... */\n    tag_19:\n        /* \"cyfrin/encoding.sol\":259:272  string memory */\n      0x60\n        /* \"cyfrin/encoding.sol\":298:339  abi.encodePacked(\"Hi Mom! \", \"Miss you.\") */\n      add(0x20, mload(0x40))\n      tag_62\n      swap1\n      tag_63\n      jump\t// in\n    tag_62:\n      mload(0x40)\n      0x20\n      dup2\n      dup4\n      sub\n      sub\n      dup2\n      mstore\n      swap1\n      0x40\n      mstore\n        /* \"cyfrin/encoding.sol\":284:340  return string(abi.encodePacked(\"Hi Mom! \", \"Miss you.\")) */\n      swap1\n      pop\n        /* \"cyfrin/encoding.sol\":212:347  function combineStrings() public pure returns (string memory) {... */\n      swap1\n      jump\t// out\n        /* \"cyfrin/encoding.sol\":2422:2556  function encodeNumber() public pure returns (bytes memory) {... */\n    tag_23:\n        /* \"cyfrin/encoding.sol\":2467:2479  bytes memory */\n      0x60\n        /* \"cyfrin/encoding.sol\":2491:2510  bytes memory number */\n      0x00\n        /* \"cyfrin/encoding.sol\":2524:2525  1 */\n      0x01\n        /* \"cyfrin/encoding.sol\":2513:2526  abi.encode(1) */\n      add(0x20, mload(0x40))\n      tag_65\n      swap2\n      swap1\n      tag_66\n      jump\t// in\n    tag_65:\n      mload(0x40)\n      0x20\n      dup2\n      dup4\n      sub\n      sub\n      dup2\n      mstore\n      swap1\n      0x40\n      mstore\n        /* \"cyfrin/encoding.sol\":2491:2526  bytes memory number = abi.encode(1) */\n      swap1\n      pop\n        /* \"cyfrin/encoding.sol\":2543:2549  number */\n      dup1\n        /* \"cyfrin/encoding.sol\":2536:2549  return number */\n      swap2\n      pop\n      pop\n        /* \"cyfrin/encoding.sol\":2422:2556  function encodeNumber() public pure returns (bytes memory) {... */\n      swap1\n      jump\t// out\n        /* \"cyfrin/encoding.sol\":3064:3230  function encodeStringPacked() public pure returns (bytes memory) {... */\n    tag_27:\n        /* \"cyfrin/encoding.sol\":3115:3127  bytes memory */\n      0x60\n        /* \"cyfrin/encoding.sol\":3139:3162  bytes memory someString */\n      0x00\n        /* \"cyfrin/encoding.sol\":3165:3196  abi.encodePacked(\"some string\") */\n      add(0x20, mload(0x40))\n      tag_68\n      swap1\n      tag_69\n      jump\t// in\n    tag_68:\n      mload(0x40)\n      0x20\n      dup2\n      dup4\n      sub\n      sub\n      dup2\n      mstore\n      swap1\n      0x40\n      mstore\n        /* \"cyfrin/encoding.sol\":3139:3196  bytes memory someString = abi.encodePacked(\"some string\") */\n      swap1\n      pop\n        /* \"cyfrin/encoding.sol\":3213:3223  someString */\n      dup1\n        /* \"cyfrin/encoding.sol\":3206:3223  return someString */\n      swap2\n      pop\n      pop\n        /* \"cyfrin/encoding.sol\":3064:3230  function encodeStringPacked() public pure returns (bytes memory) {... */\n      swap1\n      jump\t// out\n        /* \"cyfrin/encoding.sol\":3356:3510  function encodeStringBytes() public pure returns (bytes memory) {... */\n    tag_30:\n        /* \"cyfrin/encoding.sol\":3406:3418  bytes memory */\n      0x60\n        /* \"cyfrin/encoding.sol\":3430:3453  bytes memory someString */\n      0x00\n        /* \"cyfrin/encoding.sol\":3456:3476  bytes(\"some string\") */\n      mload(0x40)\n      dup1\n      0x40\n      add\n      0x40\n      mstore\n      dup1\n      0x0b\n      dup2\n      mstore\n      0x20\n      add\n      0x736f6d6520737472696e67000000000000000000000000000000000000000000\n      dup2\n      mstore\n      pop\n        /* \"cyfrin/encoding.sol\":3430:3476  bytes memory someString = bytes(\"some string\") */\n      swap1\n      pop\n        /* \"cyfrin/encoding.sol\":3493:3503  someString */\n      dup1\n        /* \"cyfrin/encoding.sol\":3486:3503  return someString */\n      swap2\n      pop\n      pop\n        /* \"cyfrin/encoding.sol\":3356:3510  function encodeStringBytes() public pure returns (bytes memory) {... */\n      swap1\n      jump\t// out\n        /* \"cyfrin/encoding.sol\":6108:6286  function withdraw(address recentWinner) public {... */\n    tag_35:\n        /* \"cyfrin/encoding.sol\":6166:6178  bool success */\n      0x00\n        /* \"cyfrin/encoding.sol\":6183:6195  recentWinner */\n      dup2\n        /* \"cyfrin/encoding.sol\":6183:6200  recentWinner.call */\n      0xffffffffffffffffffffffffffffffffffffffff\n      and\n        /* \"cyfrin/encoding.sol\":6208:6229  address(this).balance */\n      selfbalance\n        /* \"cyfrin/encoding.sol\":6183:6234  recentWinner.call{value: address(this).balance}(\"\") */\n      mload(0x40)\n      tag_72\n      swap1\n      tag_73\n      jump\t// in\n    tag_72:\n      0x00\n      mload(0x40)\n      dup1\n      dup4\n      sub\n      dup2\n      dup6\n      dup8\n      gas\n      call\n      swap3\n      pop\n      pop\n      pop\n      returndatasize\n      dup1\n      0x00\n      dup2\n      eq\n      tag_76\n      jumpi\n      mload(0x40)\n      swap2\n      pop\n      and(add(returndatasize, 0x3f), not(0x1f))\n      dup3\n      add\n      0x40\n      mstore\n      returndatasize\n      dup3\n      mstore\n      returndatasize\n      0x00\n      0x20\n      dup5\n      add\n      returndatacopy\n      jump(tag_75)\n    tag_76:\n      0x60\n      swap2\n      pop\n    tag_75:\n      pop\n        /* \"cyfrin/encoding.sol\":6165:6234  (bool success,) = recentWinner.call{value: address(this).balance}(\"\") */\n      pop\n      swap1\n      pop\n        /* \"cyfrin/encoding.sol\":6252:6259  success */\n      dup1\n        /* \"cyfrin/encoding.sol\":6244:6279  require(success, \"Transfer Failed\") */\n      tag_77\n      jumpi\n      mload(0x40)\n      0x08c379a000000000000000000000000000000000000000000000000000000000\n      dup2\n      mstore\n      0x04\n      add\n      tag_78\n      swap1\n      tag_79\n      jump\t// in\n    tag_78:\n      mload(0x40)\n      dup1\n      swap2\n      sub\n      swap1\n      revert\n    tag_77:\n        /* \"cyfrin/encoding.sol\":6155:6286  {... */\n      pop\n        /* \"cyfrin/encoding.sol\":6108:6286  function withdraw(address recentWinner) public {... */\n      pop\n      jump\t// out\n        /* \"cyfrin/encoding.sol\":4560:4727  function multiStringCastPacked() public pure returns (string memory) {... */\n    tag_37:\n        /* \"cyfrin/encoding.sol\":4614:4627  string memory */\n      0x60\n        /* \"cyfrin/encoding.sol\":4639:4663  string memory someString */\n      0x00\n        /* \"cyfrin/encoding.sol\":4673:4692  multiEncodePacked() */\n      tag_81\n        /* \"cyfrin/encoding.sol\":4673:4690  multiEncodePacked */\n      tag_52\n        /* \"cyfrin/encoding.sol\":4673:4692  multiEncodePacked() */\n      jump\t// in\n    tag_81:\n        /* \"cyfrin/encoding.sol\":4639:4693  string memory someString = string(multiEncodePacked()) */\n      swap1\n      pop\n        /* \"cyfrin/encoding.sol\":4710:4720  someString */\n      dup1\n        /* \"cyfrin/encoding.sol\":4703:4720  return someString */\n      swap2\n      pop\n      pop\n        /* \"cyfrin/encoding.sol\":4560:4727  function multiStringCastPacked() public pure returns (string memory) {... */\n      swap1\n      jump\t// out\n        /* \"cyfrin/encoding.sol\":4341:4518  function multiDecodePacked() public pure returns (string memory) {... */\n    tag_40:\n        /* \"cyfrin/encoding.sol\":4391:4404  string memory */\n      0x60\n        /* \"cyfrin/encoding.sol\":4416:4440  string memory someString */\n      0x00\n        /* \"cyfrin/encoding.sol\":4454:4473  multiEncodePacked() */\n      tag_83\n        /* \"cyfrin/encoding.sol\":4454:4471  multiEncodePacked */\n      tag_52\n        /* \"cyfrin/encoding.sol\":4454:4473  multiEncodePacked() */\n      jump\t// in\n    tag_83:\n        /* \"cyfrin/encoding.sol\":4443:4484  abi.decode(multiEncodePacked(), (string)) */\n      dup1\n      0x20\n      add\n      swap1\n      mload\n      dup2\n      add\n      swap1\n      tag_84\n      swap2\n      swap1\n      tag_85\n      jump\t// in\n    tag_84:\n        /* \"cyfrin/encoding.sol\":4416:4484  string memory someString = abi.decode(multiEncodePacked(), (string)) */\n      swap1\n      pop\n        /* \"cyfrin/encoding.sol\":4501:4511  someString */\n      dup1\n        /* \"cyfrin/encoding.sol\":4494:4511  return someString */\n      swap2\n      pop\n      pop\n        /* \"cyfrin/encoding.sol\":4341:4518  function multiDecodePacked() public pure returns (string memory) {... */\n      swap1\n      jump\t// out\n        /* \"cyfrin/encoding.sol\":6312:6499  function testingWithdraw(address recentLoser) public {... */\n    tag_44:\n        /* \"cyfrin/encoding.sol\":6376:6388  bool success */\n      0x00\n        /* \"cyfrin/encoding.sol\":6393:6404  recentLoser */\n      dup2\n        /* \"cyfrin/encoding.sol\":6393:6409  recentLoser.call */\n      0xffffffffffffffffffffffffffffffffffffffff\n      and\n        /* \"cyfrin/encoding.sol\":6417:6438  address(this).balance */\n      selfbalance\n        /* \"cyfrin/encoding.sol\":6393:6443  recentLoser.call{value: address(this).balance}(\"\") */\n      mload(0x40)\n      tag_87\n      swap1\n      tag_73\n      jump\t// in\n    tag_87:\n      0x00\n      mload(0x40)\n      dup1\n      dup4\n      sub\n      dup2\n      dup6\n      dup8\n      gas\n      call\n      swap3\n      pop\n      pop\n      pop\n      returndatasize\n      dup1\n      0x00\n      dup2\n      eq\n      tag_90\n      jumpi\n      mload(0x40)\n      swap2\n      pop\n      and(add(returndatasize, 0x3f), not(0x1f))\n      dup3\n      add\n      0x40\n      mstore\n      returndatasize\n      dup3\n      mstore\n      returndatasize\n      0x00\n      0x20\n      dup5\n      add\n      returndatacopy\n      jump(tag_89)\n    tag_90:\n      0x60\n      swap2\n      pop\n    tag_89:\n      pop\n        /* \"cyfrin/encoding.sol\":6375:6443  (bool success,) = recentLoser.call{value: address(this).balance}(\"\") */\n      pop\n      swap1\n      pop\n        /* \"cyfrin/encoding.sol\":6461:6468  success */\n      dup1\n        /* \"cyfrin/encoding.sol\":6453:6492  require(success, \"Transfer succesfull\") */\n      tag_91\n      jumpi\n      mload(0x40)\n      0x08c379a000000000000000000000000000000000000000000000000000000000\n      dup2\n      mstore\n      0x04\n      add\n      tag_92\n      swap1\n      tag_93\n      jump\t// in\n    tag_92:\n      mload(0x40)\n      dup1\n      swap2\n      sub\n      swap1\n      revert\n    tag_91:\n        /* \"cyfrin/encoding.sol\":6365:6499  {... */\n      pop\n        /* \"cyfrin/encoding.sol\":6312:6499  function testingWithdraw(address recentLoser) public {... */\n      pop\n      jump\t// out\n        /* \"cyfrin/encoding.sol\":3689:3858  function multiEncode() public pure returns (bytes memory) {... */\n    tag_46:\n        /* \"cyfrin/encoding.sol\":3733:3745  bytes memory */\n      0x60\n        /* \"cyfrin/encoding.sol\":3757:3780  bytes memory someString */\n      0x00\n        /* \"cyfrin/encoding.sol\":3783:3824  abi.encode(\"some string\", \"it's bigger!\") */\n      add(0x20, mload(0x40))\n      tag_95\n      swap1\n      tag_96\n      jump\t// in\n    tag_95:\n      mload(0x40)\n      0x20\n      dup2\n      dup4\n      sub\n      sub\n      dup2\n      mstore\n      swap1\n      0x40\n      mstore\n        /* \"cyfrin/encoding.sol\":3757:3824  bytes memory someString = abi.encode(\"some string\", \"it's bigger!\") */\n      swap1\n      pop\n        /* \"cyfrin/encoding.sol\":3841:3851  someString */\n      dup1\n        /* \"cyfrin/encoding.sol\":3834:3851  return someString */\n      swap2\n      pop\n      pop\n        /* \"cyfrin/encoding.sol\":3689:3858  function multiEncode() public pure returns (bytes memory) {... */\n      swap1\n      jump\t// out\n        /* \"cyfrin/encoding.sol\":3516:3683  function decodeString() public pure returns (string memory) {... */\n    tag_49:\n        /* \"cyfrin/encoding.sol\":3561:3574  string memory */\n      0x60\n        /* \"cyfrin/encoding.sol\":3586:3610  string memory someString */\n      0x00\n        /* \"cyfrin/encoding.sol\":3624:3638  encodeString() */\n      tag_98\n        /* \"cyfrin/encoding.sol\":3624:3636  encodeString */\n      tag_59\n        /* \"cyfrin/encoding.sol\":3624:3638  encodeString() */\n      jump\t// in\n    tag_98:\n        /* \"cyfrin/encoding.sol\":3613:3649  abi.decode(encodeString(), (string)) */\n      dup1\n      0x20\n      add\n      swap1\n      mload\n      dup2\n      add\n      swap1\n      tag_99\n      swap2\n      swap1\n      tag_85\n      jump\t// in\n    tag_99:\n        /* \"cyfrin/encoding.sol\":3586:3649  string memory someString = abi.decode(encodeString(), (string)) */\n      swap1\n      pop\n        /* \"cyfrin/encoding.sol\":3666:3676  someString */\n      dup1\n        /* \"cyfrin/encoding.sol\":3659:3676  return someString */\n      swap2\n      pop\n      pop\n        /* \"cyfrin/encoding.sol\":3516:3683  function decodeString() public pure returns (string memory) {... */\n      swap1\n      jump\t// out\n        /* \"cyfrin/encoding.sol\":4128:4309  function multiEncodePacked() public pure returns (bytes memory) {... */\n    tag_52:\n        /* \"cyfrin/encoding.sol\":4178:4190  bytes memory */\n      0x60\n        /* \"cyfrin/encoding.sol\":4202:4225  bytes memory someString */\n      0x00\n        /* \"cyfrin/encoding.sol\":4228:4275  abi.encodePacked(\"some string\", \"it's bigger!\") */\n      add(0x20, mload(0x40))\n      tag_101\n      swap1\n      tag_102\n      jump\t// in\n    tag_101:\n      mload(0x40)\n      0x20\n      dup2\n      dup4\n      sub\n      sub\n      dup2\n      mstore\n      swap1\n      0x40\n      mstore\n        /* \"cyfrin/encoding.sol\":4202:4275  bytes memory someString = abi.encodePacked(\"some string\", \"it's bigger!\") */\n      swap1\n      pop\n        /* \"cyfrin/encoding.sol\":4292:4302  someString */\n      dup1\n        /* \"cyfrin/encoding.sol\":4285:4302  return someString */\n      swap2\n      pop\n      pop\n        /* \"cyfrin/encoding.sol\":4128:4309  function multiEncodePacked() public pure returns (bytes memory) {... */\n      swap1\n      jump\t// out\n        /* \"cyfrin/encoding.sol\":3882:4122  function multiDecode() public pure returns (string memory, string memory) {... */\n    tag_55:\n        /* \"cyfrin/encoding.sol\":3926:3939  string memory */\n      0x60\n        /* \"cyfrin/encoding.sol\":3941:3954  string memory */\n      dup1\n        /* \"cyfrin/encoding.sol\":3967:3991  string memory someString */\n      0x00\n        /* \"cyfrin/encoding.sol\":3993:4022  string memory someOtherString */\n      dup1\n        /* \"cyfrin/encoding.sol\":4037:4050  multiEncode() */\n      tag_104\n        /* \"cyfrin/encoding.sol\":4037:4048  multiEncode */\n      tag_46\n        /* \"cyfrin/encoding.sol\":4037:4050  multiEncode() */\n      jump\t// in\n    tag_104:\n        /* \"cyfrin/encoding.sol\":4026:4069  abi.decode(multiEncode(), (string, string)) */\n      dup1\n      0x20\n      add\n      swap1\n      mload\n      dup2\n      add\n      swap1\n      tag_105\n      swap2\n      swap1\n      tag_106\n      jump\t// in\n    tag_105:\n        /* \"cyfrin/encoding.sol\":3966:4069  (string memory someString, string memory someOtherString) = abi.decode(multiEncode(), (string, string)) */\n      swap2\n      pop\n      swap2\n      pop\n        /* \"cyfrin/encoding.sol\":4087:4097  someString */\n      dup2\n        /* \"cyfrin/encoding.sol\":4099:4114  someOtherString */\n      dup2\n        /* \"cyfrin/encoding.sol\":4079:4115  return (someString, someOtherString) */\n      swap4\n      pop\n      swap4\n      pop\n      pop\n      pop\n        /* \"cyfrin/encoding.sol\":3882:4122  function multiDecode() public pure returns (string memory, string memory) {... */\n      swap1\n      swap2\n      jump\t// out\n        /* \"cyfrin/encoding.sol\":2611:2765  function encodeString() public pure returns (bytes memory) {... */\n    tag_59:\n        /* \"cyfrin/encoding.sol\":2656:2668  bytes memory */\n      0x60\n        /* \"cyfrin/encoding.sol\":2680:2703  bytes memory someString */\n      0x00\n        /* \"cyfrin/encoding.sol\":2706:2731  abi.encode(\"some string\") */\n      add(0x20, mload(0x40))\n      tag_108\n      swap1\n      tag_109\n      jump\t// in\n    tag_108:\n      mload(0x40)\n      0x20\n      dup2\n      dup4\n      sub\n      sub\n      dup2\n      mstore\n      swap1\n      0x40\n      mstore\n        /* \"cyfrin/encoding.sol\":2680:2731  bytes memory someString = abi.encode(\"some string\") */\n      swap1\n      pop\n        /* \"cyfrin/encoding.sol\":2748:2758  someString */\n      dup1\n        /* \"cyfrin/encoding.sol\":2741:2758  return someString */\n      swap2\n      pop\n      pop\n        /* \"cyfrin/encoding.sol\":2611:2765  function encodeString() public pure returns (bytes memory) {... */\n      swap1\n      jump\t// out\n        /* \"#utility.yul\":7:106   */\n    tag_110:\n        /* \"#utility.yul\":59:65   */\n      0x00\n        /* \"#utility.yul\":93:98   */\n      dup2\n        /* \"#utility.yul\":87:99   */\n      mload\n        /* \"#utility.yul\":77:99   */\n      swap1\n      pop\n        /* \"#utility.yul\":7:106   */\n      swap2\n      swap1\n      pop\n      jump\t// out\n        /* \"#utility.yul\":112:281   */\n    tag_111:\n        /* \"#utility.yul\":196:207   */\n      0x00\n        /* \"#utility.yul\":230:236   */\n      dup3\n        /* \"#utility.yul\":225:228   */\n      dup3\n        /* \"#utility.yul\":218:237   */\n      mstore\n        /* \"#utility.yul\":270:274   */\n      0x20\n        /* \"#utility.yul\":265:268   */\n      dup3\n        /* \"#utility.yul\":261:275   */\n      add\n        /* \"#utility.yul\":246:275   */\n      swap1\n      pop\n        /* \"#utility.yul\":112:281   */\n      swap3\n      swap2\n      pop\n      pop\n      jump\t// out\n        /* \"#utility.yul\":287:533   */\n    tag_112:\n        /* \"#utility.yul\":368:369   */\n      0x00\n        /* \"#utility.yul\":378:491   */\n    tag_160:\n        /* \"#utility.yul\":392:398   */\n      dup4\n        /* \"#utility.yul\":389:390   */\n      dup2\n        /* \"#utility.yul\":386:399   */\n      lt\n        /* \"#utility.yul\":378:491   */\n      iszero\n      tag_162\n      jumpi\n        /* \"#utility.yul\":477:478   */\n      dup1\n        /* \"#utility.yul\":472:475   */\n      dup3\n        /* \"#utility.yul\":468:479   */\n      add\n        /* \"#utility.yul\":462:480   */\n      mload\n        /* \"#utility.yul\":458:459   */\n      dup2\n        /* \"#utility.yul\":453:456   */\n      dup5\n        /* \"#utility.yul\":449:460   */\n      add\n        /* \"#utility.yul\":442:481   */\n      mstore\n        /* \"#utility.yul\":414:416   */\n      0x20\n        /* \"#utility.yul\":411:412   */\n      dup2\n        /* \"#utility.yul\":407:417   */\n      add\n        /* \"#utility.yul\":402:417   */\n      swap1\n      pop\n        /* \"#utility.yul\":378:491   */\n      jump(tag_160)\n    tag_162:\n        /* \"#utility.yul\":525:526   */\n      0x00\n        /* \"#utility.yul\":516:522   */\n      dup5\n        /* \"#utility.yul\":511:514   */\n      dup5\n        /* \"#utility.yul\":507:523   */\n      add\n        /* \"#utility.yul\":500:527   */\n      mstore\n        /* \"#utility.yul\":349:533   */\n      pop\n        /* \"#utility.yul\":287:533   */\n      pop\n      pop\n      pop\n      jump\t// out\n        /* \"#utility.yul\":539:641   */\n    tag_113:\n        /* \"#utility.yul\":580:586   */\n      0x00\n        /* \"#utility.yul\":631:633   */\n      0x1f\n        /* \"#utility.yul\":627:634   */\n      not\n        /* \"#utility.yul\":622:624   */\n      0x1f\n        /* \"#utility.yul\":615:620   */\n      dup4\n        /* \"#utility.yul\":611:625   */\n      add\n        /* \"#utility.yul\":607:635   */\n      and\n        /* \"#utility.yul\":597:635   */\n      swap1\n      pop\n        /* \"#utility.yul\":539:641   */\n      swap2\n      swap1\n      pop\n      jump\t// out\n        /* \"#utility.yul\":647:1024   */\n    tag_114:\n        /* \"#utility.yul\":735:738   */\n      0x00\n        /* \"#utility.yul\":763:802   */\n      tag_165\n        /* \"#utility.yul\":796:801   */\n      dup3\n        /* \"#utility.yul\":763:802   */\n      tag_110\n      jump\t// in\n    tag_165:\n        /* \"#utility.yul\":818:889   */\n      tag_166\n        /* \"#utility.yul\":882:888   */\n      dup2\n        /* \"#utility.yul\":877:880   */\n      dup6\n        /* \"#utility.yul\":818:889   */\n      tag_111\n      jump\t// in\n    tag_166:\n        /* \"#utility.yul\":811:889   */\n      swap4\n      pop\n        /* \"#utility.yul\":898:963   */\n      tag_167\n        /* \"#utility.yul\":956:962   */\n      dup2\n        /* \"#utility.yul\":951:954   */\n      dup6\n        /* \"#utility.yul\":944:948   */\n      0x20\n        /* \"#utility.yul\":937:942   */\n      dup7\n        /* \"#utility.yul\":933:949   */\n      add\n        /* \"#utility.yul\":898:963   */\n      tag_112\n      jump\t// in\n    tag_167:\n        /* \"#utility.yul\":988:1017   */\n      tag_168\n        /* \"#utility.yul\":1010:1016   */\n      dup2\n        /* \"#utility.yul\":988:1017   */\n      tag_113\n      jump\t// in\n    tag_168:\n        /* \"#utility.yul\":983:986   */\n      dup5\n        /* \"#utility.yul\":979:1018   */\n      add\n        /* \"#utility.yul\":972:1018   */\n      swap2\n      pop\n        /* \"#utility.yul\":739:1024   */\n      pop\n        /* \"#utility.yul\":647:1024   */\n      swap3\n      swap2\n      pop\n      pop\n      jump\t// out\n        /* \"#utility.yul\":1030:1343   */\n    tag_21:\n        /* \"#utility.yul\":1143:1147   */\n      0x00\n        /* \"#utility.yul\":1181:1183   */\n      0x20\n        /* \"#utility.yul\":1170:1179   */\n      dup3\n        /* \"#utility.yul\":1166:1184   */\n      add\n        /* \"#utility.yul\":1158:1184   */\n      swap1\n      pop\n        /* \"#utility.yul\":1230:1239   */\n      dup2\n        /* \"#utility.yul\":1224:1228   */\n      dup2\n        /* \"#utility.yul\":1220:1240   */\n      sub\n        /* \"#utility.yul\":1216:1217   */\n      0x00\n        /* \"#utility.yul\":1205:1214   */\n      dup4\n        /* \"#utility.yul\":1201:1218   */\n      add\n        /* \"#utility.yul\":1194:1241   */\n      mstore\n        /* \"#utility.yul\":1258:1336   */\n      tag_170\n        /* \"#utility.yul\":1331:1335   */\n      dup2\n        /* \"#utility.yul\":1322:1328   */\n      dup5\n        /* \"#utility.yul\":1258:1336   */\n      tag_114\n      jump\t// in\n    tag_170:\n        /* \"#utility.yul\":1250:1336   */\n      swap1\n      pop\n        /* \"#utility.yul\":1030:1343   */\n      swap3\n      swap2\n      pop\n      pop\n      jump\t// out\n        /* \"#utility.yul\":1349:1447   */\n    tag_115:\n        /* \"#utility.yul\":1400:1406   */\n      0x00\n        /* \"#utility.yul\":1434:1439   */\n      dup2\n        /* \"#utility.yul\":1428:1440   */\n      mload\n        /* \"#utility.yul\":1418:1440   */\n      swap1\n      pop\n        /* \"#utility.yul\":1349:1447   */\n      swap2\n      swap1\n      pop\n      jump\t// out\n        /* \"#utility.yul\":1453:1621   */\n    tag_116:\n        /* \"#utility.yul\":1536:1547   */\n      0x00\n        /* \"#utility.yul\":1570:1576   */\n      dup3\n        /* \"#utility.yul\":1565:1568   */\n      dup3\n        /* \"#utility.yul\":1558:1577   */\n      mstore\n        /* \"#utility.yul\":1610:1614   */\n      0x20\n        /* \"#utility.yul\":1605:1608   */\n      dup3\n        /* \"#utility.yul\":1601:1615   */\n      add\n        /* \"#utility.yul\":1586:1615   */\n      swap1\n      pop\n        /* \"#utility.yul\":1453:1621   */\n      swap3\n      swap2\n      pop\n      pop\n      jump\t// out\n        /* \"#utility.yul\":1627:2000   */\n    tag_117:\n        /* \"#utility.yul\":1713:1716   */\n      0x00\n        /* \"#utility.yul\":1741:1779   */\n      tag_174\n        /* \"#utility.yul\":1773:1778   */\n      dup3\n        /* \"#utility.yul\":1741:1779   */\n      tag_115\n      jump\t// in\n    tag_174:\n        /* \"#utility.yul\":1795:1865   */\n      tag_175\n        /* \"#utility.yul\":1858:1864   */\n      dup2\n        /* \"#utility.yul\":1853:1856   */\n      dup6\n        /* \"#utility.yul\":1795:1865   */\n      tag_116\n      jump\t// in\n    tag_175:\n        /* \"#utility.yul\":1788:1865   */\n      swap4\n      pop\n        /* \"#utility.yul\":1874:1939   */\n      tag_176\n        /* \"#utility.yul\":1932:1938   */\n      dup2\n        /* \"#utility.yul\":1927:1930   */\n      dup6\n        /* \"#utility.yul\":1920:1924   */\n      0x20\n        /* \"#utility.yul\":1913:1918   */\n      dup7\n        /* \"#utility.yul\":1909:1925   */\n      add\n        /* \"#utility.yul\":1874:1939   */\n      tag_112\n      jump\t// in\n    tag_176:\n        /* \"#utility.yul\":1964:1993   */\n      tag_177\n        /* \"#utility.yul\":1986:1992   */\n      dup2\n        /* \"#utility.yul\":1964:1993   */\n      tag_113\n      jump\t// in\n    tag_177:\n        /* \"#utility.yul\":1959:1962   */\n      dup5\n        /* \"#utility.yul\":1955:1994   */\n      add\n        /* \"#utility.yul\":1948:1994   */\n      swap2\n      pop\n        /* \"#utility.yul\":1717:2000   */\n      pop\n        /* \"#utility.yul\":1627:2000   */\n      swap3\n      swap2\n      pop\n      pop\n      jump\t// out\n        /* \"#utility.yul\":2006:2315   */\n    tag_25:\n        /* \"#utility.yul\":2117:2121   */\n      0x00\n        /* \"#utility.yul\":2155:2157   */\n      0x20\n        /* \"#utility.yul\":2144:2153   */\n      dup3\n        /* \"#utility.yul\":2140:2158   */\n      add\n        /* \"#utility.yul\":2132:2158   */\n      swap1\n      pop\n        /* \"#utility.yul\":2204:2213   */\n      dup2\n        /* \"#utility.yul\":2198:2202   */\n      dup2\n        /* \"#utility.yul\":2194:2214   */\n      sub\n        /* \"#utility.yul\":2190:2191   */\n      0x00\n        /* \"#utility.yul\":2179:2188   */\n      dup4\n        /* \"#utility.yul\":2175:2192   */\n      add\n        /* \"#utility.yul\":2168:2215   */\n      mstore\n        /* \"#utility.yul\":2232:2308   */\n      tag_179\n        /* \"#utility.yul\":2303:2307   */\n      dup2\n        /* \"#utility.yul\":2294:2300   */\n      dup5\n        /* \"#utility.yul\":2232:2308   */\n      tag_117\n      jump\t// in\n    tag_179:\n        /* \"#utility.yul\":2224:2308   */\n      swap1\n      pop\n        /* \"#utility.yul\":2006:2315   */\n      swap3\n      swap2\n      pop\n      pop\n      jump\t// out\n        /* \"#utility.yul\":2321:2396   */\n    tag_118:\n        /* \"#utility.yul\":2354:2360   */\n      0x00\n        /* \"#utility.yul\":2387:2389   */\n      0x40\n        /* \"#utility.yul\":2381:2390   */\n      mload\n        /* \"#utility.yul\":2371:2390   */\n      swap1\n      pop\n        /* \"#utility.yul\":2321:2396   */\n      swap1\n      jump\t// out\n        /* \"#utility.yul\":2402:2519   */\n    tag_119:\n        /* \"#utility.yul\":2511:2512   */\n      0x00\n        /* \"#utility.yul\":2508:2509   */\n      dup1\n        /* \"#utility.yul\":2501:2513   */\n      revert\n        /* \"#utility.yul\":2525:2642   */\n    tag_120:\n        /* \"#utility.yul\":2634:2635   */\n      0x00\n        /* \"#utility.yul\":2631:2632   */\n      dup1\n        /* \"#utility.yul\":2624:2636   */\n      revert\n        /* \"#utility.yul\":2648:2774   */\n    tag_121:\n        /* \"#utility.yul\":2685:2692   */\n      0x00\n        /* \"#utility.yul\":2725:2767   */\n      0xffffffffffffffffffffffffffffffffffffffff\n        /* \"#utility.yul\":2718:2723   */\n      dup3\n        /* \"#utility.yul\":2714:2768   */\n      and\n        /* \"#utility.yul\":2703:2768   */\n      swap1\n      pop\n        /* \"#utility.yul\":2648:2774   */\n      swap2\n      swap1\n      pop\n      jump\t// out\n        /* \"#utility.yul\":2780:2876   */\n    tag_122:\n        /* \"#utility.yul\":2817:2824   */\n      0x00\n        /* \"#utility.yul\":2846:2870   */\n      tag_185\n        /* \"#utility.yul\":2864:2869   */\n      dup3\n        /* \"#utility.yul\":2846:2870   */\n      tag_121\n      jump\t// in\n    tag_185:\n        /* \"#utility.yul\":2835:2870   */\n      swap1\n      pop\n        /* \"#utility.yul\":2780:2876   */\n      swap2\n      swap1\n      pop\n      jump\t// out\n        /* \"#utility.yul\":2882:3004   */\n    tag_123:\n        /* \"#utility.yul\":2955:2979   */\n      tag_187\n        /* \"#utility.yul\":2973:2978   */\n      dup2\n        /* \"#utility.yul\":2955:2979   */\n      tag_122\n      jump\t// in\n    tag_187:\n        /* \"#utility.yul\":2948:2953   */\n      dup2\n        /* \"#utility.yul\":2945:2980   */\n      eq\n        /* \"#utility.yul\":2935:2998   */\n      tag_188\n      jumpi\n        /* \"#utility.yul\":2994:2995   */\n      0x00\n        /* \"#utility.yul\":2991:2992   */\n      dup1\n        /* \"#utility.yul\":2984:2996   */\n      revert\n        /* \"#utility.yul\":2935:2998   */\n    tag_188:\n        /* \"#utility.yul\":2882:3004   */\n      pop\n      jump\t// out\n        /* \"#utility.yul\":3010:3149   */\n    tag_124:\n        /* \"#utility.yul\":3056:3061   */\n      0x00\n        /* \"#utility.yul\":3094:3100   */\n      dup2\n        /* \"#utility.yul\":3081:3101   */\n      calldataload\n        /* \"#utility.yul\":3072:3101   */\n      swap1\n      pop\n        /* \"#utility.yul\":3110:3143   */\n      tag_190\n        /* \"#utility.yul\":3137:3142   */\n      dup2\n        /* \"#utility.yul\":3110:3143   */\n      tag_123\n      jump\t// in\n    tag_190:\n        /* \"#utility.yul\":3010:3149   */\n      swap3\n      swap2\n      pop\n      pop\n      jump\t// out\n        /* \"#utility.yul\":3155:3484   */\n    tag_34:\n        /* \"#utility.yul\":3214:3220   */\n      0x00\n        /* \"#utility.yul\":3263:3265   */\n      0x20\n        /* \"#utility.yul\":3251:3260   */\n      dup3\n        /* \"#utility.yul\":3242:3249   */\n      dup5\n        /* \"#utility.yul\":3238:3261   */\n      sub\n        /* \"#utility.yul\":3234:3266   */\n      slt\n        /* \"#utility.yul\":3231:3350   */\n      iszero\n      tag_192\n      jumpi\n        /* \"#utility.yul\":3269:3348   */\n      tag_193\n      tag_119\n      jump\t// in\n    tag_193:\n        /* \"#utility.yul\":3231:3350   */\n    tag_192:\n        /* \"#utility.yul\":3389:3390   */\n      0x00\n        /* \"#utility.yul\":3414:3467   */\n      tag_194\n        /* \"#utility.yul\":3459:3466   */\n      dup5\n        /* \"#utility.yul\":3450:3456   */\n      dup3\n        /* \"#utility.yul\":3439:3448   */\n      dup6\n        /* \"#utility.yul\":3435:3457   */\n      add\n        /* \"#utility.yul\":3414:3467   */\n      tag_124\n      jump\t// in\n    tag_194:\n        /* \"#utility.yul\":3404:3467   */\n      swap2\n      pop\n        /* \"#utility.yul\":3360:3477   */\n      pop\n        /* \"#utility.yul\":3155:3484   */\n      swap3\n      swap2\n      pop\n      pop\n      jump\t// out\n        /* \"#utility.yul\":3490:4004   */\n    tag_57:\n        /* \"#utility.yul\":3651:3655   */\n      0x00\n        /* \"#utility.yul\":3689:3691   */\n      0x40\n        /* \"#utility.yul\":3678:3687   */\n      dup3\n        /* \"#utility.yul\":3674:3692   */\n      add\n        /* \"#utility.yul\":3666:3692   */\n      swap1\n      pop\n        /* \"#utility.yul\":3738:3747   */\n      dup2\n        /* \"#utility.yul\":3732:3736   */\n      dup2\n        /* \"#utility.yul\":3728:3748   */\n      sub\n        /* \"#utility.yul\":3724:3725   */\n      0x00\n        /* \"#utility.yul\":3713:3722   */\n      dup4\n        /* \"#utility.yul\":3709:3726   */\n      add\n        /* \"#utility.yul\":3702:3749   */\n      mstore\n        /* \"#utility.yul\":3766:3844   */\n      tag_196\n        /* \"#utility.yul\":3839:3843   */\n      dup2\n        /* \"#utility.yul\":3830:3836   */\n      dup6\n        /* \"#utility.yul\":3766:3844   */\n      tag_114\n      jump\t// in\n    tag_196:\n        /* \"#utility.yul\":3758:3844   */\n      swap1\n      pop\n        /* \"#utility.yul\":3891:3900   */\n      dup2\n        /* \"#utility.yul\":3885:3889   */\n      dup2\n        /* \"#utility.yul\":3881:3901   */\n      sub\n        /* \"#utility.yul\":3876:3878   */\n      0x20\n        /* \"#utility.yul\":3865:3874   */\n      dup4\n        /* \"#utility.yul\":3861:3879   */\n      add\n        /* \"#utility.yul\":3854:3902   */\n      mstore\n        /* \"#utility.yul\":3919:3997   */\n      tag_197\n        /* \"#utility.yul\":3992:3996   */\n      dup2\n        /* \"#utility.yul\":3983:3989   */\n      dup5\n        /* \"#utility.yul\":3919:3997   */\n      tag_114\n      jump\t// in\n    tag_197:\n        /* \"#utility.yul\":3911:3997   */\n      swap1\n      pop\n        /* \"#utility.yul\":3490:4004   */\n      swap4\n      swap3\n      pop\n      pop\n      pop\n      jump\t// out\n        /* \"#utility.yul\":4010:4158   */\n    tag_125:\n        /* \"#utility.yul\":4112:4123   */\n      0x00\n        /* \"#utility.yul\":4149:4152   */\n      dup2\n        /* \"#utility.yul\":4134:4152   */\n      swap1\n      pop\n        /* \"#utility.yul\":4010:4158   */\n      swap3\n      swap2\n      pop\n      pop\n      jump\t// out\n        /* \"#utility.yul\":4164:4322   */\n    tag_126:\n        /* \"#utility.yul\":4304:4314   */\n      0x4869204d6f6d2120000000000000000000000000000000000000000000000000\n        /* \"#utility.yul\":4300:4301   */\n      0x00\n        /* \"#utility.yul\":4292:4298   */\n      dup3\n        /* \"#utility.yul\":4288:4302   */\n      add\n        /* \"#utility.yul\":4281:4315   */\n      mstore\n        /* \"#utility.yul\":4164:4322   */\n      pop\n      jump\t// out\n        /* \"#utility.yul\":4328:4728   */\n    tag_127:\n        /* \"#utility.yul\":4488:4491   */\n      0x00\n        /* \"#utility.yul\":4509:4593   */\n      tag_201\n        /* \"#utility.yul\":4591:4592   */\n      0x08\n        /* \"#utility.yul\":4586:4589   */\n      dup4\n        /* \"#utility.yul\":4509:4593   */\n      tag_125\n      jump\t// in\n    tag_201:\n        /* \"#utility.yul\":4502:4593   */\n      swap2\n      pop\n        /* \"#utility.yul\":4602:4695   */\n      tag_202\n        /* \"#utility.yul\":4691:4694   */\n      dup3\n        /* \"#utility.yul\":4602:4695   */\n      tag_126\n      jump\t// in\n    tag_202:\n        /* \"#utility.yul\":4720:4721   */\n      0x08\n        /* \"#utility.yul\":4715:4718   */\n      dup3\n        /* \"#utility.yul\":4711:4722   */\n      add\n        /* \"#utility.yul\":4704:4722   */\n      swap1\n      pop\n        /* \"#utility.yul\":4328:4728   */\n      swap2\n      swap1\n      pop\n      jump\t// out\n        /* \"#utility.yul\":4734:4893   */\n    tag_128:\n        /* \"#utility.yul\":4874:4885   */\n      0x4d69737320796f752e0000000000000000000000000000000000000000000000\n        /* \"#utility.yul\":4870:4871   */\n      0x00\n        /* \"#utility.yul\":4862:4868   */\n      dup3\n        /* \"#utility.yul\":4858:4872   */\n      add\n        /* \"#utility.yul\":4851:4886   */\n      mstore\n        /* \"#utility.yul\":4734:4893   */\n      pop\n      jump\t// out\n        /* \"#utility.yul\":4899:5299   */\n    tag_129:\n        /* \"#utility.yul\":5059:5062   */\n      0x00\n        /* \"#utility.yul\":5080:5164   */\n      tag_205\n        /* \"#utility.yul\":5162:5163   */\n      0x09\n        /* \"#utility.yul\":5157:5160   */\n      dup4\n        /* \"#utility.yul\":5080:5164   */\n      tag_125\n      jump\t// in\n    tag_205:\n        /* \"#utility.yul\":5073:5164   */\n      swap2\n      pop\n        /* \"#utility.yul\":5173:5266   */\n      tag_206\n        /* \"#utility.yul\":5262:5265   */\n      dup3\n        /* \"#utility.yul\":5173:5266   */\n      tag_128\n      jump\t// in\n    tag_206:\n        /* \"#utility.yul\":5291:5292   */\n      0x09\n        /* \"#utility.yul\":5286:5289   */\n      dup3\n        /* \"#utility.yul\":5282:5293   */\n      add\n        /* \"#utility.yul\":5275:5293   */\n      swap1\n      pop\n        /* \"#utility.yul\":4899:5299   */\n      swap2\n      swap1\n      pop\n      jump\t// out\n        /* \"#utility.yul\":5305:5952   */\n    tag_63:\n        /* \"#utility.yul\":5591:5594   */\n      0x00\n        /* \"#utility.yul\":5613:5761   */\n      tag_208\n        /* \"#utility.yul\":5757:5760   */\n      dup3\n        /* \"#utility.yul\":5613:5761   */\n      tag_127\n      jump\t// in\n    tag_208:\n        /* \"#utility.yul\":5606:5761   */\n      swap2\n      pop\n        /* \"#utility.yul\":5778:5926   */\n      tag_209\n        /* \"#utility.yul\":5922:5925   */\n      dup3\n        /* \"#utility.yul\":5778:5926   */\n      tag_129\n      jump\t// in\n    tag_209:\n        /* \"#utility.yul\":5771:5926   */\n      swap2\n      pop\n        /* \"#utility.yul\":5943:5946   */\n      dup2\n        /* \"#utility.yul\":5936:5946   */\n      swap1\n      pop\n        /* \"#utility.yul\":5305:5952   */\n      swap2\n      swap1\n      pop\n      jump\t// out\n        /* \"#utility.yul\":5958:6043   */\n    tag_130:\n        /* \"#utility.yul\":6003:6010   */\n      0x00\n        /* \"#utility.yul\":6032:6037   */\n      dup2\n        /* \"#utility.yul\":6021:6037   */\n      swap1\n      pop\n        /* \"#utility.yul\":5958:6043   */\n      swap2\n      swap1\n      pop\n      jump\t// out\n        /* \"#utility.yul\":6049:6135   */\n    tag_131:\n        /* \"#utility.yul\":6084:6091   */\n      0x00\n        /* \"#utility.yul\":6124:6128   */\n      0xff\n        /* \"#utility.yul\":6117:6122   */\n      dup3\n        /* \"#utility.yul\":6113:6129   */\n      and\n        /* \"#utility.yul\":6102:6129   */\n      swap1\n      pop\n        /* \"#utility.yul\":6049:6135   */\n      swap2\n      swap1\n      pop\n      jump\t// out\n        /* \"#utility.yul\":6141:6201   */\n    tag_132:\n        /* \"#utility.yul\":6169:6172   */\n      0x00\n        /* \"#utility.yul\":6190:6195   */\n      dup2\n        /* \"#utility.yul\":6183:6195   */\n      swap1\n      pop\n        /* \"#utility.yul\":6141:6201   */\n      swap2\n      swap1\n      pop\n      jump\t// out\n        /* \"#utility.yul\":6207:6361   */\n    tag_133:\n        /* \"#utility.yul\":6263:6272   */\n      0x00\n        /* \"#utility.yul\":6296:6355   */\n      tag_214\n        /* \"#utility.yul\":6312:6354   */\n      tag_215\n        /* \"#utility.yul\":6321:6353   */\n      tag_216\n        /* \"#utility.yul\":6347:6352   */\n      dup5\n        /* \"#utility.yul\":6321:6353   */\n      tag_130\n      jump\t// in\n    tag_216:\n        /* \"#utility.yul\":6312:6354   */\n      tag_132\n      jump\t// in\n    tag_215:\n        /* \"#utility.yul\":6296:6355   */\n      tag_131\n      jump\t// in\n    tag_214:\n        /* \"#utility.yul\":6283:6355   */\n      swap1\n      pop\n        /* \"#utility.yul\":6207:6361   */\n      swap2\n      swap1\n      pop\n      jump\t// out\n        /* \"#utility.yul\":6367:6510   */\n    tag_134:\n        /* \"#utility.yul\":6460:6503   */\n      tag_218\n        /* \"#utility.yul\":6497:6502   */\n      dup2\n        /* \"#utility.yul\":6460:6503   */\n      tag_133\n      jump\t// in\n    tag_218:\n        /* \"#utility.yul\":6455:6458   */\n      dup3\n        /* \"#utility.yul\":6448:6504   */\n      mstore\n        /* \"#utility.yul\":6367:6510   */\n      pop\n      pop\n      jump\t// out\n        /* \"#utility.yul\":6516:6750   */\n    tag_66:\n        /* \"#utility.yul\":6615:6619   */\n      0x00\n        /* \"#utility.yul\":6653:6655   */\n      0x20\n        /* \"#utility.yul\":6642:6651   */\n      dup3\n        /* \"#utility.yul\":6638:6656   */\n      add\n        /* \"#utility.yul\":6630:6656   */\n      swap1\n      pop\n        /* \"#utility.yul\":6666:6743   */\n      tag_220\n        /* \"#utility.yul\":6740:6741   */\n      0x00\n        /* \"#utility.yul\":6729:6738   */\n      dup4\n        /* \"#utility.yul\":6725:6742   */\n      add\n        /* \"#utility.yul\":6716:6722   */\n      dup5\n        /* \"#utility.yul\":6666:6743   */\n      tag_134\n      jump\t// in\n    tag_220:\n        /* \"#utility.yul\":6516:6750   */\n      swap3\n      swap2\n      pop\n      pop\n      jump\t// out\n        /* \"#utility.yul\":6756:6917   */\n    tag_135:\n        /* \"#utility.yul\":6896:6909   */\n      0x736f6d6520737472696e67000000000000000000000000000000000000000000\n        /* \"#utility.yul\":6892:6893   */\n      0x00\n        /* \"#utility.yul\":6884:6890   */\n      dup3\n        /* \"#utility.yul\":6880:6894   */\n      add\n        /* \"#utility.yul\":6873:6910   */\n      mstore\n        /* \"#utility.yul\":6756:6917   */\n      pop\n      jump\t// out\n        /* \"#utility.yul\":6923:7325   */\n    tag_136:\n        /* \"#utility.yul\":7083:7086   */\n      0x00\n        /* \"#utility.yul\":7104:7189   */\n      tag_223\n        /* \"#utility.yul\":7186:7188   */\n      0x0b\n        /* \"#utility.yul\":7181:7184   */\n      dup4\n        /* \"#utility.yul\":7104:7189   */\n      tag_125\n      jump\t// in\n    tag_223:\n        /* \"#utility.yul\":7097:7189   */\n      swap2\n      pop\n        /* \"#utility.yul\":7198:7291   */\n      tag_224\n        /* \"#utility.yul\":7287:7290   */\n      dup3\n        /* \"#utility.yul\":7198:7291   */\n      tag_135\n      jump\t// in\n    tag_224:\n        /* \"#utility.yul\":7316:7318   */\n      0x0b\n        /* \"#utility.yul\":7311:7314   */\n      dup3\n        /* \"#utility.yul\":7307:7319   */\n      add\n        /* \"#utility.yul\":7300:7319   */\n      swap1\n      pop\n        /* \"#utility.yul\":6923:7325   */\n      swap2\n      swap1\n      pop\n      jump\t// out\n        /* \"#utility.yul\":7331:7712   */\n    tag_69:\n        /* \"#utility.yul\":7516:7519   */\n      0x00\n        /* \"#utility.yul\":7538:7686   */\n      tag_226\n        /* \"#utility.yul\":7682:7685   */\n      dup3\n        /* \"#utility.yul\":7538:7686   */\n      tag_136\n      jump\t// in\n    tag_226:\n        /* \"#utility.yul\":7531:7686   */\n      swap2\n      pop\n        /* \"#utility.yul\":7703:7706   */\n      dup2\n        /* \"#utility.yul\":7696:7706   */\n      swap1\n      pop\n        /* \"#utility.yul\":7331:7712   */\n      swap2\n      swap1\n      pop\n      jump\t// out\n        /* \"#utility.yul\":7718:7865   */\n    tag_137:\n        /* \"#utility.yul\":7819:7830   */\n      0x00\n        /* \"#utility.yul\":7856:7859   */\n      dup2\n        /* \"#utility.yul\":7841:7859   */\n      swap1\n      pop\n        /* \"#utility.yul\":7718:7865   */\n      swap3\n      swap2\n      pop\n      pop\n      jump\t// out\n        /* \"#utility.yul\":7871:7985   */\n    tag_138:\n      pop\n      jump\t// out\n        /* \"#utility.yul\":7991:8389   */\n    tag_139:\n        /* \"#utility.yul\":8150:8153   */\n      0x00\n        /* \"#utility.yul\":8171:8254   */\n      tag_230\n        /* \"#utility.yul\":8252:8253   */\n      0x00\n        /* \"#utility.yul\":8247:8250   */\n      dup4\n        /* \"#utility.yul\":8171:8254   */\n      tag_137\n      jump\t// in\n    tag_230:\n        /* \"#utility.yul\":8164:8254   */\n      swap2\n      pop\n        /* \"#utility.yul\":8263:8356   */\n      tag_231\n        /* \"#utility.yul\":8352:8355   */\n      dup3\n        /* \"#utility.yul\":8263:8356   */\n      tag_138\n      jump\t// in\n    tag_231:\n        /* \"#utility.yul\":8381:8382   */\n      0x00\n        /* \"#utility.yul\":8376:8379   */\n      dup3\n        /* \"#utility.yul\":8372:8383   */\n      add\n        /* \"#utility.yul\":8365:8383   */\n      swap1\n      pop\n        /* \"#utility.yul\":7991:8389   */\n      swap2\n      swap1\n      pop\n      jump\t// out\n        /* \"#utility.yul\":8395:8774   */\n    tag_73:\n        /* \"#utility.yul\":8579:8582   */\n      0x00\n        /* \"#utility.yul\":8601:8748   */\n      tag_233\n        /* \"#utility.yul\":8744:8747   */\n      dup3\n        /* \"#utility.yul\":8601:8748   */\n      tag_139\n      jump\t// in\n    tag_233:\n        /* \"#utility.yul\":8594:8748   */\n      swap2\n      pop\n        /* \"#utility.yul\":8765:8768   */\n      dup2\n        /* \"#utility.yul\":8758:8768   */\n      swap1\n      pop\n        /* \"#utility.yul\":8395:8774   */\n      swap2\n      swap1\n      pop\n      jump\t// out\n        /* \"#utility.yul\":8780:8945   */\n    tag_140:\n        /* \"#utility.yul\":8920:8937   */\n      0x5472616e73666572204661696c65640000000000000000000000000000000000\n        /* \"#utility.yul\":8916:8917   */\n      0x00\n        /* \"#utility.yul\":8908:8914   */\n      dup3\n        /* \"#utility.yul\":8904:8918   */\n      add\n        /* \"#utility.yul\":8897:8938   */\n      mstore\n        /* \"#utility.yul\":8780:8945   */\n      pop\n      jump\t// out\n        /* \"#utility.yul\":8951:9317   */\n    tag_141:\n        /* \"#utility.yul\":9093:9096   */\n      0x00\n        /* \"#utility.yul\":9114:9181   */\n      tag_236\n        /* \"#utility.yul\":9178:9180   */\n      0x0f\n        /* \"#utility.yul\":9173:9176   */\n      dup4\n        /* \"#utility.yul\":9114:9181   */\n      tag_111\n      jump\t// in\n    tag_236:\n        /* \"#utility.yul\":9107:9181   */\n      swap2\n      pop\n        /* \"#utility.yul\":9190:9283   */\n      tag_237\n        /* \"#utility.yul\":9279:9282   */\n      dup3\n        /* \"#utility.yul\":9190:9283   */\n      tag_140\n      jump\t// in\n    tag_237:\n        /* \"#utility.yul\":9308:9310   */\n      0x20\n        /* \"#utility.yul\":9303:9306   */\n      dup3\n        /* \"#utility.yul\":9299:9311   */\n      add\n        /* \"#utility.yul\":9292:9311   */\n      swap1\n      pop\n        /* \"#utility.yul\":8951:9317   */\n      swap2\n      swap1\n      pop\n      jump\t// out\n        /* \"#utility.yul\":9323:9742   */\n    tag_79:\n        /* \"#utility.yul\":9489:9493   */\n      0x00\n        /* \"#utility.yul\":9527:9529   */\n      0x20\n        /* \"#utility.yul\":9516:9525   */\n      dup3\n        /* \"#utility.yul\":9512:9530   */\n      add\n        /* \"#utility.yul\":9504:9530   */\n      swap1\n      pop\n        /* \"#utility.yul\":9576:9585   */\n      dup2\n        /* \"#utility.yul\":9570:9574   */\n      dup2\n        /* \"#utility.yul\":9566:9586   */\n      sub\n        /* \"#utility.yul\":9562:9563   */\n      0x00\n        /* \"#utility.yul\":9551:9560   */\n      dup4\n        /* \"#utility.yul\":9547:9564   */\n      add\n        /* \"#utility.yul\":9540:9587   */\n      mstore\n        /* \"#utility.yul\":9604:9735   */\n      tag_239\n        /* \"#utility.yul\":9730:9734   */\n      dup2\n        /* \"#utility.yul\":9604:9735   */\n      tag_141\n      jump\t// in\n    tag_239:\n        /* \"#utility.yul\":9596:9735   */\n      swap1\n      pop\n        /* \"#utility.yul\":9323:9742   */\n      swap2\n      swap1\n      pop\n      jump\t// out\n        /* \"#utility.yul\":9748:9865   */\n    tag_142:\n        /* \"#utility.yul\":9857:9858   */\n      0x00\n        /* \"#utility.yul\":9854:9855   */\n      dup1\n        /* \"#utility.yul\":9847:9859   */\n      revert\n        /* \"#utility.yul\":9871:9988   */\n    tag_143:\n        /* \"#utility.yul\":9980:9981   */\n      0x00\n        /* \"#utility.yul\":9977:9978   */\n      dup1\n        /* \"#utility.yul\":9970:9982   */\n      revert\n        /* \"#utility.yul\":9994:10174   */\n    tag_144:\n        /* \"#utility.yul\":10042:10119   */\n      0x4e487b7100000000000000000000000000000000000000000000000000000000\n        /* \"#utility.yul\":10039:10040   */\n      0x00\n        /* \"#utility.yul\":10032:10120   */\n      mstore\n        /* \"#utility.yul\":10139:10143   */\n      0x41\n        /* \"#utility.yul\":10136:10137   */\n      0x04\n        /* \"#utility.yul\":10129:10144   */\n      mstore\n        /* \"#utility.yul\":10163:10167   */\n      0x24\n        /* \"#utility.yul\":10160:10161   */\n      0x00\n        /* \"#utility.yul\":10153:10168   */\n      revert\n        /* \"#utility.yul\":10180:10461   */\n    tag_145:\n        /* \"#utility.yul\":10263:10290   */\n      tag_244\n        /* \"#utility.yul\":10285:10289   */\n      dup3\n        /* \"#utility.yul\":10263:10290   */\n      tag_113\n      jump\t// in\n    tag_244:\n        /* \"#utility.yul\":10255:10261   */\n      dup2\n        /* \"#utility.yul\":10251:10291   */\n      add\n        /* \"#utility.yul\":10393:10399   */\n      dup2\n        /* \"#utility.yul\":10381:10391   */\n      dup2\n        /* \"#utility.yul\":10378:10400   */\n      lt\n        /* \"#utility.yul\":10357:10375   */\n      0xffffffffffffffff\n        /* \"#utility.yul\":10345:10355   */\n      dup3\n        /* \"#utility.yul\":10342:10376   */\n      gt\n        /* \"#utility.yul\":10339:10401   */\n      or\n        /* \"#utility.yul\":10336:10424   */\n      iszero\n      tag_245\n      jumpi\n        /* \"#utility.yul\":10404:10422   */\n      tag_246\n      tag_144\n      jump\t// in\n    tag_246:\n        /* \"#utility.yul\":10336:10424   */\n    tag_245:\n        /* \"#utility.yul\":10444:10454   */\n      dup1\n        /* \"#utility.yul\":10440:10442   */\n      0x40\n        /* \"#utility.yul\":10433:10455   */\n      mstore\n        /* \"#utility.yul\":10223:10461   */\n      pop\n        /* \"#utility.yul\":10180:10461   */\n      pop\n      pop\n      jump\t// out\n        /* \"#utility.yul\":10467:10596   */\n    tag_146:\n        /* \"#utility.yul\":10501:10507   */\n      0x00\n        /* \"#utility.yul\":10528:10548   */\n      tag_248\n      tag_118\n      jump\t// in\n    tag_248:\n        /* \"#utility.yul\":10518:10548   */\n      swap1\n      pop\n        /* \"#utility.yul\":10557:10590   */\n      tag_249\n        /* \"#utility.yul\":10585:10589   */\n      dup3\n        /* \"#utility.yul\":10577:10583   */\n      dup3\n        /* \"#utility.yul\":10557:10590   */\n      tag_145\n      jump\t// in\n    tag_249:\n        /* \"#utility.yul\":10467:10596   */\n      swap2\n      swap1\n      pop\n      jump\t// out\n        /* \"#utility.yul\":10602:10910   */\n    tag_147:\n        /* \"#utility.yul\":10664:10668   */\n      0x00\n        /* \"#utility.yul\":10754:10772   */\n      0xffffffffffffffff\n        /* \"#utility.yul\":10746:10752   */\n      dup3\n        /* \"#utility.yul\":10743:10773   */\n      gt\n        /* \"#utility.yul\":10740:10796   */\n      iszero\n      tag_251\n      jumpi\n        /* \"#utility.yul\":10776:10794   */\n      tag_252\n      tag_144\n      jump\t// in\n    tag_252:\n        /* \"#utility.yul\":10740:10796   */\n    tag_251:\n        /* \"#utility.yul\":10814:10843   */\n      tag_253\n        /* \"#utility.yul\":10836:10842   */\n      dup3\n        /* \"#utility.yul\":10814:10843   */\n      tag_113\n      jump\t// in\n    tag_253:\n        /* \"#utility.yul\":10806:10843   */\n      swap1\n      pop\n        /* \"#utility.yul\":10898:10902   */\n      0x20\n        /* \"#utility.yul\":10892:10896   */\n      dup2\n        /* \"#utility.yul\":10888:10903   */\n      add\n        /* \"#utility.yul\":10880:10903   */\n      swap1\n      pop\n        /* \"#utility.yul\":10602:10910   */\n      swap2\n      swap1\n      pop\n      jump\t// out\n        /* \"#utility.yul\":10916:11350   */\n    tag_148:\n        /* \"#utility.yul\":11005:11010   */\n      0x00\n        /* \"#utility.yul\":11030:11096   */\n      tag_255\n        /* \"#utility.yul\":11046:11095   */\n      tag_256\n        /* \"#utility.yul\":11088:11094   */\n      dup5\n        /* \"#utility.yul\":11046:11095   */\n      tag_147\n      jump\t// in\n    tag_256:\n        /* \"#utility.yul\":11030:11096   */\n      tag_146\n      jump\t// in\n    tag_255:\n        /* \"#utility.yul\":11021:11096   */\n      swap1\n      pop\n        /* \"#utility.yul\":11119:11125   */\n      dup3\n        /* \"#utility.yul\":11112:11117   */\n      dup2\n        /* \"#utility.yul\":11105:11126   */\n      mstore\n        /* \"#utility.yul\":11157:11161   */\n      0x20\n        /* \"#utility.yul\":11150:11155   */\n      dup2\n        /* \"#utility.yul\":11146:11162   */\n      add\n        /* \"#utility.yul\":11195:11198   */\n      dup5\n        /* \"#utility.yul\":11186:11192   */\n      dup5\n        /* \"#utility.yul\":11181:11184   */\n      dup5\n        /* \"#utility.yul\":11177:11193   */\n      add\n        /* \"#utility.yul\":11174:11199   */\n      gt\n        /* \"#utility.yul\":11171:11283   */\n      iszero\n      tag_257\n      jumpi\n        /* \"#utility.yul\":11202:11281   */\n      tag_258\n      tag_143\n      jump\t// in\n    tag_258:\n        /* \"#utility.yul\":11171:11283   */\n    tag_257:\n        /* \"#utility.yul\":11292:11344   */\n      tag_259\n        /* \"#utility.yul\":11337:11343   */\n      dup5\n        /* \"#utility.yul\":11332:11335   */\n      dup3\n        /* \"#utility.yul\":11327:11330   */\n      dup6\n        /* \"#utility.yul\":11292:11344   */\n      tag_112\n      jump\t// in\n    tag_259:\n        /* \"#utility.yul\":11011:11350   */\n      pop\n        /* \"#utility.yul\":10916:11350   */\n      swap4\n      swap3\n      pop\n      pop\n      pop\n      jump\t// out\n        /* \"#utility.yul\":11370:11725   */\n    tag_149:\n        /* \"#utility.yul\":11437:11442   */\n      0x00\n        /* \"#utility.yul\":11486:11489   */\n      dup3\n        /* \"#utility.yul\":11479:11483   */\n      0x1f\n        /* \"#utility.yul\":11471:11477   */\n      dup4\n        /* \"#utility.yul\":11467:11484   */\n      add\n        /* \"#utility.yul\":11463:11490   */\n      slt\n        /* \"#utility.yul\":11453:11575   */\n      tag_261\n      jumpi\n        /* \"#utility.yul\":11494:11573   */\n      tag_262\n      tag_142\n      jump\t// in\n    tag_262:\n        /* \"#utility.yul\":11453:11575   */\n    tag_261:\n        /* \"#utility.yul\":11604:11610   */\n      dup2\n        /* \"#utility.yul\":11598:11611   */\n      mload\n        /* \"#utility.yul\":11629:11719   */\n      tag_263\n        /* \"#utility.yul\":11715:11718   */\n      dup5\n        /* \"#utility.yul\":11707:11713   */\n      dup3\n        /* \"#utility.yul\":11700:11704   */\n      0x20\n        /* \"#utility.yul\":11692:11698   */\n      dup7\n        /* \"#utility.yul\":11688:11705   */\n      add\n        /* \"#utility.yul\":11629:11719   */\n      tag_148\n      jump\t// in\n    tag_263:\n        /* \"#utility.yul\":11620:11719   */\n      swap2\n      pop\n        /* \"#utility.yul\":11443:11725   */\n      pop\n        /* \"#utility.yul\":11370:11725   */\n      swap3\n      swap2\n      pop\n      pop\n      jump\t// out\n        /* \"#utility.yul\":11731:12255   */\n    tag_85:\n        /* \"#utility.yul\":11811:11817   */\n      0x00\n        /* \"#utility.yul\":11860:11862   */\n      0x20\n        /* \"#utility.yul\":11848:11857   */\n      dup3\n        /* \"#utility.yul\":11839:11846   */\n      dup5\n        /* \"#utility.yul\":11835:11858   */\n      sub\n        /* \"#utility.yul\":11831:11863   */\n      slt\n        /* \"#utility.yul\":11828:11947   */\n      iszero\n      tag_265\n      jumpi\n        /* \"#utility.yul\":11866:11945   */\n      tag_266\n      tag_119\n      jump\t// in\n    tag_266:\n        /* \"#utility.yul\":11828:11947   */\n    tag_265:\n        /* \"#utility.yul\":12007:12008   */\n      0x00\n        /* \"#utility.yul\":11996:12005   */\n      dup3\n        /* \"#utility.yul\":11992:12009   */\n      add\n        /* \"#utility.yul\":11986:12010   */\n      mload\n        /* \"#utility.yul\":12037:12055   */\n      0xffffffffffffffff\n        /* \"#utility.yul\":12029:12035   */\n      dup2\n        /* \"#utility.yul\":12026:12056   */\n      gt\n        /* \"#utility.yul\":12023:12140   */\n      iszero\n      tag_267\n      jumpi\n        /* \"#utility.yul\":12059:12138   */\n      tag_268\n      tag_120\n      jump\t// in\n    tag_268:\n        /* \"#utility.yul\":12023:12140   */\n    tag_267:\n        /* \"#utility.yul\":12164:12238   */\n      tag_269\n        /* \"#utility.yul\":12230:12237   */\n      dup5\n        /* \"#utility.yul\":12221:12227   */\n      dup3\n        /* \"#utility.yul\":12210:12219   */\n      dup6\n        /* \"#utility.yul\":12206:12228   */\n      add\n        /* \"#utility.yul\":12164:12238   */\n      tag_149\n      jump\t// in\n    tag_269:\n        /* \"#utility.yul\":12154:12238   */\n      swap2\n      pop\n        /* \"#utility.yul\":11957:12248   */\n      pop\n        /* \"#utility.yul\":11731:12255   */\n      swap3\n      swap2\n      pop\n      pop\n      jump\t// out\n        /* \"#utility.yul\":12261:12430   */\n    tag_150:\n        /* \"#utility.yul\":12401:12422   */\n      0x5472616e736665722073756363657366756c6c00000000000000000000000000\n        /* \"#utility.yul\":12397:12398   */\n      0x00\n        /* \"#utility.yul\":12389:12395   */\n      dup3\n        /* \"#utility.yul\":12385:12399   */\n      add\n        /* \"#utility.yul\":12378:12423   */\n      mstore\n        /* \"#utility.yul\":12261:12430   */\n      pop\n      jump\t// out\n        /* \"#utility.yul\":12436:12802   */\n    tag_151:\n        /* \"#utility.yul\":12578:12581   */\n      0x00\n        /* \"#utility.yul\":12599:12666   */\n      tag_272\n        /* \"#utility.yul\":12663:12665   */\n      0x13\n        /* \"#utility.yul\":12658:12661   */\n      dup4\n        /* \"#utility.yul\":12599:12666   */\n      tag_111\n      jump\t// in\n    tag_272:\n        /* \"#utility.yul\":12592:12666   */\n      swap2\n      pop\n        /* \"#utility.yul\":12675:12768   */\n      tag_273\n        /* \"#utility.yul\":12764:12767   */\n      dup3\n        /* \"#utility.yul\":12675:12768   */\n      tag_150\n      jump\t// in\n    tag_273:\n        /* \"#utility.yul\":12793:12795   */\n      0x20\n        /* \"#utility.yul\":12788:12791   */\n      dup3\n        /* \"#utility.yul\":12784:12796   */\n      add\n        /* \"#utility.yul\":12777:12796   */\n      swap1\n      pop\n        /* \"#utility.yul\":12436:12802   */\n      swap2\n      swap1\n      pop\n      jump\t// out\n        /* \"#utility.yul\":12808:13227   */\n    tag_93:\n        /* \"#utility.yul\":12974:12978   */\n      0x00\n        /* \"#utility.yul\":13012:13014   */\n      0x20\n        /* \"#utility.yul\":13001:13010   */\n      dup3\n        /* \"#utility.yul\":12997:13015   */\n      add\n        /* \"#utility.yul\":12989:13015   */\n      swap1\n      pop\n        /* \"#utility.yul\":13061:13070   */\n      dup2\n        /* \"#utility.yul\":13055:13059   */\n      dup2\n        /* \"#utility.yul\":13051:13071   */\n      sub\n        /* \"#utility.yul\":13047:13048   */\n      0x00\n        /* \"#utility.yul\":13036:13045   */\n      dup4\n        /* \"#utility.yul\":13032:13049   */\n      add\n        /* \"#utility.yul\":13025:13072   */\n      mstore\n        /* \"#utility.yul\":13089:13220   */\n      tag_275\n        /* \"#utility.yul\":13215:13219   */\n      dup2\n        /* \"#utility.yul\":13089:13220   */\n      tag_151\n      jump\t// in\n    tag_275:\n        /* \"#utility.yul\":13081:13220   */\n      swap1\n      pop\n        /* \"#utility.yul\":12808:13227   */\n      swap2\n      swap1\n      pop\n      jump\t// out\n        /* \"#utility.yul\":13233:13599   */\n    tag_152:\n        /* \"#utility.yul\":13375:13378   */\n      0x00\n        /* \"#utility.yul\":13396:13463   */\n      tag_277\n        /* \"#utility.yul\":13460:13462   */\n      0x0b\n        /* \"#utility.yul\":13455:13458   */\n      dup4\n        /* \"#utility.yul\":13396:13463   */\n      tag_111\n      jump\t// in\n    tag_277:\n        /* \"#utility.yul\":13389:13463   */\n      swap2\n      pop\n        /* \"#utility.yul\":13472:13565   */\n      tag_278\n        /* \"#utility.yul\":13561:13564   */\n      dup3\n        /* \"#utility.yul\":13472:13565   */\n      tag_135\n      jump\t// in\n    tag_278:\n        /* \"#utility.yul\":13590:13592   */\n      0x20\n        /* \"#utility.yul\":13585:13588   */\n      dup3\n        /* \"#utility.yul\":13581:13593   */\n      add\n        /* \"#utility.yul\":13574:13593   */\n      swap1\n      pop\n        /* \"#utility.yul\":13233:13599   */\n      swap2\n      swap1\n      pop\n      jump\t// out\n        /* \"#utility.yul\":13605:13767   */\n    tag_153:\n        /* \"#utility.yul\":13745:13759   */\n      0x6974277320626967676572210000000000000000000000000000000000000000\n        /* \"#utility.yul\":13741:13742   */\n      0x00\n        /* \"#utility.yul\":13733:13739   */\n      dup3\n        /* \"#utility.yul\":13729:13743   */\n      add\n        /* \"#utility.yul\":13722:13760   */\n      mstore\n        /* \"#utility.yul\":13605:13767   */\n      pop\n      jump\t// out\n        /* \"#utility.yul\":13773:14139   */\n    tag_154:\n        /* \"#utility.yul\":13915:13918   */\n      0x00\n        /* \"#utility.yul\":13936:14003   */\n      tag_281\n        /* \"#utility.yul\":14000:14002   */\n      0x0c\n        /* \"#utility.yul\":13995:13998   */\n      dup4\n        /* \"#utility.yul\":13936:14003   */\n      tag_111\n      jump\t// in\n    tag_281:\n        /* \"#utility.yul\":13929:14003   */\n      swap2\n      pop\n        /* \"#utility.yul\":14012:14105   */\n      tag_282\n        /* \"#utility.yul\":14101:14104   */\n      dup3\n        /* \"#utility.yul\":14012:14105   */\n      tag_153\n      jump\t// in\n    tag_282:\n        /* \"#utility.yul\":14130:14132   */\n      0x20\n        /* \"#utility.yul\":14125:14128   */\n      dup3\n        /* \"#utility.yul\":14121:14133   */\n      add\n        /* \"#utility.yul\":14114:14133   */\n      swap1\n      pop\n        /* \"#utility.yul\":13773:14139   */\n      swap2\n      swap1\n      pop\n      jump\t// out\n        /* \"#utility.yul\":14145:14871   */\n    tag_96:\n        /* \"#utility.yul\":14412:14416   */\n      0x00\n        /* \"#utility.yul\":14450:14452   */\n      0x40\n        /* \"#utility.yul\":14439:14448   */\n      dup3\n        /* \"#utility.yul\":14435:14453   */\n      add\n        /* \"#utility.yul\":14427:14453   */\n      swap1\n      pop\n        /* \"#utility.yul\":14499:14508   */\n      dup2\n        /* \"#utility.yul\":14493:14497   */\n      dup2\n        /* \"#utility.yul\":14489:14509   */\n      sub\n        /* \"#utility.yul\":14485:14486   */\n      0x00\n        /* \"#utility.yul\":14474:14483   */\n      dup4\n        /* \"#utility.yul\":14470:14487   */\n      add\n        /* \"#utility.yul\":14463:14510   */\n      mstore\n        /* \"#utility.yul\":14527:14658   */\n      tag_284\n        /* \"#utility.yul\":14653:14657   */\n      dup2\n        /* \"#utility.yul\":14527:14658   */\n      tag_152\n      jump\t// in\n    tag_284:\n        /* \"#utility.yul\":14519:14658   */\n      swap1\n      pop\n        /* \"#utility.yul\":14705:14714   */\n      dup2\n        /* \"#utility.yul\":14699:14703   */\n      dup2\n        /* \"#utility.yul\":14695:14715   */\n      sub\n        /* \"#utility.yul\":14690:14692   */\n      0x20\n        /* \"#utility.yul\":14679:14688   */\n      dup4\n        /* \"#utility.yul\":14675:14693   */\n      add\n        /* \"#utility.yul\":14668:14716   */\n      mstore\n        /* \"#utility.yul\":14733:14864   */\n      tag_285\n        /* \"#utility.yul\":14859:14863   */\n      dup2\n        /* \"#utility.yul\":14733:14864   */\n      tag_154\n      jump\t// in\n    tag_285:\n        /* \"#utility.yul\":14725:14864   */\n      swap1\n      pop\n        /* \"#utility.yul\":14145:14871   */\n      swap2\n      swap1\n      pop\n      jump\t// out\n        /* \"#utility.yul\":14877:15279   */\n    tag_155:\n        /* \"#utility.yul\":15037:15040   */\n      0x00\n        /* \"#utility.yul\":15058:15143   */\n      tag_287\n        /* \"#utility.yul\":15140:15142   */\n      0x0c\n        /* \"#utility.yul\":15135:15138   */\n      dup4\n        /* \"#utility.yul\":15058:15143   */\n      tag_125\n      jump\t// in\n    tag_287:\n        /* \"#utility.yul\":15051:15143   */\n      swap2\n      pop\n        /* \"#utility.yul\":15152:15245   */\n      tag_288\n        /* \"#utility.yul\":15241:15244   */\n      dup3\n        /* \"#utility.yul\":15152:15245   */\n      tag_153\n      jump\t// in\n    tag_288:\n        /* \"#utility.yul\":15270:15272   */\n      0x0c\n        /* \"#utility.yul\":15265:15268   */\n      dup3\n        /* \"#utility.yul\":15261:15273   */\n      add\n        /* \"#utility.yul\":15254:15273   */\n      swap1\n      pop\n        /* \"#utility.yul\":14877:15279   */\n      swap2\n      swap1\n      pop\n      jump\t// out\n        /* \"#utility.yul\":15285:15932   */\n    tag_102:\n        /* \"#utility.yul\":15571:15574   */\n      0x00\n        /* \"#utility.yul\":15593:15741   */\n      tag_290\n        /* \"#utility.yul\":15737:15740   */\n      dup3\n        /* \"#utility.yul\":15593:15741   */\n      tag_136\n      jump\t// in\n    tag_290:\n        /* \"#utility.yul\":15586:15741   */\n      swap2\n      pop\n        /* \"#utility.yul\":15758:15906   */\n      tag_291\n        /* \"#utility.yul\":15902:15905   */\n      dup3\n        /* \"#utility.yul\":15758:15906   */\n      tag_155\n      jump\t// in\n    tag_291:\n        /* \"#utility.yul\":15751:15906   */\n      swap2\n      pop\n        /* \"#utility.yul\":15923:15926   */\n      dup2\n        /* \"#utility.yul\":15916:15926   */\n      swap1\n      pop\n        /* \"#utility.yul\":15285:15932   */\n      swap2\n      swap1\n      pop\n      jump\t// out\n        /* \"#utility.yul\":15938:16791   */\n    tag_106:\n        /* \"#utility.yul\":16037:16043   */\n      0x00\n        /* \"#utility.yul\":16045:16051   */\n      dup1\n        /* \"#utility.yul\":16094:16096   */\n      0x40\n        /* \"#utility.yul\":16082:16091   */\n      dup4\n        /* \"#utility.yul\":16073:16080   */\n      dup6\n        /* \"#utility.yul\":16069:16092   */\n      sub\n        /* \"#utility.yul\":16065:16097   */\n      slt\n        /* \"#utility.yul\":16062:16181   */\n      iszero\n      tag_293\n      jumpi\n        /* \"#utility.yul\":16100:16179   */\n      tag_294\n      tag_119\n      jump\t// in\n    tag_294:\n        /* \"#utility.yul\":16062:16181   */\n    tag_293:\n        /* \"#utility.yul\":16241:16242   */\n      0x00\n        /* \"#utility.yul\":16230:16239   */\n      dup4\n        /* \"#utility.yul\":16226:16243   */\n      add\n        /* \"#utility.yul\":16220:16244   */\n      mload\n        /* \"#utility.yul\":16271:16289   */\n      0xffffffffffffffff\n        /* \"#utility.yul\":16263:16269   */\n      dup2\n        /* \"#utility.yul\":16260:16290   */\n      gt\n        /* \"#utility.yul\":16257:16374   */\n      iszero\n      tag_295\n      jumpi\n        /* \"#utility.yul\":16293:16372   */\n      tag_296\n      tag_120\n      jump\t// in\n    tag_296:\n        /* \"#utility.yul\":16257:16374   */\n    tag_295:\n        /* \"#utility.yul\":16398:16472   */\n      tag_297\n        /* \"#utility.yul\":16464:16471   */\n      dup6\n        /* \"#utility.yul\":16455:16461   */\n      dup3\n        /* \"#utility.yul\":16444:16453   */\n      dup7\n        /* \"#utility.yul\":16440:16462   */\n      add\n        /* \"#utility.yul\":16398:16472   */\n      tag_149\n      jump\t// in\n    tag_297:\n        /* \"#utility.yul\":16388:16472   */\n      swap3\n      pop\n        /* \"#utility.yul\":16191:16482   */\n      pop\n        /* \"#utility.yul\":16542:16544   */\n      0x20\n        /* \"#utility.yul\":16531:16540   */\n      dup4\n        /* \"#utility.yul\":16527:16545   */\n      add\n        /* \"#utility.yul\":16521:16546   */\n      mload\n        /* \"#utility.yul\":16573:16591   */\n      0xffffffffffffffff\n        /* \"#utility.yul\":16565:16571   */\n      dup2\n        /* \"#utility.yul\":16562:16592   */\n      gt\n        /* \"#utility.yul\":16559:16676   */\n      iszero\n      tag_298\n      jumpi\n        /* \"#utility.yul\":16595:16674   */\n      tag_299\n      tag_120\n      jump\t// in\n    tag_299:\n        /* \"#utility.yul\":16559:16676   */\n    tag_298:\n        /* \"#utility.yul\":16700:16774   */\n      tag_300\n        /* \"#utility.yul\":16766:16773   */\n      dup6\n        /* \"#utility.yul\":16757:16763   */\n      dup3\n        /* \"#utility.yul\":16746:16755   */\n      dup7\n        /* \"#utility.yul\":16742:16764   */\n      add\n        /* \"#utility.yul\":16700:16774   */\n      tag_149\n      jump\t// in\n    tag_300:\n        /* \"#utility.yul\":16690:16774   */\n      swap2\n      pop\n        /* \"#utility.yul\":16492:16784   */\n      pop\n        /* \"#utility.yul\":15938:16791   */\n      swap3\n      pop\n      swap3\n      swap1\n      pop\n      jump\t// out\n        /* \"#utility.yul\":16797:17216   */\n    tag_109:\n        /* \"#utility.yul\":16963:16967   */\n      0x00\n        /* \"#utility.yul\":17001:17003   */\n      0x20\n        /* \"#utility.yul\":16990:16999   */\n      dup3\n        /* \"#utility.yul\":16986:17004   */\n      add\n        /* \"#utility.yul\":16978:17004   */\n      swap1\n      pop\n        /* \"#utility.yul\":17050:17059   */\n      dup2\n        /* \"#utility.yul\":17044:17048   */\n      dup2\n        /* \"#utility.yul\":17040:17060   */\n      sub\n        /* \"#utility.yul\":17036:17037   */\n      0x00\n        /* \"#utility.yul\":17025:17034   */\n      dup4\n        /* \"#utility.yul\":17021:17038   */\n      add\n        /* \"#utility.yul\":17014:17061   */\n      mstore\n        /* \"#utility.yul\":17078:17209   */\n      tag_302\n        /* \"#utility.yul\":17204:17208   */\n      dup2\n        /* \"#utility.yul\":17078:17209   */\n      tag_152\n      jump\t// in\n    tag_302:\n        /* \"#utility.yul\":17070:17209   */\n      swap1\n      pop\n        /* \"#utility.yul\":16797:17216   */\n      swap2\n      swap1\n      pop\n      jump\t// out\n\n    auxdata: 0xa26469706673582212202714f8a7787d0e73a97aceabb603ca9c6a52f75f1d76ee94c8f6cc1ffa5afc8164736f6c63430008140033\n}\n",
				"bytecode": {
					"linkReferences": {},
					"object": "608060405234801561000f575f80fd5b50610d018061001d5f395ff3fe608060405234801561000f575f80fd5b50600436106100cd575f3560e01c8063929b807e1161008a578063a77b036011610064578063a77b0360146101db578063b4748718146101f9578063c452d79b14610217578063ed5df36514610236576100cd565b8063929b807e1461018357806394e7c630146101a1578063a6dc49b8146101bd576100cd565b8063114a7610146100d157806315889d1a146100ef5780632085f4b91461010d578063406ec9f21461012b57806351cff8d91461014957806360ee46c314610165575b5f80fd5b6100d9610254565b6040516100e69190610604565b60405180910390f35b6100f7610279565b6040516101049190610676565b60405180910390f35b6101156102a6565b6040516101229190610676565b60405180910390f35b6101336102d0565b6040516101409190610676565b60405180910390f35b610163600480360381019061015e9190610701565b610312565b005b61016d6103be565b60405161017a9190610604565b60405180910390f35b61018b6103d2565b6040516101989190610604565b60405180910390f35b6101bb60048036038101906101b69190610701565b6103f9565b005b6101c56104a5565b6040516101d29190610676565b60405180910390f35b6101e36104cf565b6040516101f09190610604565b60405180910390f35b6102016104f6565b60405161020e9190610676565b60405180910390f35b61021f610520565b60405161022d92919061072c565b60405180910390f35b61023e610550565b60405161024b9190610676565b60405180910390f35b6060604051602001610265906107ff565b604051602081830303815290604052905090565b60605f600160405160200161028e919061086c565b60405160208183030381529060405290508091505090565b60605f6040516020016102b8906108cf565b60405160208183030381529060405290508091505090565b60605f6040518060400160405280600b81526020017f736f6d6520737472696e6700000000000000000000000000000000000000000081525090508091505090565b5f8173ffffffffffffffffffffffffffffffffffffffff164760405161033790610910565b5f6040518083038185875af1925050503d805f8114610371576040519150601f19603f3d011682016040523d82523d5f602084013e610376565b606091505b50509050806103ba576040517f08c379a00000000000000000000000000000000000000000000000000000000081526004016103b19061096e565b60405180910390fd5b5050565b60605f6103c96104f6565b90508091505090565b60605f6103dd6104f6565b8060200190518101906103f09190610aaa565b90508091505090565b5f8173ffffffffffffffffffffffffffffffffffffffff164760405161041e90610910565b5f6040518083038185875af1925050503d805f8114610458576040519150601f19603f3d011682016040523d82523d5f602084013e61045d565b606091505b50509050806104a1576040517f08c379a000000000000000000000000000000000000000000000000000000000815260040161049890610b3b565b60405180910390fd5b5050565b60605f6040516020016104b790610bc5565b60405160208183030381529060405290508091505090565b60605f6104da610550565b8060200190518101906104ed9190610aaa565b90508091505090565b60605f60405160200161050890610c18565b60405160208183030381529060405290508091505090565b6060805f8061052d6104a5565b8060200190518101906105409190610c37565b9150915081819350935050509091565b60605f60405160200161056290610cad565b60405160208183030381529060405290508091505090565b5f81519050919050565b5f82825260208201905092915050565b5f5b838110156105b1578082015181840152602081019050610596565b5f8484015250505050565b5f601f19601f8301169050919050565b5f6105d68261057a565b6105e08185610584565b93506105f0818560208601610594565b6105f9816105bc565b840191505092915050565b5f6020820190508181035f83015261061c81846105cc565b905092915050565b5f81519050919050565b5f82825260208201905092915050565b5f61064882610624565b610652818561062e565b9350610662818560208601610594565b61066b816105bc565b840191505092915050565b5f6020820190508181035f83015261068e818461063e565b905092915050565b5f604051905090565b5f80fd5b5f80fd5b5f73ffffffffffffffffffffffffffffffffffffffff82169050919050565b5f6106d0826106a7565b9050919050565b6106e0816106c6565b81146106ea575f80fd5b50565b5f813590506106fb816106d7565b92915050565b5f602082840312156107165761071561069f565b5b5f610723848285016106ed565b91505092915050565b5f6040820190508181035f83015261074481856105cc565b9050818103602083015261075881846105cc565b90509392505050565b5f81905092915050565b7f4869204d6f6d21200000000000000000000000000000000000000000000000005f82015250565b5f61079f600883610761565b91506107aa8261076b565b600882019050919050565b7f4d69737320796f752e00000000000000000000000000000000000000000000005f82015250565b5f6107e9600983610761565b91506107f4826107b5565b600982019050919050565b5f61080982610793565b9150610814826107dd565b9150819050919050565b5f819050919050565b5f60ff82169050919050565b5f819050919050565b5f61085661085161084c8461081e565b610833565b610827565b9050919050565b6108668161083c565b82525050565b5f60208201905061087f5f83018461085d565b92915050565b7f736f6d6520737472696e670000000000000000000000000000000000000000005f82015250565b5f6108b9600b83610761565b91506108c482610885565b600b82019050919050565b5f6108d9826108ad565b9150819050919050565b5f81905092915050565b50565b5f6108fb5f836108e3565b9150610906826108ed565b5f82019050919050565b5f61091a826108f0565b9150819050919050565b7f5472616e73666572204661696c656400000000000000000000000000000000005f82015250565b5f610958600f83610584565b915061096382610924565b602082019050919050565b5f6020820190508181035f8301526109858161094c565b9050919050565b5f80fd5b5f80fd5b7f4e487b71000000000000000000000000000000000000000000000000000000005f52604160045260245ffd5b6109ca826105bc565b810181811067ffffffffffffffff821117156109e9576109e8610994565b5b80604052505050565b5f6109fb610696565b9050610a0782826109c1565b919050565b5f67ffffffffffffffff821115610a2657610a25610994565b5b610a2f826105bc565b9050602081019050919050565b5f610a4e610a4984610a0c565b6109f2565b905082815260208101848484011115610a6a57610a69610990565b5b610a75848285610594565b509392505050565b5f82601f830112610a9157610a9061098c565b5b8151610aa1848260208601610a3c565b91505092915050565b5f60208284031215610abf57610abe61069f565b5b5f82015167ffffffffffffffff811115610adc57610adb6106a3565b5b610ae884828501610a7d565b91505092915050565b7f5472616e736665722073756363657366756c6c000000000000000000000000005f82015250565b5f610b25601383610584565b9150610b3082610af1565b602082019050919050565b5f6020820190508181035f830152610b5281610b19565b9050919050565b5f610b65600b83610584565b9150610b7082610885565b602082019050919050565b7f69742773206269676765722100000000000000000000000000000000000000005f82015250565b5f610baf600c83610584565b9150610bba82610b7b565b602082019050919050565b5f6040820190508181035f830152610bdc81610b59565b90508181036020830152610bef81610ba3565b9050919050565b5f610c02600c83610761565b9150610c0d82610b7b565b600c82019050919050565b5f610c22826108ad565b9150610c2d82610bf6565b9150819050919050565b5f8060408385031215610c4d57610c4c61069f565b5b5f83015167ffffffffffffffff811115610c6a57610c696106a3565b5b610c7685828601610a7d565b925050602083015167ffffffffffffffff811115610c9757610c966106a3565b5b610ca385828601610a7d565b9150509250929050565b5f6020820190508181035f830152610cc481610b59565b905091905056fea26469706673582212202714f8a7787d0e73a97aceabb603ca9c6a52f75f1d76ee94c8f6cc1ffa5afc8164736f6c63430008140033",
					"opcodes": "PUSH1 0x80 PUSH1 0x40 MSTORE CALLVALUE DUP1 ISZERO PUSH2 0xF JUMPI PUSH0 DUP1 REVERT JUMPDEST POP PUSH2 0xD01 DUP1 PUSH2 0x1D PUSH0 CODECOPY PUSH0 RETURN INVALID PUSH1 0x80 PUSH1 0x40 MSTORE CALLVALUE DUP1 ISZERO PUSH2 0xF JUMPI PUSH0 DUP1 REVERT JUMPDEST POP PUSH1 0x4 CALLDATASIZE LT PUSH2 0xCD JUMPI PUSH0 CALLDATALOAD PUSH1 0xE0 SHR DUP1 PUSH4 0x929B807E GT PUSH2 0x8A JUMPI DUP1 PUSH4 0xA77B0360 GT PUSH2 0x64 JUMPI DUP1 PUSH4 0xA77B0360 EQ PUSH2 0x1DB JUMPI DUP1 PUSH4 0xB4748718 EQ PUSH2 0x1F9 JUMPI DUP1 PUSH4 0xC452D79B EQ PUSH2 0x217 JUMPI DUP1 PUSH4 0xED5DF365 EQ PUSH2 0x236 JUMPI PUSH2 0xCD JUMP JUMPDEST DUP1 PUSH4 0x929B807E EQ PUSH2 0x183 JUMPI DUP1 PUSH4 0x94E7C630 EQ PUSH2 0x1A1 JUMPI DUP1 PUSH4 0xA6DC49B8 EQ PUSH2 0x1BD JUMPI PUSH2 0xCD JUMP JUMPDEST DUP1 PUSH4 0x114A7610 EQ PUSH2 0xD1 JUMPI DUP1 PUSH4 0x15889D1A EQ PUSH2 0xEF JUMPI DUP1 PUSH4 0x2085F4B9 EQ PUSH2 0x10D JUMPI DUP1 PUSH4 0x406EC9F2 EQ PUSH2 0x12B JUMPI DUP1 PUSH4 0x51CFF8D9 EQ PUSH2 0x149 JUMPI DUP1 PUSH4 0x60EE46C3 EQ PUSH2 0x165 JUMPI JUMPDEST PUSH0 DUP1 REVERT JUMPDEST PUSH2 0xD9 PUSH2 0x254 JUMP JUMPDEST PUSH1 0x40 MLOAD PUSH2 0xE6 SWAP2 SWAP1 PUSH2 0x604 JUMP JUMPDEST PUSH1 0x40 MLOAD DUP1 SWAP2 SUB SWAP1 RETURN JUMPDEST PUSH2 0xF7 PUSH2 0x279 JUMP JUMPDEST PUSH1 0x40 MLOAD PUSH2 0x104 SWAP2 SWAP1 PUSH2 0x676 JUMP JUMPDEST PUSH1 0x40 MLOAD DUP1 SWAP2 SUB SWAP1 RETURN JUMPDEST PUSH2 0x115 PUSH2 0x2A6 JUMP JUMPDEST PUSH1 0x40 MLOAD PUSH2 0x122 SWAP2 SWAP1 PUSH2 0x676 JUMP JUMPDEST PUSH1 0x40 MLOAD DUP1 SWAP2 SUB SWAP1 RETURN JUMPDEST PUSH2 0x133 PUSH2 0x2D0 JUMP JUMPDEST PUSH1 0x40 MLOAD PUSH2 0x140 SWAP2 SWAP1 PUSH2 0x676 JUMP JUMPDEST PUSH1 0x40 MLOAD DUP1 SWAP2 SUB SWAP1 RETURN JUMPDEST PUSH2 0x163 PUSH1 0x4 DUP1 CALLDATASIZE SUB DUP2 ADD SWAP1 PUSH2 0x15E SWAP2 SWAP1 PUSH2 0x701 JUMP JUMPDEST PUSH2 0x312 JUMP JUMPDEST STOP JUMPDEST PUSH2 0x16D PUSH2 0x3BE JUMP JUMPDEST PUSH1 0x40 MLOAD PUSH2 0x17A SWAP2 SWAP1 PUSH2 0x604 JUMP JUMPDEST PUSH1 0x40 MLOAD DUP1 SWAP2 SUB SWAP1 RETURN JUMPDEST PUSH2 0x18B PUSH2 0x3D2 JUMP JUMPDEST PUSH1 0x40 MLOAD PUSH2 0x198 SWAP2 SWAP1 PUSH2 0x604 JUMP JUMPDEST PUSH1 0x40 MLOAD DUP1 SWAP2 SUB SWAP1 RETURN JUMPDEST PUSH2 0x1BB PUSH1 0x4 DUP1 CALLDATASIZE SUB DUP2 ADD SWAP1 PUSH2 0x1B6 SWAP2 SWAP1 PUSH2 0x701 JUMP JUMPDEST PUSH2 0x3F9 JUMP JUMPDEST STOP JUMPDEST PUSH2 0x1C5 PUSH2 0x4A5 JUMP JUMPDEST PUSH1 0x40 MLOAD PUSH2 0x1D2 SWAP2 SWAP1 PUSH2 0x676 JUMP JUMPDEST PUSH1 0x40 MLOAD DUP1 SWAP2 SUB SWAP1 RETURN JUMPDEST PUSH2 0x1E3 PUSH2 0x4CF JUMP JUMPDEST PUSH1 0x40 MLOAD PUSH2 0x1F0 SWAP2 SWAP1 PUSH2 0x604 JUMP JUMPDEST PUSH1 0x40 MLOAD DUP1 SWAP2 SUB SWAP1 RETURN JUMPDEST PUSH2 0x201 PUSH2 0x4F6 JUMP JUMPDEST PUSH1 0x40 MLOAD PUSH2 0x20E SWAP2 SWAP1 PUSH2 0x676 JUMP JUMPDEST PUSH1 0x40 MLOAD DUP1 SWAP2 SUB SWAP1 RETURN JUMPDEST PUSH2 0x21F PUSH2 0x520 JUMP JUMPDEST PUSH1 0x40 MLOAD PUSH2 0x22D SWAP3 SWAP2 SWAP1 PUSH2 0x72C JUMP JUMPDEST PUSH1 0x40 MLOAD DUP1 SWAP2 SUB SWAP1 RETURN JUMPDEST PUSH2 0x23E PUSH2 0x550 JUMP JUMPDEST PUSH1 0x40 MLOAD PUSH2 0x24B SWAP2 SWAP1 PUSH2 0x676 JUMP JUMPDEST PUSH1 0x40 MLOAD DUP1 SWAP2 SUB SWAP1 RETURN JUMPDEST PUSH1 0x60 PUSH1 0x40 MLOAD PUSH1 0x20 ADD PUSH2 0x265 SWAP1 PUSH2 0x7FF JUMP JUMPDEST PUSH1 0x40 MLOAD PUSH1 0x20 DUP2 DUP4 SUB SUB DUP2 MSTORE SWAP1 PUSH1 0x40 MSTORE SWAP1 POP SWAP1 JUMP JUMPDEST PUSH1 0x60 PUSH0 PUSH1 0x1 PUSH1 0x40 MLOAD PUSH1 0x20 ADD PUSH2 0x28E SWAP2 SWAP1 PUSH2 0x86C JUMP JUMPDEST PUSH1 0x40 MLOAD PUSH1 0x20 DUP2 DUP4 SUB SUB DUP2 MSTORE SWAP1 PUSH1 0x40 MSTORE SWAP1 POP DUP1 SWAP2 POP POP SWAP1 JUMP JUMPDEST PUSH1 0x60 PUSH0 PUSH1 0x40 MLOAD PUSH1 0x20 ADD PUSH2 0x2B8 SWAP1 PUSH2 0x8CF JUMP JUMPDEST PUSH1 0x40 MLOAD PUSH1 0x20 DUP2 DUP4 SUB SUB DUP2 MSTORE SWAP1 PUSH1 0x40 MSTORE SWAP1 POP DUP1 SWAP2 POP POP SWAP1 JUMP JUMPDEST PUSH1 0x60 PUSH0 PUSH1 0x40 MLOAD DUP1 PUSH1 0x40 ADD PUSH1 0x40 MSTORE DUP1 PUSH1 0xB DUP2 MSTORE PUSH1 0x20 ADD PUSH32 0x736F6D6520737472696E67000000000000000000000000000000000000000000 DUP2 MSTORE POP SWAP1 POP DUP1 SWAP2 POP POP SWAP1 JUMP JUMPDEST PUSH0 DUP2 PUSH20 0xFFFFFFFFFFFFFFFFFFFFFFFFFFFFFFFFFFFFFFFF AND SELFBALANCE PUSH1 0x40 MLOAD PUSH2 0x337 SWAP1 PUSH2 0x910 JUMP JUMPDEST PUSH0 PUSH1 0x40 MLOAD DUP1 DUP4 SUB DUP2 DUP6 DUP8 GAS CALL SWAP3 POP POP POP RETURNDATASIZE DUP1 PUSH0 DUP2 EQ PUSH2 0x371 JUMPI PUSH1 0x40 MLOAD SWAP2 POP PUSH1 0x1F NOT PUSH1 0x3F RETURNDATASIZE ADD AND DUP3 ADD PUSH1 0x40 MSTORE RETURNDATASIZE DUP3 MSTORE RETURNDATASIZE PUSH0 PUSH1 0x20 DUP5 ADD RETURNDATACOPY PUSH2 0x376 JUMP JUMPDEST PUSH1 0x60 SWAP2 POP JUMPDEST POP POP SWAP1 POP DUP1 PUSH2 0x3BA JUMPI PUSH1 0x40 MLOAD PUSH32 0x8C379A000000000000000000000000000000000000000000000000000000000 DUP2 MSTORE PUSH1 0x4 ADD PUSH2 0x3B1 SWAP1 PUSH2 0x96E JUMP JUMPDEST PUSH1 0x40 MLOAD DUP1 SWAP2 SUB SWAP1 REVERT JUMPDEST POP POP JUMP JUMPDEST PUSH1 0x60 PUSH0 PUSH2 0x3C9 PUSH2 0x4F6 JUMP JUMPDEST SWAP1 POP DUP1 SWAP2 POP POP SWAP1 JUMP JUMPDEST PUSH1 0x60 PUSH0 PUSH2 0x3DD PUSH2 0x4F6 JUMP JUMPDEST DUP1 PUSH1 0x20 ADD SWAP1 MLOAD DUP2 ADD SWAP1 PUSH2 0x3F0 SWAP2 SWAP1 PUSH2 0xAAA JUMP JUMPDEST SWAP1 POP DUP1 SWAP2 POP POP SWAP1 JUMP JUMPDEST PUSH0 DUP2 PUSH20 0xFFFFFFFFFFFFFFFFFFFFFFFFFFFFFFFFFFFFFFFF AND SELFBALANCE PUSH1 0x40 MLOAD PUSH2 0x41E SWAP1 PUSH2 0x910 JUMP JUMPDEST PUSH0 PUSH1 0x40 MLOAD DUP1 DUP4 SUB DUP2 DUP6 DUP8 GAS CALL SWAP3 POP POP POP RETURNDATASIZE DUP1 PUSH0 DUP2 EQ PUSH2 0x458 JUMPI PUSH1 0x40 MLOAD SWAP2 POP PUSH1 0x1F NOT PUSH1 0x3F RETURNDATASIZE ADD AND DUP3 ADD PUSH1 0x40 MSTORE RETURNDATASIZE DUP3 MSTORE RETURNDATASIZE PUSH0 PUSH1 0x20 DUP5 ADD RETURNDATACOPY PUSH2 0x45D JUMP JUMPDEST PUSH1 0x60 SWAP2 POP JUMPDEST POP POP SWAP1 POP DUP1 PUSH2 0x4A1 JUMPI PUSH1 0x40 MLOAD PUSH32 0x8C379A000000000000000000000000000000000000000000000000000000000 DUP2 MSTORE PUSH1 0x4 ADD PUSH2 0x498 SWAP1 PUSH2 0xB3B JUMP JUMPDEST PUSH1 0x40 MLOAD DUP1 SWAP2 SUB SWAP1 REVERT JUMPDEST POP POP JUMP JUMPDEST PUSH1 0x60 PUSH0 PUSH1 0x40 MLOAD PUSH1 0x20 ADD PUSH2 0x4B7 SWAP1 PUSH2 0xBC5 JUMP JUMPDEST PUSH1 0x40 MLOAD PUSH1 0x20 DUP2 DUP4 SUB SUB DUP2 MSTORE SWAP1 PUSH1 0x40 MSTORE SWAP1 POP DUP1 SWAP2 POP POP SWAP1 JUMP JUMPDEST PUSH1 0x60 PUSH0 PUSH2 0x4DA PUSH2 0x550 JUMP JUMPDEST DUP1 PUSH1 0x20 ADD SWAP1 MLOAD DUP2 ADD SWAP1 PUSH2 0x4ED SWAP2 SWAP1 PUSH2 0xAAA JUMP JUMPDEST SWAP1 POP DUP1 SWAP2 POP POP SWAP1 JUMP JUMPDEST PUSH1 0x60 PUSH0 PUSH1 0x40 MLOAD PUSH1 0x20 ADD PUSH2 0x508 SWAP1 PUSH2 0xC18 JUMP JUMPDEST PUSH1 0x40 MLOAD PUSH1 0x20 DUP2 DUP4 SUB SUB DUP2 MSTORE SWAP1 PUSH1 0x40 MSTORE SWAP1 POP DUP1 SWAP2 POP POP SWAP1 JUMP JUMPDEST PUSH1 0x60 DUP1 PUSH0 DUP1 PUSH2 0x52D PUSH2 0x4A5 JUMP JUMPDEST DUP1 PUSH1 0x20 ADD SWAP1 MLOAD DUP2 ADD SWAP1 PUSH2 0x540 SWAP2 SWAP1 PUSH2 0xC37 JUMP JUMPDEST SWAP2 POP SWAP2 POP DUP2 DUP2 SWAP4 POP SWAP4 POP POP POP SWAP1 SWAP2 JUMP JUMPDEST PUSH1 0x60 PUSH0 PUSH1 0x40 MLOAD PUSH1 0x20 ADD PUSH2 0x562 SWAP1 PUSH2 0xCAD JUMP JUMPDEST PUSH1 0x40 MLOAD PUSH1 0x20 DUP2 DUP4 SUB SUB DUP2 MSTORE SWAP1 PUSH1 0x40 MSTORE SWAP1 POP DUP1 SWAP2 POP POP SWAP1 JUMP JUMPDEST PUSH0 DUP2 MLOAD SWAP1 POP SWAP2 SWAP1 POP JUMP JUMPDEST PUSH0 DUP3 DUP3 MSTORE PUSH1 0x20 DUP3 ADD SWAP1 POP SWAP3 SWAP2 POP POP JUMP JUMPDEST PUSH0 JUMPDEST DUP4 DUP2 LT ISZERO PUSH2 0x5B1 JUMPI DUP1 DUP3 ADD MLOAD DUP2 DUP5 ADD MSTORE PUSH1 0x20 DUP2 ADD SWAP1 POP PUSH2 0x596 JUMP JUMPDEST PUSH0 DUP5 DUP5 ADD MSTORE POP POP POP POP JUMP JUMPDEST PUSH0 PUSH1 0x1F NOT PUSH1 0x1F DUP4 ADD AND SWAP1 POP SWAP2 SWAP1 POP JUMP JUMPDEST PUSH0 PUSH2 0x5D6 DUP3 PUSH2 0x57A JUMP JUMPDEST PUSH2 0x5E0 DUP2 DUP6 PUSH2 0x584 JUMP JUMPDEST SWAP4 POP PUSH2 0x5F0 DUP2 DUP6 PUSH1 0x20 DUP7 ADD PUSH2 0x594 JUMP JUMPDEST PUSH2 0x5F9 DUP2 PUSH2 0x5BC JUMP JUMPDEST DUP5 ADD SWAP2 POP POP SWAP3 SWAP2 POP POP JUMP JUMPDEST PUSH0 PUSH1 0x20 DUP3 ADD SWAP1 POP DUP2 DUP2 SUB PUSH0 DUP4 ADD MSTORE PUSH2 0x61C DUP2 DUP5 PUSH2 0x5CC JUMP JUMPDEST SWAP1 POP SWAP3 SWAP2 POP POP JUMP JUMPDEST PUSH0 DUP2 MLOAD SWAP1 POP SWAP2 SWAP1 POP JUMP JUMPDEST PUSH0 DUP3 DUP3 MSTORE PUSH1 0x20 DUP3 ADD SWAP1 POP SWAP3 SWAP2 POP POP JUMP JUMPDEST PUSH0 PUSH2 0x648 DUP3 PUSH2 0x624 JUMP JUMPDEST PUSH2 0x652 DUP2 DUP6 PUSH2 0x62E JUMP JUMPDEST SWAP4 POP PUSH2 0x662 DUP2 DUP6 PUSH1 0x20 DUP7 ADD PUSH2 0x594 JUMP JUMPDEST PUSH2 0x66B DUP2 PUSH2 0x5BC JUMP JUMPDEST DUP5 ADD SWAP2 POP POP SWAP3 SWAP2 POP POP JUMP JUMPDEST PUSH0 PUSH1 0x20 DUP3 ADD SWAP1 POP DUP2 DUP2 SUB PUSH0 DUP4 ADD MSTORE PUSH2 0x68E DUP2 DUP5 PUSH2 0x63E JUMP JUMPDEST SWAP1 POP SWAP3 SWAP2 POP POP JUMP JUMPDEST PUSH0 PUSH1 0x40 MLOAD SWAP1 POP SWAP1 JUMP JUMPDEST PUSH0 DUP1 REVERT JUMPDEST PUSH0 DUP1 REVERT JUMPDEST PUSH0 PUSH20 0xFFFFFFFFFFFFFFFFFFFFFFFFFFFFFFFFFFFFFFFF DUP3 AND SWAP1 POP SWAP2 SWAP1 POP JUMP JUMPDEST PUSH0 PUSH2 0x6D0 DUP3 PUSH2 0x6A7 JUMP JUMPDEST SWAP1 POP SWAP2 SWAP1 POP JUMP JUMPDEST PUSH2 0x6E0 DUP2 PUSH2 0x6C6 JUMP JUMPDEST DUP2 EQ PUSH2 0x6EA JUMPI PUSH0 DUP1 REVERT JUMPDEST POP JUMP JUMPDEST PUSH0 DUP2 CALLDATALOAD SWAP1 POP PUSH2 0x6FB DUP2 PUSH2 0x6D7 JUMP JUMPDEST SWAP3 SWAP2 POP POP JUMP JUMPDEST PUSH0 PUSH1 0x20 DUP3 DUP5 SUB SLT ISZERO PUSH2 0x716 JUMPI PUSH2 0x715 PUSH2 0x69F JUMP JUMPDEST JUMPDEST PUSH0 PUSH2 0x723 DUP5 DUP3 DUP6 ADD PUSH2 0x6ED JUMP JUMPDEST SWAP2 POP POP SWAP3 SWAP2 POP POP JUMP JUMPDEST PUSH0 PUSH1 0x40 DUP3 ADD SWAP1 POP DUP2 DUP2 SUB PUSH0 DUP4 ADD MSTORE PUSH2 0x744 DUP2 DUP6 PUSH2 0x5CC JUMP JUMPDEST SWAP1 POP DUP2 DUP2 SUB PUSH1 0x20 DUP4 ADD MSTORE PUSH2 0x758 DUP2 DUP5 PUSH2 0x5CC JUMP JUMPDEST SWAP1 POP SWAP4 SWAP3 POP POP POP JUMP JUMPDEST PUSH0 DUP2 SWAP1 POP SWAP3 SWAP2 POP POP JUMP JUMPDEST PUSH32 0x4869204D6F6D2120000000000000000000000000000000000000000000000000 PUSH0 DUP3 ADD MSTORE POP JUMP JUMPDEST PUSH0 PUSH2 0x79F PUSH1 0x8 DUP4 PUSH2 0x761 JUMP JUMPDEST SWAP2 POP PUSH2 0x7AA DUP3 PUSH2 0x76B JUMP JUMPDEST PUSH1 0x8 DUP3 ADD SWAP1 POP SWAP2 SWAP1 POP JUMP JUMPDEST PUSH32 0x4D69737320796F752E0000000000000000000000000000000000000000000000 PUSH0 DUP3 ADD MSTORE POP JUMP JUMPDEST PUSH0 PUSH2 0x7E9 PUSH1 0x9 DUP4 PUSH2 0x761 JUMP JUMPDEST SWAP2 POP PUSH2 0x7F4 DUP3 PUSH2 0x7B5 JUMP JUMPDEST PUSH1 0x9 DUP3 ADD SWAP1 POP SWAP2 SWAP1 POP JUMP JUMPDEST PUSH0 PUSH2 0x809 DUP3 PUSH2 0x793 JUMP JUMPDEST SWAP2 POP PUSH2 0x814 DUP3 PUSH2 0x7DD JUMP JUMPDEST SWAP2 POP DUP2 SWAP1 POP SWAP2 SWAP1 POP JUMP JUMPDEST PUSH0 DUP2 SWAP1 POP SWAP2 SWAP1 POP JUMP JUMPDEST PUSH0 PUSH1 0xFF DUP3 AND SWAP1 POP SWAP2 SWAP1 POP JUMP JUMPDEST PUSH0 DUP2 SWAP1 POP SWAP2 SWAP1 POP JUMP JUMPDEST PUSH0 PUSH2 0x856 PUSH2 0x851 PUSH2 0x84C DUP5 PUSH2 0x81E JUMP JUMPDEST PUSH2 0x833 JUMP JUMPDEST PUSH2 0x827 JUMP JUMPDEST SWAP1 POP SWAP2 SWAP1 POP JUMP JUMPDEST PUSH2 0x866 DUP2 PUSH2 0x83C JUMP JUMPDEST DUP3 MSTORE POP POP JUMP JUMPDEST PUSH0 PUSH1 0x20 DUP3 ADD SWAP1 POP PUSH2 0x87F PUSH0 DUP4 ADD DUP5 PUSH2 0x85D JUMP JUMPDEST SWAP3 SWAP2 POP POP JUMP JUMPDEST PUSH32 0x736F6D6520737472696E67000000000000000000000000000000000000000000 PUSH0 DUP3 ADD MSTORE POP JUMP JUMPDEST PUSH0 PUSH2 0x8B9 PUSH1 0xB DUP4 PUSH2 0x761 JUMP JUMPDEST SWAP2 POP PUSH2 0x8C4 DUP3 PUSH2 0x885 JUMP JUMPDEST PUSH1 0xB DUP3 ADD SWAP1 POP SWAP2 SWAP1 POP JUMP JUMPDEST PUSH0 PUSH2 0x8D9 DUP3 PUSH2 0x8AD JUMP JUMPDEST SWAP2 POP DUP2 SWAP1 POP SWAP2 SWAP1 POP JUMP JUMPDEST PUSH0 DUP2 SWAP1 POP SWAP3 SWAP2 POP POP JUMP JUMPDEST POP JUMP JUMPDEST PUSH0 PUSH2 0x8FB PUSH0 DUP4 PUSH2 0x8E3 JUMP JUMPDEST SWAP2 POP PUSH2 0x906 DUP3 PUSH2 0x8ED JUMP JUMPDEST PUSH0 DUP3 ADD SWAP1 POP SWAP2 SWAP1 POP JUMP JUMPDEST PUSH0 PUSH2 0x91A DUP3 PUSH2 0x8F0 JUMP JUMPDEST SWAP2 POP DUP2 SWAP1 POP SWAP2 SWAP1 POP JUMP JUMPDEST PUSH32 0x5472616E73666572204661696C65640000000000000000000000000000000000 PUSH0 DUP3 ADD MSTORE POP JUMP JUMPDEST PUSH0 PUSH2 0x958 PUSH1 0xF DUP4 PUSH2 0x584 JUMP JUMPDEST SWAP2 POP PUSH2 0x963 DUP3 PUSH2 0x924 JUMP JUMPDEST PUSH1 0x20 DUP3 ADD SWAP1 POP SWAP2 SWAP1 POP JUMP JUMPDEST PUSH0 PUSH1 0x20 DUP3 ADD SWAP1 POP DUP2 DUP2 SUB PUSH0 DUP4 ADD MSTORE PUSH2 0x985 DUP2 PUSH2 0x94C JUMP JUMPDEST SWAP1 POP SWAP2 SWAP1 POP JUMP JUMPDEST PUSH0 DUP1 REVERT JUMPDEST PUSH0 DUP1 REVERT JUMPDEST PUSH32 0x4E487B7100000000000000000000000000000000000000000000000000000000 PUSH0 MSTORE PUSH1 0x41 PUSH1 0x4 MSTORE PUSH1 0x24 PUSH0 REVERT JUMPDEST PUSH2 0x9CA DUP3 PUSH2 0x5BC JUMP JUMPDEST DUP2 ADD DUP2 DUP2 LT PUSH8 0xFFFFFFFFFFFFFFFF DUP3 GT OR ISZERO PUSH2 0x9E9 JUMPI PUSH2 0x9E8 PUSH2 0x994 JUMP JUMPDEST JUMPDEST DUP1 PUSH1 0x40 MSTORE POP POP POP JUMP JUMPDEST PUSH0 PUSH2 0x9FB PUSH2 0x696 JUMP JUMPDEST SWAP1 POP PUSH2 0xA07 DUP3 DUP3 PUSH2 0x9C1 JUMP JUMPDEST SWAP2 SWAP1 POP JUMP JUMPDEST PUSH0 PUSH8 0xFFFFFFFFFFFFFFFF DUP3 GT ISZERO PUSH2 0xA26 JUMPI PUSH2 0xA25 PUSH2 0x994 JUMP JUMPDEST JUMPDEST PUSH2 0xA2F DUP3 PUSH2 0x5BC JUMP JUMPDEST SWAP1 POP PUSH1 0x20 DUP2 ADD SWAP1 POP SWAP2 SWAP1 POP JUMP JUMPDEST PUSH0 PUSH2 0xA4E PUSH2 0xA49 DUP5 PUSH2 0xA0C JUMP JUMPDEST PUSH2 0x9F2 JUMP JUMPDEST SWAP1 POP DUP3 DUP2 MSTORE PUSH1 0x20 DUP2 ADD DUP5 DUP5 DUP5 ADD GT ISZERO PUSH2 0xA6A JUMPI PUSH2 0xA69 PUSH2 0x990 JUMP JUMPDEST JUMPDEST PUSH2 0xA75 DUP5 DUP3 DUP6 PUSH2 0x594 JUMP JUMPDEST POP SWAP4 SWAP3 POP POP POP JUMP JUMPDEST PUSH0 DUP3 PUSH1 0x1F DUP4 ADD SLT PUSH2 0xA91 JUMPI PUSH2 0xA90 PUSH2 0x98C JUMP JUMPDEST JUMPDEST DUP2 MLOAD PUSH2 0xAA1 DUP5 DUP3 PUSH1 0x20 DUP7 ADD PUSH2 0xA3C JUMP JUMPDEST SWAP2 POP POP SWAP3 SWAP2 POP POP JUMP JUMPDEST PUSH0 PUSH1 0x20 DUP3 DUP5 SUB SLT ISZERO PUSH2 0xABF JUMPI PUSH2 0xABE PUSH2 0x69F JUMP JUMPDEST JUMPDEST PUSH0 DUP3 ADD MLOAD PUSH8 0xFFFFFFFFFFFFFFFF DUP2 GT ISZERO PUSH2 0xADC JUMPI PUSH2 0xADB PUSH2 0x6A3 JUMP JUMPDEST JUMPDEST PUSH2 0xAE8 DUP5 DUP3 DUP6 ADD PUSH2 0xA7D JUMP JUMPDEST SWAP2 POP POP SWAP3 SWAP2 POP POP JUMP JUMPDEST PUSH32 0x5472616E736665722073756363657366756C6C00000000000000000000000000 PUSH0 DUP3 ADD MSTORE POP JUMP JUMPDEST PUSH0 PUSH2 0xB25 PUSH1 0x13 DUP4 PUSH2 0x584 JUMP JUMPDEST SWAP2 POP PUSH2 0xB30 DUP3 PUSH2 0xAF1 JUMP JUMPDEST PUSH1 0x20 DUP3 ADD SWAP1 POP SWAP2 SWAP1 POP JUMP JUMPDEST PUSH0 PUSH1 0x20 DUP3 ADD SWAP1 POP DUP2 DUP2 SUB PUSH0 DUP4 ADD MSTORE PUSH2 0xB52 DUP2 PUSH2 0xB19 JUMP JUMPDEST SWAP1 POP SWAP2 SWAP1 POP JUMP JUMPDEST PUSH0 PUSH2 0xB65 PUSH1 0xB DUP4 PUSH2 0x584 JUMP JUMPDEST SWAP2 POP PUSH2 0xB70 DUP3 PUSH2 0x885 JUMP JUMPDEST PUSH1 0x20 DUP3 ADD SWAP1 POP SWAP2 SWAP1 POP JUMP JUMPDEST PUSH32 0x6974277320626967676572210000000000000000000000000000000000000000 PUSH0 DUP3 ADD MSTORE POP JUMP JUMPDEST PUSH0 PUSH2 0xBAF PUSH1 0xC DUP4 PUSH2 0x584 JUMP JUMPDEST SWAP2 POP PUSH2 0xBBA DUP3 PUSH2 0xB7B JUMP JUMPDEST PUSH1 0x20 DUP3 ADD SWAP1 POP SWAP2 SWAP1 POP JUMP JUMPDEST PUSH0 PUSH1 0x40 DUP3 ADD SWAP1 POP DUP2 DUP2 SUB PUSH0 DUP4 ADD MSTORE PUSH2 0xBDC DUP2 PUSH2 0xB59 JUMP JUMPDEST SWAP1 POP DUP2 DUP2 SUB PUSH1 0x20 DUP4 ADD MSTORE PUSH2 0xBEF DUP2 PUSH2 0xBA3 JUMP JUMPDEST SWAP1 POP SWAP2 SWAP1 POP JUMP JUMPDEST PUSH0 PUSH2 0xC02 PUSH1 0xC DUP4 PUSH2 0x761 JUMP JUMPDEST SWAP2 POP PUSH2 0xC0D DUP3 PUSH2 0xB7B JUMP JUMPDEST PUSH1 0xC DUP3 ADD SWAP1 POP SWAP2 SWAP1 POP JUMP JUMPDEST PUSH0 PUSH2 0xC22 DUP3 PUSH2 0x8AD JUMP JUMPDEST SWAP2 POP PUSH2 0xC2D DUP3 PUSH2 0xBF6 JUMP JUMPDEST SWAP2 POP DUP2 SWAP1 POP SWAP2 SWAP1 POP JUMP JUMPDEST PUSH0 DUP1 PUSH1 0x40 DUP4 DUP6 SUB SLT ISZERO PUSH2 0xC4D JUMPI PUSH2 0xC4C PUSH2 0x69F JUMP JUMPDEST JUMPDEST PUSH0 DUP4 ADD MLOAD PUSH8 0xFFFFFFFFFFFFFFFF DUP2 GT ISZERO PUSH2 0xC6A JUMPI PUSH2 0xC69 PUSH2 0x6A3 JUMP JUMPDEST JUMPDEST PUSH2 0xC76 DUP6 DUP3 DUP7 ADD PUSH2 0xA7D JUMP JUMPDEST SWAP3 POP POP PUSH1 0x20 DUP4 ADD MLOAD PUSH8 0xFFFFFFFFFFFFFFFF DUP2 GT ISZERO PUSH2 0xC97 JUMPI PUSH2 0xC96 PUSH2 0x6A3 JUMP JUMPDEST JUMPDEST PUSH2 0xCA3 DUP6 DUP3 DUP7 ADD PUSH2 0xA7D JUMP JUMPDEST SWAP2 POP POP SWAP3 POP SWAP3 SWAP1 POP JUMP JUMPDEST PUSH0 PUSH1 0x20 DUP3 ADD SWAP1 POP DUP2 DUP2 SUB PUSH0 DUP4 ADD MSTORE PUSH2 0xCC4 DUP2 PUSH2 0xB59 JUMP JUMPDEST SWAP1 POP SWAP2 SWAP1 POP JUMP INVALID LOG2 PUSH5 0x6970667358 0x22 SLT KECCAK256 0x27 EQ 0xF8 0xA7 PUSH25 0x7D0E73A97ACEABB603CA9C6A52F75F1D76EE94C8F6CC1FFA5A 0xFC DUP2 PUSH5 0x736F6C6343 STOP ADDMOD EQ STOP CALLER "
				},
				"gasEstimates": {
					"creation": {
						"codeDepositCost": "665800",
						"executionCost": "700",
						"totalCost": "666500"
					},
					"external": {
						"combineStrings()": "infinite",
						"decodeString()": "infinite",
						"encodeNumber()": "infinite",
						"encodeString()": "infinite",
						"encodeStringBytes()": "infinite",
						"encodeStringPacked()": "infinite",
						"multiDecode()": "infinite",
						"multiDecodePacked()": "infinite",
						"multiEncode()": "infinite",
						"multiEncodePacked()": "infinite",
						"multiStringCastPacked()": "infinite",
						"testingWithdraw(address)": "infinite",
						"withdraw(address)": "infinite"
					}
				},
				"methodIdentifiers": {
					"combineStrings()": "114a7610",
					"decodeString()": "a77b0360",
					"encodeNumber()": "15889d1a",
					"encodeString()": "ed5df365",
					"encodeStringBytes()": "406ec9f2",
					"encodeStringPacked()": "2085f4b9",
					"multiDecode()": "c452d79b",
					"multiDecodePacked()": "929b807e",
					"multiEncode()": "a6dc49b8",
					"multiEncodePacked()": "b4748718",
					"multiStringCastPacked()": "60ee46c3",
					"testingWithdraw(address)": "94e7c630",
					"withdraw(address)": "51cff8d9"
				}
			},
			"storageLayout": {
				"storage": [],
				"types": null
			},
			"userdoc": {
				"kind": "user",
				"methods": {},
				"version": 1
			}
		}
	}
}