{
	"Syntax Examples/encodeSomethig.sol": {
		"EncodeSomething": {
			"abi": [
				{
					"inputs": [],
					"name": "encode",
					"outputs": [
						{
							"internalType": "bytes",
							"name": "",
							"type": "bytes"
						}
					],
					"stateMutability": "pure",
					"type": "function"
				},
				{
					"inputs": [],
					"name": "encodePacked",
					"outputs": [
						{
							"internalType": "bytes",
							"name": "",
							"type": "bytes"
						}
					],
					"stateMutability": "pure",
					"type": "function"
				}
			],
			"devdoc": {
				"kind": "dev",
				"methods": {},
				"version": 1
			},
			"evm": {
				"assembly": "    /* \"Syntax Examples/encodeSomethig.sol\":57:489  contract EncodeSomething{... */\n  mstore(0x40, 0x80)\n  callvalue\n  dup1\n  iszero\n  tag_1\n  jumpi\n  0x00\n  dup1\n  revert\ntag_1:\n  pop\n  dataSize(sub_0)\n  dup1\n  dataOffset(sub_0)\n  0x00\n  codecopy\n  0x00\n  return\nstop\n\nsub_0: assembly {\n        /* \"Syntax Examples/encodeSomethig.sol\":57:489  contract EncodeSomething{... */\n      mstore(0x40, 0x80)\n      callvalue\n      dup1\n      iszero\n      tag_1\n      jumpi\n      0x00\n      dup1\n      revert\n    tag_1:\n      pop\n      jumpi(tag_2, lt(calldatasize, 0x04))\n      shr(0xe0, calldataload(0x00))\n      dup1\n      0x53d9c506\n      eq\n      tag_3\n      jumpi\n      dup1\n      0xbd14598f\n      eq\n      tag_4\n      jumpi\n    tag_2:\n      0x00\n      dup1\n      revert\n        /* \"Syntax Examples/encodeSomethig.sol\":343:487  function encodePacked() public  pure returns(bytes memory){... */\n    tag_3:\n      tag_5\n      tag_6\n      jump\t// in\n    tag_5:\n      mload(0x40)\n      tag_7\n      swap2\n      swap1\n      tag_8\n      jump\t// in\n    tag_7:\n      mload(0x40)\n      dup1\n      swap2\n      sub\n      swap1\n      return\n        /* \"Syntax Examples/encodeSomethig.sol\":217:337  function encode() public pure returns(bytes memory){... */\n    tag_4:\n      tag_9\n      tag_10\n      jump\t// in\n    tag_9:\n      mload(0x40)\n      tag_11\n      swap2\n      swap1\n      tag_8\n      jump\t// in\n    tag_11:\n      mload(0x40)\n      dup1\n      swap2\n      sub\n      swap1\n      return\n        /* \"Syntax Examples/encodeSomethig.sol\":343:487  function encodePacked() public  pure returns(bytes memory){... */\n    tag_6:\n        /* \"Syntax Examples/encodeSomethig.sol\":388:400  bytes memory */\n      0x60\n        /* \"Syntax Examples/encodeSomethig.sol\":411:428  bytes memory aNum */\n      0x00\n        /* \"Syntax Examples/encodeSomethig.sol\":431:459  abi.encodePacked(\"some num\") */\n      add(0x20, mload(0x40))\n      tag_13\n      swap1\n      tag_14\n      jump\t// in\n    tag_13:\n      mload(0x40)\n      0x20\n      dup2\n      dup4\n      sub\n      sub\n      dup2\n      mstore\n      swap1\n      0x40\n      mstore\n        /* \"Syntax Examples/encodeSomethig.sol\":411:459  bytes memory aNum = abi.encodePacked(\"some num\") */\n      swap1\n      pop\n        /* \"Syntax Examples/encodeSomethig.sol\":476:480  aNum */\n      dup1\n        /* \"Syntax Examples/encodeSomethig.sol\":469:480  return aNum */\n      swap2\n      pop\n      pop\n        /* \"Syntax Examples/encodeSomethig.sol\":343:487  function encodePacked() public  pure returns(bytes memory){... */\n      swap1\n      jump\t// out\n        /* \"Syntax Examples/encodeSomethig.sol\":217:337  function encode() public pure returns(bytes memory){... */\n    tag_10:\n        /* \"Syntax Examples/encodeSomethig.sol\":255:267  bytes memory */\n      0x60\n        /* \"Syntax Examples/encodeSomethig.sol\":278:294  bytes memory num */\n      0x00\n        /* \"Syntax Examples/encodeSomethig.sol\":308:309  1 */\n      0x01\n        /* \"Syntax Examples/encodeSomethig.sol\":297:310  abi.encode(1) */\n      add(0x20, mload(0x40))\n      tag_16\n      swap2\n      swap1\n      tag_17\n      jump\t// in\n    tag_16:\n      mload(0x40)\n      0x20\n      dup2\n      dup4\n      sub\n      sub\n      dup2\n      mstore\n      swap1\n      0x40\n      mstore\n        /* \"Syntax Examples/encodeSomethig.sol\":278:310  bytes memory num = abi.encode(1) */\n      swap1\n      pop\n        /* \"Syntax Examples/encodeSomethig.sol\":327:330  num */\n      dup1\n        /* \"Syntax Examples/encodeSomethig.sol\":320:330  return num */\n      swap2\n      pop\n      pop\n        /* \"Syntax Examples/encodeSomethig.sol\":217:337  function encode() public pure returns(bytes memory){... */\n      swap1\n      jump\t// out\n        /* \"#utility.yul\":7:105   */\n    tag_18:\n        /* \"#utility.yul\":58:64   */\n      0x00\n        /* \"#utility.yul\":92:97   */\n      dup2\n        /* \"#utility.yul\":86:98   */\n      mload\n        /* \"#utility.yul\":76:98   */\n      swap1\n      pop\n        /* \"#utility.yul\":7:105   */\n      swap2\n      swap1\n      pop\n      jump\t// out\n        /* \"#utility.yul\":111:279   */\n    tag_19:\n        /* \"#utility.yul\":194:205   */\n      0x00\n        /* \"#utility.yul\":228:234   */\n      dup3\n        /* \"#utility.yul\":223:226   */\n      dup3\n        /* \"#utility.yul\":216:235   */\n      mstore\n        /* \"#utility.yul\":268:272   */\n      0x20\n        /* \"#utility.yul\":263:266   */\n      dup3\n        /* \"#utility.yul\":259:273   */\n      add\n        /* \"#utility.yul\":244:273   */\n      swap1\n      pop\n        /* \"#utility.yul\":111:279   */\n      swap3\n      swap2\n      pop\n      pop\n      jump\t// out\n        /* \"#utility.yul\":285:531   */\n    tag_20:\n        /* \"#utility.yul\":366:367   */\n      0x00\n        /* \"#utility.yul\":376:489   */\n    tag_35:\n        /* \"#utility.yul\":390:396   */\n      dup4\n        /* \"#utility.yul\":387:388   */\n      dup2\n        /* \"#utility.yul\":384:397   */\n      lt\n        /* \"#utility.yul\":376:489   */\n      iszero\n      tag_37\n      jumpi\n        /* \"#utility.yul\":475:476   */\n      dup1\n        /* \"#utility.yul\":470:473   */\n      dup3\n        /* \"#utility.yul\":466:477   */\n      add\n        /* \"#utility.yul\":460:478   */\n      mload\n        /* \"#utility.yul\":456:457   */\n      dup2\n        /* \"#utility.yul\":451:454   */\n      dup5\n        /* \"#utility.yul\":447:458   */\n      add\n        /* \"#utility.yul\":440:479   */\n      mstore\n        /* \"#utility.yul\":412:414   */\n      0x20\n        /* \"#utility.yul\":409:410   */\n      dup2\n        /* \"#utility.yul\":405:415   */\n      add\n        /* \"#utility.yul\":400:415   */\n      swap1\n      pop\n        /* \"#utility.yul\":376:489   */\n      jump(tag_35)\n    tag_37:\n        /* \"#utility.yul\":523:524   */\n      0x00\n        /* \"#utility.yul\":514:520   */\n      dup5\n        /* \"#utility.yul\":509:512   */\n      dup5\n        /* \"#utility.yul\":505:521   */\n      add\n        /* \"#utility.yul\":498:525   */\n      mstore\n        /* \"#utility.yul\":347:531   */\n      pop\n        /* \"#utility.yul\":285:531   */\n      pop\n      pop\n      pop\n      jump\t// out\n        /* \"#utility.yul\":537:639   */\n    tag_21:\n        /* \"#utility.yul\":578:584   */\n      0x00\n        /* \"#utility.yul\":629:631   */\n      0x1f\n        /* \"#utility.yul\":625:632   */\n      not\n        /* \"#utility.yul\":620:622   */\n      0x1f\n        /* \"#utility.yul\":613:618   */\n      dup4\n        /* \"#utility.yul\":609:623   */\n      add\n        /* \"#utility.yul\":605:633   */\n      and\n        /* \"#utility.yul\":595:633   */\n      swap1\n      pop\n        /* \"#utility.yul\":537:639   */\n      swap2\n      swap1\n      pop\n      jump\t// out\n        /* \"#utility.yul\":645:1018   */\n    tag_22:\n        /* \"#utility.yul\":731:734   */\n      0x00\n        /* \"#utility.yul\":759:797   */\n      tag_40\n        /* \"#utility.yul\":791:796   */\n      dup3\n        /* \"#utility.yul\":759:797   */\n      tag_18\n      jump\t// in\n    tag_40:\n        /* \"#utility.yul\":813:883   */\n      tag_41\n        /* \"#utility.yul\":876:882   */\n      dup2\n        /* \"#utility.yul\":871:874   */\n      dup6\n        /* \"#utility.yul\":813:883   */\n      tag_19\n      jump\t// in\n    tag_41:\n        /* \"#utility.yul\":806:883   */\n      swap4\n      pop\n        /* \"#utility.yul\":892:957   */\n      tag_42\n        /* \"#utility.yul\":950:956   */\n      dup2\n        /* \"#utility.yul\":945:948   */\n      dup6\n        /* \"#utility.yul\":938:942   */\n      0x20\n        /* \"#utility.yul\":931:936   */\n      dup7\n        /* \"#utility.yul\":927:943   */\n      add\n        /* \"#utility.yul\":892:957   */\n      tag_20\n      jump\t// in\n    tag_42:\n        /* \"#utility.yul\":982:1011   */\n      tag_43\n        /* \"#utility.yul\":1004:1010   */\n      dup2\n        /* \"#utility.yul\":982:1011   */\n      tag_21\n      jump\t// in\n    tag_43:\n        /* \"#utility.yul\":977:980   */\n      dup5\n        /* \"#utility.yul\":973:1012   */\n      add\n        /* \"#utility.yul\":966:1012   */\n      swap2\n      pop\n        /* \"#utility.yul\":735:1018   */\n      pop\n        /* \"#utility.yul\":645:1018   */\n      swap3\n      swap2\n      pop\n      pop\n      jump\t// out\n        /* \"#utility.yul\":1024:1333   */\n    tag_8:\n        /* \"#utility.yul\":1135:1139   */\n      0x00\n        /* \"#utility.yul\":1173:1175   */\n      0x20\n        /* \"#utility.yul\":1162:1171   */\n      dup3\n        /* \"#utility.yul\":1158:1176   */\n      add\n        /* \"#utility.yul\":1150:1176   */\n      swap1\n      pop\n        /* \"#utility.yul\":1222:1231   */\n      dup2\n        /* \"#utility.yul\":1216:1220   */\n      dup2\n        /* \"#utility.yul\":1212:1232   */\n      sub\n        /* \"#utility.yul\":1208:1209   */\n      0x00\n        /* \"#utility.yul\":1197:1206   */\n      dup4\n        /* \"#utility.yul\":1193:1210   */\n      add\n        /* \"#utility.yul\":1186:1233   */\n      mstore\n        /* \"#utility.yul\":1250:1326   */\n      tag_45\n        /* \"#utility.yul\":1321:1325   */\n      dup2\n        /* \"#utility.yul\":1312:1318   */\n      dup5\n        /* \"#utility.yul\":1250:1326   */\n      tag_22\n      jump\t// in\n    tag_45:\n        /* \"#utility.yul\":1242:1326   */\n      swap1\n      pop\n        /* \"#utility.yul\":1024:1333   */\n      swap3\n      swap2\n      pop\n      pop\n      jump\t// out\n        /* \"#utility.yul\":1339:1487   */\n    tag_23:\n        /* \"#utility.yul\":1441:1452   */\n      0x00\n        /* \"#utility.yul\":1478:1481   */\n      dup2\n        /* \"#utility.yul\":1463:1481   */\n      swap1\n      pop\n        /* \"#utility.yul\":1339:1487   */\n      swap3\n      swap2\n      pop\n      pop\n      jump\t// out\n        /* \"#utility.yul\":1493:1651   */\n    tag_24:\n        /* \"#utility.yul\":1633:1643   */\n      0x736f6d65206e756d000000000000000000000000000000000000000000000000\n        /* \"#utility.yul\":1629:1630   */\n      0x00\n        /* \"#utility.yul\":1621:1627   */\n      dup3\n        /* \"#utility.yul\":1617:1631   */\n      add\n        /* \"#utility.yul\":1610:1644   */\n      mstore\n        /* \"#utility.yul\":1493:1651   */\n      pop\n      jump\t// out\n        /* \"#utility.yul\":1657:2057   */\n    tag_25:\n        /* \"#utility.yul\":1817:1820   */\n      0x00\n        /* \"#utility.yul\":1838:1922   */\n      tag_49\n        /* \"#utility.yul\":1920:1921   */\n      0x08\n        /* \"#utility.yul\":1915:1918   */\n      dup4\n        /* \"#utility.yul\":1838:1922   */\n      tag_23\n      jump\t// in\n    tag_49:\n        /* \"#utility.yul\":1831:1922   */\n      swap2\n      pop\n        /* \"#utility.yul\":1931:2024   */\n      tag_50\n        /* \"#utility.yul\":2020:2023   */\n      dup3\n        /* \"#utility.yul\":1931:2024   */\n      tag_24\n      jump\t// in\n    tag_50:\n        /* \"#utility.yul\":2049:2050   */\n      0x08\n        /* \"#utility.yul\":2044:2047   */\n      dup3\n        /* \"#utility.yul\":2040:2051   */\n      add\n        /* \"#utility.yul\":2033:2051   */\n      swap1\n      pop\n        /* \"#utility.yul\":1657:2057   */\n      swap2\n      swap1\n      pop\n      jump\t// out\n        /* \"#utility.yul\":2063:2444   */\n    tag_14:\n        /* \"#utility.yul\":2248:2251   */\n      0x00\n        /* \"#utility.yul\":2270:2418   */\n      tag_52\n        /* \"#utility.yul\":2414:2417   */\n      dup3\n        /* \"#utility.yul\":2270:2418   */\n      tag_25\n      jump\t// in\n    tag_52:\n        /* \"#utility.yul\":2263:2418   */\n      swap2\n      pop\n        /* \"#utility.yul\":2435:2438   */\n      dup2\n        /* \"#utility.yul\":2428:2438   */\n      swap1\n      pop\n        /* \"#utility.yul\":2063:2444   */\n      swap2\n      swap1\n      pop\n      jump\t// out\n        /* \"#utility.yul\":2450:2535   */\n    tag_26:\n        /* \"#utility.yul\":2495:2502   */\n      0x00\n        /* \"#utility.yul\":2524:2529   */\n      dup2\n        /* \"#utility.yul\":2513:2529   */\n      swap1\n      pop\n        /* \"#utility.yul\":2450:2535   */\n      swap2\n      swap1\n      pop\n      jump\t// out\n        /* \"#utility.yul\":2541:2627   */\n    tag_27:\n        /* \"#utility.yul\":2576:2583   */\n      0x00\n        /* \"#utility.yul\":2616:2620   */\n      0xff\n        /* \"#utility.yul\":2609:2614   */\n      dup3\n        /* \"#utility.yul\":2605:2621   */\n      and\n        /* \"#utility.yul\":2594:2621   */\n      swap1\n      pop\n        /* \"#utility.yul\":2541:2627   */\n      swap2\n      swap1\n      pop\n      jump\t// out\n        /* \"#utility.yul\":2633:2693   */\n    tag_28:\n        /* \"#utility.yul\":2661:2664   */\n      0x00\n        /* \"#utility.yul\":2682:2687   */\n      dup2\n        /* \"#utility.yul\":2675:2687   */\n      swap1\n      pop\n        /* \"#utility.yul\":2633:2693   */\n      swap2\n      swap1\n      pop\n      jump\t// out\n        /* \"#utility.yul\":2699:2853   */\n    tag_29:\n        /* \"#utility.yul\":2755:2764   */\n      0x00\n        /* \"#utility.yul\":2788:2847   */\n      tag_57\n        /* \"#utility.yul\":2804:2846   */\n      tag_58\n        /* \"#utility.yul\":2813:2845   */\n      tag_59\n        /* \"#utility.yul\":2839:2844   */\n      dup5\n        /* \"#utility.yul\":2813:2845   */\n      tag_26\n      jump\t// in\n    tag_59:\n        /* \"#utility.yul\":2804:2846   */\n      tag_28\n      jump\t// in\n    tag_58:\n        /* \"#utility.yul\":2788:2847   */\n      tag_27\n      jump\t// in\n    tag_57:\n        /* \"#utility.yul\":2775:2847   */\n      swap1\n      pop\n        /* \"#utility.yul\":2699:2853   */\n      swap2\n      swap1\n      pop\n      jump\t// out\n        /* \"#utility.yul\":2859:3002   */\n    tag_30:\n        /* \"#utility.yul\":2952:2995   */\n      tag_61\n        /* \"#utility.yul\":2989:2994   */\n      dup2\n        /* \"#utility.yul\":2952:2995   */\n      tag_29\n      jump\t// in\n    tag_61:\n        /* \"#utility.yul\":2947:2950   */\n      dup3\n        /* \"#utility.yul\":2940:2996   */\n      mstore\n        /* \"#utility.yul\":2859:3002   */\n      pop\n      pop\n      jump\t// out\n        /* \"#utility.yul\":3008:3242   */\n    tag_17:\n        /* \"#utility.yul\":3107:3111   */\n      0x00\n        /* \"#utility.yul\":3145:3147   */\n      0x20\n        /* \"#utility.yul\":3134:3143   */\n      dup3\n        /* \"#utility.yul\":3130:3148   */\n      add\n        /* \"#utility.yul\":3122:3148   */\n      swap1\n      pop\n        /* \"#utility.yul\":3158:3235   */\n      tag_63\n        /* \"#utility.yul\":3232:3233   */\n      0x00\n        /* \"#utility.yul\":3221:3230   */\n      dup4\n        /* \"#utility.yul\":3217:3234   */\n      add\n        /* \"#utility.yul\":3208:3214   */\n      dup5\n        /* \"#utility.yul\":3158:3235   */\n      tag_30\n      jump\t// in\n    tag_63:\n        /* \"#utility.yul\":3008:3242   */\n      swap3\n      swap2\n      pop\n      pop\n      jump\t// out\n\n    auxdata: 0xa26469706673582212203558d4a0786227341087b61b1704512b082b76f6a00e63cb0f9eef246f11e34364736f6c63430008140033\n}\n",
				"bytecode": {
					"linkReferences": {},
					"object": "608060405234801561000f575f80fd5b5061027a8061001d5f395ff3fe608060405234801561000f575f80fd5b5060043610610034575f3560e01c806353d9c50614610038578063bd14598f14610056575b5f80fd5b610040610074565b60405161004d9190610155565b60405180910390f35b61005e61009e565b60405161006b9190610155565b60405180910390f35b60605f604051602001610086906101c9565b60405160208183030381529060405290508091505090565b60605f60016040516020016100b3919061022b565b60405160208183030381529060405290508091505090565b5f81519050919050565b5f82825260208201905092915050565b5f5b838110156101025780820151818401526020810190506100e7565b5f8484015250505050565b5f601f19601f8301169050919050565b5f610127826100cb565b61013181856100d5565b93506101418185602086016100e5565b61014a8161010d565b840191505092915050565b5f6020820190508181035f83015261016d818461011d565b905092915050565b5f81905092915050565b7f736f6d65206e756d0000000000000000000000000000000000000000000000005f82015250565b5f6101b3600883610175565b91506101be8261017f565b600882019050919050565b5f6101d3826101a7565b9150819050919050565b5f819050919050565b5f60ff82169050919050565b5f819050919050565b5f61021561021061020b846101dd565b6101f2565b6101e6565b9050919050565b610225816101fb565b82525050565b5f60208201905061023e5f83018461021c565b9291505056fea26469706673582212203558d4a0786227341087b61b1704512b082b76f6a00e63cb0f9eef246f11e34364736f6c63430008140033",
					"opcodes": "PUSH1 0x80 PUSH1 0x40 MSTORE CALLVALUE DUP1 ISZERO PUSH2 0xF JUMPI PUSH0 DUP1 REVERT JUMPDEST POP PUSH2 0x27A DUP1 PUSH2 0x1D PUSH0 CODECOPY PUSH0 RETURN INVALID PUSH1 0x80 PUSH1 0x40 MSTORE CALLVALUE DUP1 ISZERO PUSH2 0xF JUMPI PUSH0 DUP1 REVERT JUMPDEST POP PUSH1 0x4 CALLDATASIZE LT PUSH2 0x34 JUMPI PUSH0 CALLDATALOAD PUSH1 0xE0 SHR DUP1 PUSH4 0x53D9C506 EQ PUSH2 0x38 JUMPI DUP1 PUSH4 0xBD14598F EQ PUSH2 0x56 JUMPI JUMPDEST PUSH0 DUP1 REVERT JUMPDEST PUSH2 0x40 PUSH2 0x74 JUMP JUMPDEST PUSH1 0x40 MLOAD PUSH2 0x4D SWAP2 SWAP1 PUSH2 0x155 JUMP JUMPDEST PUSH1 0x40 MLOAD DUP1 SWAP2 SUB SWAP1 RETURN JUMPDEST PUSH2 0x5E PUSH2 0x9E JUMP JUMPDEST PUSH1 0x40 MLOAD PUSH2 0x6B SWAP2 SWAP1 PUSH2 0x155 JUMP JUMPDEST PUSH1 0x40 MLOAD DUP1 SWAP2 SUB SWAP1 RETURN JUMPDEST PUSH1 0x60 PUSH0 PUSH1 0x40 MLOAD PUSH1 0x20 ADD PUSH2 0x86 SWAP1 PUSH2 0x1C9 JUMP JUMPDEST PUSH1 0x40 MLOAD PUSH1 0x20 DUP2 DUP4 SUB SUB DUP2 MSTORE SWAP1 PUSH1 0x40 MSTORE SWAP1 POP DUP1 SWAP2 POP POP SWAP1 JUMP JUMPDEST PUSH1 0x60 PUSH0 PUSH1 0x1 PUSH1 0x40 MLOAD PUSH1 0x20 ADD PUSH2 0xB3 SWAP2 SWAP1 PUSH2 0x22B JUMP JUMPDEST PUSH1 0x40 MLOAD PUSH1 0x20 DUP2 DUP4 SUB SUB DUP2 MSTORE SWAP1 PUSH1 0x40 MSTORE SWAP1 POP DUP1 SWAP2 POP POP SWAP1 JUMP JUMPDEST PUSH0 DUP2 MLOAD SWAP1 POP SWAP2 SWAP1 POP JUMP JUMPDEST PUSH0 DUP3 DUP3 MSTORE PUSH1 0x20 DUP3 ADD SWAP1 POP SWAP3 SWAP2 POP POP JUMP JUMPDEST PUSH0 JUMPDEST DUP4 DUP2 LT ISZERO PUSH2 0x102 JUMPI DUP1 DUP3 ADD MLOAD DUP2 DUP5 ADD MSTORE PUSH1 0x20 DUP2 ADD SWAP1 POP PUSH2 0xE7 JUMP JUMPDEST PUSH0 DUP5 DUP5 ADD MSTORE POP POP POP POP JUMP JUMPDEST PUSH0 PUSH1 0x1F NOT PUSH1 0x1F DUP4 ADD AND SWAP1 POP SWAP2 SWAP1 POP JUMP JUMPDEST PUSH0 PUSH2 0x127 DUP3 PUSH2 0xCB JUMP JUMPDEST PUSH2 0x131 DUP2 DUP6 PUSH2 0xD5 JUMP JUMPDEST SWAP4 POP PUSH2 0x141 DUP2 DUP6 PUSH1 0x20 DUP7 ADD PUSH2 0xE5 JUMP JUMPDEST PUSH2 0x14A DUP2 PUSH2 0x10D JUMP JUMPDEST DUP5 ADD SWAP2 POP POP SWAP3 SWAP2 POP POP JUMP JUMPDEST PUSH0 PUSH1 0x20 DUP3 ADD SWAP1 POP DUP2 DUP2 SUB PUSH0 DUP4 ADD MSTORE PUSH2 0x16D DUP2 DUP5 PUSH2 0x11D JUMP JUMPDEST SWAP1 POP SWAP3 SWAP2 POP POP JUMP JUMPDEST PUSH0 DUP2 SWAP1 POP SWAP3 SWAP2 POP POP JUMP JUMPDEST PUSH32 0x736F6D65206E756D000000000000000000000000000000000000000000000000 PUSH0 DUP3 ADD MSTORE POP JUMP JUMPDEST PUSH0 PUSH2 0x1B3 PUSH1 0x8 DUP4 PUSH2 0x175 JUMP JUMPDEST SWAP2 POP PUSH2 0x1BE DUP3 PUSH2 0x17F JUMP JUMPDEST PUSH1 0x8 DUP3 ADD SWAP1 POP SWAP2 SWAP1 POP JUMP JUMPDEST PUSH0 PUSH2 0x1D3 DUP3 PUSH2 0x1A7 JUMP JUMPDEST SWAP2 POP DUP2 SWAP1 POP SWAP2 SWAP1 POP JUMP JUMPDEST PUSH0 DUP2 SWAP1 POP SWAP2 SWAP1 POP JUMP JUMPDEST PUSH0 PUSH1 0xFF DUP3 AND SWAP1 POP SWAP2 SWAP1 POP JUMP JUMPDEST PUSH0 DUP2 SWAP1 POP SWAP2 SWAP1 POP JUMP JUMPDEST PUSH0 PUSH2 0x215 PUSH2 0x210 PUSH2 0x20B DUP5 PUSH2 0x1DD JUMP JUMPDEST PUSH2 0x1F2 JUMP JUMPDEST PUSH2 0x1E6 JUMP JUMPDEST SWAP1 POP SWAP2 SWAP1 POP JUMP JUMPDEST PUSH2 0x225 DUP2 PUSH2 0x1FB JUMP JUMPDEST DUP3 MSTORE POP POP JUMP JUMPDEST PUSH0 PUSH1 0x20 DUP3 ADD SWAP1 POP PUSH2 0x23E PUSH0 DUP4 ADD DUP5 PUSH2 0x21C JUMP JUMPDEST SWAP3 SWAP2 POP POP JUMP INVALID LOG2 PUSH5 0x6970667358 0x22 SLT KECCAK256 CALLDATALOAD PC 0xD4 LOG0 PUSH25 0x6227341087B61B1704512B082B76F6A00E63CB0F9EEF246F11 0xE3 NUMBER PUSH5 0x736F6C6343 STOP ADDMOD EQ STOP CALLER "
				},
				"gasEstimates": {
					"creation": {
						"codeDepositCost": "126800",
						"executionCost": "169",
						"totalCost": "126969"
					},
					"external": {
						"encode()": "infinite",
						"encodePacked()": "infinite"
					}
				},
				"methodIdentifiers": {
					"encode()": "bd14598f",
					"encodePacked()": "53d9c506"
				}
			},
			"storageLayout": {
				"storage": [],
				"types": null
			},
			"userdoc": {
				"kind": "user",
				"methods": {},
				"version": 1
			}
		}
	}
}