{
	"Solidity by example/refrenceTypes.sol": {
		"ReferenceTypesExample": {
			"abi": [
				{
					"inputs": [
						{
							"internalType": "uint256",
							"name": "newValue",
							"type": "uint256"
						}
					],
					"name": "modifyReferenceStruct",
					"outputs": [],
					"stateMutability": "nonpayable",
					"type": "function"
				},
				{
					"inputs": [
						{
							"internalType": "uint256",
							"name": "newValue",
							"type": "uint256"
						},
						{
							"internalType": "bool",
							"name": "newBool",
							"type": "bool"
						}
					],
					"name": "modifyValueStruct",
					"outputs": [],
					"stateMutability": "nonpayable",
					"type": "function"
				},
				{
					"inputs": [],
					"name": "referenceStructInstance",
					"outputs": [
						{
							"internalType": "uint256",
							"name": "intValue",
							"type": "uint256"
						}
					],
					"stateMutability": "view",
					"type": "function"
				},
				{
					"inputs": [],
					"name": "valueStructInstance",
					"outputs": [
						{
							"internalType": "uint256",
							"name": "intValue",
							"type": "uint256"
						},
						{
							"internalType": "bool",
							"name": "boolValue",
							"type": "bool"
						}
					],
					"stateMutability": "view",
					"type": "function"
				}
			],
			"devdoc": {
				"kind": "dev",
				"methods": {},
				"version": 1
			},
			"evm": {
				"assembly": "    /* \"Solidity by example/refrenceTypes.sol\":64:935  contract ReferenceTypesExample {... */\n  mstore(0x40, 0x80)\n  callvalue\n  dup1\n  iszero\n  tag_1\n  jumpi\n  0x00\n  dup1\n  revert\ntag_1:\n  pop\n  dataSize(sub_0)\n  dup1\n  dataOffset(sub_0)\n  0x00\n  codecopy\n  0x00\n  return\nstop\n\nsub_0: assembly {\n        /* \"Solidity by example/refrenceTypes.sol\":64:935  contract ReferenceTypesExample {... */\n      mstore(0x40, 0x80)\n      callvalue\n      dup1\n      iszero\n      tag_1\n      jumpi\n      0x00\n      dup1\n      revert\n    tag_1:\n      pop\n      jumpi(tag_2, lt(calldatasize, 0x04))\n      shr(0xe0, calldataload(0x00))\n      dup1\n      0x01017100\n      eq\n      tag_3\n      jumpi\n      dup1\n      0x28f6513d\n      eq\n      tag_4\n      jumpi\n      dup1\n      0x947d283a\n      eq\n      tag_5\n      jumpi\n      dup1\n      0xaaad0c39\n      eq\n      tag_6\n      jumpi\n    tag_2:\n      0x00\n      dup1\n      revert\n        /* \"Solidity by example/refrenceTypes.sol\":407:453  ReferenceStruct public referenceStructInstance */\n    tag_3:\n      tag_7\n      tag_8\n      jump\t// in\n    tag_7:\n      mload(0x40)\n      tag_9\n      swap2\n      swap1\n      tag_10\n      jump\t// in\n    tag_9:\n      mload(0x40)\n      dup1\n      swap2\n      sub\n      swap1\n      return\n        /* \"Solidity by example/refrenceTypes.sol\":363:401  ValueStruct public valueStructInstance */\n    tag_4:\n      tag_11\n      tag_12\n      jump\t// in\n    tag_11:\n      mload(0x40)\n      tag_13\n      swap3\n      swap2\n      swap1\n      tag_14\n      jump\t// in\n    tag_13:\n      mload(0x40)\n      dup1\n      swap2\n      sub\n      swap1\n      return\n        /* \"Solidity by example/refrenceTypes.sol\":754:933  function modifyReferenceStruct(uint256 newValue) public {... */\n    tag_5:\n      tag_15\n      0x04\n      dup1\n      calldatasize\n      sub\n      dup2\n      add\n      swap1\n      tag_16\n      swap2\n      swap1\n      tag_17\n      jump\t// in\n    tag_16:\n      tag_18\n      jump\t// in\n    tag_15:\n      stop\n        /* \"Solidity by example/refrenceTypes.sol\":512:683  function modifyValueStruct(uint256 newValue, bool newBool) public {... */\n    tag_6:\n      tag_19\n      0x04\n      dup1\n      calldatasize\n      sub\n      dup2\n      add\n      swap1\n      tag_20\n      swap2\n      swap1\n      tag_21\n      jump\t// in\n    tag_20:\n      tag_22\n      jump\t// in\n    tag_19:\n      stop\n        /* \"Solidity by example/refrenceTypes.sol\":407:453  ReferenceStruct public referenceStructInstance */\n    tag_8:\n      0x02\n      dup1\n      0x00\n      add\n      sload\n      swap1\n      pop\n      dup2\n      jump\t// out\n        /* \"Solidity by example/refrenceTypes.sol\":363:401  ValueStruct public valueStructInstance */\n    tag_12:\n      0x00\n      dup1\n      0x00\n      add\n      sload\n      swap1\n      dup1\n      0x01\n      add\n      0x00\n      swap1\n      sload\n      swap1\n      0x0100\n      exp\n      swap1\n      div\n      0xff\n      and\n      swap1\n      pop\n      dup3\n      jump\t// out\n        /* \"Solidity by example/refrenceTypes.sol\":754:933  function modifyReferenceStruct(uint256 newValue) public {... */\n    tag_18:\n        /* \"Solidity by example/refrenceTypes.sol\":855:863  newValue */\n      dup1\n        /* \"Solidity by example/refrenceTypes.sol\":820:843  referenceStructInstance */\n      0x02\n        /* \"Solidity by example/refrenceTypes.sol\":820:852  referenceStructInstance.intValue */\n      0x00\n      add\n        /* \"Solidity by example/refrenceTypes.sol\":820:863  referenceStructInstance.intValue = newValue */\n      dup2\n      swap1\n      sstore\n      pop\n        /* \"Solidity by example/refrenceTypes.sol\":873:896  referenceStructInstance */\n      0x02\n        /* \"Solidity by example/refrenceTypes.sol\":873:911  referenceStructInstance.referenceArray */\n      0x01\n      add\n        /* \"Solidity by example/refrenceTypes.sol\":917:925  newValue */\n      dup2\n        /* \"Solidity by example/refrenceTypes.sol\":873:926  referenceStructInstance.referenceArray.push(newValue) */\n      swap1\n      dup1\n      0x01\n      dup2\n      sload\n      add\n      dup1\n      dup3\n      sstore\n      dup1\n      swap2\n      pop\n      pop\n      0x01\n      swap1\n      sub\n      swap1\n      0x00\n      mstore\n      keccak256(0x00, 0x20)\n      add\n      0x00\n      swap1\n      swap2\n      swap1\n      swap2\n      swap1\n      swap2\n      pop\n      sstore\n        /* \"Solidity by example/refrenceTypes.sol\":754:933  function modifyReferenceStruct(uint256 newValue) public {... */\n      pop\n      jump\t// out\n        /* \"Solidity by example/refrenceTypes.sol\":512:683  function modifyValueStruct(uint256 newValue, bool newBool) public {... */\n    tag_22:\n        /* \"Solidity by example/refrenceTypes.sol\":619:627  newValue */\n      dup2\n        /* \"Solidity by example/refrenceTypes.sol\":588:607  valueStructInstance */\n      0x00\n        /* \"Solidity by example/refrenceTypes.sol\":588:616  valueStructInstance.intValue */\n      dup1\n      add\n        /* \"Solidity by example/refrenceTypes.sol\":588:627  valueStructInstance.intValue = newValue */\n      dup2\n      swap1\n      sstore\n      pop\n        /* \"Solidity by example/refrenceTypes.sol\":669:676  newBool */\n      dup1\n        /* \"Solidity by example/refrenceTypes.sol\":637:656  valueStructInstance */\n      0x00\n        /* \"Solidity by example/refrenceTypes.sol\":637:666  valueStructInstance.boolValue */\n      0x01\n      add\n      0x00\n        /* \"Solidity by example/refrenceTypes.sol\":637:676  valueStructInstance.boolValue = newBool */\n      0x0100\n      exp\n      dup2\n      sload\n      dup2\n      0xff\n      mul\n      not\n      and\n      swap1\n      dup4\n      iszero\n      iszero\n      mul\n      or\n      swap1\n      sstore\n      pop\n        /* \"Solidity by example/refrenceTypes.sol\":512:683  function modifyValueStruct(uint256 newValue, bool newBool) public {... */\n      pop\n      pop\n      jump\t// out\n        /* \"#utility.yul\":7:84   */\n    tag_26:\n        /* \"#utility.yul\":44:51   */\n      0x00\n        /* \"#utility.yul\":73:78   */\n      dup2\n        /* \"#utility.yul\":62:78   */\n      swap1\n      pop\n        /* \"#utility.yul\":7:84   */\n      swap2\n      swap1\n      pop\n      jump\t// out\n        /* \"#utility.yul\":90:208   */\n    tag_27:\n        /* \"#utility.yul\":177:201   */\n      tag_40\n        /* \"#utility.yul\":195:200   */\n      dup2\n        /* \"#utility.yul\":177:201   */\n      tag_26\n      jump\t// in\n    tag_40:\n        /* \"#utility.yul\":172:175   */\n      dup3\n        /* \"#utility.yul\":165:202   */\n      mstore\n        /* \"#utility.yul\":90:208   */\n      pop\n      pop\n      jump\t// out\n        /* \"#utility.yul\":214:436   */\n    tag_10:\n        /* \"#utility.yul\":307:311   */\n      0x00\n        /* \"#utility.yul\":345:347   */\n      0x20\n        /* \"#utility.yul\":334:343   */\n      dup3\n        /* \"#utility.yul\":330:348   */\n      add\n        /* \"#utility.yul\":322:348   */\n      swap1\n      pop\n        /* \"#utility.yul\":358:429   */\n      tag_42\n        /* \"#utility.yul\":426:427   */\n      0x00\n        /* \"#utility.yul\":415:424   */\n      dup4\n        /* \"#utility.yul\":411:428   */\n      add\n        /* \"#utility.yul\":402:408   */\n      dup5\n        /* \"#utility.yul\":358:429   */\n      tag_27\n      jump\t// in\n    tag_42:\n        /* \"#utility.yul\":214:436   */\n      swap3\n      swap2\n      pop\n      pop\n      jump\t// out\n        /* \"#utility.yul\":442:532   */\n    tag_28:\n        /* \"#utility.yul\":476:483   */\n      0x00\n        /* \"#utility.yul\":519:524   */\n      dup2\n        /* \"#utility.yul\":512:525   */\n      iszero\n        /* \"#utility.yul\":505:526   */\n      iszero\n        /* \"#utility.yul\":494:526   */\n      swap1\n      pop\n        /* \"#utility.yul\":442:532   */\n      swap2\n      swap1\n      pop\n      jump\t// out\n        /* \"#utility.yul\":538:647   */\n    tag_29:\n        /* \"#utility.yul\":619:640   */\n      tag_45\n        /* \"#utility.yul\":634:639   */\n      dup2\n        /* \"#utility.yul\":619:640   */\n      tag_28\n      jump\t// in\n    tag_45:\n        /* \"#utility.yul\":614:617   */\n      dup3\n        /* \"#utility.yul\":607:641   */\n      mstore\n        /* \"#utility.yul\":538:647   */\n      pop\n      pop\n      jump\t// out\n        /* \"#utility.yul\":653:973   */\n    tag_14:\n        /* \"#utility.yul\":768:772   */\n      0x00\n        /* \"#utility.yul\":806:808   */\n      0x40\n        /* \"#utility.yul\":795:804   */\n      dup3\n        /* \"#utility.yul\":791:809   */\n      add\n        /* \"#utility.yul\":783:809   */\n      swap1\n      pop\n        /* \"#utility.yul\":819:890   */\n      tag_47\n        /* \"#utility.yul\":887:888   */\n      0x00\n        /* \"#utility.yul\":876:885   */\n      dup4\n        /* \"#utility.yul\":872:889   */\n      add\n        /* \"#utility.yul\":863:869   */\n      dup6\n        /* \"#utility.yul\":819:890   */\n      tag_27\n      jump\t// in\n    tag_47:\n        /* \"#utility.yul\":900:966   */\n      tag_48\n        /* \"#utility.yul\":962:964   */\n      0x20\n        /* \"#utility.yul\":951:960   */\n      dup4\n        /* \"#utility.yul\":947:965   */\n      add\n        /* \"#utility.yul\":938:944   */\n      dup5\n        /* \"#utility.yul\":900:966   */\n      tag_29\n      jump\t// in\n    tag_48:\n        /* \"#utility.yul\":653:973   */\n      swap4\n      swap3\n      pop\n      pop\n      pop\n      jump\t// out\n        /* \"#utility.yul\":1060:1177   */\n    tag_31:\n        /* \"#utility.yul\":1169:1170   */\n      0x00\n        /* \"#utility.yul\":1166:1167   */\n      dup1\n        /* \"#utility.yul\":1159:1171   */\n      revert\n        /* \"#utility.yul\":1306:1428   */\n    tag_33:\n        /* \"#utility.yul\":1379:1403   */\n      tag_53\n        /* \"#utility.yul\":1397:1402   */\n      dup2\n        /* \"#utility.yul\":1379:1403   */\n      tag_26\n      jump\t// in\n    tag_53:\n        /* \"#utility.yul\":1372:1377   */\n      dup2\n        /* \"#utility.yul\":1369:1404   */\n      eq\n        /* \"#utility.yul\":1359:1422   */\n      tag_54\n      jumpi\n        /* \"#utility.yul\":1418:1419   */\n      0x00\n        /* \"#utility.yul\":1415:1416   */\n      dup1\n        /* \"#utility.yul\":1408:1420   */\n      revert\n        /* \"#utility.yul\":1359:1422   */\n    tag_54:\n        /* \"#utility.yul\":1306:1428   */\n      pop\n      jump\t// out\n        /* \"#utility.yul\":1434:1573   */\n    tag_34:\n        /* \"#utility.yul\":1480:1485   */\n      0x00\n        /* \"#utility.yul\":1518:1524   */\n      dup2\n        /* \"#utility.yul\":1505:1525   */\n      calldataload\n        /* \"#utility.yul\":1496:1525   */\n      swap1\n      pop\n        /* \"#utility.yul\":1534:1567   */\n      tag_56\n        /* \"#utility.yul\":1561:1566   */\n      dup2\n        /* \"#utility.yul\":1534:1567   */\n      tag_33\n      jump\t// in\n    tag_56:\n        /* \"#utility.yul\":1434:1573   */\n      swap3\n      swap2\n      pop\n      pop\n      jump\t// out\n        /* \"#utility.yul\":1579:1908   */\n    tag_17:\n        /* \"#utility.yul\":1638:1644   */\n      0x00\n        /* \"#utility.yul\":1687:1689   */\n      0x20\n        /* \"#utility.yul\":1675:1684   */\n      dup3\n        /* \"#utility.yul\":1666:1673   */\n      dup5\n        /* \"#utility.yul\":1662:1685   */\n      sub\n        /* \"#utility.yul\":1658:1690   */\n      slt\n        /* \"#utility.yul\":1655:1774   */\n      iszero\n      tag_58\n      jumpi\n        /* \"#utility.yul\":1693:1772   */\n      tag_59\n      tag_31\n      jump\t// in\n    tag_59:\n        /* \"#utility.yul\":1655:1774   */\n    tag_58:\n        /* \"#utility.yul\":1813:1814   */\n      0x00\n        /* \"#utility.yul\":1838:1891   */\n      tag_60\n        /* \"#utility.yul\":1883:1890   */\n      dup5\n        /* \"#utility.yul\":1874:1880   */\n      dup3\n        /* \"#utility.yul\":1863:1872   */\n      dup6\n        /* \"#utility.yul\":1859:1881   */\n      add\n        /* \"#utility.yul\":1838:1891   */\n      tag_34\n      jump\t// in\n    tag_60:\n        /* \"#utility.yul\":1828:1891   */\n      swap2\n      pop\n        /* \"#utility.yul\":1784:1901   */\n      pop\n        /* \"#utility.yul\":1579:1908   */\n      swap3\n      swap2\n      pop\n      pop\n      jump\t// out\n        /* \"#utility.yul\":1914:2030   */\n    tag_35:\n        /* \"#utility.yul\":1984:2005   */\n      tag_62\n        /* \"#utility.yul\":1999:2004   */\n      dup2\n        /* \"#utility.yul\":1984:2005   */\n      tag_28\n      jump\t// in\n    tag_62:\n        /* \"#utility.yul\":1977:1982   */\n      dup2\n        /* \"#utility.yul\":1974:2006   */\n      eq\n        /* \"#utility.yul\":1964:2024   */\n      tag_63\n      jumpi\n        /* \"#utility.yul\":2020:2021   */\n      0x00\n        /* \"#utility.yul\":2017:2018   */\n      dup1\n        /* \"#utility.yul\":2010:2022   */\n      revert\n        /* \"#utility.yul\":1964:2024   */\n    tag_63:\n        /* \"#utility.yul\":1914:2030   */\n      pop\n      jump\t// out\n        /* \"#utility.yul\":2036:2169   */\n    tag_36:\n        /* \"#utility.yul\":2079:2084   */\n      0x00\n        /* \"#utility.yul\":2117:2123   */\n      dup2\n        /* \"#utility.yul\":2104:2124   */\n      calldataload\n        /* \"#utility.yul\":2095:2124   */\n      swap1\n      pop\n        /* \"#utility.yul\":2133:2163   */\n      tag_65\n        /* \"#utility.yul\":2157:2162   */\n      dup2\n        /* \"#utility.yul\":2133:2163   */\n      tag_35\n      jump\t// in\n    tag_65:\n        /* \"#utility.yul\":2036:2169   */\n      swap3\n      swap2\n      pop\n      pop\n      jump\t// out\n        /* \"#utility.yul\":2175:2643   */\n    tag_21:\n        /* \"#utility.yul\":2240:2246   */\n      0x00\n        /* \"#utility.yul\":2248:2254   */\n      dup1\n        /* \"#utility.yul\":2297:2299   */\n      0x40\n        /* \"#utility.yul\":2285:2294   */\n      dup4\n        /* \"#utility.yul\":2276:2283   */\n      dup6\n        /* \"#utility.yul\":2272:2295   */\n      sub\n        /* \"#utility.yul\":2268:2300   */\n      slt\n        /* \"#utility.yul\":2265:2384   */\n      iszero\n      tag_67\n      jumpi\n        /* \"#utility.yul\":2303:2382   */\n      tag_68\n      tag_31\n      jump\t// in\n    tag_68:\n        /* \"#utility.yul\":2265:2384   */\n    tag_67:\n        /* \"#utility.yul\":2423:2424   */\n      0x00\n        /* \"#utility.yul\":2448:2501   */\n      tag_69\n        /* \"#utility.yul\":2493:2500   */\n      dup6\n        /* \"#utility.yul\":2484:2490   */\n      dup3\n        /* \"#utility.yul\":2473:2482   */\n      dup7\n        /* \"#utility.yul\":2469:2491   */\n      add\n        /* \"#utility.yul\":2448:2501   */\n      tag_34\n      jump\t// in\n    tag_69:\n        /* \"#utility.yul\":2438:2501   */\n      swap3\n      pop\n        /* \"#utility.yul\":2394:2511   */\n      pop\n        /* \"#utility.yul\":2550:2552   */\n      0x20\n        /* \"#utility.yul\":2576:2626   */\n      tag_70\n        /* \"#utility.yul\":2618:2625   */\n      dup6\n        /* \"#utility.yul\":2609:2615   */\n      dup3\n        /* \"#utility.yul\":2598:2607   */\n      dup7\n        /* \"#utility.yul\":2594:2616   */\n      add\n        /* \"#utility.yul\":2576:2626   */\n      tag_36\n      jump\t// in\n    tag_70:\n        /* \"#utility.yul\":2566:2626   */\n      swap2\n      pop\n        /* \"#utility.yul\":2521:2636   */\n      pop\n        /* \"#utility.yul\":2175:2643   */\n      swap3\n      pop\n      swap3\n      swap1\n      pop\n      jump\t// out\n\n    auxdata: 0xa26469706673582212204ed143dcb842ecb04118064777e29d41fb0bacf04e75ceb8e281a4acf18d6cb564736f6c63430008160033\n}\n",
				"bytecode": {
					"linkReferences": {},
					"object": "608060405234801561000f575f80fd5b506102af8061001d5f395ff3fe608060405234801561000f575f80fd5b506004361061004a575f3560e01c8063010171001461004e57806328f6513d1461006c578063947d283a1461008b578063aaad0c39146100a7575b5f80fd5b6100566100c3565b604051610063919061015e565b60405180910390f35b6100746100ce565b604051610082929190610191565b60405180910390f35b6100a560048036038101906100a091906101e6565b6100ea565b005b6100c160048036038101906100bc919061023b565b61011f565b005b6002805f0154905081565b5f805f015490806001015f9054906101000a900460ff16905082565b8060025f0181905550600260010181908060018154018082558091505060019003905f5260205f20015f909190919091505550565b815f800181905550805f6001015f6101000a81548160ff0219169083151502179055505050565b5f819050919050565b61015881610146565b82525050565b5f6020820190506101715f83018461014f565b92915050565b5f8115159050919050565b61018b81610177565b82525050565b5f6040820190506101a45f83018561014f565b6101b16020830184610182565b9392505050565b5f80fd5b6101c581610146565b81146101cf575f80fd5b50565b5f813590506101e0816101bc565b92915050565b5f602082840312156101fb576101fa6101b8565b5b5f610208848285016101d2565b91505092915050565b61021a81610177565b8114610224575f80fd5b50565b5f8135905061023581610211565b92915050565b5f8060408385031215610251576102506101b8565b5b5f61025e858286016101d2565b925050602061026f85828601610227565b915050925092905056fea26469706673582212204ed143dcb842ecb04118064777e29d41fb0bacf04e75ceb8e281a4acf18d6cb564736f6c63430008160033",
					"opcodes": "PUSH1 0x80 PUSH1 0x40 MSTORE CALLVALUE DUP1 ISZERO PUSH2 0xF JUMPI PUSH0 DUP1 REVERT JUMPDEST POP PUSH2 0x2AF DUP1 PUSH2 0x1D PUSH0 CODECOPY PUSH0 RETURN INVALID PUSH1 0x80 PUSH1 0x40 MSTORE CALLVALUE DUP1 ISZERO PUSH2 0xF JUMPI PUSH0 DUP1 REVERT JUMPDEST POP PUSH1 0x4 CALLDATASIZE LT PUSH2 0x4A JUMPI PUSH0 CALLDATALOAD PUSH1 0xE0 SHR DUP1 PUSH4 0x1017100 EQ PUSH2 0x4E JUMPI DUP1 PUSH4 0x28F6513D EQ PUSH2 0x6C JUMPI DUP1 PUSH4 0x947D283A EQ PUSH2 0x8B JUMPI DUP1 PUSH4 0xAAAD0C39 EQ PUSH2 0xA7 JUMPI JUMPDEST PUSH0 DUP1 REVERT JUMPDEST PUSH2 0x56 PUSH2 0xC3 JUMP JUMPDEST PUSH1 0x40 MLOAD PUSH2 0x63 SWAP2 SWAP1 PUSH2 0x15E JUMP JUMPDEST PUSH1 0x40 MLOAD DUP1 SWAP2 SUB SWAP1 RETURN JUMPDEST PUSH2 0x74 PUSH2 0xCE JUMP JUMPDEST PUSH1 0x40 MLOAD PUSH2 0x82 SWAP3 SWAP2 SWAP1 PUSH2 0x191 JUMP JUMPDEST PUSH1 0x40 MLOAD DUP1 SWAP2 SUB SWAP1 RETURN JUMPDEST PUSH2 0xA5 PUSH1 0x4 DUP1 CALLDATASIZE SUB DUP2 ADD SWAP1 PUSH2 0xA0 SWAP2 SWAP1 PUSH2 0x1E6 JUMP JUMPDEST PUSH2 0xEA JUMP JUMPDEST STOP JUMPDEST PUSH2 0xC1 PUSH1 0x4 DUP1 CALLDATASIZE SUB DUP2 ADD SWAP1 PUSH2 0xBC SWAP2 SWAP1 PUSH2 0x23B JUMP JUMPDEST PUSH2 0x11F JUMP JUMPDEST STOP JUMPDEST PUSH1 0x2 DUP1 PUSH0 ADD SLOAD SWAP1 POP DUP2 JUMP JUMPDEST PUSH0 DUP1 PUSH0 ADD SLOAD SWAP1 DUP1 PUSH1 0x1 ADD PUSH0 SWAP1 SLOAD SWAP1 PUSH2 0x100 EXP SWAP1 DIV PUSH1 0xFF AND SWAP1 POP DUP3 JUMP JUMPDEST DUP1 PUSH1 0x2 PUSH0 ADD DUP2 SWAP1 SSTORE POP PUSH1 0x2 PUSH1 0x1 ADD DUP2 SWAP1 DUP1 PUSH1 0x1 DUP2 SLOAD ADD DUP1 DUP3 SSTORE DUP1 SWAP2 POP POP PUSH1 0x1 SWAP1 SUB SWAP1 PUSH0 MSTORE PUSH1 0x20 PUSH0 KECCAK256 ADD PUSH0 SWAP1 SWAP2 SWAP1 SWAP2 SWAP1 SWAP2 POP SSTORE POP JUMP JUMPDEST DUP2 PUSH0 DUP1 ADD DUP2 SWAP1 SSTORE POP DUP1 PUSH0 PUSH1 0x1 ADD PUSH0 PUSH2 0x100 EXP DUP2 SLOAD DUP2 PUSH1 0xFF MUL NOT AND SWAP1 DUP4 ISZERO ISZERO MUL OR SWAP1 SSTORE POP POP POP JUMP JUMPDEST PUSH0 DUP2 SWAP1 POP SWAP2 SWAP1 POP JUMP JUMPDEST PUSH2 0x158 DUP2 PUSH2 0x146 JUMP JUMPDEST DUP3 MSTORE POP POP JUMP JUMPDEST PUSH0 PUSH1 0x20 DUP3 ADD SWAP1 POP PUSH2 0x171 PUSH0 DUP4 ADD DUP5 PUSH2 0x14F JUMP JUMPDEST SWAP3 SWAP2 POP POP JUMP JUMPDEST PUSH0 DUP2 ISZERO ISZERO SWAP1 POP SWAP2 SWAP1 POP JUMP JUMPDEST PUSH2 0x18B DUP2 PUSH2 0x177 JUMP JUMPDEST DUP3 MSTORE POP POP JUMP JUMPDEST PUSH0 PUSH1 0x40 DUP3 ADD SWAP1 POP PUSH2 0x1A4 PUSH0 DUP4 ADD DUP6 PUSH2 0x14F JUMP JUMPDEST PUSH2 0x1B1 PUSH1 0x20 DUP4 ADD DUP5 PUSH2 0x182 JUMP JUMPDEST SWAP4 SWAP3 POP POP POP JUMP JUMPDEST PUSH0 DUP1 REVERT JUMPDEST PUSH2 0x1C5 DUP2 PUSH2 0x146 JUMP JUMPDEST DUP2 EQ PUSH2 0x1CF JUMPI PUSH0 DUP1 REVERT JUMPDEST POP JUMP JUMPDEST PUSH0 DUP2 CALLDATALOAD SWAP1 POP PUSH2 0x1E0 DUP2 PUSH2 0x1BC JUMP JUMPDEST SWAP3 SWAP2 POP POP JUMP JUMPDEST PUSH0 PUSH1 0x20 DUP3 DUP5 SUB SLT ISZERO PUSH2 0x1FB JUMPI PUSH2 0x1FA PUSH2 0x1B8 JUMP JUMPDEST JUMPDEST PUSH0 PUSH2 0x208 DUP5 DUP3 DUP6 ADD PUSH2 0x1D2 JUMP JUMPDEST SWAP2 POP POP SWAP3 SWAP2 POP POP JUMP JUMPDEST PUSH2 0x21A DUP2 PUSH2 0x177 JUMP JUMPDEST DUP2 EQ PUSH2 0x224 JUMPI PUSH0 DUP1 REVERT JUMPDEST POP JUMP JUMPDEST PUSH0 DUP2 CALLDATALOAD SWAP1 POP PUSH2 0x235 DUP2 PUSH2 0x211 JUMP JUMPDEST SWAP3 SWAP2 POP POP JUMP JUMPDEST PUSH0 DUP1 PUSH1 0x40 DUP4 DUP6 SUB SLT ISZERO PUSH2 0x251 JUMPI PUSH2 0x250 PUSH2 0x1B8 JUMP JUMPDEST JUMPDEST PUSH0 PUSH2 0x25E DUP6 DUP3 DUP7 ADD PUSH2 0x1D2 JUMP JUMPDEST SWAP3 POP POP PUSH1 0x20 PUSH2 0x26F DUP6 DUP3 DUP7 ADD PUSH2 0x227 JUMP JUMPDEST SWAP2 POP POP SWAP3 POP SWAP3 SWAP1 POP JUMP INVALID LOG2 PUSH5 0x6970667358 0x22 SLT KECCAK256 0x4E 0xD1 NUMBER 0xDC 0xB8 TIMESTAMP 0xEC 0xB0 COINBASE XOR MOD SELFBALANCE PUSH24 0xE29D41FB0BACF04E75CEB8E281A4ACF18D6CB564736F6C63 NUMBER STOP ADDMOD AND STOP CALLER "
				},
				"gasEstimates": {
					"creation": {
						"codeDepositCost": "137400",
						"executionCost": "181",
						"totalCost": "137581"
					},
					"external": {
						"modifyReferenceStruct(uint256)": "68968",
						"modifyValueStruct(uint256,bool)": "47012",
						"referenceStructInstance()": "2416",
						"valueStructInstance()": "4689"
					}
				},
				"methodIdentifiers": {
					"modifyReferenceStruct(uint256)": "947d283a",
					"modifyValueStruct(uint256,bool)": "aaad0c39",
					"referenceStructInstance()": "01017100",
					"valueStructInstance()": "28f6513d"
				}
			},
			"storageLayout": {
				"storage": [
					{
						"astId": 15,
						"contract": "Solidity by example/refrenceTypes.sol:ReferenceTypesExample",
						"label": "valueStructInstance",
						"offset": 0,
						"slot": "0",
						"type": "t_struct(ValueStruct)6_storage"
					},
					{
						"astId": 18,
						"contract": "Solidity by example/refrenceTypes.sol:ReferenceTypesExample",
						"label": "referenceStructInstance",
						"offset": 0,
						"slot": "2",
						"type": "t_struct(ReferenceStruct)12_storage"
					}
				],
				"types": {
					"t_array(t_uint256)dyn_storage": {
						"base": "t_uint256",
						"encoding": "dynamic_array",
						"label": "uint256[]",
						"numberOfBytes": "32"
					},
					"t_bool": {
						"encoding": "inplace",
						"label": "bool",
						"numberOfBytes": "1"
					},
					"t_struct(ReferenceStruct)12_storage": {
						"encoding": "inplace",
						"label": "struct ReferenceTypesExample.ReferenceStruct",
						"members": [
							{
								"astId": 8,
								"contract": "Solidity by example/refrenceTypes.sol:ReferenceTypesExample",
								"label": "intValue",
								"offset": 0,
								"slot": "0",
								"type": "t_uint256"
							},
							{
								"astId": 11,
								"contract": "Solidity by example/refrenceTypes.sol:ReferenceTypesExample",
								"label": "referenceArray",
								"offset": 0,
								"slot": "1",
								"type": "t_array(t_uint256)dyn_storage"
							}
						],
						"numberOfBytes": "64"
					},
					"t_struct(ValueStruct)6_storage": {
						"encoding": "inplace",
						"label": "struct ReferenceTypesExample.ValueStruct",
						"members": [
							{
								"astId": 3,
								"contract": "Solidity by example/refrenceTypes.sol:ReferenceTypesExample",
								"label": "intValue",
								"offset": 0,
								"slot": "0",
								"type": "t_uint256"
							},
							{
								"astId": 5,
								"contract": "Solidity by example/refrenceTypes.sol:ReferenceTypesExample",
								"label": "boolValue",
								"offset": 0,
								"slot": "1",
								"type": "t_bool"
							}
						],
						"numberOfBytes": "64"
					},
					"t_uint256": {
						"encoding": "inplace",
						"label": "uint256",
						"numberOfBytes": "32"
					}
				}
			},
			"userdoc": {
				"kind": "user",
				"methods": {},
				"version": 1
			}
		}
	}
}