{
	"Syntax Examples/encodeSomethig.sol": {
		"EncodeSomething": {
			"abi": [
				{
					"inputs": [],
					"name": "encode",
					"outputs": [
						{
							"internalType": "bytes",
							"name": "",
							"type": "bytes"
						}
					],
					"stateMutability": "pure",
					"type": "function"
				}
			],
			"devdoc": {
				"kind": "dev",
				"methods": {},
				"version": 1
			},
			"evm": {
				"assembly": "    /* \"Syntax Examples/encodeSomethig.sol\":57:339  contract EncodeSomething{... */\n  mstore(0x40, 0x80)\n  callvalue\n  dup1\n  iszero\n  tag_1\n  jumpi\n  0x00\n  dup1\n  revert\ntag_1:\n  pop\n  dataSize(sub_0)\n  dup1\n  dataOffset(sub_0)\n  0x00\n  codecopy\n  0x00\n  return\nstop\n\nsub_0: assembly {\n        /* \"Syntax Examples/encodeSomethig.sol\":57:339  contract EncodeSomething{... */\n      mstore(0x40, 0x80)\n      callvalue\n      dup1\n      iszero\n      tag_1\n      jumpi\n      0x00\n      dup1\n      revert\n    tag_1:\n      pop\n      jumpi(tag_2, lt(calldatasize, 0x04))\n      shr(0xe0, calldataload(0x00))\n      dup1\n      0xbd14598f\n      eq\n      tag_3\n      jumpi\n    tag_2:\n      0x00\n      dup1\n      revert\n        /* \"Syntax Examples/encodeSomethig.sol\":217:337  function encode() public pure returns(bytes memory){... */\n    tag_3:\n      tag_4\n      tag_5\n      jump\t// in\n    tag_4:\n      mload(0x40)\n      tag_6\n      swap2\n      swap1\n      tag_7\n      jump\t// in\n    tag_6:\n      mload(0x40)\n      dup1\n      swap2\n      sub\n      swap1\n      return\n    tag_5:\n        /* \"Syntax Examples/encodeSomethig.sol\":255:267  bytes memory */\n      0x60\n        /* \"Syntax Examples/encodeSomethig.sol\":278:294  bytes memory num */\n      0x00\n        /* \"Syntax Examples/encodeSomethig.sol\":308:309  1 */\n      0x01\n        /* \"Syntax Examples/encodeSomethig.sol\":297:310  abi.encode(1) */\n      add(0x20, mload(0x40))\n      tag_9\n      swap2\n      swap1\n      tag_10\n      jump\t// in\n    tag_9:\n      mload(0x40)\n      0x20\n      dup2\n      dup4\n      sub\n      sub\n      dup2\n      mstore\n      swap1\n      0x40\n      mstore\n        /* \"Syntax Examples/encodeSomethig.sol\":278:310  bytes memory num = abi.encode(1) */\n      swap1\n      pop\n        /* \"Syntax Examples/encodeSomethig.sol\":327:330  num */\n      dup1\n        /* \"Syntax Examples/encodeSomethig.sol\":320:330  return num */\n      swap2\n      pop\n      pop\n        /* \"Syntax Examples/encodeSomethig.sol\":217:337  function encode() public pure returns(bytes memory){... */\n      swap1\n      jump\t// out\n        /* \"#utility.yul\":7:105   */\n    tag_11:\n        /* \"#utility.yul\":58:64   */\n      0x00\n        /* \"#utility.yul\":92:97   */\n      dup2\n        /* \"#utility.yul\":86:98   */\n      mload\n        /* \"#utility.yul\":76:98   */\n      swap1\n      pop\n        /* \"#utility.yul\":7:105   */\n      swap2\n      swap1\n      pop\n      jump\t// out\n        /* \"#utility.yul\":111:279   */\n    tag_12:\n        /* \"#utility.yul\":194:205   */\n      0x00\n        /* \"#utility.yul\":228:234   */\n      dup3\n        /* \"#utility.yul\":223:226   */\n      dup3\n        /* \"#utility.yul\":216:235   */\n      mstore\n        /* \"#utility.yul\":268:272   */\n      0x20\n        /* \"#utility.yul\":263:266   */\n      dup3\n        /* \"#utility.yul\":259:273   */\n      add\n        /* \"#utility.yul\":244:273   */\n      swap1\n      pop\n        /* \"#utility.yul\":111:279   */\n      swap3\n      swap2\n      pop\n      pop\n      jump\t// out\n        /* \"#utility.yul\":285:531   */\n    tag_13:\n        /* \"#utility.yul\":366:367   */\n      0x00\n        /* \"#utility.yul\":376:489   */\n    tag_25:\n        /* \"#utility.yul\":390:396   */\n      dup4\n        /* \"#utility.yul\":387:388   */\n      dup2\n        /* \"#utility.yul\":384:397   */\n      lt\n        /* \"#utility.yul\":376:489   */\n      iszero\n      tag_27\n      jumpi\n        /* \"#utility.yul\":475:476   */\n      dup1\n        /* \"#utility.yul\":470:473   */\n      dup3\n        /* \"#utility.yul\":466:477   */\n      add\n        /* \"#utility.yul\":460:478   */\n      mload\n        /* \"#utility.yul\":456:457   */\n      dup2\n        /* \"#utility.yul\":451:454   */\n      dup5\n        /* \"#utility.yul\":447:458   */\n      add\n        /* \"#utility.yul\":440:479   */\n      mstore\n        /* \"#utility.yul\":412:414   */\n      0x20\n        /* \"#utility.yul\":409:410   */\n      dup2\n        /* \"#utility.yul\":405:415   */\n      add\n        /* \"#utility.yul\":400:415   */\n      swap1\n      pop\n        /* \"#utility.yul\":376:489   */\n      jump(tag_25)\n    tag_27:\n        /* \"#utility.yul\":523:524   */\n      0x00\n        /* \"#utility.yul\":514:520   */\n      dup5\n        /* \"#utility.yul\":509:512   */\n      dup5\n        /* \"#utility.yul\":505:521   */\n      add\n        /* \"#utility.yul\":498:525   */\n      mstore\n        /* \"#utility.yul\":347:531   */\n      pop\n        /* \"#utility.yul\":285:531   */\n      pop\n      pop\n      pop\n      jump\t// out\n        /* \"#utility.yul\":537:639   */\n    tag_14:\n        /* \"#utility.yul\":578:584   */\n      0x00\n        /* \"#utility.yul\":629:631   */\n      0x1f\n        /* \"#utility.yul\":625:632   */\n      not\n        /* \"#utility.yul\":620:622   */\n      0x1f\n        /* \"#utility.yul\":613:618   */\n      dup4\n        /* \"#utility.yul\":609:623   */\n      add\n        /* \"#utility.yul\":605:633   */\n      and\n        /* \"#utility.yul\":595:633   */\n      swap1\n      pop\n        /* \"#utility.yul\":537:639   */\n      swap2\n      swap1\n      pop\n      jump\t// out\n        /* \"#utility.yul\":645:1018   */\n    tag_15:\n        /* \"#utility.yul\":731:734   */\n      0x00\n        /* \"#utility.yul\":759:797   */\n      tag_30\n        /* \"#utility.yul\":791:796   */\n      dup3\n        /* \"#utility.yul\":759:797   */\n      tag_11\n      jump\t// in\n    tag_30:\n        /* \"#utility.yul\":813:883   */\n      tag_31\n        /* \"#utility.yul\":876:882   */\n      dup2\n        /* \"#utility.yul\":871:874   */\n      dup6\n        /* \"#utility.yul\":813:883   */\n      tag_12\n      jump\t// in\n    tag_31:\n        /* \"#utility.yul\":806:883   */\n      swap4\n      pop\n        /* \"#utility.yul\":892:957   */\n      tag_32\n        /* \"#utility.yul\":950:956   */\n      dup2\n        /* \"#utility.yul\":945:948   */\n      dup6\n        /* \"#utility.yul\":938:942   */\n      0x20\n        /* \"#utility.yul\":931:936   */\n      dup7\n        /* \"#utility.yul\":927:943   */\n      add\n        /* \"#utility.yul\":892:957   */\n      tag_13\n      jump\t// in\n    tag_32:\n        /* \"#utility.yul\":982:1011   */\n      tag_33\n        /* \"#utility.yul\":1004:1010   */\n      dup2\n        /* \"#utility.yul\":982:1011   */\n      tag_14\n      jump\t// in\n    tag_33:\n        /* \"#utility.yul\":977:980   */\n      dup5\n        /* \"#utility.yul\":973:1012   */\n      add\n        /* \"#utility.yul\":966:1012   */\n      swap2\n      pop\n        /* \"#utility.yul\":735:1018   */\n      pop\n        /* \"#utility.yul\":645:1018   */\n      swap3\n      swap2\n      pop\n      pop\n      jump\t// out\n        /* \"#utility.yul\":1024:1333   */\n    tag_7:\n        /* \"#utility.yul\":1135:1139   */\n      0x00\n        /* \"#utility.yul\":1173:1175   */\n      0x20\n        /* \"#utility.yul\":1162:1171   */\n      dup3\n        /* \"#utility.yul\":1158:1176   */\n      add\n        /* \"#utility.yul\":1150:1176   */\n      swap1\n      pop\n        /* \"#utility.yul\":1222:1231   */\n      dup2\n        /* \"#utility.yul\":1216:1220   */\n      dup2\n        /* \"#utility.yul\":1212:1232   */\n      sub\n        /* \"#utility.yul\":1208:1209   */\n      0x00\n        /* \"#utility.yul\":1197:1206   */\n      dup4\n        /* \"#utility.yul\":1193:1210   */\n      add\n        /* \"#utility.yul\":1186:1233   */\n      mstore\n        /* \"#utility.yul\":1250:1326   */\n      tag_35\n        /* \"#utility.yul\":1321:1325   */\n      dup2\n        /* \"#utility.yul\":1312:1318   */\n      dup5\n        /* \"#utility.yul\":1250:1326   */\n      tag_15\n      jump\t// in\n    tag_35:\n        /* \"#utility.yul\":1242:1326   */\n      swap1\n      pop\n        /* \"#utility.yul\":1024:1333   */\n      swap3\n      swap2\n      pop\n      pop\n      jump\t// out\n        /* \"#utility.yul\":1339:1424   */\n    tag_16:\n        /* \"#utility.yul\":1384:1391   */\n      0x00\n        /* \"#utility.yul\":1413:1418   */\n      dup2\n        /* \"#utility.yul\":1402:1418   */\n      swap1\n      pop\n        /* \"#utility.yul\":1339:1424   */\n      swap2\n      swap1\n      pop\n      jump\t// out\n        /* \"#utility.yul\":1430:1516   */\n    tag_17:\n        /* \"#utility.yul\":1465:1472   */\n      0x00\n        /* \"#utility.yul\":1505:1509   */\n      0xff\n        /* \"#utility.yul\":1498:1503   */\n      dup3\n        /* \"#utility.yul\":1494:1510   */\n      and\n        /* \"#utility.yul\":1483:1510   */\n      swap1\n      pop\n        /* \"#utility.yul\":1430:1516   */\n      swap2\n      swap1\n      pop\n      jump\t// out\n        /* \"#utility.yul\":1522:1582   */\n    tag_18:\n        /* \"#utility.yul\":1550:1553   */\n      0x00\n        /* \"#utility.yul\":1571:1576   */\n      dup2\n        /* \"#utility.yul\":1564:1576   */\n      swap1\n      pop\n        /* \"#utility.yul\":1522:1582   */\n      swap2\n      swap1\n      pop\n      jump\t// out\n        /* \"#utility.yul\":1588:1742   */\n    tag_19:\n        /* \"#utility.yul\":1644:1653   */\n      0x00\n        /* \"#utility.yul\":1677:1736   */\n      tag_40\n        /* \"#utility.yul\":1693:1735   */\n      tag_41\n        /* \"#utility.yul\":1702:1734   */\n      tag_42\n        /* \"#utility.yul\":1728:1733   */\n      dup5\n        /* \"#utility.yul\":1702:1734   */\n      tag_16\n      jump\t// in\n    tag_42:\n        /* \"#utility.yul\":1693:1735   */\n      tag_18\n      jump\t// in\n    tag_41:\n        /* \"#utility.yul\":1677:1736   */\n      tag_17\n      jump\t// in\n    tag_40:\n        /* \"#utility.yul\":1664:1736   */\n      swap1\n      pop\n        /* \"#utility.yul\":1588:1742   */\n      swap2\n      swap1\n      pop\n      jump\t// out\n        /* \"#utility.yul\":1748:1891   */\n    tag_20:\n        /* \"#utility.yul\":1841:1884   */\n      tag_44\n        /* \"#utility.yul\":1878:1883   */\n      dup2\n        /* \"#utility.yul\":1841:1884   */\n      tag_19\n      jump\t// in\n    tag_44:\n        /* \"#utility.yul\":1836:1839   */\n      dup3\n        /* \"#utility.yul\":1829:1885   */\n      mstore\n        /* \"#utility.yul\":1748:1891   */\n      pop\n      pop\n      jump\t// out\n        /* \"#utility.yul\":1897:2131   */\n    tag_10:\n        /* \"#utility.yul\":1996:2000   */\n      0x00\n        /* \"#utility.yul\":2034:2036   */\n      0x20\n        /* \"#utility.yul\":2023:2032   */\n      dup3\n        /* \"#utility.yul\":2019:2037   */\n      add\n        /* \"#utility.yul\":2011:2037   */\n      swap1\n      pop\n        /* \"#utility.yul\":2047:2124   */\n      tag_46\n        /* \"#utility.yul\":2121:2122   */\n      0x00\n        /* \"#utility.yul\":2110:2119   */\n      dup4\n        /* \"#utility.yul\":2106:2123   */\n      add\n        /* \"#utility.yul\":2097:2103   */\n      dup5\n        /* \"#utility.yul\":2047:2124   */\n      tag_20\n      jump\t// in\n    tag_46:\n        /* \"#utility.yul\":1897:2131   */\n      swap3\n      swap2\n      pop\n      pop\n      jump\t// out\n\n    auxdata: 0xa264697066735822122060761bccd6db30a338c931c68d6fcf5f5787772acecb41d3200b522502de5b5f64736f6c63430008140033\n}\n",
				"bytecode": {
					"linkReferences": {},
					"object": "608060405234801561000f575f80fd5b506101bf8061001d5f395ff3fe608060405234801561000f575f80fd5b5060043610610029575f3560e01c8063bd14598f1461002d575b5f80fd5b61003561004b565b6040516100429190610102565b60405180910390f35b60605f60016040516020016100609190610170565b60405160208183030381529060405290508091505090565b5f81519050919050565b5f82825260208201905092915050565b5f5b838110156100af578082015181840152602081019050610094565b5f8484015250505050565b5f601f19601f8301169050919050565b5f6100d482610078565b6100de8185610082565b93506100ee818560208601610092565b6100f7816100ba565b840191505092915050565b5f6020820190508181035f83015261011a81846100ca565b905092915050565b5f819050919050565b5f60ff82169050919050565b5f819050919050565b5f61015a61015561015084610122565b610137565b61012b565b9050919050565b61016a81610140565b82525050565b5f6020820190506101835f830184610161565b9291505056fea264697066735822122060761bccd6db30a338c931c68d6fcf5f5787772acecb41d3200b522502de5b5f64736f6c63430008140033",
					"opcodes": "PUSH1 0x80 PUSH1 0x40 MSTORE CALLVALUE DUP1 ISZERO PUSH2 0xF JUMPI PUSH0 DUP1 REVERT JUMPDEST POP PUSH2 0x1BF DUP1 PUSH2 0x1D PUSH0 CODECOPY PUSH0 RETURN INVALID PUSH1 0x80 PUSH1 0x40 MSTORE CALLVALUE DUP1 ISZERO PUSH2 0xF JUMPI PUSH0 DUP1 REVERT JUMPDEST POP PUSH1 0x4 CALLDATASIZE LT PUSH2 0x29 JUMPI PUSH0 CALLDATALOAD PUSH1 0xE0 SHR DUP1 PUSH4 0xBD14598F EQ PUSH2 0x2D JUMPI JUMPDEST PUSH0 DUP1 REVERT JUMPDEST PUSH2 0x35 PUSH2 0x4B JUMP JUMPDEST PUSH1 0x40 MLOAD PUSH2 0x42 SWAP2 SWAP1 PUSH2 0x102 JUMP JUMPDEST PUSH1 0x40 MLOAD DUP1 SWAP2 SUB SWAP1 RETURN JUMPDEST PUSH1 0x60 PUSH0 PUSH1 0x1 PUSH1 0x40 MLOAD PUSH1 0x20 ADD PUSH2 0x60 SWAP2 SWAP1 PUSH2 0x170 JUMP JUMPDEST PUSH1 0x40 MLOAD PUSH1 0x20 DUP2 DUP4 SUB SUB DUP2 MSTORE SWAP1 PUSH1 0x40 MSTORE SWAP1 POP DUP1 SWAP2 POP POP SWAP1 JUMP JUMPDEST PUSH0 DUP2 MLOAD SWAP1 POP SWAP2 SWAP1 POP JUMP JUMPDEST PUSH0 DUP3 DUP3 MSTORE PUSH1 0x20 DUP3 ADD SWAP1 POP SWAP3 SWAP2 POP POP JUMP JUMPDEST PUSH0 JUMPDEST DUP4 DUP2 LT ISZERO PUSH2 0xAF JUMPI DUP1 DUP3 ADD MLOAD DUP2 DUP5 ADD MSTORE PUSH1 0x20 DUP2 ADD SWAP1 POP PUSH2 0x94 JUMP JUMPDEST PUSH0 DUP5 DUP5 ADD MSTORE POP POP POP POP JUMP JUMPDEST PUSH0 PUSH1 0x1F NOT PUSH1 0x1F DUP4 ADD AND SWAP1 POP SWAP2 SWAP1 POP JUMP JUMPDEST PUSH0 PUSH2 0xD4 DUP3 PUSH2 0x78 JUMP JUMPDEST PUSH2 0xDE DUP2 DUP6 PUSH2 0x82 JUMP JUMPDEST SWAP4 POP PUSH2 0xEE DUP2 DUP6 PUSH1 0x20 DUP7 ADD PUSH2 0x92 JUMP JUMPDEST PUSH2 0xF7 DUP2 PUSH2 0xBA JUMP JUMPDEST DUP5 ADD SWAP2 POP POP SWAP3 SWAP2 POP POP JUMP JUMPDEST PUSH0 PUSH1 0x20 DUP3 ADD SWAP1 POP DUP2 DUP2 SUB PUSH0 DUP4 ADD MSTORE PUSH2 0x11A DUP2 DUP5 PUSH2 0xCA JUMP JUMPDEST SWAP1 POP SWAP3 SWAP2 POP POP JUMP JUMPDEST PUSH0 DUP2 SWAP1 POP SWAP2 SWAP1 POP JUMP JUMPDEST PUSH0 PUSH1 0xFF DUP3 AND SWAP1 POP SWAP2 SWAP1 POP JUMP JUMPDEST PUSH0 DUP2 SWAP1 POP SWAP2 SWAP1 POP JUMP JUMPDEST PUSH0 PUSH2 0x15A PUSH2 0x155 PUSH2 0x150 DUP5 PUSH2 0x122 JUMP JUMPDEST PUSH2 0x137 JUMP JUMPDEST PUSH2 0x12B JUMP JUMPDEST SWAP1 POP SWAP2 SWAP1 POP JUMP JUMPDEST PUSH2 0x16A DUP2 PUSH2 0x140 JUMP JUMPDEST DUP3 MSTORE POP POP JUMP JUMPDEST PUSH0 PUSH1 0x20 DUP3 ADD SWAP1 POP PUSH2 0x183 PUSH0 DUP4 ADD DUP5 PUSH2 0x161 JUMP JUMPDEST SWAP3 SWAP2 POP POP JUMP INVALID LOG2 PUSH5 0x6970667358 0x22 SLT KECCAK256 PUSH1 0x76 SHL 0xCC 0xD6 0xDB ADDRESS LOG3 CODESIZE 0xC9 BALANCE 0xC6 DUP14 PUSH16 0xCF5F5787772ACECB41D3200B522502DE JUMPDEST PUSH0 PUSH5 0x736F6C6343 STOP ADDMOD EQ STOP CALLER "
				},
				"gasEstimates": {
					"creation": {
						"codeDepositCost": "89400",
						"executionCost": "133",
						"totalCost": "89533"
					},
					"external": {
						"encode()": "infinite"
					}
				},
				"methodIdentifiers": {
					"encode()": "bd14598f"
				}
			},
			"storageLayout": {
				"storage": [],
				"types": null
			},
			"userdoc": {
				"kind": "user",
				"methods": {},
				"version": 1
			}
		}
	}
}