{
	"wallet/multiSigwallet.sol": {
		"MultiSigWallet": {
			"abi": [
				{
					"inputs": [
						{
							"internalType": "address[]",
							"name": "_owners",
							"type": "address[]"
						},
						{
							"internalType": "uint256",
							"name": "_numConfirmations",
							"type": "uint256"
						}
					],
					"stateMutability": "nonpayable",
					"type": "constructor"
				},
				{
					"anonymous": false,
					"inputs": [
						{
							"indexed": true,
							"internalType": "address",
							"name": "sender",
							"type": "address"
						},
						{
							"indexed": false,
							"internalType": "uint256",
							"name": "amount",
							"type": "uint256"
						},
						{
							"indexed": false,
							"internalType": "uint256",
							"name": "balance",
							"type": "uint256"
						}
					],
					"name": "Deposit",
					"type": "event"
				},
				{
					"anonymous": false,
					"inputs": [
						{
							"indexed": true,
							"internalType": "address",
							"name": "owner",
							"type": "address"
						},
						{
							"indexed": true,
							"internalType": "uint256",
							"name": "txIndex",
							"type": "uint256"
						}
					],
					"name": "RevokeTransaction",
					"type": "event"
				},
				{
					"anonymous": false,
					"inputs": [
						{
							"indexed": true,
							"internalType": "address",
							"name": "owner",
							"type": "address"
						},
						{
							"indexed": true,
							"internalType": "uint256",
							"name": "txIndex",
							"type": "uint256"
						}
					],
					"name": "confirmTransaction",
					"type": "event"
				},
				{
					"anonymous": false,
					"inputs": [
						{
							"indexed": true,
							"internalType": "address",
							"name": "sender",
							"type": "address"
						},
						{
							"indexed": true,
							"internalType": "uint256",
							"name": "txIndex",
							"type": "uint256"
						}
					],
					"name": "executeTransaction",
					"type": "event"
				},
				{
					"anonymous": false,
					"inputs": [
						{
							"indexed": true,
							"internalType": "address",
							"name": "owner",
							"type": "address"
						},
						{
							"indexed": true,
							"internalType": "uint256",
							"name": "txIndex",
							"type": "uint256"
						},
						{
							"indexed": true,
							"internalType": "address",
							"name": "to",
							"type": "address"
						},
						{
							"indexed": false,
							"internalType": "uint256",
							"name": "value",
							"type": "uint256"
						},
						{
							"indexed": false,
							"internalType": "bytes",
							"name": "data",
							"type": "bytes"
						}
					],
					"name": "submitTransaction",
					"type": "event"
				},
				{
					"inputs": [
						{
							"internalType": "uint256",
							"name": "",
							"type": "uint256"
						},
						{
							"internalType": "address",
							"name": "",
							"type": "address"
						}
					],
					"name": "isConfirmed",
					"outputs": [
						{
							"internalType": "bool",
							"name": "",
							"type": "bool"
						}
					],
					"stateMutability": "view",
					"type": "function"
				},
				{
					"inputs": [
						{
							"internalType": "address",
							"name": "",
							"type": "address"
						}
					],
					"name": "isOwner",
					"outputs": [
						{
							"internalType": "bool",
							"name": "",
							"type": "bool"
						}
					],
					"stateMutability": "view",
					"type": "function"
				},
				{
					"inputs": [],
					"name": "numConfirmations",
					"outputs": [
						{
							"internalType": "uint256",
							"name": "",
							"type": "uint256"
						}
					],
					"stateMutability": "view",
					"type": "function"
				},
				{
					"inputs": [
						{
							"internalType": "uint256",
							"name": "",
							"type": "uint256"
						}
					],
					"name": "owners",
					"outputs": [
						{
							"internalType": "address",
							"name": "",
							"type": "address"
						}
					],
					"stateMutability": "view",
					"type": "function"
				},
				{
					"inputs": [
						{
							"internalType": "uint256",
							"name": "",
							"type": "uint256"
						}
					],
					"name": "transactions",
					"outputs": [
						{
							"internalType": "address",
							"name": "to",
							"type": "address"
						},
						{
							"internalType": "uint256",
							"name": "value",
							"type": "uint256"
						},
						{
							"internalType": "bytes",
							"name": "data",
							"type": "bytes"
						},
						{
							"internalType": "bool",
							"name": "executed",
							"type": "bool"
						},
						{
							"internalType": "uint256",
							"name": "numConfirmations",
							"type": "uint256"
						}
					],
					"stateMutability": "view",
					"type": "function"
				},
				{
					"stateMutability": "payable",
					"type": "receive"
				}
			],
			"devdoc": {
				"kind": "dev",
				"methods": {},
				"version": 1
			},
			"evm": {
				"assembly": "    /* \"wallet/multiSigwallet.sol\":58:2420  contract MultiSigWallet {... */\n  mstore(0x40, 0x80)\n    /* \"wallet/multiSigwallet.sol\":1683:2253  constructor(address[] memory _owners, uint _numConfirmations){... */\n  callvalue\n  dup1\n  iszero\n  tag_1\n  jumpi\n  0x00\n  dup1\n  revert\ntag_1:\n  pop\n  mload(0x40)\n  sub(codesize, bytecodeSize)\n  dup1\n  bytecodeSize\n  dup4\n  codecopy\n  dup2\n  dup2\n  add\n  0x40\n  mstore\n  dup2\n  add\n  swap1\n  tag_2\n  swap2\n  swap1\n  tag_3\n  jump\t// in\ntag_2:\n    /* \"wallet/multiSigwallet.sol\":1779:1780  0 */\n  0x00\n    /* \"wallet/multiSigwallet.sol\":1762:1769  _owners */\n  dup3\n    /* \"wallet/multiSigwallet.sol\":1762:1776  _owners.length */\n  mload\n    /* \"wallet/multiSigwallet.sol\":1762:1780  _owners.length > 0 */\n  gt\n    /* \"wallet/multiSigwallet.sol\":1754:1800  require(_owners.length > 0, \"Owners Required\") */\n  tag_6\n  jumpi\n  mload(0x40)\n  0x08c379a000000000000000000000000000000000000000000000000000000000\n  dup2\n  mstore\n  0x04\n  add\n  tag_7\n  swap1\n  tag_8\n  jump\t// in\ntag_7:\n  mload(0x40)\n  dup1\n  swap2\n  sub\n  swap1\n  revert\ntag_6:\n    /* \"wallet/multiSigwallet.sol\":1838:1839  0 */\n  0x00\n    /* \"wallet/multiSigwallet.sol\":1818:1835  _numConfirmations */\n  dup2\n    /* \"wallet/multiSigwallet.sol\":1818:1839  _numConfirmations > 0 */\n  gt\n    /* \"wallet/multiSigwallet.sol\":1818:1878  _numConfirmations > 0 && _numConfirmations <= _owners.length */\n  dup1\n  iszero\n  tag_9\n  jumpi\n  pop\n    /* \"wallet/multiSigwallet.sol\":1864:1871  _owners */\n  dup2\n    /* \"wallet/multiSigwallet.sol\":1864:1878  _owners.length */\n  mload\n    /* \"wallet/multiSigwallet.sol\":1843:1860  _numConfirmations */\n  dup2\n    /* \"wallet/multiSigwallet.sol\":1843:1878  _numConfirmations <= _owners.length */\n  gt\n  iszero\n    /* \"wallet/multiSigwallet.sol\":1818:1878  _numConfirmations > 0 && _numConfirmations <= _owners.length */\ntag_9:\n    /* \"wallet/multiSigwallet.sol\":1810:1914  require(_numConfirmations > 0 && _numConfirmations <= _owners.length, \"Invalid Number of Confirmations\") */\n  tag_10\n  jumpi\n  mload(0x40)\n  0x08c379a000000000000000000000000000000000000000000000000000000000\n  dup2\n  mstore\n  0x04\n  add\n  tag_11\n  swap1\n  tag_12\n  jump\t// in\ntag_11:\n  mload(0x40)\n  dup1\n  swap2\n  sub\n  swap1\n  revert\ntag_10:\n    /* \"wallet/multiSigwallet.sol\":1929:1935  uint i */\n  0x00\n    /* \"wallet/multiSigwallet.sol\":1925:2201  for(uint i = 0; i < _owners.length; i++){... */\ntag_13:\n    /* \"wallet/multiSigwallet.sol\":1945:1952  _owners */\n  dup3\n    /* \"wallet/multiSigwallet.sol\":1945:1959  _owners.length */\n  mload\n    /* \"wallet/multiSigwallet.sol\":1941:1942  i */\n  dup2\n    /* \"wallet/multiSigwallet.sol\":1941:1959  i < _owners.length */\n  lt\n    /* \"wallet/multiSigwallet.sol\":1925:2201  for(uint i = 0; i < _owners.length; i++){... */\n  iszero\n  tag_14\n  jumpi\n    /* \"wallet/multiSigwallet.sol\":1979:1992  address owner */\n  0x00\n    /* \"wallet/multiSigwallet.sol\":1995:2002  _owners */\n  dup4\n    /* \"wallet/multiSigwallet.sol\":2003:2004  i */\n  dup3\n    /* \"wallet/multiSigwallet.sol\":1995:2005  _owners[i] */\n  dup2\n  mload\n  dup2\n  lt\n  tag_16\n  jumpi\n  tag_17\n  tag_18\n  jump\t// in\ntag_17:\ntag_16:\n  0x20\n  mul\n  0x20\n  add\n  add\n  mload\n    /* \"wallet/multiSigwallet.sol\":1979:2005  address owner = _owners[i] */\n  swap1\n  pop\n    /* \"wallet/multiSigwallet.sol\":2044:2045  0 */\n  0x00\n    /* \"wallet/multiSigwallet.sol\":2027:2046  owner != address(0) */\n  0xffffffffffffffffffffffffffffffffffffffff\n  and\n    /* \"wallet/multiSigwallet.sol\":2027:2032  owner */\n  dup2\n    /* \"wallet/multiSigwallet.sol\":2027:2046  owner != address(0) */\n  0xffffffffffffffffffffffffffffffffffffffff\n  and\n  sub\n    /* \"wallet/multiSigwallet.sol\":2019:2064  require(owner != address(0), \"invalid owner\") */\n  tag_19\n  jumpi\n  mload(0x40)\n  0x08c379a000000000000000000000000000000000000000000000000000000000\n  dup2\n  mstore\n  0x04\n  add\n  tag_20\n  swap1\n  tag_21\n  jump\t// in\ntag_20:\n  mload(0x40)\n  dup1\n  swap2\n  sub\n  swap1\n  revert\ntag_19:\n    /* \"wallet/multiSigwallet.sol\":2087:2094  isOwner */\n  0x01\n    /* \"wallet/multiSigwallet.sol\":2087:2101  isOwner[owner] */\n  0x00\n    /* \"wallet/multiSigwallet.sol\":2095:2100  owner */\n  dup3\n    /* \"wallet/multiSigwallet.sol\":2087:2101  isOwner[owner] */\n  0xffffffffffffffffffffffffffffffffffffffff\n  and\n  0xffffffffffffffffffffffffffffffffffffffff\n  and\n  dup2\n  mstore\n  0x20\n  add\n  swap1\n  dup2\n  mstore\n  0x20\n  add\n  0x00\n  keccak256\n  0x00\n  swap1\n  sload\n  swap1\n  0x0100\n  exp\n  swap1\n  div\n  0xff\n  and\n    /* \"wallet/multiSigwallet.sol\":2086:2101  !isOwner[owner] */\n  iszero\n    /* \"wallet/multiSigwallet.sol\":2078:2122  require(!isOwner[owner], \"owner not unique\") */\n  tag_22\n  jumpi\n  mload(0x40)\n  0x08c379a000000000000000000000000000000000000000000000000000000000\n  dup2\n  mstore\n  0x04\n  add\n  tag_23\n  swap1\n  tag_24\n  jump\t// in\ntag_23:\n  mload(0x40)\n  dup1\n  swap2\n  sub\n  swap1\n  revert\ntag_22:\n    /* \"wallet/multiSigwallet.sol\":2154:2158  true */\n  0x01\n    /* \"wallet/multiSigwallet.sol\":2137:2144  isOwner */\n  dup1\n    /* \"wallet/multiSigwallet.sol\":2137:2151  isOwner[owner] */\n  0x00\n    /* \"wallet/multiSigwallet.sol\":2145:2150  owner */\n  dup4\n    /* \"wallet/multiSigwallet.sol\":2137:2151  isOwner[owner] */\n  0xffffffffffffffffffffffffffffffffffffffff\n  and\n  0xffffffffffffffffffffffffffffffffffffffff\n  and\n  dup2\n  mstore\n  0x20\n  add\n  swap1\n  dup2\n  mstore\n  0x20\n  add\n  0x00\n  keccak256\n  0x00\n    /* \"wallet/multiSigwallet.sol\":2137:2158  isOwner[owner] = true */\n  0x0100\n  exp\n  dup2\n  sload\n  dup2\n  0xff\n  mul\n  not\n  and\n  swap1\n  dup4\n  iszero\n  iszero\n  mul\n  or\n  swap1\n  sstore\n  pop\n    /* \"wallet/multiSigwallet.sol\":2172:2178  owners */\n  0x00\n    /* \"wallet/multiSigwallet.sol\":2184:2189  owner */\n  dup2\n    /* \"wallet/multiSigwallet.sol\":2172:2190  owners.push(owner) */\n  swap1\n  dup1\n  0x01\n  dup2\n  sload\n  add\n  dup1\n  dup3\n  sstore\n  dup1\n  swap2\n  pop\n  pop\n  0x01\n  swap1\n  sub\n  swap1\n  0x00\n  mstore\n  keccak256(0x00, 0x20)\n  add\n  0x00\n  swap1\n  swap2\n  swap1\n  swap2\n  swap1\n  swap2\n  0x0100\n  exp\n  dup2\n  sload\n  dup2\n  0xffffffffffffffffffffffffffffffffffffffff\n  mul\n  not\n  and\n  swap1\n  dup4\n  0xffffffffffffffffffffffffffffffffffffffff\n  and\n  mul\n  or\n  swap1\n  sstore\n  pop\n    /* \"wallet/multiSigwallet.sol\":1965:2201  {... */\n  pop\n    /* \"wallet/multiSigwallet.sol\":1961:1964  i++ */\n  dup1\n  dup1\n  0x01\n  add\n  swap2\n  pop\n  pop\n    /* \"wallet/multiSigwallet.sol\":1925:2201  for(uint i = 0; i < _owners.length; i++){... */\n  jump(tag_13)\ntag_14:\n  pop\n    /* \"wallet/multiSigwallet.sol\":2229:2246  _numConfirmations */\n  dup1\n    /* \"wallet/multiSigwallet.sol\":2210:2226  numConfirmations */\n  0x02\n    /* \"wallet/multiSigwallet.sol\":2210:2246  numConfirmations = _numConfirmations */\n  dup2\n  swap1\n  sstore\n  pop\n    /* \"wallet/multiSigwallet.sol\":1683:2253  constructor(address[] memory _owners, uint _numConfirmations){... */\n  pop\n  pop\n    /* \"wallet/multiSigwallet.sol\":58:2420  contract MultiSigWallet {... */\n  jump(tag_26)\n    /* \"#utility.yul\":7:82   */\ntag_27:\n    /* \"#utility.yul\":40:46   */\n  0x00\n    /* \"#utility.yul\":73:75   */\n  0x40\n    /* \"#utility.yul\":67:76   */\n  mload\n    /* \"#utility.yul\":57:76   */\n  swap1\n  pop\n    /* \"#utility.yul\":7:82   */\n  swap1\n  jump\t// out\n    /* \"#utility.yul\":88:205   */\ntag_28:\n    /* \"#utility.yul\":197:198   */\n  0x00\n    /* \"#utility.yul\":194:195   */\n  dup1\n    /* \"#utility.yul\":187:199   */\n  revert\n    /* \"#utility.yul\":211:328   */\ntag_29:\n    /* \"#utility.yul\":320:321   */\n  0x00\n    /* \"#utility.yul\":317:318   */\n  dup1\n    /* \"#utility.yul\":310:322   */\n  revert\n    /* \"#utility.yul\":334:451   */\ntag_30:\n    /* \"#utility.yul\":443:444   */\n  0x00\n    /* \"#utility.yul\":440:441   */\n  dup1\n    /* \"#utility.yul\":433:445   */\n  revert\n    /* \"#utility.yul\":457:559   */\ntag_31:\n    /* \"#utility.yul\":498:504   */\n  0x00\n    /* \"#utility.yul\":549:551   */\n  0x1f\n    /* \"#utility.yul\":545:552   */\n  not\n    /* \"#utility.yul\":540:542   */\n  0x1f\n    /* \"#utility.yul\":533:538   */\n  dup4\n    /* \"#utility.yul\":529:543   */\n  add\n    /* \"#utility.yul\":525:553   */\n  and\n    /* \"#utility.yul\":515:553   */\n  swap1\n  pop\n    /* \"#utility.yul\":457:559   */\n  swap2\n  swap1\n  pop\n  jump\t// out\n    /* \"#utility.yul\":565:745   */\ntag_32:\n    /* \"#utility.yul\":613:690   */\n  0x4e487b7100000000000000000000000000000000000000000000000000000000\n    /* \"#utility.yul\":610:611   */\n  0x00\n    /* \"#utility.yul\":603:691   */\n  mstore\n    /* \"#utility.yul\":710:714   */\n  0x41\n    /* \"#utility.yul\":707:708   */\n  0x04\n    /* \"#utility.yul\":700:715   */\n  mstore\n    /* \"#utility.yul\":734:738   */\n  0x24\n    /* \"#utility.yul\":731:732   */\n  0x00\n    /* \"#utility.yul\":724:739   */\n  revert\n    /* \"#utility.yul\":751:1032   */\ntag_33:\n    /* \"#utility.yul\":834:861   */\n  tag_63\n    /* \"#utility.yul\":856:860   */\n  dup3\n    /* \"#utility.yul\":834:861   */\n  tag_31\n  jump\t// in\ntag_63:\n    /* \"#utility.yul\":826:832   */\n  dup2\n    /* \"#utility.yul\":822:862   */\n  add\n    /* \"#utility.yul\":964:970   */\n  dup2\n    /* \"#utility.yul\":952:962   */\n  dup2\n    /* \"#utility.yul\":949:971   */\n  lt\n    /* \"#utility.yul\":928:946   */\n  0xffffffffffffffff\n    /* \"#utility.yul\":916:926   */\n  dup3\n    /* \"#utility.yul\":913:947   */\n  gt\n    /* \"#utility.yul\":910:972   */\n  or\n    /* \"#utility.yul\":907:995   */\n  iszero\n  tag_64\n  jumpi\n    /* \"#utility.yul\":975:993   */\n  tag_65\n  tag_32\n  jump\t// in\ntag_65:\n    /* \"#utility.yul\":907:995   */\ntag_64:\n    /* \"#utility.yul\":1015:1025   */\n  dup1\n    /* \"#utility.yul\":1011:1013   */\n  0x40\n    /* \"#utility.yul\":1004:1026   */\n  mstore\n    /* \"#utility.yul\":794:1032   */\n  pop\n    /* \"#utility.yul\":751:1032   */\n  pop\n  pop\n  jump\t// out\n    /* \"#utility.yul\":1038:1167   */\ntag_34:\n    /* \"#utility.yul\":1072:1078   */\n  0x00\n    /* \"#utility.yul\":1099:1119   */\n  tag_67\n  tag_27\n  jump\t// in\ntag_67:\n    /* \"#utility.yul\":1089:1119   */\n  swap1\n  pop\n    /* \"#utility.yul\":1128:1161   */\n  tag_68\n    /* \"#utility.yul\":1156:1160   */\n  dup3\n    /* \"#utility.yul\":1148:1154   */\n  dup3\n    /* \"#utility.yul\":1128:1161   */\n  tag_33\n  jump\t// in\ntag_68:\n    /* \"#utility.yul\":1038:1167   */\n  swap2\n  swap1\n  pop\n  jump\t// out\n    /* \"#utility.yul\":1173:1484   */\ntag_35:\n    /* \"#utility.yul\":1250:1254   */\n  0x00\n    /* \"#utility.yul\":1340:1358   */\n  0xffffffffffffffff\n    /* \"#utility.yul\":1332:1338   */\n  dup3\n    /* \"#utility.yul\":1329:1359   */\n  gt\n    /* \"#utility.yul\":1326:1382   */\n  iszero\n  tag_70\n  jumpi\n    /* \"#utility.yul\":1362:1380   */\n  tag_71\n  tag_32\n  jump\t// in\ntag_71:\n    /* \"#utility.yul\":1326:1382   */\ntag_70:\n    /* \"#utility.yul\":1412:1416   */\n  0x20\n    /* \"#utility.yul\":1404:1410   */\n  dup3\n    /* \"#utility.yul\":1400:1417   */\n  mul\n    /* \"#utility.yul\":1392:1417   */\n  swap1\n  pop\n    /* \"#utility.yul\":1472:1476   */\n  0x20\n    /* \"#utility.yul\":1466:1470   */\n  dup2\n    /* \"#utility.yul\":1462:1477   */\n  add\n    /* \"#utility.yul\":1454:1477   */\n  swap1\n  pop\n    /* \"#utility.yul\":1173:1484   */\n  swap2\n  swap1\n  pop\n  jump\t// out\n    /* \"#utility.yul\":1490:1607   */\ntag_36:\n    /* \"#utility.yul\":1599:1600   */\n  0x00\n    /* \"#utility.yul\":1596:1597   */\n  dup1\n    /* \"#utility.yul\":1589:1601   */\n  revert\n    /* \"#utility.yul\":1613:1739   */\ntag_37:\n    /* \"#utility.yul\":1650:1657   */\n  0x00\n    /* \"#utility.yul\":1690:1732   */\n  0xffffffffffffffffffffffffffffffffffffffff\n    /* \"#utility.yul\":1683:1688   */\n  dup3\n    /* \"#utility.yul\":1679:1733   */\n  and\n    /* \"#utility.yul\":1668:1733   */\n  swap1\n  pop\n    /* \"#utility.yul\":1613:1739   */\n  swap2\n  swap1\n  pop\n  jump\t// out\n    /* \"#utility.yul\":1745:1841   */\ntag_38:\n    /* \"#utility.yul\":1782:1789   */\n  0x00\n    /* \"#utility.yul\":1811:1835   */\n  tag_75\n    /* \"#utility.yul\":1829:1834   */\n  dup3\n    /* \"#utility.yul\":1811:1835   */\n  tag_37\n  jump\t// in\ntag_75:\n    /* \"#utility.yul\":1800:1835   */\n  swap1\n  pop\n    /* \"#utility.yul\":1745:1841   */\n  swap2\n  swap1\n  pop\n  jump\t// out\n    /* \"#utility.yul\":1847:1969   */\ntag_39:\n    /* \"#utility.yul\":1920:1944   */\n  tag_77\n    /* \"#utility.yul\":1938:1943   */\n  dup2\n    /* \"#utility.yul\":1920:1944   */\n  tag_38\n  jump\t// in\ntag_77:\n    /* \"#utility.yul\":1913:1918   */\n  dup2\n    /* \"#utility.yul\":1910:1945   */\n  eq\n    /* \"#utility.yul\":1900:1963   */\n  tag_78\n  jumpi\n    /* \"#utility.yul\":1959:1960   */\n  0x00\n    /* \"#utility.yul\":1956:1957   */\n  dup1\n    /* \"#utility.yul\":1949:1961   */\n  revert\n    /* \"#utility.yul\":1900:1963   */\ntag_78:\n    /* \"#utility.yul\":1847:1969   */\n  pop\n  jump\t// out\n    /* \"#utility.yul\":1975:2118   */\ntag_40:\n    /* \"#utility.yul\":2032:2037   */\n  0x00\n    /* \"#utility.yul\":2063:2069   */\n  dup2\n    /* \"#utility.yul\":2057:2070   */\n  mload\n    /* \"#utility.yul\":2048:2070   */\n  swap1\n  pop\n    /* \"#utility.yul\":2079:2112   */\n  tag_80\n    /* \"#utility.yul\":2106:2111   */\n  dup2\n    /* \"#utility.yul\":2079:2112   */\n  tag_39\n  jump\t// in\ntag_80:\n    /* \"#utility.yul\":1975:2118   */\n  swap3\n  swap2\n  pop\n  pop\n  jump\t// out\n    /* \"#utility.yul\":2141:2873   */\ntag_41:\n    /* \"#utility.yul\":2248:2253   */\n  0x00\n    /* \"#utility.yul\":2273:2354   */\n  tag_82\n    /* \"#utility.yul\":2289:2353   */\n  tag_83\n    /* \"#utility.yul\":2346:2352   */\n  dup5\n    /* \"#utility.yul\":2289:2353   */\n  tag_35\n  jump\t// in\ntag_83:\n    /* \"#utility.yul\":2273:2354   */\n  tag_34\n  jump\t// in\ntag_82:\n    /* \"#utility.yul\":2264:2354   */\n  swap1\n  pop\n    /* \"#utility.yul\":2374:2379   */\n  dup1\n    /* \"#utility.yul\":2403:2409   */\n  dup4\n    /* \"#utility.yul\":2396:2401   */\n  dup3\n    /* \"#utility.yul\":2389:2410   */\n  mstore\n    /* \"#utility.yul\":2437:2441   */\n  0x20\n    /* \"#utility.yul\":2430:2435   */\n  dup3\n    /* \"#utility.yul\":2426:2442   */\n  add\n    /* \"#utility.yul\":2419:2442   */\n  swap1\n  pop\n    /* \"#utility.yul\":2490:2494   */\n  0x20\n    /* \"#utility.yul\":2482:2488   */\n  dup5\n    /* \"#utility.yul\":2478:2495   */\n  mul\n    /* \"#utility.yul\":2470:2476   */\n  dup4\n    /* \"#utility.yul\":2466:2496   */\n  add\n    /* \"#utility.yul\":2519:2522   */\n  dup6\n    /* \"#utility.yul\":2511:2517   */\n  dup2\n    /* \"#utility.yul\":2508:2523   */\n  gt\n    /* \"#utility.yul\":2505:2627   */\n  iszero\n  tag_84\n  jumpi\n    /* \"#utility.yul\":2538:2617   */\n  tag_85\n  tag_36\n  jump\t// in\ntag_85:\n    /* \"#utility.yul\":2505:2627   */\ntag_84:\n    /* \"#utility.yul\":2653:2659   */\n  dup4\n    /* \"#utility.yul\":2636:2867   */\ntag_86:\n    /* \"#utility.yul\":2670:2676   */\n  dup2\n    /* \"#utility.yul\":2665:2668   */\n  dup2\n    /* \"#utility.yul\":2662:2677   */\n  lt\n    /* \"#utility.yul\":2636:2867   */\n  iszero\n  tag_88\n  jumpi\n    /* \"#utility.yul\":2745:2748   */\n  dup1\n    /* \"#utility.yul\":2774:2822   */\n  tag_89\n    /* \"#utility.yul\":2818:2821   */\n  dup9\n    /* \"#utility.yul\":2806:2816   */\n  dup3\n    /* \"#utility.yul\":2774:2822   */\n  tag_40\n  jump\t// in\ntag_89:\n    /* \"#utility.yul\":2769:2772   */\n  dup5\n    /* \"#utility.yul\":2762:2823   */\n  mstore\n    /* \"#utility.yul\":2852:2856   */\n  0x20\n    /* \"#utility.yul\":2847:2850   */\n  dup5\n    /* \"#utility.yul\":2843:2857   */\n  add\n    /* \"#utility.yul\":2836:2857   */\n  swap4\n  pop\n    /* \"#utility.yul\":2712:2867   */\n  pop\n    /* \"#utility.yul\":2696:2700   */\n  0x20\n    /* \"#utility.yul\":2691:2694   */\n  dup2\n    /* \"#utility.yul\":2687:2701   */\n  add\n    /* \"#utility.yul\":2680:2701   */\n  swap1\n  pop\n    /* \"#utility.yul\":2636:2867   */\n  jump(tag_86)\ntag_88:\n    /* \"#utility.yul\":2640:2661   */\n  pop\n    /* \"#utility.yul\":2254:2873   */\n  pop\n  pop\n    /* \"#utility.yul\":2141:2873   */\n  swap4\n  swap3\n  pop\n  pop\n  pop\n  jump\t// out\n    /* \"#utility.yul\":2896:3281   */\ntag_42:\n    /* \"#utility.yul\":2978:2983   */\n  0x00\n    /* \"#utility.yul\":3027:3030   */\n  dup3\n    /* \"#utility.yul\":3020:3024   */\n  0x1f\n    /* \"#utility.yul\":3012:3018   */\n  dup4\n    /* \"#utility.yul\":3008:3025   */\n  add\n    /* \"#utility.yul\":3004:3031   */\n  slt\n    /* \"#utility.yul\":2994:3116   */\n  tag_91\n  jumpi\n    /* \"#utility.yul\":3035:3114   */\n  tag_92\n  tag_30\n  jump\t// in\ntag_92:\n    /* \"#utility.yul\":2994:3116   */\ntag_91:\n    /* \"#utility.yul\":3145:3151   */\n  dup2\n    /* \"#utility.yul\":3139:3152   */\n  mload\n    /* \"#utility.yul\":3170:3275   */\n  tag_93\n    /* \"#utility.yul\":3271:3274   */\n  dup5\n    /* \"#utility.yul\":3263:3269   */\n  dup3\n    /* \"#utility.yul\":3256:3260   */\n  0x20\n    /* \"#utility.yul\":3248:3254   */\n  dup7\n    /* \"#utility.yul\":3244:3261   */\n  add\n    /* \"#utility.yul\":3170:3275   */\n  tag_41\n  jump\t// in\ntag_93:\n    /* \"#utility.yul\":3161:3275   */\n  swap2\n  pop\n    /* \"#utility.yul\":2984:3281   */\n  pop\n    /* \"#utility.yul\":2896:3281   */\n  swap3\n  swap2\n  pop\n  pop\n  jump\t// out\n    /* \"#utility.yul\":3287:3364   */\ntag_43:\n    /* \"#utility.yul\":3324:3331   */\n  0x00\n    /* \"#utility.yul\":3353:3358   */\n  dup2\n    /* \"#utility.yul\":3342:3358   */\n  swap1\n  pop\n    /* \"#utility.yul\":3287:3364   */\n  swap2\n  swap1\n  pop\n  jump\t// out\n    /* \"#utility.yul\":3370:3492   */\ntag_44:\n    /* \"#utility.yul\":3443:3467   */\n  tag_96\n    /* \"#utility.yul\":3461:3466   */\n  dup2\n    /* \"#utility.yul\":3443:3467   */\n  tag_43\n  jump\t// in\ntag_96:\n    /* \"#utility.yul\":3436:3441   */\n  dup2\n    /* \"#utility.yul\":3433:3468   */\n  eq\n    /* \"#utility.yul\":3423:3486   */\n  tag_97\n  jumpi\n    /* \"#utility.yul\":3482:3483   */\n  0x00\n    /* \"#utility.yul\":3479:3480   */\n  dup1\n    /* \"#utility.yul\":3472:3484   */\n  revert\n    /* \"#utility.yul\":3423:3486   */\ntag_97:\n    /* \"#utility.yul\":3370:3492   */\n  pop\n  jump\t// out\n    /* \"#utility.yul\":3498:3641   */\ntag_45:\n    /* \"#utility.yul\":3555:3560   */\n  0x00\n    /* \"#utility.yul\":3586:3592   */\n  dup2\n    /* \"#utility.yul\":3580:3593   */\n  mload\n    /* \"#utility.yul\":3571:3593   */\n  swap1\n  pop\n    /* \"#utility.yul\":3602:3635   */\n  tag_99\n    /* \"#utility.yul\":3629:3634   */\n  dup2\n    /* \"#utility.yul\":3602:3635   */\n  tag_44\n  jump\t// in\ntag_99:\n    /* \"#utility.yul\":3498:3641   */\n  swap3\n  swap2\n  pop\n  pop\n  jump\t// out\n    /* \"#utility.yul\":3647:4357   */\ntag_3:\n    /* \"#utility.yul\":3751:3757   */\n  0x00\n    /* \"#utility.yul\":3759:3765   */\n  dup1\n    /* \"#utility.yul\":3808:3810   */\n  0x40\n    /* \"#utility.yul\":3796:3805   */\n  dup4\n    /* \"#utility.yul\":3787:3794   */\n  dup6\n    /* \"#utility.yul\":3783:3806   */\n  sub\n    /* \"#utility.yul\":3779:3811   */\n  slt\n    /* \"#utility.yul\":3776:3895   */\n  iszero\n  tag_101\n  jumpi\n    /* \"#utility.yul\":3814:3893   */\n  tag_102\n  tag_28\n  jump\t// in\ntag_102:\n    /* \"#utility.yul\":3776:3895   */\ntag_101:\n    /* \"#utility.yul\":3955:3956   */\n  0x00\n    /* \"#utility.yul\":3944:3953   */\n  dup4\n    /* \"#utility.yul\":3940:3957   */\n  add\n    /* \"#utility.yul\":3934:3958   */\n  mload\n    /* \"#utility.yul\":3985:4003   */\n  0xffffffffffffffff\n    /* \"#utility.yul\":3977:3983   */\n  dup2\n    /* \"#utility.yul\":3974:4004   */\n  gt\n    /* \"#utility.yul\":3971:4088   */\n  iszero\n  tag_103\n  jumpi\n    /* \"#utility.yul\":4007:4086   */\n  tag_104\n  tag_29\n  jump\t// in\ntag_104:\n    /* \"#utility.yul\":3971:4088   */\ntag_103:\n    /* \"#utility.yul\":4112:4201   */\n  tag_105\n    /* \"#utility.yul\":4193:4200   */\n  dup6\n    /* \"#utility.yul\":4184:4190   */\n  dup3\n    /* \"#utility.yul\":4173:4182   */\n  dup7\n    /* \"#utility.yul\":4169:4191   */\n  add\n    /* \"#utility.yul\":4112:4201   */\n  tag_42\n  jump\t// in\ntag_105:\n    /* \"#utility.yul\":4102:4201   */\n  swap3\n  pop\n    /* \"#utility.yul\":3905:4211   */\n  pop\n    /* \"#utility.yul\":4250:4252   */\n  0x20\n    /* \"#utility.yul\":4276:4340   */\n  tag_106\n    /* \"#utility.yul\":4332:4339   */\n  dup6\n    /* \"#utility.yul\":4323:4329   */\n  dup3\n    /* \"#utility.yul\":4312:4321   */\n  dup7\n    /* \"#utility.yul\":4308:4330   */\n  add\n    /* \"#utility.yul\":4276:4340   */\n  tag_45\n  jump\t// in\ntag_106:\n    /* \"#utility.yul\":4266:4340   */\n  swap2\n  pop\n    /* \"#utility.yul\":4221:4350   */\n  pop\n    /* \"#utility.yul\":3647:4357   */\n  swap3\n  pop\n  swap3\n  swap1\n  pop\n  jump\t// out\n    /* \"#utility.yul\":4363:4532   */\ntag_46:\n    /* \"#utility.yul\":4447:4458   */\n  0x00\n    /* \"#utility.yul\":4481:4487   */\n  dup3\n    /* \"#utility.yul\":4476:4479   */\n  dup3\n    /* \"#utility.yul\":4469:4488   */\n  mstore\n    /* \"#utility.yul\":4521:4525   */\n  0x20\n    /* \"#utility.yul\":4516:4519   */\n  dup3\n    /* \"#utility.yul\":4512:4526   */\n  add\n    /* \"#utility.yul\":4497:4526   */\n  swap1\n  pop\n    /* \"#utility.yul\":4363:4532   */\n  swap3\n  swap2\n  pop\n  pop\n  jump\t// out\n    /* \"#utility.yul\":4538:4703   */\ntag_47:\n    /* \"#utility.yul\":4678:4695   */\n  0x4f776e6572732052657175697265640000000000000000000000000000000000\n    /* \"#utility.yul\":4674:4675   */\n  0x00\n    /* \"#utility.yul\":4666:4672   */\n  dup3\n    /* \"#utility.yul\":4662:4676   */\n  add\n    /* \"#utility.yul\":4655:4696   */\n  mstore\n    /* \"#utility.yul\":4538:4703   */\n  pop\n  jump\t// out\n    /* \"#utility.yul\":4709:5075   */\ntag_48:\n    /* \"#utility.yul\":4851:4854   */\n  0x00\n    /* \"#utility.yul\":4872:4939   */\n  tag_110\n    /* \"#utility.yul\":4936:4938   */\n  0x0f\n    /* \"#utility.yul\":4931:4934   */\n  dup4\n    /* \"#utility.yul\":4872:4939   */\n  tag_46\n  jump\t// in\ntag_110:\n    /* \"#utility.yul\":4865:4939   */\n  swap2\n  pop\n    /* \"#utility.yul\":4948:5041   */\n  tag_111\n    /* \"#utility.yul\":5037:5040   */\n  dup3\n    /* \"#utility.yul\":4948:5041   */\n  tag_47\n  jump\t// in\ntag_111:\n    /* \"#utility.yul\":5066:5068   */\n  0x20\n    /* \"#utility.yul\":5061:5064   */\n  dup3\n    /* \"#utility.yul\":5057:5069   */\n  add\n    /* \"#utility.yul\":5050:5069   */\n  swap1\n  pop\n    /* \"#utility.yul\":4709:5075   */\n  swap2\n  swap1\n  pop\n  jump\t// out\n    /* \"#utility.yul\":5081:5500   */\ntag_8:\n    /* \"#utility.yul\":5247:5251   */\n  0x00\n    /* \"#utility.yul\":5285:5287   */\n  0x20\n    /* \"#utility.yul\":5274:5283   */\n  dup3\n    /* \"#utility.yul\":5270:5288   */\n  add\n    /* \"#utility.yul\":5262:5288   */\n  swap1\n  pop\n    /* \"#utility.yul\":5334:5343   */\n  dup2\n    /* \"#utility.yul\":5328:5332   */\n  dup2\n    /* \"#utility.yul\":5324:5344   */\n  sub\n    /* \"#utility.yul\":5320:5321   */\n  0x00\n    /* \"#utility.yul\":5309:5318   */\n  dup4\n    /* \"#utility.yul\":5305:5322   */\n  add\n    /* \"#utility.yul\":5298:5345   */\n  mstore\n    /* \"#utility.yul\":5362:5493   */\n  tag_113\n    /* \"#utility.yul\":5488:5492   */\n  dup2\n    /* \"#utility.yul\":5362:5493   */\n  tag_48\n  jump\t// in\ntag_113:\n    /* \"#utility.yul\":5354:5493   */\n  swap1\n  pop\n    /* \"#utility.yul\":5081:5500   */\n  swap2\n  swap1\n  pop\n  jump\t// out\n    /* \"#utility.yul\":5506:5687   */\ntag_49:\n    /* \"#utility.yul\":5646:5679   */\n  0x496e76616c6964204e756d626572206f6620436f6e6669726d6174696f6e7300\n    /* \"#utility.yul\":5642:5643   */\n  0x00\n    /* \"#utility.yul\":5634:5640   */\n  dup3\n    /* \"#utility.yul\":5630:5644   */\n  add\n    /* \"#utility.yul\":5623:5680   */\n  mstore\n    /* \"#utility.yul\":5506:5687   */\n  pop\n  jump\t// out\n    /* \"#utility.yul\":5693:6059   */\ntag_50:\n    /* \"#utility.yul\":5835:5838   */\n  0x00\n    /* \"#utility.yul\":5856:5923   */\n  tag_116\n    /* \"#utility.yul\":5920:5922   */\n  0x1f\n    /* \"#utility.yul\":5915:5918   */\n  dup4\n    /* \"#utility.yul\":5856:5923   */\n  tag_46\n  jump\t// in\ntag_116:\n    /* \"#utility.yul\":5849:5923   */\n  swap2\n  pop\n    /* \"#utility.yul\":5932:6025   */\n  tag_117\n    /* \"#utility.yul\":6021:6024   */\n  dup3\n    /* \"#utility.yul\":5932:6025   */\n  tag_49\n  jump\t// in\ntag_117:\n    /* \"#utility.yul\":6050:6052   */\n  0x20\n    /* \"#utility.yul\":6045:6048   */\n  dup3\n    /* \"#utility.yul\":6041:6053   */\n  add\n    /* \"#utility.yul\":6034:6053   */\n  swap1\n  pop\n    /* \"#utility.yul\":5693:6059   */\n  swap2\n  swap1\n  pop\n  jump\t// out\n    /* \"#utility.yul\":6065:6484   */\ntag_12:\n    /* \"#utility.yul\":6231:6235   */\n  0x00\n    /* \"#utility.yul\":6269:6271   */\n  0x20\n    /* \"#utility.yul\":6258:6267   */\n  dup3\n    /* \"#utility.yul\":6254:6272   */\n  add\n    /* \"#utility.yul\":6246:6272   */\n  swap1\n  pop\n    /* \"#utility.yul\":6318:6327   */\n  dup2\n    /* \"#utility.yul\":6312:6316   */\n  dup2\n    /* \"#utility.yul\":6308:6328   */\n  sub\n    /* \"#utility.yul\":6304:6305   */\n  0x00\n    /* \"#utility.yul\":6293:6302   */\n  dup4\n    /* \"#utility.yul\":6289:6306   */\n  add\n    /* \"#utility.yul\":6282:6329   */\n  mstore\n    /* \"#utility.yul\":6346:6477   */\n  tag_119\n    /* \"#utility.yul\":6472:6476   */\n  dup2\n    /* \"#utility.yul\":6346:6477   */\n  tag_50\n  jump\t// in\ntag_119:\n    /* \"#utility.yul\":6338:6477   */\n  swap1\n  pop\n    /* \"#utility.yul\":6065:6484   */\n  swap2\n  swap1\n  pop\n  jump\t// out\n    /* \"#utility.yul\":6490:6670   */\ntag_18:\n    /* \"#utility.yul\":6538:6615   */\n  0x4e487b7100000000000000000000000000000000000000000000000000000000\n    /* \"#utility.yul\":6535:6536   */\n  0x00\n    /* \"#utility.yul\":6528:6616   */\n  mstore\n    /* \"#utility.yul\":6635:6639   */\n  0x32\n    /* \"#utility.yul\":6632:6633   */\n  0x04\n    /* \"#utility.yul\":6625:6640   */\n  mstore\n    /* \"#utility.yul\":6659:6663   */\n  0x24\n    /* \"#utility.yul\":6656:6657   */\n  0x00\n    /* \"#utility.yul\":6649:6664   */\n  revert\n    /* \"#utility.yul\":6676:6839   */\ntag_51:\n    /* \"#utility.yul\":6816:6831   */\n  0x696e76616c6964206f776e657200000000000000000000000000000000000000\n    /* \"#utility.yul\":6812:6813   */\n  0x00\n    /* \"#utility.yul\":6804:6810   */\n  dup3\n    /* \"#utility.yul\":6800:6814   */\n  add\n    /* \"#utility.yul\":6793:6832   */\n  mstore\n    /* \"#utility.yul\":6676:6839   */\n  pop\n  jump\t// out\n    /* \"#utility.yul\":6845:7211   */\ntag_52:\n    /* \"#utility.yul\":6987:6990   */\n  0x00\n    /* \"#utility.yul\":7008:7075   */\n  tag_123\n    /* \"#utility.yul\":7072:7074   */\n  0x0d\n    /* \"#utility.yul\":7067:7070   */\n  dup4\n    /* \"#utility.yul\":7008:7075   */\n  tag_46\n  jump\t// in\ntag_123:\n    /* \"#utility.yul\":7001:7075   */\n  swap2\n  pop\n    /* \"#utility.yul\":7084:7177   */\n  tag_124\n    /* \"#utility.yul\":7173:7176   */\n  dup3\n    /* \"#utility.yul\":7084:7177   */\n  tag_51\n  jump\t// in\ntag_124:\n    /* \"#utility.yul\":7202:7204   */\n  0x20\n    /* \"#utility.yul\":7197:7200   */\n  dup3\n    /* \"#utility.yul\":7193:7205   */\n  add\n    /* \"#utility.yul\":7186:7205   */\n  swap1\n  pop\n    /* \"#utility.yul\":6845:7211   */\n  swap2\n  swap1\n  pop\n  jump\t// out\n    /* \"#utility.yul\":7217:7636   */\ntag_21:\n    /* \"#utility.yul\":7383:7387   */\n  0x00\n    /* \"#utility.yul\":7421:7423   */\n  0x20\n    /* \"#utility.yul\":7410:7419   */\n  dup3\n    /* \"#utility.yul\":7406:7424   */\n  add\n    /* \"#utility.yul\":7398:7424   */\n  swap1\n  pop\n    /* \"#utility.yul\":7470:7479   */\n  dup2\n    /* \"#utility.yul\":7464:7468   */\n  dup2\n    /* \"#utility.yul\":7460:7480   */\n  sub\n    /* \"#utility.yul\":7456:7457   */\n  0x00\n    /* \"#utility.yul\":7445:7454   */\n  dup4\n    /* \"#utility.yul\":7441:7458   */\n  add\n    /* \"#utility.yul\":7434:7481   */\n  mstore\n    /* \"#utility.yul\":7498:7629   */\n  tag_126\n    /* \"#utility.yul\":7624:7628   */\n  dup2\n    /* \"#utility.yul\":7498:7629   */\n  tag_52\n  jump\t// in\ntag_126:\n    /* \"#utility.yul\":7490:7629   */\n  swap1\n  pop\n    /* \"#utility.yul\":7217:7636   */\n  swap2\n  swap1\n  pop\n  jump\t// out\n    /* \"#utility.yul\":7642:7808   */\ntag_53:\n    /* \"#utility.yul\":7782:7800   */\n  0x6f776e6572206e6f7420756e6971756500000000000000000000000000000000\n    /* \"#utility.yul\":7778:7779   */\n  0x00\n    /* \"#utility.yul\":7770:7776   */\n  dup3\n    /* \"#utility.yul\":7766:7780   */\n  add\n    /* \"#utility.yul\":7759:7801   */\n  mstore\n    /* \"#utility.yul\":7642:7808   */\n  pop\n  jump\t// out\n    /* \"#utility.yul\":7814:8180   */\ntag_54:\n    /* \"#utility.yul\":7956:7959   */\n  0x00\n    /* \"#utility.yul\":7977:8044   */\n  tag_129\n    /* \"#utility.yul\":8041:8043   */\n  0x10\n    /* \"#utility.yul\":8036:8039   */\n  dup4\n    /* \"#utility.yul\":7977:8044   */\n  tag_46\n  jump\t// in\ntag_129:\n    /* \"#utility.yul\":7970:8044   */\n  swap2\n  pop\n    /* \"#utility.yul\":8053:8146   */\n  tag_130\n    /* \"#utility.yul\":8142:8145   */\n  dup3\n    /* \"#utility.yul\":8053:8146   */\n  tag_53\n  jump\t// in\ntag_130:\n    /* \"#utility.yul\":8171:8173   */\n  0x20\n    /* \"#utility.yul\":8166:8169   */\n  dup3\n    /* \"#utility.yul\":8162:8174   */\n  add\n    /* \"#utility.yul\":8155:8174   */\n  swap1\n  pop\n    /* \"#utility.yul\":7814:8180   */\n  swap2\n  swap1\n  pop\n  jump\t// out\n    /* \"#utility.yul\":8186:8605   */\ntag_24:\n    /* \"#utility.yul\":8352:8356   */\n  0x00\n    /* \"#utility.yul\":8390:8392   */\n  0x20\n    /* \"#utility.yul\":8379:8388   */\n  dup3\n    /* \"#utility.yul\":8375:8393   */\n  add\n    /* \"#utility.yul\":8367:8393   */\n  swap1\n  pop\n    /* \"#utility.yul\":8439:8448   */\n  dup2\n    /* \"#utility.yul\":8433:8437   */\n  dup2\n    /* \"#utility.yul\":8429:8449   */\n  sub\n    /* \"#utility.yul\":8425:8426   */\n  0x00\n    /* \"#utility.yul\":8414:8423   */\n  dup4\n    /* \"#utility.yul\":8410:8427   */\n  add\n    /* \"#utility.yul\":8403:8450   */\n  mstore\n    /* \"#utility.yul\":8467:8598   */\n  tag_132\n    /* \"#utility.yul\":8593:8597   */\n  dup2\n    /* \"#utility.yul\":8467:8598   */\n  tag_54\n  jump\t// in\ntag_132:\n    /* \"#utility.yul\":8459:8598   */\n  swap1\n  pop\n    /* \"#utility.yul\":8186:8605   */\n  swap2\n  swap1\n  pop\n  jump\t// out\n    /* \"wallet/multiSigwallet.sol\":58:2420  contract MultiSigWallet {... */\ntag_26:\n  dataSize(sub_0)\n  dup1\n  dataOffset(sub_0)\n  0x00\n  codecopy\n  0x00\n  return\nstop\n\nsub_0: assembly {\n        /* \"wallet/multiSigwallet.sol\":58:2420  contract MultiSigWallet {... */\n      mstore(0x40, 0x80)\n      jumpi(tag_1, lt(calldatasize, 0x04))\n      shr(0xe0, calldataload(0x00))\n      dup1\n      0x025e7c27\n      eq\n      tag_3\n      jumpi\n      dup1\n      0x2f54bf6e\n      eq\n      tag_4\n      jumpi\n      dup1\n      0x80f59a65\n      eq\n      tag_5\n      jumpi\n      dup1\n      0x9ace38c2\n      eq\n      tag_6\n      jumpi\n      dup1\n      0xdc108deb\n      eq\n      tag_7\n      jumpi\n      jump(tag_2)\n    tag_1:\n      jumpi(tag_2, calldatasize)\n        /* \"wallet/multiSigwallet.sol\":2333:2343  msg.sender */\n      caller\n        /* \"wallet/multiSigwallet.sol\":2325:2378  Deposit(msg.sender, msg.value, address(this).balance) */\n      0xffffffffffffffffffffffffffffffffffffffff\n      and\n      0x90890809c654f11d6e72a28fa60149770a0d11ec6c92319d6ceb2bb0a4ea1a15\n        /* \"wallet/multiSigwallet.sol\":2345:2354  msg.value */\n      callvalue\n        /* \"wallet/multiSigwallet.sol\":2356:2377  address(this).balance */\n      selfbalance\n        /* \"wallet/multiSigwallet.sol\":2325:2378  Deposit(msg.sender, msg.value, address(this).balance) */\n      mload(0x40)\n      tag_10\n      swap3\n      swap2\n      swap1\n      tag_11\n      jump\t// in\n    tag_10:\n      mload(0x40)\n      dup1\n      swap2\n      sub\n      swap1\n      log2\n        /* \"wallet/multiSigwallet.sol\":58:2420  contract MultiSigWallet {... */\n      stop\n    tag_2:\n      0x00\n      dup1\n      revert\n        /* \"wallet/multiSigwallet.sol\":669:693  address [] public owners */\n    tag_3:\n      callvalue\n      dup1\n      iszero\n      tag_12\n      jumpi\n      0x00\n      dup1\n      revert\n    tag_12:\n      pop\n      tag_13\n      0x04\n      dup1\n      calldatasize\n      sub\n      dup2\n      add\n      swap1\n      tag_14\n      swap2\n      swap1\n      tag_15\n      jump\t// in\n    tag_14:\n      tag_16\n      jump\t// in\n    tag_13:\n      mload(0x40)\n      tag_17\n      swap2\n      swap1\n      tag_18\n      jump\t// in\n    tag_17:\n      mload(0x40)\n      dup1\n      swap2\n      sub\n      swap1\n      return\n        /* \"wallet/multiSigwallet.sol\":699:738  mapping(address => bool) public isOwner */\n    tag_4:\n      callvalue\n      dup1\n      iszero\n      tag_19\n      jumpi\n      0x00\n      dup1\n      revert\n    tag_19:\n      pop\n      tag_20\n      0x04\n      dup1\n      calldatasize\n      sub\n      dup2\n      add\n      swap1\n      tag_21\n      swap2\n      swap1\n      tag_22\n      jump\t// in\n    tag_21:\n      tag_23\n      jump\t// in\n    tag_20:\n      mload(0x40)\n      tag_24\n      swap2\n      swap1\n      tag_25\n      jump\t// in\n    tag_24:\n      mload(0x40)\n      dup1\n      swap2\n      sub\n      swap1\n      return\n        /* \"wallet/multiSigwallet.sol\":970:1030  mapping(uint => mapping(address => bool)) public isConfirmed */\n    tag_5:\n      callvalue\n      dup1\n      iszero\n      tag_26\n      jumpi\n      0x00\n      dup1\n      revert\n    tag_26:\n      pop\n      tag_27\n      0x04\n      dup1\n      calldatasize\n      sub\n      dup2\n      add\n      swap1\n      tag_28\n      swap2\n      swap1\n      tag_29\n      jump\t// in\n    tag_28:\n      tag_30\n      jump\t// in\n    tag_27:\n      mload(0x40)\n      tag_31\n      swap2\n      swap1\n      tag_25\n      jump\t// in\n    tag_31:\n      mload(0x40)\n      dup1\n      swap2\n      sub\n      swap1\n      return\n        /* \"wallet/multiSigwallet.sol\":1083:1116  Transaction[] public transactions */\n    tag_6:\n      callvalue\n      dup1\n      iszero\n      tag_32\n      jumpi\n      0x00\n      dup1\n      revert\n    tag_32:\n      pop\n      tag_33\n      0x04\n      dup1\n      calldatasize\n      sub\n      dup2\n      add\n      swap1\n      tag_34\n      swap2\n      swap1\n      tag_15\n      jump\t// in\n    tag_34:\n      tag_35\n      jump\t// in\n    tag_33:\n      mload(0x40)\n      tag_36\n      swap6\n      swap5\n      swap4\n      swap3\n      swap2\n      swap1\n      tag_37\n      jump\t// in\n    tag_36:\n      mload(0x40)\n      dup1\n      swap2\n      sub\n      swap1\n      return\n        /* \"wallet/multiSigwallet.sol\":744:772  uint public numConfirmations */\n    tag_7:\n      callvalue\n      dup1\n      iszero\n      tag_38\n      jumpi\n      0x00\n      dup1\n      revert\n    tag_38:\n      pop\n      tag_39\n      tag_40\n      jump\t// in\n    tag_39:\n      mload(0x40)\n      tag_41\n      swap2\n      swap1\n      tag_42\n      jump\t// in\n    tag_41:\n      mload(0x40)\n      dup1\n      swap2\n      sub\n      swap1\n      return\n        /* \"wallet/multiSigwallet.sol\":669:693  address [] public owners */\n    tag_16:\n      0x00\n      dup2\n      dup2\n      sload\n      dup2\n      lt\n      tag_43\n      jumpi\n      0x00\n      dup1\n      revert\n    tag_43:\n      swap1\n      0x00\n      mstore\n      keccak256(0x00, 0x20)\n      add\n      0x00\n      swap2\n      pop\n      sload\n      swap1\n      0x0100\n      exp\n      swap1\n      div\n      0xffffffffffffffffffffffffffffffffffffffff\n      and\n      dup2\n      jump\t// out\n        /* \"wallet/multiSigwallet.sol\":699:738  mapping(address => bool) public isOwner */\n    tag_23:\n      mstore(0x20, 0x01)\n      dup1\n      0x00\n      mstore\n      keccak256(0x00, 0x40)\n      0x00\n      swap2\n      pop\n      sload\n      swap1\n      0x0100\n      exp\n      swap1\n      div\n      0xff\n      and\n      dup2\n      jump\t// out\n        /* \"wallet/multiSigwallet.sol\":970:1030  mapping(uint => mapping(address => bool)) public isConfirmed */\n    tag_30:\n      mstore(0x20, 0x03)\n      dup2\n      0x00\n      mstore\n      mstore(0x20, keccak256(0x00, 0x40))\n      dup1\n      0x00\n      mstore\n      keccak256(0x00, 0x40)\n      0x00\n      swap2\n      pop\n      swap2\n      pop\n      swap1\n      sload\n      swap1\n      0x0100\n      exp\n      swap1\n      div\n      0xff\n      and\n      dup2\n      jump\t// out\n        /* \"wallet/multiSigwallet.sol\":1083:1116  Transaction[] public transactions */\n    tag_35:\n      0x04\n      dup2\n      dup2\n      sload\n      dup2\n      lt\n      tag_45\n      jumpi\n      0x00\n      dup1\n      revert\n    tag_45:\n      swap1\n      0x00\n      mstore\n      keccak256(0x00, 0x20)\n      swap1\n      0x05\n      mul\n      add\n      0x00\n      swap2\n      pop\n      swap1\n      pop\n      dup1\n      0x00\n      add\n      0x00\n      swap1\n      sload\n      swap1\n      0x0100\n      exp\n      swap1\n      div\n      0xffffffffffffffffffffffffffffffffffffffff\n      and\n      swap1\n      dup1\n      0x01\n      add\n      sload\n      swap1\n      dup1\n      0x02\n      add\n      dup1\n      sload\n      tag_47\n      swap1\n      tag_48\n      jump\t// in\n    tag_47:\n      dup1\n      0x1f\n      add\n      0x20\n      dup1\n      swap2\n      div\n      mul\n      0x20\n      add\n      mload(0x40)\n      swap1\n      dup2\n      add\n      0x40\n      mstore\n      dup1\n      swap3\n      swap2\n      swap1\n      dup2\n      dup2\n      mstore\n      0x20\n      add\n      dup3\n      dup1\n      sload\n      tag_49\n      swap1\n      tag_48\n      jump\t// in\n    tag_49:\n      dup1\n      iszero\n      tag_50\n      jumpi\n      dup1\n      0x1f\n      lt\n      tag_51\n      jumpi\n      0x0100\n      dup1\n      dup4\n      sload\n      div\n      mul\n      dup4\n      mstore\n      swap2\n      0x20\n      add\n      swap2\n      jump(tag_50)\n    tag_51:\n      dup3\n      add\n      swap2\n      swap1\n      0x00\n      mstore\n      keccak256(0x00, 0x20)\n      swap1\n    tag_52:\n      dup2\n      sload\n      dup2\n      mstore\n      swap1\n      0x01\n      add\n      swap1\n      0x20\n      add\n      dup1\n      dup4\n      gt\n      tag_52\n      jumpi\n      dup3\n      swap1\n      sub\n      0x1f\n      and\n      dup3\n      add\n      swap2\n    tag_50:\n      pop\n      pop\n      pop\n      pop\n      pop\n      swap1\n      dup1\n      0x03\n      add\n      0x00\n      swap1\n      sload\n      swap1\n      0x0100\n      exp\n      swap1\n      div\n      0xff\n      and\n      swap1\n      dup1\n      0x04\n      add\n      sload\n      swap1\n      pop\n      dup6\n      jump\t// out\n        /* \"wallet/multiSigwallet.sol\":744:772  uint public numConfirmations */\n    tag_40:\n      sload(0x02)\n      dup2\n      jump\t// out\n        /* \"#utility.yul\":7:84   */\n    tag_53:\n        /* \"#utility.yul\":44:51   */\n      0x00\n        /* \"#utility.yul\":73:78   */\n      dup2\n        /* \"#utility.yul\":62:78   */\n      swap1\n      pop\n        /* \"#utility.yul\":7:84   */\n      swap2\n      swap1\n      pop\n      jump\t// out\n        /* \"#utility.yul\":90:208   */\n    tag_54:\n        /* \"#utility.yul\":177:201   */\n      tag_76\n        /* \"#utility.yul\":195:200   */\n      dup2\n        /* \"#utility.yul\":177:201   */\n      tag_53\n      jump\t// in\n    tag_76:\n        /* \"#utility.yul\":172:175   */\n      dup3\n        /* \"#utility.yul\":165:202   */\n      mstore\n        /* \"#utility.yul\":90:208   */\n      pop\n      pop\n      jump\t// out\n        /* \"#utility.yul\":214:546   */\n    tag_11:\n        /* \"#utility.yul\":335:339   */\n      0x00\n        /* \"#utility.yul\":373:375   */\n      0x40\n        /* \"#utility.yul\":362:371   */\n      dup3\n        /* \"#utility.yul\":358:376   */\n      add\n        /* \"#utility.yul\":350:376   */\n      swap1\n      pop\n        /* \"#utility.yul\":386:457   */\n      tag_78\n        /* \"#utility.yul\":454:455   */\n      0x00\n        /* \"#utility.yul\":443:452   */\n      dup4\n        /* \"#utility.yul\":439:456   */\n      add\n        /* \"#utility.yul\":430:436   */\n      dup6\n        /* \"#utility.yul\":386:457   */\n      tag_54\n      jump\t// in\n    tag_78:\n        /* \"#utility.yul\":467:539   */\n      tag_79\n        /* \"#utility.yul\":535:537   */\n      0x20\n        /* \"#utility.yul\":524:533   */\n      dup4\n        /* \"#utility.yul\":520:538   */\n      add\n        /* \"#utility.yul\":511:517   */\n      dup5\n        /* \"#utility.yul\":467:539   */\n      tag_54\n      jump\t// in\n    tag_79:\n        /* \"#utility.yul\":214:546   */\n      swap4\n      swap3\n      pop\n      pop\n      pop\n      jump\t// out\n        /* \"#utility.yul\":633:750   */\n    tag_56:\n        /* \"#utility.yul\":742:743   */\n      0x00\n        /* \"#utility.yul\":739:740   */\n      dup1\n        /* \"#utility.yul\":732:744   */\n      revert\n        /* \"#utility.yul\":879:1001   */\n    tag_58:\n        /* \"#utility.yul\":952:976   */\n      tag_84\n        /* \"#utility.yul\":970:975   */\n      dup2\n        /* \"#utility.yul\":952:976   */\n      tag_53\n      jump\t// in\n    tag_84:\n        /* \"#utility.yul\":945:950   */\n      dup2\n        /* \"#utility.yul\":942:977   */\n      eq\n        /* \"#utility.yul\":932:995   */\n      tag_85\n      jumpi\n        /* \"#utility.yul\":991:992   */\n      0x00\n        /* \"#utility.yul\":988:989   */\n      dup1\n        /* \"#utility.yul\":981:993   */\n      revert\n        /* \"#utility.yul\":932:995   */\n    tag_85:\n        /* \"#utility.yul\":879:1001   */\n      pop\n      jump\t// out\n        /* \"#utility.yul\":1007:1146   */\n    tag_59:\n        /* \"#utility.yul\":1053:1058   */\n      0x00\n        /* \"#utility.yul\":1091:1097   */\n      dup2\n        /* \"#utility.yul\":1078:1098   */\n      calldataload\n        /* \"#utility.yul\":1069:1098   */\n      swap1\n      pop\n        /* \"#utility.yul\":1107:1140   */\n      tag_87\n        /* \"#utility.yul\":1134:1139   */\n      dup2\n        /* \"#utility.yul\":1107:1140   */\n      tag_58\n      jump\t// in\n    tag_87:\n        /* \"#utility.yul\":1007:1146   */\n      swap3\n      swap2\n      pop\n      pop\n      jump\t// out\n        /* \"#utility.yul\":1152:1481   */\n    tag_15:\n        /* \"#utility.yul\":1211:1217   */\n      0x00\n        /* \"#utility.yul\":1260:1262   */\n      0x20\n        /* \"#utility.yul\":1248:1257   */\n      dup3\n        /* \"#utility.yul\":1239:1246   */\n      dup5\n        /* \"#utility.yul\":1235:1258   */\n      sub\n        /* \"#utility.yul\":1231:1263   */\n      slt\n        /* \"#utility.yul\":1228:1347   */\n      iszero\n      tag_89\n      jumpi\n        /* \"#utility.yul\":1266:1345   */\n      tag_90\n      tag_56\n      jump\t// in\n    tag_90:\n        /* \"#utility.yul\":1228:1347   */\n    tag_89:\n        /* \"#utility.yul\":1386:1387   */\n      0x00\n        /* \"#utility.yul\":1411:1464   */\n      tag_91\n        /* \"#utility.yul\":1456:1463   */\n      dup5\n        /* \"#utility.yul\":1447:1453   */\n      dup3\n        /* \"#utility.yul\":1436:1445   */\n      dup6\n        /* \"#utility.yul\":1432:1454   */\n      add\n        /* \"#utility.yul\":1411:1464   */\n      tag_59\n      jump\t// in\n    tag_91:\n        /* \"#utility.yul\":1401:1464   */\n      swap2\n      pop\n        /* \"#utility.yul\":1357:1474   */\n      pop\n        /* \"#utility.yul\":1152:1481   */\n      swap3\n      swap2\n      pop\n      pop\n      jump\t// out\n        /* \"#utility.yul\":1487:1613   */\n    tag_60:\n        /* \"#utility.yul\":1524:1531   */\n      0x00\n        /* \"#utility.yul\":1564:1606   */\n      0xffffffffffffffffffffffffffffffffffffffff\n        /* \"#utility.yul\":1557:1562   */\n      dup3\n        /* \"#utility.yul\":1553:1607   */\n      and\n        /* \"#utility.yul\":1542:1607   */\n      swap1\n      pop\n        /* \"#utility.yul\":1487:1613   */\n      swap2\n      swap1\n      pop\n      jump\t// out\n        /* \"#utility.yul\":1619:1715   */\n    tag_61:\n        /* \"#utility.yul\":1656:1663   */\n      0x00\n        /* \"#utility.yul\":1685:1709   */\n      tag_94\n        /* \"#utility.yul\":1703:1708   */\n      dup3\n        /* \"#utility.yul\":1685:1709   */\n      tag_60\n      jump\t// in\n    tag_94:\n        /* \"#utility.yul\":1674:1709   */\n      swap1\n      pop\n        /* \"#utility.yul\":1619:1715   */\n      swap2\n      swap1\n      pop\n      jump\t// out\n        /* \"#utility.yul\":1721:1839   */\n    tag_62:\n        /* \"#utility.yul\":1808:1832   */\n      tag_96\n        /* \"#utility.yul\":1826:1831   */\n      dup2\n        /* \"#utility.yul\":1808:1832   */\n      tag_61\n      jump\t// in\n    tag_96:\n        /* \"#utility.yul\":1803:1806   */\n      dup3\n        /* \"#utility.yul\":1796:1833   */\n      mstore\n        /* \"#utility.yul\":1721:1839   */\n      pop\n      pop\n      jump\t// out\n        /* \"#utility.yul\":1845:2067   */\n    tag_18:\n        /* \"#utility.yul\":1938:1942   */\n      0x00\n        /* \"#utility.yul\":1976:1978   */\n      0x20\n        /* \"#utility.yul\":1965:1974   */\n      dup3\n        /* \"#utility.yul\":1961:1979   */\n      add\n        /* \"#utility.yul\":1953:1979   */\n      swap1\n      pop\n        /* \"#utility.yul\":1989:2060   */\n      tag_98\n        /* \"#utility.yul\":2057:2058   */\n      0x00\n        /* \"#utility.yul\":2046:2055   */\n      dup4\n        /* \"#utility.yul\":2042:2059   */\n      add\n        /* \"#utility.yul\":2033:2039   */\n      dup5\n        /* \"#utility.yul\":1989:2060   */\n      tag_62\n      jump\t// in\n    tag_98:\n        /* \"#utility.yul\":1845:2067   */\n      swap3\n      swap2\n      pop\n      pop\n      jump\t// out\n        /* \"#utility.yul\":2073:2195   */\n    tag_63:\n        /* \"#utility.yul\":2146:2170   */\n      tag_100\n        /* \"#utility.yul\":2164:2169   */\n      dup2\n        /* \"#utility.yul\":2146:2170   */\n      tag_61\n      jump\t// in\n    tag_100:\n        /* \"#utility.yul\":2139:2144   */\n      dup2\n        /* \"#utility.yul\":2136:2171   */\n      eq\n        /* \"#utility.yul\":2126:2189   */\n      tag_101\n      jumpi\n        /* \"#utility.yul\":2185:2186   */\n      0x00\n        /* \"#utility.yul\":2182:2183   */\n      dup1\n        /* \"#utility.yul\":2175:2187   */\n      revert\n        /* \"#utility.yul\":2126:2189   */\n    tag_101:\n        /* \"#utility.yul\":2073:2195   */\n      pop\n      jump\t// out\n        /* \"#utility.yul\":2201:2340   */\n    tag_64:\n        /* \"#utility.yul\":2247:2252   */\n      0x00\n        /* \"#utility.yul\":2285:2291   */\n      dup2\n        /* \"#utility.yul\":2272:2292   */\n      calldataload\n        /* \"#utility.yul\":2263:2292   */\n      swap1\n      pop\n        /* \"#utility.yul\":2301:2334   */\n      tag_103\n        /* \"#utility.yul\":2328:2333   */\n      dup2\n        /* \"#utility.yul\":2301:2334   */\n      tag_63\n      jump\t// in\n    tag_103:\n        /* \"#utility.yul\":2201:2340   */\n      swap3\n      swap2\n      pop\n      pop\n      jump\t// out\n        /* \"#utility.yul\":2346:2675   */\n    tag_22:\n        /* \"#utility.yul\":2405:2411   */\n      0x00\n        /* \"#utility.yul\":2454:2456   */\n      0x20\n        /* \"#utility.yul\":2442:2451   */\n      dup3\n        /* \"#utility.yul\":2433:2440   */\n      dup5\n        /* \"#utility.yul\":2429:2452   */\n      sub\n        /* \"#utility.yul\":2425:2457   */\n      slt\n        /* \"#utility.yul\":2422:2541   */\n      iszero\n      tag_105\n      jumpi\n        /* \"#utility.yul\":2460:2539   */\n      tag_106\n      tag_56\n      jump\t// in\n    tag_106:\n        /* \"#utility.yul\":2422:2541   */\n    tag_105:\n        /* \"#utility.yul\":2580:2581   */\n      0x00\n        /* \"#utility.yul\":2605:2658   */\n      tag_107\n        /* \"#utility.yul\":2650:2657   */\n      dup5\n        /* \"#utility.yul\":2641:2647   */\n      dup3\n        /* \"#utility.yul\":2630:2639   */\n      dup6\n        /* \"#utility.yul\":2626:2648   */\n      add\n        /* \"#utility.yul\":2605:2658   */\n      tag_64\n      jump\t// in\n    tag_107:\n        /* \"#utility.yul\":2595:2658   */\n      swap2\n      pop\n        /* \"#utility.yul\":2551:2668   */\n      pop\n        /* \"#utility.yul\":2346:2675   */\n      swap3\n      swap2\n      pop\n      pop\n      jump\t// out\n        /* \"#utility.yul\":2681:2771   */\n    tag_65:\n        /* \"#utility.yul\":2715:2722   */\n      0x00\n        /* \"#utility.yul\":2758:2763   */\n      dup2\n        /* \"#utility.yul\":2751:2764   */\n      iszero\n        /* \"#utility.yul\":2744:2765   */\n      iszero\n        /* \"#utility.yul\":2733:2765   */\n      swap1\n      pop\n        /* \"#utility.yul\":2681:2771   */\n      swap2\n      swap1\n      pop\n      jump\t// out\n        /* \"#utility.yul\":2777:2886   */\n    tag_66:\n        /* \"#utility.yul\":2858:2879   */\n      tag_110\n        /* \"#utility.yul\":2873:2878   */\n      dup2\n        /* \"#utility.yul\":2858:2879   */\n      tag_65\n      jump\t// in\n    tag_110:\n        /* \"#utility.yul\":2853:2856   */\n      dup3\n        /* \"#utility.yul\":2846:2880   */\n      mstore\n        /* \"#utility.yul\":2777:2886   */\n      pop\n      pop\n      jump\t// out\n        /* \"#utility.yul\":2892:3102   */\n    tag_25:\n        /* \"#utility.yul\":2979:2983   */\n      0x00\n        /* \"#utility.yul\":3017:3019   */\n      0x20\n        /* \"#utility.yul\":3006:3015   */\n      dup3\n        /* \"#utility.yul\":3002:3020   */\n      add\n        /* \"#utility.yul\":2994:3020   */\n      swap1\n      pop\n        /* \"#utility.yul\":3030:3095   */\n      tag_112\n        /* \"#utility.yul\":3092:3093   */\n      0x00\n        /* \"#utility.yul\":3081:3090   */\n      dup4\n        /* \"#utility.yul\":3077:3094   */\n      add\n        /* \"#utility.yul\":3068:3074   */\n      dup5\n        /* \"#utility.yul\":3030:3095   */\n      tag_66\n      jump\t// in\n    tag_112:\n        /* \"#utility.yul\":2892:3102   */\n      swap3\n      swap2\n      pop\n      pop\n      jump\t// out\n        /* \"#utility.yul\":3108:3582   */\n    tag_29:\n        /* \"#utility.yul\":3176:3182   */\n      0x00\n        /* \"#utility.yul\":3184:3190   */\n      dup1\n        /* \"#utility.yul\":3233:3235   */\n      0x40\n        /* \"#utility.yul\":3221:3230   */\n      dup4\n        /* \"#utility.yul\":3212:3219   */\n      dup6\n        /* \"#utility.yul\":3208:3231   */\n      sub\n        /* \"#utility.yul\":3204:3236   */\n      slt\n        /* \"#utility.yul\":3201:3320   */\n      iszero\n      tag_114\n      jumpi\n        /* \"#utility.yul\":3239:3318   */\n      tag_115\n      tag_56\n      jump\t// in\n    tag_115:\n        /* \"#utility.yul\":3201:3320   */\n    tag_114:\n        /* \"#utility.yul\":3359:3360   */\n      0x00\n        /* \"#utility.yul\":3384:3437   */\n      tag_116\n        /* \"#utility.yul\":3429:3436   */\n      dup6\n        /* \"#utility.yul\":3420:3426   */\n      dup3\n        /* \"#utility.yul\":3409:3418   */\n      dup7\n        /* \"#utility.yul\":3405:3427   */\n      add\n        /* \"#utility.yul\":3384:3437   */\n      tag_59\n      jump\t// in\n    tag_116:\n        /* \"#utility.yul\":3374:3437   */\n      swap3\n      pop\n        /* \"#utility.yul\":3330:3447   */\n      pop\n        /* \"#utility.yul\":3486:3488   */\n      0x20\n        /* \"#utility.yul\":3512:3565   */\n      tag_117\n        /* \"#utility.yul\":3557:3564   */\n      dup6\n        /* \"#utility.yul\":3548:3554   */\n      dup3\n        /* \"#utility.yul\":3537:3546   */\n      dup7\n        /* \"#utility.yul\":3533:3555   */\n      add\n        /* \"#utility.yul\":3512:3565   */\n      tag_64\n      jump\t// in\n    tag_117:\n        /* \"#utility.yul\":3502:3565   */\n      swap2\n      pop\n        /* \"#utility.yul\":3457:3575   */\n      pop\n        /* \"#utility.yul\":3108:3582   */\n      swap3\n      pop\n      swap3\n      swap1\n      pop\n      jump\t// out\n        /* \"#utility.yul\":3588:3686   */\n    tag_67:\n        /* \"#utility.yul\":3639:3645   */\n      0x00\n        /* \"#utility.yul\":3673:3678   */\n      dup2\n        /* \"#utility.yul\":3667:3679   */\n      mload\n        /* \"#utility.yul\":3657:3679   */\n      swap1\n      pop\n        /* \"#utility.yul\":3588:3686   */\n      swap2\n      swap1\n      pop\n      jump\t// out\n        /* \"#utility.yul\":3692:3860   */\n    tag_68:\n        /* \"#utility.yul\":3775:3786   */\n      0x00\n        /* \"#utility.yul\":3809:3815   */\n      dup3\n        /* \"#utility.yul\":3804:3807   */\n      dup3\n        /* \"#utility.yul\":3797:3816   */\n      mstore\n        /* \"#utility.yul\":3849:3853   */\n      0x20\n        /* \"#utility.yul\":3844:3847   */\n      dup3\n        /* \"#utility.yul\":3840:3854   */\n      add\n        /* \"#utility.yul\":3825:3854   */\n      swap1\n      pop\n        /* \"#utility.yul\":3692:3860   */\n      swap3\n      swap2\n      pop\n      pop\n      jump\t// out\n        /* \"#utility.yul\":3866:4112   */\n    tag_69:\n        /* \"#utility.yul\":3947:3948   */\n      0x00\n        /* \"#utility.yul\":3957:4070   */\n    tag_121:\n        /* \"#utility.yul\":3971:3977   */\n      dup4\n        /* \"#utility.yul\":3968:3969   */\n      dup2\n        /* \"#utility.yul\":3965:3978   */\n      lt\n        /* \"#utility.yul\":3957:4070   */\n      iszero\n      tag_123\n      jumpi\n        /* \"#utility.yul\":4056:4057   */\n      dup1\n        /* \"#utility.yul\":4051:4054   */\n      dup3\n        /* \"#utility.yul\":4047:4058   */\n      add\n        /* \"#utility.yul\":4041:4059   */\n      mload\n        /* \"#utility.yul\":4037:4038   */\n      dup2\n        /* \"#utility.yul\":4032:4035   */\n      dup5\n        /* \"#utility.yul\":4028:4039   */\n      add\n        /* \"#utility.yul\":4021:4060   */\n      mstore\n        /* \"#utility.yul\":3993:3995   */\n      0x20\n        /* \"#utility.yul\":3990:3991   */\n      dup2\n        /* \"#utility.yul\":3986:3996   */\n      add\n        /* \"#utility.yul\":3981:3996   */\n      swap1\n      pop\n        /* \"#utility.yul\":3957:4070   */\n      jump(tag_121)\n    tag_123:\n        /* \"#utility.yul\":4104:4105   */\n      0x00\n        /* \"#utility.yul\":4095:4101   */\n      dup5\n        /* \"#utility.yul\":4090:4093   */\n      dup5\n        /* \"#utility.yul\":4086:4102   */\n      add\n        /* \"#utility.yul\":4079:4106   */\n      mstore\n        /* \"#utility.yul\":3928:4112   */\n      pop\n        /* \"#utility.yul\":3866:4112   */\n      pop\n      pop\n      pop\n      jump\t// out\n        /* \"#utility.yul\":4118:4220   */\n    tag_70:\n        /* \"#utility.yul\":4159:4165   */\n      0x00\n        /* \"#utility.yul\":4210:4212   */\n      0x1f\n        /* \"#utility.yul\":4206:4213   */\n      not\n        /* \"#utility.yul\":4201:4203   */\n      0x1f\n        /* \"#utility.yul\":4194:4199   */\n      dup4\n        /* \"#utility.yul\":4190:4204   */\n      add\n        /* \"#utility.yul\":4186:4214   */\n      and\n        /* \"#utility.yul\":4176:4214   */\n      swap1\n      pop\n        /* \"#utility.yul\":4118:4220   */\n      swap2\n      swap1\n      pop\n      jump\t// out\n        /* \"#utility.yul\":4226:4599   */\n    tag_71:\n        /* \"#utility.yul\":4312:4315   */\n      0x00\n        /* \"#utility.yul\":4340:4378   */\n      tag_126\n        /* \"#utility.yul\":4372:4377   */\n      dup3\n        /* \"#utility.yul\":4340:4378   */\n      tag_67\n      jump\t// in\n    tag_126:\n        /* \"#utility.yul\":4394:4464   */\n      tag_127\n        /* \"#utility.yul\":4457:4463   */\n      dup2\n        /* \"#utility.yul\":4452:4455   */\n      dup6\n        /* \"#utility.yul\":4394:4464   */\n      tag_68\n      jump\t// in\n    tag_127:\n        /* \"#utility.yul\":4387:4464   */\n      swap4\n      pop\n        /* \"#utility.yul\":4473:4538   */\n      tag_128\n        /* \"#utility.yul\":4531:4537   */\n      dup2\n        /* \"#utility.yul\":4526:4529   */\n      dup6\n        /* \"#utility.yul\":4519:4523   */\n      0x20\n        /* \"#utility.yul\":4512:4517   */\n      dup7\n        /* \"#utility.yul\":4508:4524   */\n      add\n        /* \"#utility.yul\":4473:4538   */\n      tag_69\n      jump\t// in\n    tag_128:\n        /* \"#utility.yul\":4563:4592   */\n      tag_129\n        /* \"#utility.yul\":4585:4591   */\n      dup2\n        /* \"#utility.yul\":4563:4592   */\n      tag_70\n      jump\t// in\n    tag_129:\n        /* \"#utility.yul\":4558:4561   */\n      dup5\n        /* \"#utility.yul\":4554:4593   */\n      add\n        /* \"#utility.yul\":4547:4593   */\n      swap2\n      pop\n        /* \"#utility.yul\":4316:4599   */\n      pop\n        /* \"#utility.yul\":4226:4599   */\n      swap3\n      swap2\n      pop\n      pop\n      jump\t// out\n        /* \"#utility.yul\":4605:5344   */\n    tag_37:\n        /* \"#utility.yul\":4822:4826   */\n      0x00\n        /* \"#utility.yul\":4860:4863   */\n      0xa0\n        /* \"#utility.yul\":4849:4858   */\n      dup3\n        /* \"#utility.yul\":4845:4864   */\n      add\n        /* \"#utility.yul\":4837:4864   */\n      swap1\n      pop\n        /* \"#utility.yul\":4874:4945   */\n      tag_131\n        /* \"#utility.yul\":4942:4943   */\n      0x00\n        /* \"#utility.yul\":4931:4940   */\n      dup4\n        /* \"#utility.yul\":4927:4944   */\n      add\n        /* \"#utility.yul\":4918:4924   */\n      dup9\n        /* \"#utility.yul\":4874:4945   */\n      tag_62\n      jump\t// in\n    tag_131:\n        /* \"#utility.yul\":4955:5027   */\n      tag_132\n        /* \"#utility.yul\":5023:5025   */\n      0x20\n        /* \"#utility.yul\":5012:5021   */\n      dup4\n        /* \"#utility.yul\":5008:5026   */\n      add\n        /* \"#utility.yul\":4999:5005   */\n      dup8\n        /* \"#utility.yul\":4955:5027   */\n      tag_54\n      jump\t// in\n    tag_132:\n        /* \"#utility.yul\":5074:5083   */\n      dup2\n        /* \"#utility.yul\":5068:5072   */\n      dup2\n        /* \"#utility.yul\":5064:5084   */\n      sub\n        /* \"#utility.yul\":5059:5061   */\n      0x40\n        /* \"#utility.yul\":5048:5057   */\n      dup4\n        /* \"#utility.yul\":5044:5062   */\n      add\n        /* \"#utility.yul\":5037:5085   */\n      mstore\n        /* \"#utility.yul\":5102:5178   */\n      tag_133\n        /* \"#utility.yul\":5173:5177   */\n      dup2\n        /* \"#utility.yul\":5164:5170   */\n      dup7\n        /* \"#utility.yul\":5102:5178   */\n      tag_71\n      jump\t// in\n    tag_133:\n        /* \"#utility.yul\":5094:5178   */\n      swap1\n      pop\n        /* \"#utility.yul\":5188:5254   */\n      tag_134\n        /* \"#utility.yul\":5250:5252   */\n      0x60\n        /* \"#utility.yul\":5239:5248   */\n      dup4\n        /* \"#utility.yul\":5235:5253   */\n      add\n        /* \"#utility.yul\":5226:5232   */\n      dup6\n        /* \"#utility.yul\":5188:5254   */\n      tag_66\n      jump\t// in\n    tag_134:\n        /* \"#utility.yul\":5264:5337   */\n      tag_135\n        /* \"#utility.yul\":5332:5335   */\n      0x80\n        /* \"#utility.yul\":5321:5330   */\n      dup4\n        /* \"#utility.yul\":5317:5336   */\n      add\n        /* \"#utility.yul\":5308:5314   */\n      dup5\n        /* \"#utility.yul\":5264:5337   */\n      tag_54\n      jump\t// in\n    tag_135:\n        /* \"#utility.yul\":4605:5344   */\n      swap7\n      swap6\n      pop\n      pop\n      pop\n      pop\n      pop\n      pop\n      jump\t// out\n        /* \"#utility.yul\":5350:5572   */\n    tag_42:\n        /* \"#utility.yul\":5443:5447   */\n      0x00\n        /* \"#utility.yul\":5481:5483   */\n      0x20\n        /* \"#utility.yul\":5470:5479   */\n      dup3\n        /* \"#utility.yul\":5466:5484   */\n      add\n        /* \"#utility.yul\":5458:5484   */\n      swap1\n      pop\n        /* \"#utility.yul\":5494:5565   */\n      tag_137\n        /* \"#utility.yul\":5562:5563   */\n      0x00\n        /* \"#utility.yul\":5551:5560   */\n      dup4\n        /* \"#utility.yul\":5547:5564   */\n      add\n        /* \"#utility.yul\":5538:5544   */\n      dup5\n        /* \"#utility.yul\":5494:5565   */\n      tag_54\n      jump\t// in\n    tag_137:\n        /* \"#utility.yul\":5350:5572   */\n      swap3\n      swap2\n      pop\n      pop\n      jump\t// out\n        /* \"#utility.yul\":5578:5758   */\n    tag_72:\n        /* \"#utility.yul\":5626:5703   */\n      0x4e487b7100000000000000000000000000000000000000000000000000000000\n        /* \"#utility.yul\":5623:5624   */\n      0x00\n        /* \"#utility.yul\":5616:5704   */\n      mstore\n        /* \"#utility.yul\":5723:5727   */\n      0x22\n        /* \"#utility.yul\":5720:5721   */\n      0x04\n        /* \"#utility.yul\":5713:5728   */\n      mstore\n        /* \"#utility.yul\":5747:5751   */\n      0x24\n        /* \"#utility.yul\":5744:5745   */\n      0x00\n        /* \"#utility.yul\":5737:5752   */\n      revert\n        /* \"#utility.yul\":5764:6084   */\n    tag_48:\n        /* \"#utility.yul\":5808:5814   */\n      0x00\n        /* \"#utility.yul\":5845:5846   */\n      0x02\n        /* \"#utility.yul\":5839:5843   */\n      dup3\n        /* \"#utility.yul\":5835:5847   */\n      div\n        /* \"#utility.yul\":5825:5847   */\n      swap1\n      pop\n        /* \"#utility.yul\":5892:5893   */\n      0x01\n        /* \"#utility.yul\":5886:5890   */\n      dup3\n        /* \"#utility.yul\":5882:5894   */\n      and\n        /* \"#utility.yul\":5913:5931   */\n      dup1\n        /* \"#utility.yul\":5903:5984   */\n      tag_140\n      jumpi\n        /* \"#utility.yul\":5969:5973   */\n      0x7f\n        /* \"#utility.yul\":5961:5967   */\n      dup3\n        /* \"#utility.yul\":5957:5974   */\n      and\n        /* \"#utility.yul\":5947:5974   */\n      swap2\n      pop\n        /* \"#utility.yul\":5903:5984   */\n    tag_140:\n        /* \"#utility.yul\":6031:6033   */\n      0x20\n        /* \"#utility.yul\":6023:6029   */\n      dup3\n        /* \"#utility.yul\":6020:6034   */\n      lt\n        /* \"#utility.yul\":6000:6018   */\n      dup2\n        /* \"#utility.yul\":5997:6035   */\n      sub\n        /* \"#utility.yul\":5994:6078   */\n      tag_141\n      jumpi\n        /* \"#utility.yul\":6050:6068   */\n      tag_142\n      tag_72\n      jump\t// in\n    tag_142:\n        /* \"#utility.yul\":5994:6078   */\n    tag_141:\n        /* \"#utility.yul\":5815:6084   */\n      pop\n        /* \"#utility.yul\":5764:6084   */\n      swap2\n      swap1\n      pop\n      jump\t// out\n\n    auxdata: 0xa26469706673582212201a1108e11b95d26543c8109d6606d2c3353a26eb5cbe784ce71a16586b5874a064736f6c63430008160033\n}\n",
				"bytecode": {
					"linkReferences": {},
					"object": "608060405234801562000010575f80fd5b5060405162000dcc38038062000dcc8339818101604052810190620000369190620004e2565b5f8251116200007c576040517f08c379a00000000000000000000000000000000000000000000000000000000081526004016200007390620005a4565b60405180910390fd5b5f811180156200008d575081518111155b620000cf576040517f08c379a0000000000000000000000000000000000000000000000000000000008152600401620000c69062000612565b60405180910390fd5b5f5b8251811015620002bc575f838281518110620000f257620000f162000632565b5b602002602001015190505f73ffffffffffffffffffffffffffffffffffffffff168173ffffffffffffffffffffffffffffffffffffffff16036200016d576040517f08c379a00000000000000000000000000000000000000000000000000000000081526004016200016490620006ad565b60405180910390fd5b60015f8273ffffffffffffffffffffffffffffffffffffffff1673ffffffffffffffffffffffffffffffffffffffff1681526020019081526020015f205f9054906101000a900460ff1615620001fa576040517f08c379a0000000000000000000000000000000000000000000000000000000008152600401620001f1906200071b565b60405180910390fd5b6001805f8373ffffffffffffffffffffffffffffffffffffffff1673ffffffffffffffffffffffffffffffffffffffff1681526020019081526020015f205f6101000a81548160ff0219169083151502179055505f81908060018154018082558091505060019003905f5260205f20015f9091909190916101000a81548173ffffffffffffffffffffffffffffffffffffffff021916908373ffffffffffffffffffffffffffffffffffffffff160217905550508080600101915050620000d1565b508060028190555050506200073b565b5f604051905090565b5f80fd5b5f80fd5b5f80fd5b5f601f19601f8301169050919050565b7f4e487b71000000000000000000000000000000000000000000000000000000005f52604160045260245ffd5b6200032982620002e1565b810181811067ffffffffffffffff821117156200034b576200034a620002f1565b5b80604052505050565b5f6200035f620002cc565b90506200036d82826200031e565b919050565b5f67ffffffffffffffff8211156200038f576200038e620002f1565b5b602082029050602081019050919050565b5f80fd5b5f73ffffffffffffffffffffffffffffffffffffffff82169050919050565b5f620003cf82620003a4565b9050919050565b620003e181620003c3565b8114620003ec575f80fd5b50565b5f81519050620003ff81620003d6565b92915050565b5f6200041b620004158462000372565b62000354565b90508083825260208201905060208402830185811115620004415762000440620003a0565b5b835b818110156200046e5780620004598882620003ef565b84526020840193505060208101905062000443565b5050509392505050565b5f82601f8301126200048f576200048e620002dd565b5b8151620004a184826020860162000405565b91505092915050565b5f819050919050565b620004be81620004aa565b8114620004c9575f80fd5b50565b5f81519050620004dc81620004b3565b92915050565b5f8060408385031215620004fb57620004fa620002d5565b5b5f83015167ffffffffffffffff8111156200051b576200051a620002d9565b5b620005298582860162000478565b92505060206200053c85828601620004cc565b9150509250929050565b5f82825260208201905092915050565b7f4f776e65727320526571756972656400000000000000000000000000000000005f82015250565b5f6200058c600f8362000546565b9150620005998262000556565b602082019050919050565b5f6020820190508181035f830152620005bd816200057e565b9050919050565b7f496e76616c6964204e756d626572206f6620436f6e6669726d6174696f6e73005f82015250565b5f620005fa601f8362000546565b91506200060782620005c4565b602082019050919050565b5f6020820190508181035f8301526200062b81620005ec565b9050919050565b7f4e487b71000000000000000000000000000000000000000000000000000000005f52603260045260245ffd5b7f696e76616c6964206f776e6572000000000000000000000000000000000000005f82015250565b5f62000695600d8362000546565b9150620006a2826200065f565b602082019050919050565b5f6020820190508181035f830152620006c68162000687565b9050919050565b7f6f776e6572206e6f7420756e69717565000000000000000000000000000000005f82015250565b5f6200070360108362000546565b91506200071082620006cd565b602082019050919050565b5f6020820190508181035f8301526200073481620006f5565b9050919050565b61068380620007495f395ff3fe60806040526004361061004d575f3560e01c8063025e7c27146100a85780632f54bf6e146100e457806380f59a65146101205780639ace38c21461015c578063dc108deb1461019c576100a4565b366100a4573373ffffffffffffffffffffffffffffffffffffffff167f90890809c654f11d6e72a28fa60149770a0d11ec6c92319d6ceb2bb0a4ea1a15344760405161009a929190610357565b60405180910390a2005b5f80fd5b3480156100b3575f80fd5b506100ce60048036038101906100c991906103ac565b6101c6565b6040516100db9190610416565b60405180910390f35b3480156100ef575f80fd5b5061010a60048036038101906101059190610459565b610200565b604051610117919061049e565b60405180910390f35b34801561012b575f80fd5b50610146600480360381019061014191906104b7565b61021d565b604051610153919061049e565b60405180910390f35b348015610167575f80fd5b50610182600480360381019061017d91906103ac565b610247565b60405161019395949392919061057f565b60405180910390f35b3480156101a7575f80fd5b506101b0610339565b6040516101bd91906105d7565b60405180910390f35b5f81815481106101d4575f80fd5b905f5260205f20015f915054906101000a900473ffffffffffffffffffffffffffffffffffffffff1681565b6001602052805f5260405f205f915054906101000a900460ff1681565b6003602052815f5260405f20602052805f5260405f205f915091509054906101000a900460ff1681565b60048181548110610256575f80fd5b905f5260205f2090600502015f91509050805f015f9054906101000a900473ffffffffffffffffffffffffffffffffffffffff16908060010154908060020180546102a09061061d565b80601f01602080910402602001604051908101604052809291908181526020018280546102cc9061061d565b80156103175780601f106102ee57610100808354040283529160200191610317565b820191905f5260205f20905b8154815290600101906020018083116102fa57829003601f168201915b505050505090806003015f9054906101000a900460ff16908060040154905085565b60025481565b5f819050919050565b6103518161033f565b82525050565b5f60408201905061036a5f830185610348565b6103776020830184610348565b9392505050565b5f80fd5b61038b8161033f565b8114610395575f80fd5b50565b5f813590506103a681610382565b92915050565b5f602082840312156103c1576103c061037e565b5b5f6103ce84828501610398565b91505092915050565b5f73ffffffffffffffffffffffffffffffffffffffff82169050919050565b5f610400826103d7565b9050919050565b610410816103f6565b82525050565b5f6020820190506104295f830184610407565b92915050565b610438816103f6565b8114610442575f80fd5b50565b5f813590506104538161042f565b92915050565b5f6020828403121561046e5761046d61037e565b5b5f61047b84828501610445565b91505092915050565b5f8115159050919050565b61049881610484565b82525050565b5f6020820190506104b15f83018461048f565b92915050565b5f80604083850312156104cd576104cc61037e565b5b5f6104da85828601610398565b92505060206104eb85828601610445565b9150509250929050565b5f81519050919050565b5f82825260208201905092915050565b5f5b8381101561052c578082015181840152602081019050610511565b5f8484015250505050565b5f601f19601f8301169050919050565b5f610551826104f5565b61055b81856104ff565b935061056b81856020860161050f565b61057481610537565b840191505092915050565b5f60a0820190506105925f830188610407565b61059f6020830187610348565b81810360408301526105b18186610547565b90506105c0606083018561048f565b6105cd6080830184610348565b9695505050505050565b5f6020820190506105ea5f830184610348565b92915050565b7f4e487b71000000000000000000000000000000000000000000000000000000005f52602260045260245ffd5b5f600282049050600182168061063457607f821691505b602082108103610647576106466105f0565b5b5091905056fea26469706673582212201a1108e11b95d26543c8109d6606d2c3353a26eb5cbe784ce71a16586b5874a064736f6c63430008160033",
					"opcodes": "PUSH1 0x80 PUSH1 0x40 MSTORE CALLVALUE DUP1 ISZERO PUSH3 0x10 JUMPI PUSH0 DUP1 REVERT JUMPDEST POP PUSH1 0x40 MLOAD PUSH3 0xDCC CODESIZE SUB DUP1 PUSH3 0xDCC DUP4 CODECOPY DUP2 DUP2 ADD PUSH1 0x40 MSTORE DUP2 ADD SWAP1 PUSH3 0x36 SWAP2 SWAP1 PUSH3 0x4E2 JUMP JUMPDEST PUSH0 DUP3 MLOAD GT PUSH3 0x7C JUMPI PUSH1 0x40 MLOAD PUSH32 0x8C379A000000000000000000000000000000000000000000000000000000000 DUP2 MSTORE PUSH1 0x4 ADD PUSH3 0x73 SWAP1 PUSH3 0x5A4 JUMP JUMPDEST PUSH1 0x40 MLOAD DUP1 SWAP2 SUB SWAP1 REVERT JUMPDEST PUSH0 DUP2 GT DUP1 ISZERO PUSH3 0x8D JUMPI POP DUP2 MLOAD DUP2 GT ISZERO JUMPDEST PUSH3 0xCF JUMPI PUSH1 0x40 MLOAD PUSH32 0x8C379A000000000000000000000000000000000000000000000000000000000 DUP2 MSTORE PUSH1 0x4 ADD PUSH3 0xC6 SWAP1 PUSH3 0x612 JUMP JUMPDEST PUSH1 0x40 MLOAD DUP1 SWAP2 SUB SWAP1 REVERT JUMPDEST PUSH0 JUMPDEST DUP3 MLOAD DUP2 LT ISZERO PUSH3 0x2BC JUMPI PUSH0 DUP4 DUP3 DUP2 MLOAD DUP2 LT PUSH3 0xF2 JUMPI PUSH3 0xF1 PUSH3 0x632 JUMP JUMPDEST JUMPDEST PUSH1 0x20 MUL PUSH1 0x20 ADD ADD MLOAD SWAP1 POP PUSH0 PUSH20 0xFFFFFFFFFFFFFFFFFFFFFFFFFFFFFFFFFFFFFFFF AND DUP2 PUSH20 0xFFFFFFFFFFFFFFFFFFFFFFFFFFFFFFFFFFFFFFFF AND SUB PUSH3 0x16D JUMPI PUSH1 0x40 MLOAD PUSH32 0x8C379A000000000000000000000000000000000000000000000000000000000 DUP2 MSTORE PUSH1 0x4 ADD PUSH3 0x164 SWAP1 PUSH3 0x6AD JUMP JUMPDEST PUSH1 0x40 MLOAD DUP1 SWAP2 SUB SWAP1 REVERT JUMPDEST PUSH1 0x1 PUSH0 DUP3 PUSH20 0xFFFFFFFFFFFFFFFFFFFFFFFFFFFFFFFFFFFFFFFF AND PUSH20 0xFFFFFFFFFFFFFFFFFFFFFFFFFFFFFFFFFFFFFFFF AND DUP2 MSTORE PUSH1 0x20 ADD SWAP1 DUP2 MSTORE PUSH1 0x20 ADD PUSH0 KECCAK256 PUSH0 SWAP1 SLOAD SWAP1 PUSH2 0x100 EXP SWAP1 DIV PUSH1 0xFF AND ISZERO PUSH3 0x1FA JUMPI PUSH1 0x40 MLOAD PUSH32 0x8C379A000000000000000000000000000000000000000000000000000000000 DUP2 MSTORE PUSH1 0x4 ADD PUSH3 0x1F1 SWAP1 PUSH3 0x71B JUMP JUMPDEST PUSH1 0x40 MLOAD DUP1 SWAP2 SUB SWAP1 REVERT JUMPDEST PUSH1 0x1 DUP1 PUSH0 DUP4 PUSH20 0xFFFFFFFFFFFFFFFFFFFFFFFFFFFFFFFFFFFFFFFF AND PUSH20 0xFFFFFFFFFFFFFFFFFFFFFFFFFFFFFFFFFFFFFFFF AND DUP2 MSTORE PUSH1 0x20 ADD SWAP1 DUP2 MSTORE PUSH1 0x20 ADD PUSH0 KECCAK256 PUSH0 PUSH2 0x100 EXP DUP2 SLOAD DUP2 PUSH1 0xFF MUL NOT AND SWAP1 DUP4 ISZERO ISZERO MUL OR SWAP1 SSTORE POP PUSH0 DUP2 SWAP1 DUP1 PUSH1 0x1 DUP2 SLOAD ADD DUP1 DUP3 SSTORE DUP1 SWAP2 POP POP PUSH1 0x1 SWAP1 SUB SWAP1 PUSH0 MSTORE PUSH1 0x20 PUSH0 KECCAK256 ADD PUSH0 SWAP1 SWAP2 SWAP1 SWAP2 SWAP1 SWAP2 PUSH2 0x100 EXP DUP2 SLOAD DUP2 PUSH20 0xFFFFFFFFFFFFFFFFFFFFFFFFFFFFFFFFFFFFFFFF MUL NOT AND SWAP1 DUP4 PUSH20 0xFFFFFFFFFFFFFFFFFFFFFFFFFFFFFFFFFFFFFFFF AND MUL OR SWAP1 SSTORE POP POP DUP1 DUP1 PUSH1 0x1 ADD SWAP2 POP POP PUSH3 0xD1 JUMP JUMPDEST POP DUP1 PUSH1 0x2 DUP2 SWAP1 SSTORE POP POP POP PUSH3 0x73B JUMP JUMPDEST PUSH0 PUSH1 0x40 MLOAD SWAP1 POP SWAP1 JUMP JUMPDEST PUSH0 DUP1 REVERT JUMPDEST PUSH0 DUP1 REVERT JUMPDEST PUSH0 DUP1 REVERT JUMPDEST PUSH0 PUSH1 0x1F NOT PUSH1 0x1F DUP4 ADD AND SWAP1 POP SWAP2 SWAP1 POP JUMP JUMPDEST PUSH32 0x4E487B7100000000000000000000000000000000000000000000000000000000 PUSH0 MSTORE PUSH1 0x41 PUSH1 0x4 MSTORE PUSH1 0x24 PUSH0 REVERT JUMPDEST PUSH3 0x329 DUP3 PUSH3 0x2E1 JUMP JUMPDEST DUP2 ADD DUP2 DUP2 LT PUSH8 0xFFFFFFFFFFFFFFFF DUP3 GT OR ISZERO PUSH3 0x34B JUMPI PUSH3 0x34A PUSH3 0x2F1 JUMP JUMPDEST JUMPDEST DUP1 PUSH1 0x40 MSTORE POP POP POP JUMP JUMPDEST PUSH0 PUSH3 0x35F PUSH3 0x2CC JUMP JUMPDEST SWAP1 POP PUSH3 0x36D DUP3 DUP3 PUSH3 0x31E JUMP JUMPDEST SWAP2 SWAP1 POP JUMP JUMPDEST PUSH0 PUSH8 0xFFFFFFFFFFFFFFFF DUP3 GT ISZERO PUSH3 0x38F JUMPI PUSH3 0x38E PUSH3 0x2F1 JUMP JUMPDEST JUMPDEST PUSH1 0x20 DUP3 MUL SWAP1 POP PUSH1 0x20 DUP2 ADD SWAP1 POP SWAP2 SWAP1 POP JUMP JUMPDEST PUSH0 DUP1 REVERT JUMPDEST PUSH0 PUSH20 0xFFFFFFFFFFFFFFFFFFFFFFFFFFFFFFFFFFFFFFFF DUP3 AND SWAP1 POP SWAP2 SWAP1 POP JUMP JUMPDEST PUSH0 PUSH3 0x3CF DUP3 PUSH3 0x3A4 JUMP JUMPDEST SWAP1 POP SWAP2 SWAP1 POP JUMP JUMPDEST PUSH3 0x3E1 DUP2 PUSH3 0x3C3 JUMP JUMPDEST DUP2 EQ PUSH3 0x3EC JUMPI PUSH0 DUP1 REVERT JUMPDEST POP JUMP JUMPDEST PUSH0 DUP2 MLOAD SWAP1 POP PUSH3 0x3FF DUP2 PUSH3 0x3D6 JUMP JUMPDEST SWAP3 SWAP2 POP POP JUMP JUMPDEST PUSH0 PUSH3 0x41B PUSH3 0x415 DUP5 PUSH3 0x372 JUMP JUMPDEST PUSH3 0x354 JUMP JUMPDEST SWAP1 POP DUP1 DUP4 DUP3 MSTORE PUSH1 0x20 DUP3 ADD SWAP1 POP PUSH1 0x20 DUP5 MUL DUP4 ADD DUP6 DUP2 GT ISZERO PUSH3 0x441 JUMPI PUSH3 0x440 PUSH3 0x3A0 JUMP JUMPDEST JUMPDEST DUP4 JUMPDEST DUP2 DUP2 LT ISZERO PUSH3 0x46E JUMPI DUP1 PUSH3 0x459 DUP9 DUP3 PUSH3 0x3EF JUMP JUMPDEST DUP5 MSTORE PUSH1 0x20 DUP5 ADD SWAP4 POP POP PUSH1 0x20 DUP2 ADD SWAP1 POP PUSH3 0x443 JUMP JUMPDEST POP POP POP SWAP4 SWAP3 POP POP POP JUMP JUMPDEST PUSH0 DUP3 PUSH1 0x1F DUP4 ADD SLT PUSH3 0x48F JUMPI PUSH3 0x48E PUSH3 0x2DD JUMP JUMPDEST JUMPDEST DUP2 MLOAD PUSH3 0x4A1 DUP5 DUP3 PUSH1 0x20 DUP7 ADD PUSH3 0x405 JUMP JUMPDEST SWAP2 POP POP SWAP3 SWAP2 POP POP JUMP JUMPDEST PUSH0 DUP2 SWAP1 POP SWAP2 SWAP1 POP JUMP JUMPDEST PUSH3 0x4BE DUP2 PUSH3 0x4AA JUMP JUMPDEST DUP2 EQ PUSH3 0x4C9 JUMPI PUSH0 DUP1 REVERT JUMPDEST POP JUMP JUMPDEST PUSH0 DUP2 MLOAD SWAP1 POP PUSH3 0x4DC DUP2 PUSH3 0x4B3 JUMP JUMPDEST SWAP3 SWAP2 POP POP JUMP JUMPDEST PUSH0 DUP1 PUSH1 0x40 DUP4 DUP6 SUB SLT ISZERO PUSH3 0x4FB JUMPI PUSH3 0x4FA PUSH3 0x2D5 JUMP JUMPDEST JUMPDEST PUSH0 DUP4 ADD MLOAD PUSH8 0xFFFFFFFFFFFFFFFF DUP2 GT ISZERO PUSH3 0x51B JUMPI PUSH3 0x51A PUSH3 0x2D9 JUMP JUMPDEST JUMPDEST PUSH3 0x529 DUP6 DUP3 DUP7 ADD PUSH3 0x478 JUMP JUMPDEST SWAP3 POP POP PUSH1 0x20 PUSH3 0x53C DUP6 DUP3 DUP7 ADD PUSH3 0x4CC JUMP JUMPDEST SWAP2 POP POP SWAP3 POP SWAP3 SWAP1 POP JUMP JUMPDEST PUSH0 DUP3 DUP3 MSTORE PUSH1 0x20 DUP3 ADD SWAP1 POP SWAP3 SWAP2 POP POP JUMP JUMPDEST PUSH32 0x4F776E6572732052657175697265640000000000000000000000000000000000 PUSH0 DUP3 ADD MSTORE POP JUMP JUMPDEST PUSH0 PUSH3 0x58C PUSH1 0xF DUP4 PUSH3 0x546 JUMP JUMPDEST SWAP2 POP PUSH3 0x599 DUP3 PUSH3 0x556 JUMP JUMPDEST PUSH1 0x20 DUP3 ADD SWAP1 POP SWAP2 SWAP1 POP JUMP JUMPDEST PUSH0 PUSH1 0x20 DUP3 ADD SWAP1 POP DUP2 DUP2 SUB PUSH0 DUP4 ADD MSTORE PUSH3 0x5BD DUP2 PUSH3 0x57E JUMP JUMPDEST SWAP1 POP SWAP2 SWAP1 POP JUMP JUMPDEST PUSH32 0x496E76616C6964204E756D626572206F6620436F6E6669726D6174696F6E7300 PUSH0 DUP3 ADD MSTORE POP JUMP JUMPDEST PUSH0 PUSH3 0x5FA PUSH1 0x1F DUP4 PUSH3 0x546 JUMP JUMPDEST SWAP2 POP PUSH3 0x607 DUP3 PUSH3 0x5C4 JUMP JUMPDEST PUSH1 0x20 DUP3 ADD SWAP1 POP SWAP2 SWAP1 POP JUMP JUMPDEST PUSH0 PUSH1 0x20 DUP3 ADD SWAP1 POP DUP2 DUP2 SUB PUSH0 DUP4 ADD MSTORE PUSH3 0x62B DUP2 PUSH3 0x5EC JUMP JUMPDEST SWAP1 POP SWAP2 SWAP1 POP JUMP JUMPDEST PUSH32 0x4E487B7100000000000000000000000000000000000000000000000000000000 PUSH0 MSTORE PUSH1 0x32 PUSH1 0x4 MSTORE PUSH1 0x24 PUSH0 REVERT JUMPDEST PUSH32 0x696E76616C6964206F776E657200000000000000000000000000000000000000 PUSH0 DUP3 ADD MSTORE POP JUMP JUMPDEST PUSH0 PUSH3 0x695 PUSH1 0xD DUP4 PUSH3 0x546 JUMP JUMPDEST SWAP2 POP PUSH3 0x6A2 DUP3 PUSH3 0x65F JUMP JUMPDEST PUSH1 0x20 DUP3 ADD SWAP1 POP SWAP2 SWAP1 POP JUMP JUMPDEST PUSH0 PUSH1 0x20 DUP3 ADD SWAP1 POP DUP2 DUP2 SUB PUSH0 DUP4 ADD MSTORE PUSH3 0x6C6 DUP2 PUSH3 0x687 JUMP JUMPDEST SWAP1 POP SWAP2 SWAP1 POP JUMP JUMPDEST PUSH32 0x6F776E6572206E6F7420756E6971756500000000000000000000000000000000 PUSH0 DUP3 ADD MSTORE POP JUMP JUMPDEST PUSH0 PUSH3 0x703 PUSH1 0x10 DUP4 PUSH3 0x546 JUMP JUMPDEST SWAP2 POP PUSH3 0x710 DUP3 PUSH3 0x6CD JUMP JUMPDEST PUSH1 0x20 DUP3 ADD SWAP1 POP SWAP2 SWAP1 POP JUMP JUMPDEST PUSH0 PUSH1 0x20 DUP3 ADD SWAP1 POP DUP2 DUP2 SUB PUSH0 DUP4 ADD MSTORE PUSH3 0x734 DUP2 PUSH3 0x6F5 JUMP JUMPDEST SWAP1 POP SWAP2 SWAP1 POP JUMP JUMPDEST PUSH2 0x683 DUP1 PUSH3 0x749 PUSH0 CODECOPY PUSH0 RETURN INVALID PUSH1 0x80 PUSH1 0x40 MSTORE PUSH1 0x4 CALLDATASIZE LT PUSH2 0x4D JUMPI PUSH0 CALLDATALOAD PUSH1 0xE0 SHR DUP1 PUSH4 0x25E7C27 EQ PUSH2 0xA8 JUMPI DUP1 PUSH4 0x2F54BF6E EQ PUSH2 0xE4 JUMPI DUP1 PUSH4 0x80F59A65 EQ PUSH2 0x120 JUMPI DUP1 PUSH4 0x9ACE38C2 EQ PUSH2 0x15C JUMPI DUP1 PUSH4 0xDC108DEB EQ PUSH2 0x19C JUMPI PUSH2 0xA4 JUMP JUMPDEST CALLDATASIZE PUSH2 0xA4 JUMPI CALLER PUSH20 0xFFFFFFFFFFFFFFFFFFFFFFFFFFFFFFFFFFFFFFFF AND PUSH32 0x90890809C654F11D6E72A28FA60149770A0D11EC6C92319D6CEB2BB0A4EA1A15 CALLVALUE SELFBALANCE PUSH1 0x40 MLOAD PUSH2 0x9A SWAP3 SWAP2 SWAP1 PUSH2 0x357 JUMP JUMPDEST PUSH1 0x40 MLOAD DUP1 SWAP2 SUB SWAP1 LOG2 STOP JUMPDEST PUSH0 DUP1 REVERT JUMPDEST CALLVALUE DUP1 ISZERO PUSH2 0xB3 JUMPI PUSH0 DUP1 REVERT JUMPDEST POP PUSH2 0xCE PUSH1 0x4 DUP1 CALLDATASIZE SUB DUP2 ADD SWAP1 PUSH2 0xC9 SWAP2 SWAP1 PUSH2 0x3AC JUMP JUMPDEST PUSH2 0x1C6 JUMP JUMPDEST PUSH1 0x40 MLOAD PUSH2 0xDB SWAP2 SWAP1 PUSH2 0x416 JUMP JUMPDEST PUSH1 0x40 MLOAD DUP1 SWAP2 SUB SWAP1 RETURN JUMPDEST CALLVALUE DUP1 ISZERO PUSH2 0xEF JUMPI PUSH0 DUP1 REVERT JUMPDEST POP PUSH2 0x10A PUSH1 0x4 DUP1 CALLDATASIZE SUB DUP2 ADD SWAP1 PUSH2 0x105 SWAP2 SWAP1 PUSH2 0x459 JUMP JUMPDEST PUSH2 0x200 JUMP JUMPDEST PUSH1 0x40 MLOAD PUSH2 0x117 SWAP2 SWAP1 PUSH2 0x49E JUMP JUMPDEST PUSH1 0x40 MLOAD DUP1 SWAP2 SUB SWAP1 RETURN JUMPDEST CALLVALUE DUP1 ISZERO PUSH2 0x12B JUMPI PUSH0 DUP1 REVERT JUMPDEST POP PUSH2 0x146 PUSH1 0x4 DUP1 CALLDATASIZE SUB DUP2 ADD SWAP1 PUSH2 0x141 SWAP2 SWAP1 PUSH2 0x4B7 JUMP JUMPDEST PUSH2 0x21D JUMP JUMPDEST PUSH1 0x40 MLOAD PUSH2 0x153 SWAP2 SWAP1 PUSH2 0x49E JUMP JUMPDEST PUSH1 0x40 MLOAD DUP1 SWAP2 SUB SWAP1 RETURN JUMPDEST CALLVALUE DUP1 ISZERO PUSH2 0x167 JUMPI PUSH0 DUP1 REVERT JUMPDEST POP PUSH2 0x182 PUSH1 0x4 DUP1 CALLDATASIZE SUB DUP2 ADD SWAP1 PUSH2 0x17D SWAP2 SWAP1 PUSH2 0x3AC JUMP JUMPDEST PUSH2 0x247 JUMP JUMPDEST PUSH1 0x40 MLOAD PUSH2 0x193 SWAP6 SWAP5 SWAP4 SWAP3 SWAP2 SWAP1 PUSH2 0x57F JUMP JUMPDEST PUSH1 0x40 MLOAD DUP1 SWAP2 SUB SWAP1 RETURN JUMPDEST CALLVALUE DUP1 ISZERO PUSH2 0x1A7 JUMPI PUSH0 DUP1 REVERT JUMPDEST POP PUSH2 0x1B0 PUSH2 0x339 JUMP JUMPDEST PUSH1 0x40 MLOAD PUSH2 0x1BD SWAP2 SWAP1 PUSH2 0x5D7 JUMP JUMPDEST PUSH1 0x40 MLOAD DUP1 SWAP2 SUB SWAP1 RETURN JUMPDEST PUSH0 DUP2 DUP2 SLOAD DUP2 LT PUSH2 0x1D4 JUMPI PUSH0 DUP1 REVERT JUMPDEST SWAP1 PUSH0 MSTORE PUSH1 0x20 PUSH0 KECCAK256 ADD PUSH0 SWAP2 POP SLOAD SWAP1 PUSH2 0x100 EXP SWAP1 DIV PUSH20 0xFFFFFFFFFFFFFFFFFFFFFFFFFFFFFFFFFFFFFFFF AND DUP2 JUMP JUMPDEST PUSH1 0x1 PUSH1 0x20 MSTORE DUP1 PUSH0 MSTORE PUSH1 0x40 PUSH0 KECCAK256 PUSH0 SWAP2 POP SLOAD SWAP1 PUSH2 0x100 EXP SWAP1 DIV PUSH1 0xFF AND DUP2 JUMP JUMPDEST PUSH1 0x3 PUSH1 0x20 MSTORE DUP2 PUSH0 MSTORE PUSH1 0x40 PUSH0 KECCAK256 PUSH1 0x20 MSTORE DUP1 PUSH0 MSTORE PUSH1 0x40 PUSH0 KECCAK256 PUSH0 SWAP2 POP SWAP2 POP SWAP1 SLOAD SWAP1 PUSH2 0x100 EXP SWAP1 DIV PUSH1 0xFF AND DUP2 JUMP JUMPDEST PUSH1 0x4 DUP2 DUP2 SLOAD DUP2 LT PUSH2 0x256 JUMPI PUSH0 DUP1 REVERT JUMPDEST SWAP1 PUSH0 MSTORE PUSH1 0x20 PUSH0 KECCAK256 SWAP1 PUSH1 0x5 MUL ADD PUSH0 SWAP2 POP SWAP1 POP DUP1 PUSH0 ADD PUSH0 SWAP1 SLOAD SWAP1 PUSH2 0x100 EXP SWAP1 DIV PUSH20 0xFFFFFFFFFFFFFFFFFFFFFFFFFFFFFFFFFFFFFFFF AND SWAP1 DUP1 PUSH1 0x1 ADD SLOAD SWAP1 DUP1 PUSH1 0x2 ADD DUP1 SLOAD PUSH2 0x2A0 SWAP1 PUSH2 0x61D JUMP JUMPDEST DUP1 PUSH1 0x1F ADD PUSH1 0x20 DUP1 SWAP2 DIV MUL PUSH1 0x20 ADD PUSH1 0x40 MLOAD SWAP1 DUP2 ADD PUSH1 0x40 MSTORE DUP1 SWAP3 SWAP2 SWAP1 DUP2 DUP2 MSTORE PUSH1 0x20 ADD DUP3 DUP1 SLOAD PUSH2 0x2CC SWAP1 PUSH2 0x61D JUMP JUMPDEST DUP1 ISZERO PUSH2 0x317 JUMPI DUP1 PUSH1 0x1F LT PUSH2 0x2EE JUMPI PUSH2 0x100 DUP1 DUP4 SLOAD DIV MUL DUP4 MSTORE SWAP2 PUSH1 0x20 ADD SWAP2 PUSH2 0x317 JUMP JUMPDEST DUP3 ADD SWAP2 SWAP1 PUSH0 MSTORE PUSH1 0x20 PUSH0 KECCAK256 SWAP1 JUMPDEST DUP2 SLOAD DUP2 MSTORE SWAP1 PUSH1 0x1 ADD SWAP1 PUSH1 0x20 ADD DUP1 DUP4 GT PUSH2 0x2FA JUMPI DUP3 SWAP1 SUB PUSH1 0x1F AND DUP3 ADD SWAP2 JUMPDEST POP POP POP POP POP SWAP1 DUP1 PUSH1 0x3 ADD PUSH0 SWAP1 SLOAD SWAP1 PUSH2 0x100 EXP SWAP1 DIV PUSH1 0xFF AND SWAP1 DUP1 PUSH1 0x4 ADD SLOAD SWAP1 POP DUP6 JUMP JUMPDEST PUSH1 0x2 SLOAD DUP2 JUMP JUMPDEST PUSH0 DUP2 SWAP1 POP SWAP2 SWAP1 POP JUMP JUMPDEST PUSH2 0x351 DUP2 PUSH2 0x33F JUMP JUMPDEST DUP3 MSTORE POP POP JUMP JUMPDEST PUSH0 PUSH1 0x40 DUP3 ADD SWAP1 POP PUSH2 0x36A PUSH0 DUP4 ADD DUP6 PUSH2 0x348 JUMP JUMPDEST PUSH2 0x377 PUSH1 0x20 DUP4 ADD DUP5 PUSH2 0x348 JUMP JUMPDEST SWAP4 SWAP3 POP POP POP JUMP JUMPDEST PUSH0 DUP1 REVERT JUMPDEST PUSH2 0x38B DUP2 PUSH2 0x33F JUMP JUMPDEST DUP2 EQ PUSH2 0x395 JUMPI PUSH0 DUP1 REVERT JUMPDEST POP JUMP JUMPDEST PUSH0 DUP2 CALLDATALOAD SWAP1 POP PUSH2 0x3A6 DUP2 PUSH2 0x382 JUMP JUMPDEST SWAP3 SWAP2 POP POP JUMP JUMPDEST PUSH0 PUSH1 0x20 DUP3 DUP5 SUB SLT ISZERO PUSH2 0x3C1 JUMPI PUSH2 0x3C0 PUSH2 0x37E JUMP JUMPDEST JUMPDEST PUSH0 PUSH2 0x3CE DUP5 DUP3 DUP6 ADD PUSH2 0x398 JUMP JUMPDEST SWAP2 POP POP SWAP3 SWAP2 POP POP JUMP JUMPDEST PUSH0 PUSH20 0xFFFFFFFFFFFFFFFFFFFFFFFFFFFFFFFFFFFFFFFF DUP3 AND SWAP1 POP SWAP2 SWAP1 POP JUMP JUMPDEST PUSH0 PUSH2 0x400 DUP3 PUSH2 0x3D7 JUMP JUMPDEST SWAP1 POP SWAP2 SWAP1 POP JUMP JUMPDEST PUSH2 0x410 DUP2 PUSH2 0x3F6 JUMP JUMPDEST DUP3 MSTORE POP POP JUMP JUMPDEST PUSH0 PUSH1 0x20 DUP3 ADD SWAP1 POP PUSH2 0x429 PUSH0 DUP4 ADD DUP5 PUSH2 0x407 JUMP JUMPDEST SWAP3 SWAP2 POP POP JUMP JUMPDEST PUSH2 0x438 DUP2 PUSH2 0x3F6 JUMP JUMPDEST DUP2 EQ PUSH2 0x442 JUMPI PUSH0 DUP1 REVERT JUMPDEST POP JUMP JUMPDEST PUSH0 DUP2 CALLDATALOAD SWAP1 POP PUSH2 0x453 DUP2 PUSH2 0x42F JUMP JUMPDEST SWAP3 SWAP2 POP POP JUMP JUMPDEST PUSH0 PUSH1 0x20 DUP3 DUP5 SUB SLT ISZERO PUSH2 0x46E JUMPI PUSH2 0x46D PUSH2 0x37E JUMP JUMPDEST JUMPDEST PUSH0 PUSH2 0x47B DUP5 DUP3 DUP6 ADD PUSH2 0x445 JUMP JUMPDEST SWAP2 POP POP SWAP3 SWAP2 POP POP JUMP JUMPDEST PUSH0 DUP2 ISZERO ISZERO SWAP1 POP SWAP2 SWAP1 POP JUMP JUMPDEST PUSH2 0x498 DUP2 PUSH2 0x484 JUMP JUMPDEST DUP3 MSTORE POP POP JUMP JUMPDEST PUSH0 PUSH1 0x20 DUP3 ADD SWAP1 POP PUSH2 0x4B1 PUSH0 DUP4 ADD DUP5 PUSH2 0x48F JUMP JUMPDEST SWAP3 SWAP2 POP POP JUMP JUMPDEST PUSH0 DUP1 PUSH1 0x40 DUP4 DUP6 SUB SLT ISZERO PUSH2 0x4CD JUMPI PUSH2 0x4CC PUSH2 0x37E JUMP JUMPDEST JUMPDEST PUSH0 PUSH2 0x4DA DUP6 DUP3 DUP7 ADD PUSH2 0x398 JUMP JUMPDEST SWAP3 POP POP PUSH1 0x20 PUSH2 0x4EB DUP6 DUP3 DUP7 ADD PUSH2 0x445 JUMP JUMPDEST SWAP2 POP POP SWAP3 POP SWAP3 SWAP1 POP JUMP JUMPDEST PUSH0 DUP2 MLOAD SWAP1 POP SWAP2 SWAP1 POP JUMP JUMPDEST PUSH0 DUP3 DUP3 MSTORE PUSH1 0x20 DUP3 ADD SWAP1 POP SWAP3 SWAP2 POP POP JUMP JUMPDEST PUSH0 JUMPDEST DUP4 DUP2 LT ISZERO PUSH2 0x52C JUMPI DUP1 DUP3 ADD MLOAD DUP2 DUP5 ADD MSTORE PUSH1 0x20 DUP2 ADD SWAP1 POP PUSH2 0x511 JUMP JUMPDEST PUSH0 DUP5 DUP5 ADD MSTORE POP POP POP POP JUMP JUMPDEST PUSH0 PUSH1 0x1F NOT PUSH1 0x1F DUP4 ADD AND SWAP1 POP SWAP2 SWAP1 POP JUMP JUMPDEST PUSH0 PUSH2 0x551 DUP3 PUSH2 0x4F5 JUMP JUMPDEST PUSH2 0x55B DUP2 DUP6 PUSH2 0x4FF JUMP JUMPDEST SWAP4 POP PUSH2 0x56B DUP2 DUP6 PUSH1 0x20 DUP7 ADD PUSH2 0x50F JUMP JUMPDEST PUSH2 0x574 DUP2 PUSH2 0x537 JUMP JUMPDEST DUP5 ADD SWAP2 POP POP SWAP3 SWAP2 POP POP JUMP JUMPDEST PUSH0 PUSH1 0xA0 DUP3 ADD SWAP1 POP PUSH2 0x592 PUSH0 DUP4 ADD DUP9 PUSH2 0x407 JUMP JUMPDEST PUSH2 0x59F PUSH1 0x20 DUP4 ADD DUP8 PUSH2 0x348 JUMP JUMPDEST DUP2 DUP2 SUB PUSH1 0x40 DUP4 ADD MSTORE PUSH2 0x5B1 DUP2 DUP7 PUSH2 0x547 JUMP JUMPDEST SWAP1 POP PUSH2 0x5C0 PUSH1 0x60 DUP4 ADD DUP6 PUSH2 0x48F JUMP JUMPDEST PUSH2 0x5CD PUSH1 0x80 DUP4 ADD DUP5 PUSH2 0x348 JUMP JUMPDEST SWAP7 SWAP6 POP POP POP POP POP POP JUMP JUMPDEST PUSH0 PUSH1 0x20 DUP3 ADD SWAP1 POP PUSH2 0x5EA PUSH0 DUP4 ADD DUP5 PUSH2 0x348 JUMP JUMPDEST SWAP3 SWAP2 POP POP JUMP JUMPDEST PUSH32 0x4E487B7100000000000000000000000000000000000000000000000000000000 PUSH0 MSTORE PUSH1 0x22 PUSH1 0x4 MSTORE PUSH1 0x24 PUSH0 REVERT JUMPDEST PUSH0 PUSH1 0x2 DUP3 DIV SWAP1 POP PUSH1 0x1 DUP3 AND DUP1 PUSH2 0x634 JUMPI PUSH1 0x7F DUP3 AND SWAP2 POP JUMPDEST PUSH1 0x20 DUP3 LT DUP2 SUB PUSH2 0x647 JUMPI PUSH2 0x646 PUSH2 0x5F0 JUMP JUMPDEST JUMPDEST POP SWAP2 SWAP1 POP JUMP INVALID LOG2 PUSH5 0x6970667358 0x22 SLT KECCAK256 BYTE GT ADDMOD 0xE1 SHL SWAP6 0xD2 PUSH6 0x43C8109D6606 0xD2 0xC3 CALLDATALOAD GASPRICE 0x26 0xEB 0x5C 0xBE PUSH25 0x4CE71A16586B5874A064736F6C634300081600330000000000 "
				},
				"gasEstimates": {
					"creation": {
						"codeDepositCost": "333400",
						"executionCost": "infinite",
						"totalCost": "infinite"
					},
					"external": {
						"isConfirmed(uint256,address)": "3093",
						"isOwner(address)": "2833",
						"numConfirmations()": "2491",
						"owners(uint256)": "4921",
						"transactions(uint256)": "infinite"
					}
				},
				"methodIdentifiers": {
					"isConfirmed(uint256,address)": "80f59a65",
					"isOwner(address)": "2f54bf6e",
					"numConfirmations()": "dc108deb",
					"owners(uint256)": "025e7c27",
					"transactions(uint256)": "9ace38c2"
				}
			},
			"storageLayout": {
				"storage": [
					{
						"astId": 42,
						"contract": "wallet/multiSigwallet.sol:MultiSigWallet",
						"label": "owners",
						"offset": 0,
						"slot": "0",
						"type": "t_array(t_address)dyn_storage"
					},
					{
						"astId": 46,
						"contract": "wallet/multiSigwallet.sol:MultiSigWallet",
						"label": "isOwner",
						"offset": 0,
						"slot": "1",
						"type": "t_mapping(t_address,t_bool)"
					},
					{
						"astId": 48,
						"contract": "wallet/multiSigwallet.sol:MultiSigWallet",
						"label": "numConfirmations",
						"offset": 0,
						"slot": "2",
						"type": "t_uint256"
					},
					{
						"astId": 65,
						"contract": "wallet/multiSigwallet.sol:MultiSigWallet",
						"label": "isConfirmed",
						"offset": 0,
						"slot": "3",
						"type": "t_mapping(t_uint256,t_mapping(t_address,t_bool))"
					},
					{
						"astId": 69,
						"contract": "wallet/multiSigwallet.sol:MultiSigWallet",
						"label": "transactions",
						"offset": 0,
						"slot": "4",
						"type": "t_array(t_struct(Transaction)59_storage)dyn_storage"
					}
				],
				"types": {
					"t_address": {
						"encoding": "inplace",
						"label": "address",
						"numberOfBytes": "20"
					},
					"t_array(t_address)dyn_storage": {
						"base": "t_address",
						"encoding": "dynamic_array",
						"label": "address[]",
						"numberOfBytes": "32"
					},
					"t_array(t_struct(Transaction)59_storage)dyn_storage": {
						"base": "t_struct(Transaction)59_storage",
						"encoding": "dynamic_array",
						"label": "struct MultiSigWallet.Transaction[]",
						"numberOfBytes": "32"
					},
					"t_bool": {
						"encoding": "inplace",
						"label": "bool",
						"numberOfBytes": "1"
					},
					"t_bytes_storage": {
						"encoding": "bytes",
						"label": "bytes",
						"numberOfBytes": "32"
					},
					"t_mapping(t_address,t_bool)": {
						"encoding": "mapping",
						"key": "t_address",
						"label": "mapping(address => bool)",
						"numberOfBytes": "32",
						"value": "t_bool"
					},
					"t_mapping(t_uint256,t_mapping(t_address,t_bool))": {
						"encoding": "mapping",
						"key": "t_uint256",
						"label": "mapping(uint256 => mapping(address => bool))",
						"numberOfBytes": "32",
						"value": "t_mapping(t_address,t_bool)"
					},
					"t_struct(Transaction)59_storage": {
						"encoding": "inplace",
						"label": "struct MultiSigWallet.Transaction",
						"members": [
							{
								"astId": 50,
								"contract": "wallet/multiSigwallet.sol:MultiSigWallet",
								"label": "to",
								"offset": 0,
								"slot": "0",
								"type": "t_address"
							},
							{
								"astId": 52,
								"contract": "wallet/multiSigwallet.sol:MultiSigWallet",
								"label": "value",
								"offset": 0,
								"slot": "1",
								"type": "t_uint256"
							},
							{
								"astId": 54,
								"contract": "wallet/multiSigwallet.sol:MultiSigWallet",
								"label": "data",
								"offset": 0,
								"slot": "2",
								"type": "t_bytes_storage"
							},
							{
								"astId": 56,
								"contract": "wallet/multiSigwallet.sol:MultiSigWallet",
								"label": "executed",
								"offset": 0,
								"slot": "3",
								"type": "t_bool"
							},
							{
								"astId": 58,
								"contract": "wallet/multiSigwallet.sol:MultiSigWallet",
								"label": "numConfirmations",
								"offset": 0,
								"slot": "4",
								"type": "t_uint256"
							}
						],
						"numberOfBytes": "160"
					},
					"t_uint256": {
						"encoding": "inplace",
						"label": "uint256",
						"numberOfBytes": "32"
					}
				}
			},
			"userdoc": {
				"kind": "user",
				"methods": {},
				"version": 1
			}
		}
	}
}