{
	"wallet/singleSig.sol": {
		"singleSigWallet": {
			"abi": [
				{
					"inputs": [],
					"stateMutability": "nonpayable",
					"type": "constructor"
				},
				{
					"anonymous": false,
					"inputs": [
						{
							"indexed": true,
							"internalType": "address",
							"name": "sender",
							"type": "address"
						},
						{
							"indexed": false,
							"internalType": "uint256",
							"name": "amount",
							"type": "uint256"
						},
						{
							"indexed": false,
							"internalType": "uint256",
							"name": "balance",
							"type": "uint256"
						}
					],
					"name": "Deposit",
					"type": "event"
				},
				{
					"anonymous": false,
					"inputs": [
						{
							"indexed": true,
							"internalType": "address",
							"name": "recipient",
							"type": "address"
						},
						{
							"indexed": false,
							"internalType": "uint256",
							"name": "amount",
							"type": "uint256"
						},
						{
							"indexed": false,
							"internalType": "uint256",
							"name": "balance",
							"type": "uint256"
						}
					],
					"name": "Withdraw",
					"type": "event"
				},
				{
					"inputs": [],
					"name": "balance",
					"outputs": [
						{
							"internalType": "uint256",
							"name": "",
							"type": "uint256"
						}
					],
					"stateMutability": "view",
					"type": "function"
				},
				{
					"inputs": [
						{
							"internalType": "uint256",
							"name": "amount",
							"type": "uint256"
						}
					],
					"name": "deposit",
					"outputs": [],
					"stateMutability": "payable",
					"type": "function"
				},
				{
					"inputs": [],
					"name": "owner",
					"outputs": [
						{
							"internalType": "address",
							"name": "",
							"type": "address"
						}
					],
					"stateMutability": "view",
					"type": "function"
				},
				{
					"inputs": [
						{
							"internalType": "address",
							"name": "recipient",
							"type": "address"
						},
						{
							"internalType": "uint256",
							"name": "amount",
							"type": "uint256"
						}
					],
					"name": "withdraw",
					"outputs": [],
					"stateMutability": "nonpayable",
					"type": "function"
				}
			],
			"devdoc": {
				"kind": "dev",
				"methods": {},
				"version": 1
			},
			"evm": {
				"assembly": "    /* \"wallet/singleSig.sol\":180:1182  contract singleSigWallet is ReentrancyGuard{... */\n  mstore(0x40, 0x80)\n    /* \"wallet/singleSig.sol\":558:607  constructor (){... */\n  callvalue\n  dup1\n  iszero\n  tag_1\n  jumpi\n  0x00\n  dup1\n  revert\ntag_1:\n  pop\n    /* \"@openzeppelin/contracts/security/ReentrancyGuard.sol\":1716:1717  1 */\n  0x01\n    /* \"@openzeppelin/contracts/security/ReentrancyGuard.sol\":1821:1828  _status */\n  0x00\n    /* \"@openzeppelin/contracts/security/ReentrancyGuard.sol\":1821:1843  _status = _NOT_ENTERED */\n  dup2\n  swap1\n  sstore\n  pop\n    /* \"wallet/singleSig.sol\":590:600  msg.sender */\n  caller\n    /* \"wallet/singleSig.sol\":582:587  owner */\n  0x01\n  0x00\n    /* \"wallet/singleSig.sol\":582:600  owner = msg.sender */\n  0x0100\n  exp\n  dup2\n  sload\n  dup2\n  0xffffffffffffffffffffffffffffffffffffffff\n  mul\n  not\n  and\n  swap1\n  dup4\n  0xffffffffffffffffffffffffffffffffffffffff\n  and\n  mul\n  or\n  swap1\n  sstore\n  pop\n    /* \"wallet/singleSig.sol\":180:1182  contract singleSigWallet is ReentrancyGuard{... */\n  dataSize(sub_0)\n  dup1\n  dataOffset(sub_0)\n  0x00\n  codecopy\n  0x00\n  return\nstop\n\nsub_0: assembly {\n        /* \"wallet/singleSig.sol\":180:1182  contract singleSigWallet is ReentrancyGuard{... */\n      mstore(0x40, 0x80)\n      jumpi(tag_1, lt(calldatasize, 0x04))\n      shr(0xe0, calldataload(0x00))\n      dup1\n      0x8da5cb5b\n      eq\n      tag_2\n      jumpi\n      dup1\n      0xb69ef8a8\n      eq\n      tag_3\n      jumpi\n      dup1\n      0xb6b55f25\n      eq\n      tag_4\n      jumpi\n      dup1\n      0xf3fef3a3\n      eq\n      tag_5\n      jumpi\n    tag_1:\n      0x00\n      dup1\n      revert\n        /* \"wallet/singleSig.sol\":407:427  address public owner */\n    tag_2:\n      callvalue\n      dup1\n      iszero\n      tag_6\n      jumpi\n      0x00\n      dup1\n      revert\n    tag_6:\n      pop\n      tag_7\n      tag_8\n      jump\t// in\n    tag_7:\n      mload(0x40)\n      tag_9\n      swap2\n      swap1\n      tag_10\n      jump\t// in\n    tag_9:\n      mload(0x40)\n      dup1\n      swap2\n      sub\n      swap1\n      return\n        /* \"wallet/singleSig.sol\":433:452  uint public balance */\n    tag_3:\n      callvalue\n      dup1\n      iszero\n      tag_11\n      jumpi\n      0x00\n      dup1\n      revert\n    tag_11:\n      pop\n      tag_12\n      tag_13\n      jump\t// in\n    tag_12:\n      mload(0x40)\n      tag_14\n      swap2\n      swap1\n      tag_15\n      jump\t// in\n    tag_14:\n      mload(0x40)\n      dup1\n      swap2\n      sub\n      swap1\n      return\n        /* \"wallet/singleSig.sol\":613:828  function deposit(uint amount) external payable {... */\n    tag_4:\n      tag_16\n      0x04\n      dup1\n      calldatasize\n      sub\n      dup2\n      add\n      swap1\n      tag_17\n      swap2\n      swap1\n      tag_18\n      jump\t// in\n    tag_17:\n      tag_19\n      jump\t// in\n    tag_16:\n      stop\n        /* \"wallet/singleSig.sol\":835:1180  function withdraw(address recipient, uint amount) public onlyOwner nonReentrant {... */\n    tag_5:\n      callvalue\n      dup1\n      iszero\n      tag_20\n      jumpi\n      0x00\n      dup1\n      revert\n    tag_20:\n      pop\n      tag_21\n      0x04\n      dup1\n      calldatasize\n      sub\n      dup2\n      add\n      swap1\n      tag_22\n      swap2\n      swap1\n      tag_23\n      jump\t// in\n    tag_22:\n      tag_24\n      jump\t// in\n    tag_21:\n      stop\n        /* \"wallet/singleSig.sol\":407:427  address public owner */\n    tag_8:\n      0x01\n      0x00\n      swap1\n      sload\n      swap1\n      0x0100\n      exp\n      swap1\n      div\n      0xffffffffffffffffffffffffffffffffffffffff\n      and\n      dup2\n      jump\t// out\n        /* \"wallet/singleSig.sol\":433:452  uint public balance */\n    tag_13:\n      sload(0x02)\n      dup2\n      jump\t// out\n        /* \"wallet/singleSig.sol\":613:828  function deposit(uint amount) external payable {... */\n    tag_19:\n        /* \"wallet/singleSig.sol\":687:688  0 */\n      0x00\n        /* \"wallet/singleSig.sol\":678:684  amount */\n      dup2\n        /* \"wallet/singleSig.sol\":678:688  amount > 0 */\n      gt\n        /* \"wallet/singleSig.sol\":670:730  require(amount > 0, \"Deposit amount must be greater than 0\") */\n      tag_26\n      jumpi\n      mload(0x40)\n      0x08c379a000000000000000000000000000000000000000000000000000000000\n      dup2\n      mstore\n      0x04\n      add\n      tag_27\n      swap1\n      tag_28\n      jump\t// in\n    tag_27:\n      mload(0x40)\n      dup1\n      swap2\n      sub\n      swap1\n      revert\n    tag_26:\n        /* \"wallet/singleSig.sol\":751:770  balance.add(amount) */\n      tag_29\n        /* \"wallet/singleSig.sol\":763:769  amount */\n      dup2\n        /* \"wallet/singleSig.sol\":751:758  balance */\n      sload(0x02)\n        /* \"wallet/singleSig.sol\":751:762  balance.add */\n      tag_30\n      swap1\n        /* \"wallet/singleSig.sol\":751:770  balance.add(amount) */\n      swap2\n      swap1\n      0xffffffff\n      and\n      jump\t// in\n    tag_29:\n        /* \"wallet/singleSig.sol\":741:748  balance */\n      0x02\n        /* \"wallet/singleSig.sol\":741:770  balance = balance.add(amount) */\n      dup2\n      swap1\n      sstore\n      pop\n        /* \"wallet/singleSig.sol\":793:803  msg.sender */\n      caller\n        /* \"wallet/singleSig.sol\":785:821  Deposit(msg.sender, amount, balance) */\n      0xffffffffffffffffffffffffffffffffffffffff\n      and\n      0x90890809c654f11d6e72a28fa60149770a0d11ec6c92319d6ceb2bb0a4ea1a15\n        /* \"wallet/singleSig.sol\":805:811  amount */\n      dup3\n        /* \"wallet/singleSig.sol\":813:820  balance */\n      sload(0x02)\n        /* \"wallet/singleSig.sol\":785:821  Deposit(msg.sender, amount, balance) */\n      mload(0x40)\n      tag_31\n      swap3\n      swap2\n      swap1\n      tag_32\n      jump\t// in\n    tag_31:\n      mload(0x40)\n      dup1\n      swap2\n      sub\n      swap1\n      log2\n        /* \"wallet/singleSig.sol\":613:828  function deposit(uint amount) external payable {... */\n      pop\n      jump\t// out\n        /* \"wallet/singleSig.sol\":835:1180  function withdraw(address recipient, uint amount) public onlyOwner nonReentrant {... */\n    tag_24:\n        /* \"wallet/singleSig.sol\":511:516  owner */\n      0x01\n      0x00\n      swap1\n      sload\n      swap1\n      0x0100\n      exp\n      swap1\n      div\n      0xffffffffffffffffffffffffffffffffffffffff\n      and\n        /* \"wallet/singleSig.sol\":497:516  msg.sender == owner */\n      0xffffffffffffffffffffffffffffffffffffffff\n      and\n        /* \"wallet/singleSig.sol\":497:507  msg.sender */\n      caller\n        /* \"wallet/singleSig.sol\":497:516  msg.sender == owner */\n      0xffffffffffffffffffffffffffffffffffffffff\n      and\n      eq\n        /* \"wallet/singleSig.sol\":489:534  require(msg.sender == owner, \"Not the owner\") */\n      tag_34\n      jumpi\n      mload(0x40)\n      0x08c379a000000000000000000000000000000000000000000000000000000000\n      dup2\n      mstore\n      0x04\n      add\n      tag_35\n      swap1\n      tag_36\n      jump\t// in\n    tag_35:\n      mload(0x40)\n      dup1\n      swap2\n      sub\n      swap1\n      revert\n    tag_34:\n        /* \"@openzeppelin/contracts/security/ReentrancyGuard.sol\":2261:2282  _nonReentrantBefore() */\n      tag_38\n        /* \"@openzeppelin/contracts/security/ReentrancyGuard.sol\":2261:2280  _nonReentrantBefore */\n      tag_39\n        /* \"@openzeppelin/contracts/security/ReentrancyGuard.sol\":2261:2282  _nonReentrantBefore() */\n      jump\t// in\n    tag_38:\n        /* \"wallet/singleSig.sol\":943:950  balance */\n      sload(0x02)\n        /* \"wallet/singleSig.sol\":933:939  amount */\n      dup2\n        /* \"wallet/singleSig.sol\":933:950  amount <= balance */\n      gt\n      iszero\n        /* \"wallet/singleSig.sol\":925:975  require(amount <= balance, \"Insufficient balance\") */\n      tag_41\n      jumpi\n      mload(0x40)\n      0x08c379a000000000000000000000000000000000000000000000000000000000\n      dup2\n      mstore\n      0x04\n      add\n      tag_42\n      swap1\n      tag_43\n      jump\t// in\n    tag_42:\n      mload(0x40)\n      dup1\n      swap2\n      sub\n      swap1\n      revert\n    tag_41:\n        /* \"wallet/singleSig.sol\":1014:1015  0 */\n      0x00\n        /* \"wallet/singleSig.sol\":993:1016  recipient != address(0) */\n      0xffffffffffffffffffffffffffffffffffffffff\n      and\n        /* \"wallet/singleSig.sol\":993:1002  recipient */\n      dup3\n        /* \"wallet/singleSig.sol\":993:1016  recipient != address(0) */\n      0xffffffffffffffffffffffffffffffffffffffff\n      and\n      sub\n        /* \"wallet/singleSig.sol\":985:1036  require(recipient != address(0), \"Invalid address\") */\n      tag_44\n      jumpi\n      mload(0x40)\n      0x08c379a000000000000000000000000000000000000000000000000000000000\n      dup2\n      mstore\n      0x04\n      add\n      tag_45\n      swap1\n      tag_46\n      jump\t// in\n    tag_45:\n      mload(0x40)\n      dup1\n      swap2\n      sub\n      swap1\n      revert\n    tag_44:\n        /* \"wallet/singleSig.sol\":1057:1076  balance.sub(amount) */\n      tag_47\n        /* \"wallet/singleSig.sol\":1069:1075  amount */\n      dup2\n        /* \"wallet/singleSig.sol\":1057:1064  balance */\n      sload(0x02)\n        /* \"wallet/singleSig.sol\":1057:1068  balance.sub */\n      tag_48\n      swap1\n        /* \"wallet/singleSig.sol\":1057:1076  balance.sub(amount) */\n      swap2\n      swap1\n      0xffffffff\n      and\n      jump\t// in\n    tag_47:\n        /* \"wallet/singleSig.sol\":1047:1054  balance */\n      0x02\n        /* \"wallet/singleSig.sol\":1047:1076  balance = balance.sub(amount) */\n      dup2\n      swap1\n      sstore\n      pop\n        /* \"wallet/singleSig.sol\":1094:1103  recipient */\n      dup2\n        /* \"wallet/singleSig.sol\":1086:1113  payable(recipient).transfer */\n      0xffffffffffffffffffffffffffffffffffffffff\n      and\n        /* \"wallet/singleSig.sol\":1086:1121  payable(recipient).transfer(amount) */\n      0x08fc\n        /* \"wallet/singleSig.sol\":1114:1120  amount */\n      dup3\n        /* \"wallet/singleSig.sol\":1086:1121  payable(recipient).transfer(amount) */\n      swap1\n      dup2\n      iszero\n      mul\n      swap1\n      mload(0x40)\n      0x00\n      mload(0x40)\n      dup1\n      dup4\n      sub\n      dup2\n      dup6\n      dup9\n      dup9\n      call\n      swap4\n      pop\n      pop\n      pop\n      pop\n      iszero\n      dup1\n      iszero\n      tag_50\n      jumpi\n      returndatasize\n      0x00\n      dup1\n      returndatacopy\n      revert(0x00, returndatasize)\n    tag_50:\n      pop\n        /* \"wallet/singleSig.sol\":1146:1155  recipient */\n      dup2\n        /* \"wallet/singleSig.sol\":1137:1173  Withdraw(recipient, amount, balance) */\n      0xffffffffffffffffffffffffffffffffffffffff\n      and\n      0xf279e6a1f5e320cca91135676d9cb6e44ca8a08c0b88342bcdb1144f6511b568\n        /* \"wallet/singleSig.sol\":1157:1163  amount */\n      dup3\n        /* \"wallet/singleSig.sol\":1165:1172  balance */\n      sload(0x02)\n        /* \"wallet/singleSig.sol\":1137:1173  Withdraw(recipient, amount, balance) */\n      mload(0x40)\n      tag_51\n      swap3\n      swap2\n      swap1\n      tag_32\n      jump\t// in\n    tag_51:\n      mload(0x40)\n      dup1\n      swap2\n      sub\n      swap1\n      log2\n        /* \"@openzeppelin/contracts/security/ReentrancyGuard.sol\":2303:2323  _nonReentrantAfter() */\n      tag_52\n        /* \"@openzeppelin/contracts/security/ReentrancyGuard.sol\":2303:2321  _nonReentrantAfter */\n      tag_53\n        /* \"@openzeppelin/contracts/security/ReentrancyGuard.sol\":2303:2323  _nonReentrantAfter() */\n      jump\t// in\n    tag_52:\n        /* \"wallet/singleSig.sol\":835:1180  function withdraw(address recipient, uint amount) public onlyOwner nonReentrant {... */\n      pop\n      pop\n      jump\t// out\n        /* \"@openzeppelin/contracts/utils/math/SafeMath.sol\":2755:2851  function add(uint256 a, uint256 b) internal pure returns (uint256) {... */\n    tag_30:\n        /* \"@openzeppelin/contracts/utils/math/SafeMath.sol\":2813:2820  uint256 */\n      0x00\n        /* \"@openzeppelin/contracts/utils/math/SafeMath.sol\":2843:2844  b */\n      dup2\n        /* \"@openzeppelin/contracts/utils/math/SafeMath.sol\":2839:2840  a */\n      dup4\n        /* \"@openzeppelin/contracts/utils/math/SafeMath.sol\":2839:2844  a + b */\n      tag_55\n      swap2\n      swap1\n      tag_56\n      jump\t// in\n    tag_55:\n        /* \"@openzeppelin/contracts/utils/math/SafeMath.sol\":2832:2844  return a + b */\n      swap1\n      pop\n        /* \"@openzeppelin/contracts/utils/math/SafeMath.sol\":2755:2851  function add(uint256 a, uint256 b) internal pure returns (uint256) {... */\n      swap3\n      swap2\n      pop\n      pop\n      jump\t// out\n        /* \"@openzeppelin/contracts/security/ReentrancyGuard.sol\":2336:2623  function _nonReentrantBefore() private {... */\n    tag_39:\n        /* \"@openzeppelin/contracts/security/ReentrancyGuard.sol\":1759:1760  2 */\n      0x02\n        /* \"@openzeppelin/contracts/security/ReentrancyGuard.sol\":2468:2475  _status */\n      sload(0x00)\n        /* \"@openzeppelin/contracts/security/ReentrancyGuard.sol\":2468:2487  _status != _ENTERED */\n      sub\n        /* \"@openzeppelin/contracts/security/ReentrancyGuard.sol\":2460:2523  require(_status != _ENTERED, \"ReentrancyGuard: reentrant call\") */\n      tag_58\n      jumpi\n      mload(0x40)\n      0x08c379a000000000000000000000000000000000000000000000000000000000\n      dup2\n      mstore\n      0x04\n      add\n      tag_59\n      swap1\n      tag_60\n      jump\t// in\n    tag_59:\n      mload(0x40)\n      dup1\n      swap2\n      sub\n      swap1\n      revert\n    tag_58:\n        /* \"@openzeppelin/contracts/security/ReentrancyGuard.sol\":1759:1760  2 */\n      0x02\n        /* \"@openzeppelin/contracts/security/ReentrancyGuard.sol\":2598:2605  _status */\n      0x00\n        /* \"@openzeppelin/contracts/security/ReentrancyGuard.sol\":2598:2616  _status = _ENTERED */\n      dup2\n      swap1\n      sstore\n      pop\n        /* \"@openzeppelin/contracts/security/ReentrancyGuard.sol\":2336:2623  function _nonReentrantBefore() private {... */\n      jump\t// out\n        /* \"@openzeppelin/contracts/utils/math/SafeMath.sol\":3122:3218  function sub(uint256 a, uint256 b) internal pure returns (uint256) {... */\n    tag_48:\n        /* \"@openzeppelin/contracts/utils/math/SafeMath.sol\":3180:3187  uint256 */\n      0x00\n        /* \"@openzeppelin/contracts/utils/math/SafeMath.sol\":3210:3211  b */\n      dup2\n        /* \"@openzeppelin/contracts/utils/math/SafeMath.sol\":3206:3207  a */\n      dup4\n        /* \"@openzeppelin/contracts/utils/math/SafeMath.sol\":3206:3211  a - b */\n      tag_62\n      swap2\n      swap1\n      tag_63\n      jump\t// in\n    tag_62:\n        /* \"@openzeppelin/contracts/utils/math/SafeMath.sol\":3199:3211  return a - b */\n      swap1\n      pop\n        /* \"@openzeppelin/contracts/utils/math/SafeMath.sol\":3122:3218  function sub(uint256 a, uint256 b) internal pure returns (uint256) {... */\n      swap3\n      swap2\n      pop\n      pop\n      jump\t// out\n        /* \"@openzeppelin/contracts/security/ReentrancyGuard.sol\":2629:2838  function _nonReentrantAfter() private {... */\n    tag_53:\n        /* \"@openzeppelin/contracts/security/ReentrancyGuard.sol\":1716:1717  1 */\n      0x01\n        /* \"@openzeppelin/contracts/security/ReentrancyGuard.sol\":2809:2816  _status */\n      0x00\n        /* \"@openzeppelin/contracts/security/ReentrancyGuard.sol\":2809:2831  _status = _NOT_ENTERED */\n      dup2\n      swap1\n      sstore\n      pop\n        /* \"@openzeppelin/contracts/security/ReentrancyGuard.sol\":2629:2838  function _nonReentrantAfter() private {... */\n      jump\t// out\n        /* \"#utility.yul\":7:133   */\n    tag_65:\n        /* \"#utility.yul\":44:51   */\n      0x00\n        /* \"#utility.yul\":84:126   */\n      0xffffffffffffffffffffffffffffffffffffffff\n        /* \"#utility.yul\":77:82   */\n      dup3\n        /* \"#utility.yul\":73:127   */\n      and\n        /* \"#utility.yul\":62:127   */\n      swap1\n      pop\n        /* \"#utility.yul\":7:133   */\n      swap2\n      swap1\n      pop\n      jump\t// out\n        /* \"#utility.yul\":139:235   */\n    tag_66:\n        /* \"#utility.yul\":176:183   */\n      0x00\n        /* \"#utility.yul\":205:229   */\n      tag_92\n        /* \"#utility.yul\":223:228   */\n      dup3\n        /* \"#utility.yul\":205:229   */\n      tag_65\n      jump\t// in\n    tag_92:\n        /* \"#utility.yul\":194:229   */\n      swap1\n      pop\n        /* \"#utility.yul\":139:235   */\n      swap2\n      swap1\n      pop\n      jump\t// out\n        /* \"#utility.yul\":241:359   */\n    tag_67:\n        /* \"#utility.yul\":328:352   */\n      tag_94\n        /* \"#utility.yul\":346:351   */\n      dup2\n        /* \"#utility.yul\":328:352   */\n      tag_66\n      jump\t// in\n    tag_94:\n        /* \"#utility.yul\":323:326   */\n      dup3\n        /* \"#utility.yul\":316:353   */\n      mstore\n        /* \"#utility.yul\":241:359   */\n      pop\n      pop\n      jump\t// out\n        /* \"#utility.yul\":365:587   */\n    tag_10:\n        /* \"#utility.yul\":458:462   */\n      0x00\n        /* \"#utility.yul\":496:498   */\n      0x20\n        /* \"#utility.yul\":485:494   */\n      dup3\n        /* \"#utility.yul\":481:499   */\n      add\n        /* \"#utility.yul\":473:499   */\n      swap1\n      pop\n        /* \"#utility.yul\":509:580   */\n      tag_96\n        /* \"#utility.yul\":577:578   */\n      0x00\n        /* \"#utility.yul\":566:575   */\n      dup4\n        /* \"#utility.yul\":562:579   */\n      add\n        /* \"#utility.yul\":553:559   */\n      dup5\n        /* \"#utility.yul\":509:580   */\n      tag_67\n      jump\t// in\n    tag_96:\n        /* \"#utility.yul\":365:587   */\n      swap3\n      swap2\n      pop\n      pop\n      jump\t// out\n        /* \"#utility.yul\":593:670   */\n    tag_68:\n        /* \"#utility.yul\":630:637   */\n      0x00\n        /* \"#utility.yul\":659:664   */\n      dup2\n        /* \"#utility.yul\":648:664   */\n      swap1\n      pop\n        /* \"#utility.yul\":593:670   */\n      swap2\n      swap1\n      pop\n      jump\t// out\n        /* \"#utility.yul\":676:794   */\n    tag_69:\n        /* \"#utility.yul\":763:787   */\n      tag_99\n        /* \"#utility.yul\":781:786   */\n      dup2\n        /* \"#utility.yul\":763:787   */\n      tag_68\n      jump\t// in\n    tag_99:\n        /* \"#utility.yul\":758:761   */\n      dup3\n        /* \"#utility.yul\":751:788   */\n      mstore\n        /* \"#utility.yul\":676:794   */\n      pop\n      pop\n      jump\t// out\n        /* \"#utility.yul\":800:1022   */\n    tag_15:\n        /* \"#utility.yul\":893:897   */\n      0x00\n        /* \"#utility.yul\":931:933   */\n      0x20\n        /* \"#utility.yul\":920:929   */\n      dup3\n        /* \"#utility.yul\":916:934   */\n      add\n        /* \"#utility.yul\":908:934   */\n      swap1\n      pop\n        /* \"#utility.yul\":944:1015   */\n      tag_101\n        /* \"#utility.yul\":1012:1013   */\n      0x00\n        /* \"#utility.yul\":1001:1010   */\n      dup4\n        /* \"#utility.yul\":997:1014   */\n      add\n        /* \"#utility.yul\":988:994   */\n      dup5\n        /* \"#utility.yul\":944:1015   */\n      tag_69\n      jump\t// in\n    tag_101:\n        /* \"#utility.yul\":800:1022   */\n      swap3\n      swap2\n      pop\n      pop\n      jump\t// out\n        /* \"#utility.yul\":1109:1226   */\n    tag_71:\n        /* \"#utility.yul\":1218:1219   */\n      0x00\n        /* \"#utility.yul\":1215:1216   */\n      dup1\n        /* \"#utility.yul\":1208:1220   */\n      revert\n        /* \"#utility.yul\":1355:1477   */\n    tag_73:\n        /* \"#utility.yul\":1428:1452   */\n      tag_106\n        /* \"#utility.yul\":1446:1451   */\n      dup2\n        /* \"#utility.yul\":1428:1452   */\n      tag_68\n      jump\t// in\n    tag_106:\n        /* \"#utility.yul\":1421:1426   */\n      dup2\n        /* \"#utility.yul\":1418:1453   */\n      eq\n        /* \"#utility.yul\":1408:1471   */\n      tag_107\n      jumpi\n        /* \"#utility.yul\":1467:1468   */\n      0x00\n        /* \"#utility.yul\":1464:1465   */\n      dup1\n        /* \"#utility.yul\":1457:1469   */\n      revert\n        /* \"#utility.yul\":1408:1471   */\n    tag_107:\n        /* \"#utility.yul\":1355:1477   */\n      pop\n      jump\t// out\n        /* \"#utility.yul\":1483:1622   */\n    tag_74:\n        /* \"#utility.yul\":1529:1534   */\n      0x00\n        /* \"#utility.yul\":1567:1573   */\n      dup2\n        /* \"#utility.yul\":1554:1574   */\n      calldataload\n        /* \"#utility.yul\":1545:1574   */\n      swap1\n      pop\n        /* \"#utility.yul\":1583:1616   */\n      tag_109\n        /* \"#utility.yul\":1610:1615   */\n      dup2\n        /* \"#utility.yul\":1583:1616   */\n      tag_73\n      jump\t// in\n    tag_109:\n        /* \"#utility.yul\":1483:1622   */\n      swap3\n      swap2\n      pop\n      pop\n      jump\t// out\n        /* \"#utility.yul\":1628:1957   */\n    tag_18:\n        /* \"#utility.yul\":1687:1693   */\n      0x00\n        /* \"#utility.yul\":1736:1738   */\n      0x20\n        /* \"#utility.yul\":1724:1733   */\n      dup3\n        /* \"#utility.yul\":1715:1722   */\n      dup5\n        /* \"#utility.yul\":1711:1734   */\n      sub\n        /* \"#utility.yul\":1707:1739   */\n      slt\n        /* \"#utility.yul\":1704:1823   */\n      iszero\n      tag_111\n      jumpi\n        /* \"#utility.yul\":1742:1821   */\n      tag_112\n      tag_71\n      jump\t// in\n    tag_112:\n        /* \"#utility.yul\":1704:1823   */\n    tag_111:\n        /* \"#utility.yul\":1862:1863   */\n      0x00\n        /* \"#utility.yul\":1887:1940   */\n      tag_113\n        /* \"#utility.yul\":1932:1939   */\n      dup5\n        /* \"#utility.yul\":1923:1929   */\n      dup3\n        /* \"#utility.yul\":1912:1921   */\n      dup6\n        /* \"#utility.yul\":1908:1930   */\n      add\n        /* \"#utility.yul\":1887:1940   */\n      tag_74\n      jump\t// in\n    tag_113:\n        /* \"#utility.yul\":1877:1940   */\n      swap2\n      pop\n        /* \"#utility.yul\":1833:1950   */\n      pop\n        /* \"#utility.yul\":1628:1957   */\n      swap3\n      swap2\n      pop\n      pop\n      jump\t// out\n        /* \"#utility.yul\":1963:2085   */\n    tag_75:\n        /* \"#utility.yul\":2036:2060   */\n      tag_115\n        /* \"#utility.yul\":2054:2059   */\n      dup2\n        /* \"#utility.yul\":2036:2060   */\n      tag_66\n      jump\t// in\n    tag_115:\n        /* \"#utility.yul\":2029:2034   */\n      dup2\n        /* \"#utility.yul\":2026:2061   */\n      eq\n        /* \"#utility.yul\":2016:2079   */\n      tag_116\n      jumpi\n        /* \"#utility.yul\":2075:2076   */\n      0x00\n        /* \"#utility.yul\":2072:2073   */\n      dup1\n        /* \"#utility.yul\":2065:2077   */\n      revert\n        /* \"#utility.yul\":2016:2079   */\n    tag_116:\n        /* \"#utility.yul\":1963:2085   */\n      pop\n      jump\t// out\n        /* \"#utility.yul\":2091:2230   */\n    tag_76:\n        /* \"#utility.yul\":2137:2142   */\n      0x00\n        /* \"#utility.yul\":2175:2181   */\n      dup2\n        /* \"#utility.yul\":2162:2182   */\n      calldataload\n        /* \"#utility.yul\":2153:2182   */\n      swap1\n      pop\n        /* \"#utility.yul\":2191:2224   */\n      tag_118\n        /* \"#utility.yul\":2218:2223   */\n      dup2\n        /* \"#utility.yul\":2191:2224   */\n      tag_75\n      jump\t// in\n    tag_118:\n        /* \"#utility.yul\":2091:2230   */\n      swap3\n      swap2\n      pop\n      pop\n      jump\t// out\n        /* \"#utility.yul\":2236:2710   */\n    tag_23:\n        /* \"#utility.yul\":2304:2310   */\n      0x00\n        /* \"#utility.yul\":2312:2318   */\n      dup1\n        /* \"#utility.yul\":2361:2363   */\n      0x40\n        /* \"#utility.yul\":2349:2358   */\n      dup4\n        /* \"#utility.yul\":2340:2347   */\n      dup6\n        /* \"#utility.yul\":2336:2359   */\n      sub\n        /* \"#utility.yul\":2332:2364   */\n      slt\n        /* \"#utility.yul\":2329:2448   */\n      iszero\n      tag_120\n      jumpi\n        /* \"#utility.yul\":2367:2446   */\n      tag_121\n      tag_71\n      jump\t// in\n    tag_121:\n        /* \"#utility.yul\":2329:2448   */\n    tag_120:\n        /* \"#utility.yul\":2487:2488   */\n      0x00\n        /* \"#utility.yul\":2512:2565   */\n      tag_122\n        /* \"#utility.yul\":2557:2564   */\n      dup6\n        /* \"#utility.yul\":2548:2554   */\n      dup3\n        /* \"#utility.yul\":2537:2546   */\n      dup7\n        /* \"#utility.yul\":2533:2555   */\n      add\n        /* \"#utility.yul\":2512:2565   */\n      tag_76\n      jump\t// in\n    tag_122:\n        /* \"#utility.yul\":2502:2565   */\n      swap3\n      pop\n        /* \"#utility.yul\":2458:2575   */\n      pop\n        /* \"#utility.yul\":2614:2616   */\n      0x20\n        /* \"#utility.yul\":2640:2693   */\n      tag_123\n        /* \"#utility.yul\":2685:2692   */\n      dup6\n        /* \"#utility.yul\":2676:2682   */\n      dup3\n        /* \"#utility.yul\":2665:2674   */\n      dup7\n        /* \"#utility.yul\":2661:2683   */\n      add\n        /* \"#utility.yul\":2640:2693   */\n      tag_74\n      jump\t// in\n    tag_123:\n        /* \"#utility.yul\":2630:2693   */\n      swap2\n      pop\n        /* \"#utility.yul\":2585:2703   */\n      pop\n        /* \"#utility.yul\":2236:2710   */\n      swap3\n      pop\n      swap3\n      swap1\n      pop\n      jump\t// out\n        /* \"#utility.yul\":2716:2885   */\n    tag_77:\n        /* \"#utility.yul\":2800:2811   */\n      0x00\n        /* \"#utility.yul\":2834:2840   */\n      dup3\n        /* \"#utility.yul\":2829:2832   */\n      dup3\n        /* \"#utility.yul\":2822:2841   */\n      mstore\n        /* \"#utility.yul\":2874:2878   */\n      0x20\n        /* \"#utility.yul\":2869:2872   */\n      dup3\n        /* \"#utility.yul\":2865:2879   */\n      add\n        /* \"#utility.yul\":2850:2879   */\n      swap1\n      pop\n        /* \"#utility.yul\":2716:2885   */\n      swap3\n      swap2\n      pop\n      pop\n      jump\t// out\n        /* \"#utility.yul\":2891:3115   */\n    tag_78:\n        /* \"#utility.yul\":3031:3065   */\n      0x4465706f73697420616d6f756e74206d75737420626520677265617465722074\n        /* \"#utility.yul\":3027:3028   */\n      0x00\n        /* \"#utility.yul\":3019:3025   */\n      dup3\n        /* \"#utility.yul\":3015:3029   */\n      add\n        /* \"#utility.yul\":3008:3066   */\n      mstore\n        /* \"#utility.yul\":3100:3107   */\n      0x68616e2030000000000000000000000000000000000000000000000000000000\n        /* \"#utility.yul\":3095:3097   */\n      0x20\n        /* \"#utility.yul\":3087:3093   */\n      dup3\n        /* \"#utility.yul\":3083:3098   */\n      add\n        /* \"#utility.yul\":3076:3108   */\n      mstore\n        /* \"#utility.yul\":2891:3115   */\n      pop\n      jump\t// out\n        /* \"#utility.yul\":3121:3487   */\n    tag_79:\n        /* \"#utility.yul\":3263:3266   */\n      0x00\n        /* \"#utility.yul\":3284:3351   */\n      tag_127\n        /* \"#utility.yul\":3348:3350   */\n      0x25\n        /* \"#utility.yul\":3343:3346   */\n      dup4\n        /* \"#utility.yul\":3284:3351   */\n      tag_77\n      jump\t// in\n    tag_127:\n        /* \"#utility.yul\":3277:3351   */\n      swap2\n      pop\n        /* \"#utility.yul\":3360:3453   */\n      tag_128\n        /* \"#utility.yul\":3449:3452   */\n      dup3\n        /* \"#utility.yul\":3360:3453   */\n      tag_78\n      jump\t// in\n    tag_128:\n        /* \"#utility.yul\":3478:3480   */\n      0x40\n        /* \"#utility.yul\":3473:3476   */\n      dup3\n        /* \"#utility.yul\":3469:3481   */\n      add\n        /* \"#utility.yul\":3462:3481   */\n      swap1\n      pop\n        /* \"#utility.yul\":3121:3487   */\n      swap2\n      swap1\n      pop\n      jump\t// out\n        /* \"#utility.yul\":3493:3912   */\n    tag_28:\n        /* \"#utility.yul\":3659:3663   */\n      0x00\n        /* \"#utility.yul\":3697:3699   */\n      0x20\n        /* \"#utility.yul\":3686:3695   */\n      dup3\n        /* \"#utility.yul\":3682:3700   */\n      add\n        /* \"#utility.yul\":3674:3700   */\n      swap1\n      pop\n        /* \"#utility.yul\":3746:3755   */\n      dup2\n        /* \"#utility.yul\":3740:3744   */\n      dup2\n        /* \"#utility.yul\":3736:3756   */\n      sub\n        /* \"#utility.yul\":3732:3733   */\n      0x00\n        /* \"#utility.yul\":3721:3730   */\n      dup4\n        /* \"#utility.yul\":3717:3734   */\n      add\n        /* \"#utility.yul\":3710:3757   */\n      mstore\n        /* \"#utility.yul\":3774:3905   */\n      tag_130\n        /* \"#utility.yul\":3900:3904   */\n      dup2\n        /* \"#utility.yul\":3774:3905   */\n      tag_79\n      jump\t// in\n    tag_130:\n        /* \"#utility.yul\":3766:3905   */\n      swap1\n      pop\n        /* \"#utility.yul\":3493:3912   */\n      swap2\n      swap1\n      pop\n      jump\t// out\n        /* \"#utility.yul\":3918:4250   */\n    tag_32:\n        /* \"#utility.yul\":4039:4043   */\n      0x00\n        /* \"#utility.yul\":4077:4079   */\n      0x40\n        /* \"#utility.yul\":4066:4075   */\n      dup3\n        /* \"#utility.yul\":4062:4080   */\n      add\n        /* \"#utility.yul\":4054:4080   */\n      swap1\n      pop\n        /* \"#utility.yul\":4090:4161   */\n      tag_132\n        /* \"#utility.yul\":4158:4159   */\n      0x00\n        /* \"#utility.yul\":4147:4156   */\n      dup4\n        /* \"#utility.yul\":4143:4160   */\n      add\n        /* \"#utility.yul\":4134:4140   */\n      dup6\n        /* \"#utility.yul\":4090:4161   */\n      tag_69\n      jump\t// in\n    tag_132:\n        /* \"#utility.yul\":4171:4243   */\n      tag_133\n        /* \"#utility.yul\":4239:4241   */\n      0x20\n        /* \"#utility.yul\":4228:4237   */\n      dup4\n        /* \"#utility.yul\":4224:4242   */\n      add\n        /* \"#utility.yul\":4215:4221   */\n      dup5\n        /* \"#utility.yul\":4171:4243   */\n      tag_69\n      jump\t// in\n    tag_133:\n        /* \"#utility.yul\":3918:4250   */\n      swap4\n      swap3\n      pop\n      pop\n      pop\n      jump\t// out\n        /* \"#utility.yul\":4256:4419   */\n    tag_80:\n        /* \"#utility.yul\":4396:4411   */\n      0x4e6f7420746865206f776e657200000000000000000000000000000000000000\n        /* \"#utility.yul\":4392:4393   */\n      0x00\n        /* \"#utility.yul\":4384:4390   */\n      dup3\n        /* \"#utility.yul\":4380:4394   */\n      add\n        /* \"#utility.yul\":4373:4412   */\n      mstore\n        /* \"#utility.yul\":4256:4419   */\n      pop\n      jump\t// out\n        /* \"#utility.yul\":4425:4791   */\n    tag_81:\n        /* \"#utility.yul\":4567:4570   */\n      0x00\n        /* \"#utility.yul\":4588:4655   */\n      tag_136\n        /* \"#utility.yul\":4652:4654   */\n      0x0d\n        /* \"#utility.yul\":4647:4650   */\n      dup4\n        /* \"#utility.yul\":4588:4655   */\n      tag_77\n      jump\t// in\n    tag_136:\n        /* \"#utility.yul\":4581:4655   */\n      swap2\n      pop\n        /* \"#utility.yul\":4664:4757   */\n      tag_137\n        /* \"#utility.yul\":4753:4756   */\n      dup3\n        /* \"#utility.yul\":4664:4757   */\n      tag_80\n      jump\t// in\n    tag_137:\n        /* \"#utility.yul\":4782:4784   */\n      0x20\n        /* \"#utility.yul\":4777:4780   */\n      dup3\n        /* \"#utility.yul\":4773:4785   */\n      add\n        /* \"#utility.yul\":4766:4785   */\n      swap1\n      pop\n        /* \"#utility.yul\":4425:4791   */\n      swap2\n      swap1\n      pop\n      jump\t// out\n        /* \"#utility.yul\":4797:5216   */\n    tag_36:\n        /* \"#utility.yul\":4963:4967   */\n      0x00\n        /* \"#utility.yul\":5001:5003   */\n      0x20\n        /* \"#utility.yul\":4990:4999   */\n      dup3\n        /* \"#utility.yul\":4986:5004   */\n      add\n        /* \"#utility.yul\":4978:5004   */\n      swap1\n      pop\n        /* \"#utility.yul\":5050:5059   */\n      dup2\n        /* \"#utility.yul\":5044:5048   */\n      dup2\n        /* \"#utility.yul\":5040:5060   */\n      sub\n        /* \"#utility.yul\":5036:5037   */\n      0x00\n        /* \"#utility.yul\":5025:5034   */\n      dup4\n        /* \"#utility.yul\":5021:5038   */\n      add\n        /* \"#utility.yul\":5014:5061   */\n      mstore\n        /* \"#utility.yul\":5078:5209   */\n      tag_139\n        /* \"#utility.yul\":5204:5208   */\n      dup2\n        /* \"#utility.yul\":5078:5209   */\n      tag_81\n      jump\t// in\n    tag_139:\n        /* \"#utility.yul\":5070:5209   */\n      swap1\n      pop\n        /* \"#utility.yul\":4797:5216   */\n      swap2\n      swap1\n      pop\n      jump\t// out\n        /* \"#utility.yul\":5222:5392   */\n    tag_82:\n        /* \"#utility.yul\":5362:5384   */\n      0x496e73756666696369656e742062616c616e6365000000000000000000000000\n        /* \"#utility.yul\":5358:5359   */\n      0x00\n        /* \"#utility.yul\":5350:5356   */\n      dup3\n        /* \"#utility.yul\":5346:5360   */\n      add\n        /* \"#utility.yul\":5339:5385   */\n      mstore\n        /* \"#utility.yul\":5222:5392   */\n      pop\n      jump\t// out\n        /* \"#utility.yul\":5398:5764   */\n    tag_83:\n        /* \"#utility.yul\":5540:5543   */\n      0x00\n        /* \"#utility.yul\":5561:5628   */\n      tag_142\n        /* \"#utility.yul\":5625:5627   */\n      0x14\n        /* \"#utility.yul\":5620:5623   */\n      dup4\n        /* \"#utility.yul\":5561:5628   */\n      tag_77\n      jump\t// in\n    tag_142:\n        /* \"#utility.yul\":5554:5628   */\n      swap2\n      pop\n        /* \"#utility.yul\":5637:5730   */\n      tag_143\n        /* \"#utility.yul\":5726:5729   */\n      dup3\n        /* \"#utility.yul\":5637:5730   */\n      tag_82\n      jump\t// in\n    tag_143:\n        /* \"#utility.yul\":5755:5757   */\n      0x20\n        /* \"#utility.yul\":5750:5753   */\n      dup3\n        /* \"#utility.yul\":5746:5758   */\n      add\n        /* \"#utility.yul\":5739:5758   */\n      swap1\n      pop\n        /* \"#utility.yul\":5398:5764   */\n      swap2\n      swap1\n      pop\n      jump\t// out\n        /* \"#utility.yul\":5770:6189   */\n    tag_43:\n        /* \"#utility.yul\":5936:5940   */\n      0x00\n        /* \"#utility.yul\":5974:5976   */\n      0x20\n        /* \"#utility.yul\":5963:5972   */\n      dup3\n        /* \"#utility.yul\":5959:5977   */\n      add\n        /* \"#utility.yul\":5951:5977   */\n      swap1\n      pop\n        /* \"#utility.yul\":6023:6032   */\n      dup2\n        /* \"#utility.yul\":6017:6021   */\n      dup2\n        /* \"#utility.yul\":6013:6033   */\n      sub\n        /* \"#utility.yul\":6009:6010   */\n      0x00\n        /* \"#utility.yul\":5998:6007   */\n      dup4\n        /* \"#utility.yul\":5994:6011   */\n      add\n        /* \"#utility.yul\":5987:6034   */\n      mstore\n        /* \"#utility.yul\":6051:6182   */\n      tag_145\n        /* \"#utility.yul\":6177:6181   */\n      dup2\n        /* \"#utility.yul\":6051:6182   */\n      tag_83\n      jump\t// in\n    tag_145:\n        /* \"#utility.yul\":6043:6182   */\n      swap1\n      pop\n        /* \"#utility.yul\":5770:6189   */\n      swap2\n      swap1\n      pop\n      jump\t// out\n        /* \"#utility.yul\":6195:6360   */\n    tag_84:\n        /* \"#utility.yul\":6335:6352   */\n      0x496e76616c696420616464726573730000000000000000000000000000000000\n        /* \"#utility.yul\":6331:6332   */\n      0x00\n        /* \"#utility.yul\":6323:6329   */\n      dup3\n        /* \"#utility.yul\":6319:6333   */\n      add\n        /* \"#utility.yul\":6312:6353   */\n      mstore\n        /* \"#utility.yul\":6195:6360   */\n      pop\n      jump\t// out\n        /* \"#utility.yul\":6366:6732   */\n    tag_85:\n        /* \"#utility.yul\":6508:6511   */\n      0x00\n        /* \"#utility.yul\":6529:6596   */\n      tag_148\n        /* \"#utility.yul\":6593:6595   */\n      0x0f\n        /* \"#utility.yul\":6588:6591   */\n      dup4\n        /* \"#utility.yul\":6529:6596   */\n      tag_77\n      jump\t// in\n    tag_148:\n        /* \"#utility.yul\":6522:6596   */\n      swap2\n      pop\n        /* \"#utility.yul\":6605:6698   */\n      tag_149\n        /* \"#utility.yul\":6694:6697   */\n      dup3\n        /* \"#utility.yul\":6605:6698   */\n      tag_84\n      jump\t// in\n    tag_149:\n        /* \"#utility.yul\":6723:6725   */\n      0x20\n        /* \"#utility.yul\":6718:6721   */\n      dup3\n        /* \"#utility.yul\":6714:6726   */\n      add\n        /* \"#utility.yul\":6707:6726   */\n      swap1\n      pop\n        /* \"#utility.yul\":6366:6732   */\n      swap2\n      swap1\n      pop\n      jump\t// out\n        /* \"#utility.yul\":6738:7157   */\n    tag_46:\n        /* \"#utility.yul\":6904:6908   */\n      0x00\n        /* \"#utility.yul\":6942:6944   */\n      0x20\n        /* \"#utility.yul\":6931:6940   */\n      dup3\n        /* \"#utility.yul\":6927:6945   */\n      add\n        /* \"#utility.yul\":6919:6945   */\n      swap1\n      pop\n        /* \"#utility.yul\":6991:7000   */\n      dup2\n        /* \"#utility.yul\":6985:6989   */\n      dup2\n        /* \"#utility.yul\":6981:7001   */\n      sub\n        /* \"#utility.yul\":6977:6978   */\n      0x00\n        /* \"#utility.yul\":6966:6975   */\n      dup4\n        /* \"#utility.yul\":6962:6979   */\n      add\n        /* \"#utility.yul\":6955:7002   */\n      mstore\n        /* \"#utility.yul\":7019:7150   */\n      tag_151\n        /* \"#utility.yul\":7145:7149   */\n      dup2\n        /* \"#utility.yul\":7019:7150   */\n      tag_85\n      jump\t// in\n    tag_151:\n        /* \"#utility.yul\":7011:7150   */\n      swap1\n      pop\n        /* \"#utility.yul\":6738:7157   */\n      swap2\n      swap1\n      pop\n      jump\t// out\n        /* \"#utility.yul\":7163:7343   */\n    tag_86:\n        /* \"#utility.yul\":7211:7288   */\n      0x4e487b7100000000000000000000000000000000000000000000000000000000\n        /* \"#utility.yul\":7208:7209   */\n      0x00\n        /* \"#utility.yul\":7201:7289   */\n      mstore\n        /* \"#utility.yul\":7308:7312   */\n      0x11\n        /* \"#utility.yul\":7305:7306   */\n      0x04\n        /* \"#utility.yul\":7298:7313   */\n      mstore\n        /* \"#utility.yul\":7332:7336   */\n      0x24\n        /* \"#utility.yul\":7329:7330   */\n      0x00\n        /* \"#utility.yul\":7322:7337   */\n      revert\n        /* \"#utility.yul\":7349:7540   */\n    tag_56:\n        /* \"#utility.yul\":7389:7392   */\n      0x00\n        /* \"#utility.yul\":7408:7428   */\n      tag_154\n        /* \"#utility.yul\":7426:7427   */\n      dup3\n        /* \"#utility.yul\":7408:7428   */\n      tag_68\n      jump\t// in\n    tag_154:\n        /* \"#utility.yul\":7403:7428   */\n      swap2\n      pop\n        /* \"#utility.yul\":7442:7462   */\n      tag_155\n        /* \"#utility.yul\":7460:7461   */\n      dup4\n        /* \"#utility.yul\":7442:7462   */\n      tag_68\n      jump\t// in\n    tag_155:\n        /* \"#utility.yul\":7437:7462   */\n      swap3\n      pop\n        /* \"#utility.yul\":7485:7486   */\n      dup3\n        /* \"#utility.yul\":7482:7483   */\n      dup3\n        /* \"#utility.yul\":7478:7487   */\n      add\n        /* \"#utility.yul\":7471:7487   */\n      swap1\n      pop\n        /* \"#utility.yul\":7506:7509   */\n      dup1\n        /* \"#utility.yul\":7503:7504   */\n      dup3\n        /* \"#utility.yul\":7500:7510   */\n      gt\n        /* \"#utility.yul\":7497:7533   */\n      iszero\n      tag_156\n      jumpi\n        /* \"#utility.yul\":7513:7531   */\n      tag_157\n      tag_86\n      jump\t// in\n    tag_157:\n        /* \"#utility.yul\":7497:7533   */\n    tag_156:\n        /* \"#utility.yul\":7349:7540   */\n      swap3\n      swap2\n      pop\n      pop\n      jump\t// out\n        /* \"#utility.yul\":7546:7727   */\n    tag_87:\n        /* \"#utility.yul\":7686:7719   */\n      0x5265656e7472616e637947756172643a207265656e7472616e742063616c6c00\n        /* \"#utility.yul\":7682:7683   */\n      0x00\n        /* \"#utility.yul\":7674:7680   */\n      dup3\n        /* \"#utility.yul\":7670:7684   */\n      add\n        /* \"#utility.yul\":7663:7720   */\n      mstore\n        /* \"#utility.yul\":7546:7727   */\n      pop\n      jump\t// out\n        /* \"#utility.yul\":7733:8099   */\n    tag_88:\n        /* \"#utility.yul\":7875:7878   */\n      0x00\n        /* \"#utility.yul\":7896:7963   */\n      tag_160\n        /* \"#utility.yul\":7960:7962   */\n      0x1f\n        /* \"#utility.yul\":7955:7958   */\n      dup4\n        /* \"#utility.yul\":7896:7963   */\n      tag_77\n      jump\t// in\n    tag_160:\n        /* \"#utility.yul\":7889:7963   */\n      swap2\n      pop\n        /* \"#utility.yul\":7972:8065   */\n      tag_161\n        /* \"#utility.yul\":8061:8064   */\n      dup3\n        /* \"#utility.yul\":7972:8065   */\n      tag_87\n      jump\t// in\n    tag_161:\n        /* \"#utility.yul\":8090:8092   */\n      0x20\n        /* \"#utility.yul\":8085:8088   */\n      dup3\n        /* \"#utility.yul\":8081:8093   */\n      add\n        /* \"#utility.yul\":8074:8093   */\n      swap1\n      pop\n        /* \"#utility.yul\":7733:8099   */\n      swap2\n      swap1\n      pop\n      jump\t// out\n        /* \"#utility.yul\":8105:8524   */\n    tag_60:\n        /* \"#utility.yul\":8271:8275   */\n      0x00\n        /* \"#utility.yul\":8309:8311   */\n      0x20\n        /* \"#utility.yul\":8298:8307   */\n      dup3\n        /* \"#utility.yul\":8294:8312   */\n      add\n        /* \"#utility.yul\":8286:8312   */\n      swap1\n      pop\n        /* \"#utility.yul\":8358:8367   */\n      dup2\n        /* \"#utility.yul\":8352:8356   */\n      dup2\n        /* \"#utility.yul\":8348:8368   */\n      sub\n        /* \"#utility.yul\":8344:8345   */\n      0x00\n        /* \"#utility.yul\":8333:8342   */\n      dup4\n        /* \"#utility.yul\":8329:8346   */\n      add\n        /* \"#utility.yul\":8322:8369   */\n      mstore\n        /* \"#utility.yul\":8386:8517   */\n      tag_163\n        /* \"#utility.yul\":8512:8516   */\n      dup2\n        /* \"#utility.yul\":8386:8517   */\n      tag_88\n      jump\t// in\n    tag_163:\n        /* \"#utility.yul\":8378:8517   */\n      swap1\n      pop\n        /* \"#utility.yul\":8105:8524   */\n      swap2\n      swap1\n      pop\n      jump\t// out\n        /* \"#utility.yul\":8530:8724   */\n    tag_63:\n        /* \"#utility.yul\":8570:8574   */\n      0x00\n        /* \"#utility.yul\":8590:8610   */\n      tag_165\n        /* \"#utility.yul\":8608:8609   */\n      dup3\n        /* \"#utility.yul\":8590:8610   */\n      tag_68\n      jump\t// in\n    tag_165:\n        /* \"#utility.yul\":8585:8610   */\n      swap2\n      pop\n        /* \"#utility.yul\":8624:8644   */\n      tag_166\n        /* \"#utility.yul\":8642:8643   */\n      dup4\n        /* \"#utility.yul\":8624:8644   */\n      tag_68\n      jump\t// in\n    tag_166:\n        /* \"#utility.yul\":8619:8644   */\n      swap3\n      pop\n        /* \"#utility.yul\":8668:8669   */\n      dup3\n        /* \"#utility.yul\":8665:8666   */\n      dup3\n        /* \"#utility.yul\":8661:8670   */\n      sub\n        /* \"#utility.yul\":8653:8670   */\n      swap1\n      pop\n        /* \"#utility.yul\":8692:8693   */\n      dup2\n        /* \"#utility.yul\":8686:8690   */\n      dup2\n        /* \"#utility.yul\":8683:8694   */\n      gt\n        /* \"#utility.yul\":8680:8717   */\n      iszero\n      tag_167\n      jumpi\n        /* \"#utility.yul\":8697:8715   */\n      tag_168\n      tag_86\n      jump\t// in\n    tag_168:\n        /* \"#utility.yul\":8680:8717   */\n    tag_167:\n        /* \"#utility.yul\":8530:8724   */\n      swap3\n      swap2\n      pop\n      pop\n      jump\t// out\n\n    auxdata: 0xa2646970667358221220d7f16085be7a3751edac09793e59b626574d40c94e063e247b78d976ecda6f6164736f6c63430008160033\n}\n",
				"bytecode": {
					"linkReferences": {},
					"object": "608060405234801561000f575f80fd5b5060015f819055503360015f6101000a81548173ffffffffffffffffffffffffffffffffffffffff021916908373ffffffffffffffffffffffffffffffffffffffff1602179055506108b6806100645f395ff3fe60806040526004361061003e575f3560e01c80638da5cb5b14610042578063b69ef8a81461006c578063b6b55f2514610096578063f3fef3a3146100b2575b5f80fd5b34801561004d575f80fd5b506100566100da565b604051610063919061047d565b60405180910390f35b348015610077575f80fd5b506100806100ff565b60405161008d91906104ae565b60405180910390f35b6100b060048036038101906100ab91906104f5565b610105565b005b3480156100bd575f80fd5b506100d860048036038101906100d3919061054a565b6101b7565b005b60015f9054906101000a900473ffffffffffffffffffffffffffffffffffffffff1681565b60025481565b5f8111610147576040517f08c379a000000000000000000000000000000000000000000000000000000000815260040161013e90610608565b60405180910390fd5b61015c816002546103be90919063ffffffff16565b6002819055503373ffffffffffffffffffffffffffffffffffffffff167f90890809c654f11d6e72a28fa60149770a0d11ec6c92319d6ceb2bb0a4ea1a15826002546040516101ac929190610626565b60405180910390a250565b60015f9054906101000a900473ffffffffffffffffffffffffffffffffffffffff1673ffffffffffffffffffffffffffffffffffffffff163373ffffffffffffffffffffffffffffffffffffffff1614610246576040517f08c379a000000000000000000000000000000000000000000000000000000000815260040161023d90610697565b60405180910390fd5b61024e6103d3565b600254811115610293576040517f08c379a000000000000000000000000000000000000000000000000000000000815260040161028a906106ff565b60405180910390fd5b5f73ffffffffffffffffffffffffffffffffffffffff168273ffffffffffffffffffffffffffffffffffffffff1603610301576040517f08c379a00000000000000000000000000000000000000000000000000000000081526004016102f890610767565b60405180910390fd5b6103168160025461042090919063ffffffff16565b6002819055508173ffffffffffffffffffffffffffffffffffffffff166108fc8290811502906040515f60405180830381858888f1935050505015801561035f573d5f803e3d5ffd5b508173ffffffffffffffffffffffffffffffffffffffff167ff279e6a1f5e320cca91135676d9cb6e44ca8a08c0b88342bcdb1144f6511b568826002546040516103aa929190610626565b60405180910390a26103ba610435565b5050565b5f81836103cb91906107b2565b905092915050565b60025f5403610417576040517f08c379a000000000000000000000000000000000000000000000000000000000815260040161040e9061082f565b60405180910390fd5b60025f81905550565b5f818361042d919061084d565b905092915050565b60015f81905550565b5f73ffffffffffffffffffffffffffffffffffffffff82169050919050565b5f6104678261043e565b9050919050565b6104778161045d565b82525050565b5f6020820190506104905f83018461046e565b92915050565b5f819050919050565b6104a881610496565b82525050565b5f6020820190506104c15f83018461049f565b92915050565b5f80fd5b6104d481610496565b81146104de575f80fd5b50565b5f813590506104ef816104cb565b92915050565b5f6020828403121561050a576105096104c7565b5b5f610517848285016104e1565b91505092915050565b6105298161045d565b8114610533575f80fd5b50565b5f8135905061054481610520565b92915050565b5f80604083850312156105605761055f6104c7565b5b5f61056d85828601610536565b925050602061057e858286016104e1565b9150509250929050565b5f82825260208201905092915050565b7f4465706f73697420616d6f756e74206d757374206265206772656174657220745f8201527f68616e2030000000000000000000000000000000000000000000000000000000602082015250565b5f6105f2602583610588565b91506105fd82610598565b604082019050919050565b5f6020820190508181035f83015261061f816105e6565b9050919050565b5f6040820190506106395f83018561049f565b610646602083018461049f565b9392505050565b7f4e6f7420746865206f776e6572000000000000000000000000000000000000005f82015250565b5f610681600d83610588565b915061068c8261064d565b602082019050919050565b5f6020820190508181035f8301526106ae81610675565b9050919050565b7f496e73756666696369656e742062616c616e63650000000000000000000000005f82015250565b5f6106e9601483610588565b91506106f4826106b5565b602082019050919050565b5f6020820190508181035f830152610716816106dd565b9050919050565b7f496e76616c6964206164647265737300000000000000000000000000000000005f82015250565b5f610751600f83610588565b915061075c8261071d565b602082019050919050565b5f6020820190508181035f83015261077e81610745565b9050919050565b7f4e487b71000000000000000000000000000000000000000000000000000000005f52601160045260245ffd5b5f6107bc82610496565b91506107c783610496565b92508282019050808211156107df576107de610785565b5b92915050565b7f5265656e7472616e637947756172643a207265656e7472616e742063616c6c005f82015250565b5f610819601f83610588565b9150610824826107e5565b602082019050919050565b5f6020820190508181035f8301526108468161080d565b9050919050565b5f61085782610496565b915061086283610496565b925082820390508181111561087a57610879610785565b5b9291505056fea2646970667358221220d7f16085be7a3751edac09793e59b626574d40c94e063e247b78d976ecda6f6164736f6c63430008160033",
					"opcodes": "PUSH1 0x80 PUSH1 0x40 MSTORE CALLVALUE DUP1 ISZERO PUSH2 0xF JUMPI PUSH0 DUP1 REVERT JUMPDEST POP PUSH1 0x1 PUSH0 DUP2 SWAP1 SSTORE POP CALLER PUSH1 0x1 PUSH0 PUSH2 0x100 EXP DUP2 SLOAD DUP2 PUSH20 0xFFFFFFFFFFFFFFFFFFFFFFFFFFFFFFFFFFFFFFFF MUL NOT AND SWAP1 DUP4 PUSH20 0xFFFFFFFFFFFFFFFFFFFFFFFFFFFFFFFFFFFFFFFF AND MUL OR SWAP1 SSTORE POP PUSH2 0x8B6 DUP1 PUSH2 0x64 PUSH0 CODECOPY PUSH0 RETURN INVALID PUSH1 0x80 PUSH1 0x40 MSTORE PUSH1 0x4 CALLDATASIZE LT PUSH2 0x3E JUMPI PUSH0 CALLDATALOAD PUSH1 0xE0 SHR DUP1 PUSH4 0x8DA5CB5B EQ PUSH2 0x42 JUMPI DUP1 PUSH4 0xB69EF8A8 EQ PUSH2 0x6C JUMPI DUP1 PUSH4 0xB6B55F25 EQ PUSH2 0x96 JUMPI DUP1 PUSH4 0xF3FEF3A3 EQ PUSH2 0xB2 JUMPI JUMPDEST PUSH0 DUP1 REVERT JUMPDEST CALLVALUE DUP1 ISZERO PUSH2 0x4D JUMPI PUSH0 DUP1 REVERT JUMPDEST POP PUSH2 0x56 PUSH2 0xDA JUMP JUMPDEST PUSH1 0x40 MLOAD PUSH2 0x63 SWAP2 SWAP1 PUSH2 0x47D JUMP JUMPDEST PUSH1 0x40 MLOAD DUP1 SWAP2 SUB SWAP1 RETURN JUMPDEST CALLVALUE DUP1 ISZERO PUSH2 0x77 JUMPI PUSH0 DUP1 REVERT JUMPDEST POP PUSH2 0x80 PUSH2 0xFF JUMP JUMPDEST PUSH1 0x40 MLOAD PUSH2 0x8D SWAP2 SWAP1 PUSH2 0x4AE JUMP JUMPDEST PUSH1 0x40 MLOAD DUP1 SWAP2 SUB SWAP1 RETURN JUMPDEST PUSH2 0xB0 PUSH1 0x4 DUP1 CALLDATASIZE SUB DUP2 ADD SWAP1 PUSH2 0xAB SWAP2 SWAP1 PUSH2 0x4F5 JUMP JUMPDEST PUSH2 0x105 JUMP JUMPDEST STOP JUMPDEST CALLVALUE DUP1 ISZERO PUSH2 0xBD JUMPI PUSH0 DUP1 REVERT JUMPDEST POP PUSH2 0xD8 PUSH1 0x4 DUP1 CALLDATASIZE SUB DUP2 ADD SWAP1 PUSH2 0xD3 SWAP2 SWAP1 PUSH2 0x54A JUMP JUMPDEST PUSH2 0x1B7 JUMP JUMPDEST STOP JUMPDEST PUSH1 0x1 PUSH0 SWAP1 SLOAD SWAP1 PUSH2 0x100 EXP SWAP1 DIV PUSH20 0xFFFFFFFFFFFFFFFFFFFFFFFFFFFFFFFFFFFFFFFF AND DUP2 JUMP JUMPDEST PUSH1 0x2 SLOAD DUP2 JUMP JUMPDEST PUSH0 DUP2 GT PUSH2 0x147 JUMPI PUSH1 0x40 MLOAD PUSH32 0x8C379A000000000000000000000000000000000000000000000000000000000 DUP2 MSTORE PUSH1 0x4 ADD PUSH2 0x13E SWAP1 PUSH2 0x608 JUMP JUMPDEST PUSH1 0x40 MLOAD DUP1 SWAP2 SUB SWAP1 REVERT JUMPDEST PUSH2 0x15C DUP2 PUSH1 0x2 SLOAD PUSH2 0x3BE SWAP1 SWAP2 SWAP1 PUSH4 0xFFFFFFFF AND JUMP JUMPDEST PUSH1 0x2 DUP2 SWAP1 SSTORE POP CALLER PUSH20 0xFFFFFFFFFFFFFFFFFFFFFFFFFFFFFFFFFFFFFFFF AND PUSH32 0x90890809C654F11D6E72A28FA60149770A0D11EC6C92319D6CEB2BB0A4EA1A15 DUP3 PUSH1 0x2 SLOAD PUSH1 0x40 MLOAD PUSH2 0x1AC SWAP3 SWAP2 SWAP1 PUSH2 0x626 JUMP JUMPDEST PUSH1 0x40 MLOAD DUP1 SWAP2 SUB SWAP1 LOG2 POP JUMP JUMPDEST PUSH1 0x1 PUSH0 SWAP1 SLOAD SWAP1 PUSH2 0x100 EXP SWAP1 DIV PUSH20 0xFFFFFFFFFFFFFFFFFFFFFFFFFFFFFFFFFFFFFFFF AND PUSH20 0xFFFFFFFFFFFFFFFFFFFFFFFFFFFFFFFFFFFFFFFF AND CALLER PUSH20 0xFFFFFFFFFFFFFFFFFFFFFFFFFFFFFFFFFFFFFFFF AND EQ PUSH2 0x246 JUMPI PUSH1 0x40 MLOAD PUSH32 0x8C379A000000000000000000000000000000000000000000000000000000000 DUP2 MSTORE PUSH1 0x4 ADD PUSH2 0x23D SWAP1 PUSH2 0x697 JUMP JUMPDEST PUSH1 0x40 MLOAD DUP1 SWAP2 SUB SWAP1 REVERT JUMPDEST PUSH2 0x24E PUSH2 0x3D3 JUMP JUMPDEST PUSH1 0x2 SLOAD DUP2 GT ISZERO PUSH2 0x293 JUMPI PUSH1 0x40 MLOAD PUSH32 0x8C379A000000000000000000000000000000000000000000000000000000000 DUP2 MSTORE PUSH1 0x4 ADD PUSH2 0x28A SWAP1 PUSH2 0x6FF JUMP JUMPDEST PUSH1 0x40 MLOAD DUP1 SWAP2 SUB SWAP1 REVERT JUMPDEST PUSH0 PUSH20 0xFFFFFFFFFFFFFFFFFFFFFFFFFFFFFFFFFFFFFFFF AND DUP3 PUSH20 0xFFFFFFFFFFFFFFFFFFFFFFFFFFFFFFFFFFFFFFFF AND SUB PUSH2 0x301 JUMPI PUSH1 0x40 MLOAD PUSH32 0x8C379A000000000000000000000000000000000000000000000000000000000 DUP2 MSTORE PUSH1 0x4 ADD PUSH2 0x2F8 SWAP1 PUSH2 0x767 JUMP JUMPDEST PUSH1 0x40 MLOAD DUP1 SWAP2 SUB SWAP1 REVERT JUMPDEST PUSH2 0x316 DUP2 PUSH1 0x2 SLOAD PUSH2 0x420 SWAP1 SWAP2 SWAP1 PUSH4 0xFFFFFFFF AND JUMP JUMPDEST PUSH1 0x2 DUP2 SWAP1 SSTORE POP DUP2 PUSH20 0xFFFFFFFFFFFFFFFFFFFFFFFFFFFFFFFFFFFFFFFF AND PUSH2 0x8FC DUP3 SWAP1 DUP2 ISZERO MUL SWAP1 PUSH1 0x40 MLOAD PUSH0 PUSH1 0x40 MLOAD DUP1 DUP4 SUB DUP2 DUP6 DUP9 DUP9 CALL SWAP4 POP POP POP POP ISZERO DUP1 ISZERO PUSH2 0x35F JUMPI RETURNDATASIZE PUSH0 DUP1 RETURNDATACOPY RETURNDATASIZE PUSH0 REVERT JUMPDEST POP DUP2 PUSH20 0xFFFFFFFFFFFFFFFFFFFFFFFFFFFFFFFFFFFFFFFF AND PUSH32 0xF279E6A1F5E320CCA91135676D9CB6E44CA8A08C0B88342BCDB1144F6511B568 DUP3 PUSH1 0x2 SLOAD PUSH1 0x40 MLOAD PUSH2 0x3AA SWAP3 SWAP2 SWAP1 PUSH2 0x626 JUMP JUMPDEST PUSH1 0x40 MLOAD DUP1 SWAP2 SUB SWAP1 LOG2 PUSH2 0x3BA PUSH2 0x435 JUMP JUMPDEST POP POP JUMP JUMPDEST PUSH0 DUP2 DUP4 PUSH2 0x3CB SWAP2 SWAP1 PUSH2 0x7B2 JUMP JUMPDEST SWAP1 POP SWAP3 SWAP2 POP POP JUMP JUMPDEST PUSH1 0x2 PUSH0 SLOAD SUB PUSH2 0x417 JUMPI PUSH1 0x40 MLOAD PUSH32 0x8C379A000000000000000000000000000000000000000000000000000000000 DUP2 MSTORE PUSH1 0x4 ADD PUSH2 0x40E SWAP1 PUSH2 0x82F JUMP JUMPDEST PUSH1 0x40 MLOAD DUP1 SWAP2 SUB SWAP1 REVERT JUMPDEST PUSH1 0x2 PUSH0 DUP2 SWAP1 SSTORE POP JUMP JUMPDEST PUSH0 DUP2 DUP4 PUSH2 0x42D SWAP2 SWAP1 PUSH2 0x84D JUMP JUMPDEST SWAP1 POP SWAP3 SWAP2 POP POP JUMP JUMPDEST PUSH1 0x1 PUSH0 DUP2 SWAP1 SSTORE POP JUMP JUMPDEST PUSH0 PUSH20 0xFFFFFFFFFFFFFFFFFFFFFFFFFFFFFFFFFFFFFFFF DUP3 AND SWAP1 POP SWAP2 SWAP1 POP JUMP JUMPDEST PUSH0 PUSH2 0x467 DUP3 PUSH2 0x43E JUMP JUMPDEST SWAP1 POP SWAP2 SWAP1 POP JUMP JUMPDEST PUSH2 0x477 DUP2 PUSH2 0x45D JUMP JUMPDEST DUP3 MSTORE POP POP JUMP JUMPDEST PUSH0 PUSH1 0x20 DUP3 ADD SWAP1 POP PUSH2 0x490 PUSH0 DUP4 ADD DUP5 PUSH2 0x46E JUMP JUMPDEST SWAP3 SWAP2 POP POP JUMP JUMPDEST PUSH0 DUP2 SWAP1 POP SWAP2 SWAP1 POP JUMP JUMPDEST PUSH2 0x4A8 DUP2 PUSH2 0x496 JUMP JUMPDEST DUP3 MSTORE POP POP JUMP JUMPDEST PUSH0 PUSH1 0x20 DUP3 ADD SWAP1 POP PUSH2 0x4C1 PUSH0 DUP4 ADD DUP5 PUSH2 0x49F JUMP JUMPDEST SWAP3 SWAP2 POP POP JUMP JUMPDEST PUSH0 DUP1 REVERT JUMPDEST PUSH2 0x4D4 DUP2 PUSH2 0x496 JUMP JUMPDEST DUP2 EQ PUSH2 0x4DE JUMPI PUSH0 DUP1 REVERT JUMPDEST POP JUMP JUMPDEST PUSH0 DUP2 CALLDATALOAD SWAP1 POP PUSH2 0x4EF DUP2 PUSH2 0x4CB JUMP JUMPDEST SWAP3 SWAP2 POP POP JUMP JUMPDEST PUSH0 PUSH1 0x20 DUP3 DUP5 SUB SLT ISZERO PUSH2 0x50A JUMPI PUSH2 0x509 PUSH2 0x4C7 JUMP JUMPDEST JUMPDEST PUSH0 PUSH2 0x517 DUP5 DUP3 DUP6 ADD PUSH2 0x4E1 JUMP JUMPDEST SWAP2 POP POP SWAP3 SWAP2 POP POP JUMP JUMPDEST PUSH2 0x529 DUP2 PUSH2 0x45D JUMP JUMPDEST DUP2 EQ PUSH2 0x533 JUMPI PUSH0 DUP1 REVERT JUMPDEST POP JUMP JUMPDEST PUSH0 DUP2 CALLDATALOAD SWAP1 POP PUSH2 0x544 DUP2 PUSH2 0x520 JUMP JUMPDEST SWAP3 SWAP2 POP POP JUMP JUMPDEST PUSH0 DUP1 PUSH1 0x40 DUP4 DUP6 SUB SLT ISZERO PUSH2 0x560 JUMPI PUSH2 0x55F PUSH2 0x4C7 JUMP JUMPDEST JUMPDEST PUSH0 PUSH2 0x56D DUP6 DUP3 DUP7 ADD PUSH2 0x536 JUMP JUMPDEST SWAP3 POP POP PUSH1 0x20 PUSH2 0x57E DUP6 DUP3 DUP7 ADD PUSH2 0x4E1 JUMP JUMPDEST SWAP2 POP POP SWAP3 POP SWAP3 SWAP1 POP JUMP JUMPDEST PUSH0 DUP3 DUP3 MSTORE PUSH1 0x20 DUP3 ADD SWAP1 POP SWAP3 SWAP2 POP POP JUMP JUMPDEST PUSH32 0x4465706F73697420616D6F756E74206D75737420626520677265617465722074 PUSH0 DUP3 ADD MSTORE PUSH32 0x68616E2030000000000000000000000000000000000000000000000000000000 PUSH1 0x20 DUP3 ADD MSTORE POP JUMP JUMPDEST PUSH0 PUSH2 0x5F2 PUSH1 0x25 DUP4 PUSH2 0x588 JUMP JUMPDEST SWAP2 POP PUSH2 0x5FD DUP3 PUSH2 0x598 JUMP JUMPDEST PUSH1 0x40 DUP3 ADD SWAP1 POP SWAP2 SWAP1 POP JUMP JUMPDEST PUSH0 PUSH1 0x20 DUP3 ADD SWAP1 POP DUP2 DUP2 SUB PUSH0 DUP4 ADD MSTORE PUSH2 0x61F DUP2 PUSH2 0x5E6 JUMP JUMPDEST SWAP1 POP SWAP2 SWAP1 POP JUMP JUMPDEST PUSH0 PUSH1 0x40 DUP3 ADD SWAP1 POP PUSH2 0x639 PUSH0 DUP4 ADD DUP6 PUSH2 0x49F JUMP JUMPDEST PUSH2 0x646 PUSH1 0x20 DUP4 ADD DUP5 PUSH2 0x49F JUMP JUMPDEST SWAP4 SWAP3 POP POP POP JUMP JUMPDEST PUSH32 0x4E6F7420746865206F776E657200000000000000000000000000000000000000 PUSH0 DUP3 ADD MSTORE POP JUMP JUMPDEST PUSH0 PUSH2 0x681 PUSH1 0xD DUP4 PUSH2 0x588 JUMP JUMPDEST SWAP2 POP PUSH2 0x68C DUP3 PUSH2 0x64D JUMP JUMPDEST PUSH1 0x20 DUP3 ADD SWAP1 POP SWAP2 SWAP1 POP JUMP JUMPDEST PUSH0 PUSH1 0x20 DUP3 ADD SWAP1 POP DUP2 DUP2 SUB PUSH0 DUP4 ADD MSTORE PUSH2 0x6AE DUP2 PUSH2 0x675 JUMP JUMPDEST SWAP1 POP SWAP2 SWAP1 POP JUMP JUMPDEST PUSH32 0x496E73756666696369656E742062616C616E6365000000000000000000000000 PUSH0 DUP3 ADD MSTORE POP JUMP JUMPDEST PUSH0 PUSH2 0x6E9 PUSH1 0x14 DUP4 PUSH2 0x588 JUMP JUMPDEST SWAP2 POP PUSH2 0x6F4 DUP3 PUSH2 0x6B5 JUMP JUMPDEST PUSH1 0x20 DUP3 ADD SWAP1 POP SWAP2 SWAP1 POP JUMP JUMPDEST PUSH0 PUSH1 0x20 DUP3 ADD SWAP1 POP DUP2 DUP2 SUB PUSH0 DUP4 ADD MSTORE PUSH2 0x716 DUP2 PUSH2 0x6DD JUMP JUMPDEST SWAP1 POP SWAP2 SWAP1 POP JUMP JUMPDEST PUSH32 0x496E76616C696420616464726573730000000000000000000000000000000000 PUSH0 DUP3 ADD MSTORE POP JUMP JUMPDEST PUSH0 PUSH2 0x751 PUSH1 0xF DUP4 PUSH2 0x588 JUMP JUMPDEST SWAP2 POP PUSH2 0x75C DUP3 PUSH2 0x71D JUMP JUMPDEST PUSH1 0x20 DUP3 ADD SWAP1 POP SWAP2 SWAP1 POP JUMP JUMPDEST PUSH0 PUSH1 0x20 DUP3 ADD SWAP1 POP DUP2 DUP2 SUB PUSH0 DUP4 ADD MSTORE PUSH2 0x77E DUP2 PUSH2 0x745 JUMP JUMPDEST SWAP1 POP SWAP2 SWAP1 POP JUMP JUMPDEST PUSH32 0x4E487B7100000000000000000000000000000000000000000000000000000000 PUSH0 MSTORE PUSH1 0x11 PUSH1 0x4 MSTORE PUSH1 0x24 PUSH0 REVERT JUMPDEST PUSH0 PUSH2 0x7BC DUP3 PUSH2 0x496 JUMP JUMPDEST SWAP2 POP PUSH2 0x7C7 DUP4 PUSH2 0x496 JUMP JUMPDEST SWAP3 POP DUP3 DUP3 ADD SWAP1 POP DUP1 DUP3 GT ISZERO PUSH2 0x7DF JUMPI PUSH2 0x7DE PUSH2 0x785 JUMP JUMPDEST JUMPDEST SWAP3 SWAP2 POP POP JUMP JUMPDEST PUSH32 0x5265656E7472616E637947756172643A207265656E7472616E742063616C6C00 PUSH0 DUP3 ADD MSTORE POP JUMP JUMPDEST PUSH0 PUSH2 0x819 PUSH1 0x1F DUP4 PUSH2 0x588 JUMP JUMPDEST SWAP2 POP PUSH2 0x824 DUP3 PUSH2 0x7E5 JUMP JUMPDEST PUSH1 0x20 DUP3 ADD SWAP1 POP SWAP2 SWAP1 POP JUMP JUMPDEST PUSH0 PUSH1 0x20 DUP3 ADD SWAP1 POP DUP2 DUP2 SUB PUSH0 DUP4 ADD MSTORE PUSH2 0x846 DUP2 PUSH2 0x80D JUMP JUMPDEST SWAP1 POP SWAP2 SWAP1 POP JUMP JUMPDEST PUSH0 PUSH2 0x857 DUP3 PUSH2 0x496 JUMP JUMPDEST SWAP2 POP PUSH2 0x862 DUP4 PUSH2 0x496 JUMP JUMPDEST SWAP3 POP DUP3 DUP3 SUB SWAP1 POP DUP2 DUP2 GT ISZERO PUSH2 0x87A JUMPI PUSH2 0x879 PUSH2 0x785 JUMP JUMPDEST JUMPDEST SWAP3 SWAP2 POP POP JUMP INVALID LOG2 PUSH5 0x6970667358 0x22 SLT KECCAK256 0xD7 CALL PUSH1 0x85 0xBE PUSH27 0x3751EDAC09793E59B626574D40C94E063E247B78D976ECDA6F6164 PUSH20 0x6F6C634300081600330000000000000000000000 "
				},
				"gasEstimates": {
					"creation": {
						"codeDepositCost": "446000",
						"executionCost": "46856",
						"totalCost": "492856"
					},
					"external": {
						"balance()": "2425",
						"deposit(uint256)": "infinite",
						"owner()": "2486",
						"withdraw(address,uint256)": "infinite"
					}
				},
				"methodIdentifiers": {
					"balance()": "b69ef8a8",
					"deposit(uint256)": "b6b55f25",
					"owner()": "8da5cb5b",
					"withdraw(address,uint256)": "f3fef3a3"
				}
			},
			"storageLayout": {
				"storage": [
					{
						"astId": 10,
						"contract": "wallet/singleSig.sol:singleSigWallet",
						"label": "_status",
						"offset": 0,
						"slot": "0",
						"type": "t_uint256"
					},
					{
						"astId": 403,
						"contract": "wallet/singleSig.sol:singleSigWallet",
						"label": "owner",
						"offset": 0,
						"slot": "1",
						"type": "t_address"
					},
					{
						"astId": 405,
						"contract": "wallet/singleSig.sol:singleSigWallet",
						"label": "balance",
						"offset": 0,
						"slot": "2",
						"type": "t_uint256"
					}
				],
				"types": {
					"t_address": {
						"encoding": "inplace",
						"label": "address",
						"numberOfBytes": "20"
					},
					"t_uint256": {
						"encoding": "inplace",
						"label": "uint256",
						"numberOfBytes": "32"
					}
				}
			},
			"userdoc": {
				"kind": "user",
				"methods": {},
				"version": 1
			}
		}
	}
}