{
	"wallet/singleSig.sol": {
		"singleSigWallet": {
			"abi": [
				{
					"inputs": [],
					"stateMutability": "nonpayable",
					"type": "constructor"
				},
				{
					"anonymous": false,
					"inputs": [
						{
							"indexed": true,
							"internalType": "address",
							"name": "sender",
							"type": "address"
						},
						{
							"indexed": false,
							"internalType": "uint256",
							"name": "amount",
							"type": "uint256"
						},
						{
							"indexed": false,
							"internalType": "uint256",
							"name": "balance",
							"type": "uint256"
						}
					],
					"name": "Deposit",
					"type": "event"
				},
				{
					"anonymous": false,
					"inputs": [
						{
							"indexed": false,
							"internalType": "uint256",
							"name": "amount",
							"type": "uint256"
						}
					],
					"name": "Withdraw",
					"type": "event"
				},
				{
					"inputs": [],
					"name": "balance",
					"outputs": [
						{
							"internalType": "uint256",
							"name": "",
							"type": "uint256"
						}
					],
					"stateMutability": "view",
					"type": "function"
				},
				{
					"inputs": [
						{
							"internalType": "uint256",
							"name": "amount",
							"type": "uint256"
						}
					],
					"name": "deposit",
					"outputs": [],
					"stateMutability": "payable",
					"type": "function"
				},
				{
					"inputs": [],
					"name": "owner",
					"outputs": [
						{
							"internalType": "address",
							"name": "",
							"type": "address"
						}
					],
					"stateMutability": "view",
					"type": "function"
				},
				{
					"inputs": [
						{
							"internalType": "uint256",
							"name": "amount",
							"type": "uint256"
						}
					],
					"name": "withdraw",
					"outputs": [],
					"stateMutability": "nonpayable",
					"type": "function"
				}
			],
			"devdoc": {
				"kind": "dev",
				"methods": {},
				"version": 1
			},
			"evm": {
				"assembly": "    /* \"wallet/singleSig.sol\":58:756  contract singleSigWallet {... */\n  mstore(0x40, 0x80)\n    /* \"wallet/singleSig.sol\":344:393  constructor (){... */\n  callvalue\n  dup1\n  iszero\n  tag_1\n  jumpi\n  0x00\n  dup1\n  revert\ntag_1:\n  pop\n    /* \"wallet/singleSig.sol\":376:386  msg.sender */\n  caller\n    /* \"wallet/singleSig.sol\":368:373  owner */\n  0x00\n  dup1\n    /* \"wallet/singleSig.sol\":368:386  owner = msg.sender */\n  0x0100\n  exp\n  dup2\n  sload\n  dup2\n  0xffffffffffffffffffffffffffffffffffffffff\n  mul\n  not\n  and\n  swap1\n  dup4\n  0xffffffffffffffffffffffffffffffffffffffff\n  and\n  mul\n  or\n  swap1\n  sstore\n  pop\n    /* \"wallet/singleSig.sol\":58:756  contract singleSigWallet {... */\n  dataSize(sub_0)\n  dup1\n  dataOffset(sub_0)\n  0x00\n  codecopy\n  0x00\n  return\nstop\n\nsub_0: assembly {\n        /* \"wallet/singleSig.sol\":58:756  contract singleSigWallet {... */\n      mstore(0x40, 0x80)\n      jumpi(tag_1, lt(calldatasize, 0x04))\n      shr(0xe0, calldataload(0x00))\n      dup1\n      0x2e1a7d4d\n      eq\n      tag_2\n      jumpi\n      dup1\n      0x8da5cb5b\n      eq\n      tag_3\n      jumpi\n      dup1\n      0xb69ef8a8\n      eq\n      tag_4\n      jumpi\n      dup1\n      0xb6b55f25\n      eq\n      tag_5\n      jumpi\n    tag_1:\n      0x00\n      dup1\n      revert\n        /* \"wallet/singleSig.sol\":539:754  function withdraw(uint amount) public onlyOwner {... */\n    tag_2:\n      callvalue\n      dup1\n      iszero\n      tag_6\n      jumpi\n      0x00\n      dup1\n      revert\n    tag_6:\n      pop\n      tag_7\n      0x04\n      dup1\n      calldatasize\n      sub\n      dup2\n      add\n      swap1\n      tag_8\n      swap2\n      swap1\n      tag_9\n      jump\t// in\n    tag_8:\n      tag_10\n      jump\t// in\n    tag_7:\n      stop\n        /* \"wallet/singleSig.sol\":193:213  address public owner */\n    tag_3:\n      callvalue\n      dup1\n      iszero\n      tag_11\n      jumpi\n      0x00\n      dup1\n      revert\n    tag_11:\n      pop\n      tag_12\n      tag_13\n      jump\t// in\n    tag_12:\n      mload(0x40)\n      tag_14\n      swap2\n      swap1\n      tag_15\n      jump\t// in\n    tag_14:\n      mload(0x40)\n      dup1\n      swap2\n      sub\n      swap1\n      return\n        /* \"wallet/singleSig.sol\":219:238  uint public balance */\n    tag_4:\n      callvalue\n      dup1\n      iszero\n      tag_16\n      jumpi\n      0x00\n      dup1\n      revert\n    tag_16:\n      pop\n      tag_17\n      tag_18\n      jump\t// in\n    tag_17:\n      mload(0x40)\n      tag_19\n      swap2\n      swap1\n      tag_20\n      jump\t// in\n    tag_19:\n      mload(0x40)\n      dup1\n      swap2\n      sub\n      swap1\n      return\n        /* \"wallet/singleSig.sol\":399:533  function deposit(uint amount) public payable {... */\n    tag_5:\n      tag_21\n      0x04\n      dup1\n      calldatasize\n      sub\n      dup2\n      add\n      swap1\n      tag_22\n      swap2\n      swap1\n      tag_9\n      jump\t// in\n    tag_22:\n      tag_23\n      jump\t// in\n    tag_21:\n      stop\n        /* \"wallet/singleSig.sol\":539:754  function withdraw(uint amount) public onlyOwner {... */\n    tag_10:\n        /* \"wallet/singleSig.sol\":297:302  owner */\n      0x00\n      dup1\n      sload\n      swap1\n      0x0100\n      exp\n      swap1\n      div\n      0xffffffffffffffffffffffffffffffffffffffff\n      and\n        /* \"wallet/singleSig.sol\":283:302  msg.sender == owner */\n      0xffffffffffffffffffffffffffffffffffffffff\n      and\n        /* \"wallet/singleSig.sol\":283:293  msg.sender */\n      caller\n        /* \"wallet/singleSig.sol\":283:302  msg.sender == owner */\n      0xffffffffffffffffffffffffffffffffffffffff\n      and\n      eq\n        /* \"wallet/singleSig.sol\":275:320  require(msg.sender == owner, \"Not the owner\") */\n      tag_25\n      jumpi\n      mload(0x40)\n      0x08c379a000000000000000000000000000000000000000000000000000000000\n      dup2\n      mstore\n      0x04\n      add\n      tag_26\n      swap1\n      tag_27\n      jump\t// in\n    tag_26:\n      mload(0x40)\n      dup1\n      swap2\n      sub\n      swap1\n      revert\n    tag_25:\n        /* \"wallet/singleSig.sol\":615:622  balance */\n      sload(0x01)\n        /* \"wallet/singleSig.sol\":605:611  amount */\n      dup2\n        /* \"wallet/singleSig.sol\":605:622  amount <= balance */\n      gt\n      iszero\n        /* \"wallet/singleSig.sol\":597:647  require(amount <= balance, \"Insufficient balance\") */\n      tag_29\n      jumpi\n      mload(0x40)\n      0x08c379a000000000000000000000000000000000000000000000000000000000\n      dup2\n      mstore\n      0x04\n      add\n      tag_30\n      swap1\n      tag_31\n      jump\t// in\n    tag_30:\n      mload(0x40)\n      dup1\n      swap2\n      sub\n      swap1\n      revert\n    tag_29:\n        /* \"wallet/singleSig.sol\":668:674  amount */\n      dup1\n        /* \"wallet/singleSig.sol\":657:664  balance */\n      0x01\n      0x00\n        /* \"wallet/singleSig.sol\":657:674  balance -= amount */\n      dup3\n      dup3\n      sload\n      tag_32\n      swap2\n      swap1\n      tag_33\n      jump\t// in\n    tag_32:\n      swap3\n      pop\n      pop\n      dup2\n      swap1\n      sstore\n      pop\n        /* \"wallet/singleSig.sol\":692:697  owner */\n      0x00\n      dup1\n      sload\n      swap1\n      0x0100\n      exp\n      swap1\n      div\n      0xffffffffffffffffffffffffffffffffffffffff\n      and\n        /* \"wallet/singleSig.sol\":684:707  payable(owner).transfer */\n      0xffffffffffffffffffffffffffffffffffffffff\n      and\n        /* \"wallet/singleSig.sol\":684:715  payable(owner).transfer(amount) */\n      0x08fc\n        /* \"wallet/singleSig.sol\":708:714  amount */\n      dup3\n        /* \"wallet/singleSig.sol\":684:715  payable(owner).transfer(amount) */\n      swap1\n      dup2\n      iszero\n      mul\n      swap1\n      mload(0x40)\n      0x00\n      mload(0x40)\n      dup1\n      dup4\n      sub\n      dup2\n      dup6\n      dup9\n      dup9\n      call\n      swap4\n      pop\n      pop\n      pop\n      pop\n      iszero\n      dup1\n      iszero\n      tag_35\n      jumpi\n      returndatasize\n      0x00\n      dup1\n      returndatacopy\n      revert(0x00, returndatasize)\n    tag_35:\n      pop\n        /* \"wallet/singleSig.sol\":731:747  Withdraw(amount) */\n      0x5b6b431d4476a211bb7d41c20d1aab9ae2321deee0d20be3d9fc9b1093fa6e3d\n        /* \"wallet/singleSig.sol\":740:746  amount */\n      dup2\n        /* \"wallet/singleSig.sol\":731:747  Withdraw(amount) */\n      mload(0x40)\n      tag_36\n      swap2\n      swap1\n      tag_20\n      jump\t// in\n    tag_36:\n      mload(0x40)\n      dup1\n      swap2\n      sub\n      swap1\n      log1\n        /* \"wallet/singleSig.sol\":539:754  function withdraw(uint amount) public onlyOwner {... */\n      pop\n      jump\t// out\n        /* \"wallet/singleSig.sol\":193:213  address public owner */\n    tag_13:\n      0x00\n      dup1\n      sload\n      swap1\n      0x0100\n      exp\n      swap1\n      div\n      0xffffffffffffffffffffffffffffffffffffffff\n      and\n      dup2\n      jump\t// out\n        /* \"wallet/singleSig.sol\":219:238  uint public balance */\n    tag_18:\n      sload(0x01)\n      dup2\n      jump\t// out\n        /* \"wallet/singleSig.sol\":399:533  function deposit(uint amount) public payable {... */\n    tag_23:\n        /* \"wallet/singleSig.sol\":465:474  msg.value */\n      callvalue\n        /* \"wallet/singleSig.sol\":454:461  balance */\n      0x01\n      0x00\n        /* \"wallet/singleSig.sol\":454:474  balance += msg.value */\n      dup3\n      dup3\n      sload\n      tag_38\n      swap2\n      swap1\n      tag_39\n      jump\t// in\n    tag_38:\n      swap3\n      pop\n      pop\n      dup2\n      swap1\n      sstore\n      pop\n        /* \"wallet/singleSig.sol\":498:508  msg.sender */\n      caller\n        /* \"wallet/singleSig.sol\":490:526  Deposit(msg.sender, amount, balance) */\n      0xffffffffffffffffffffffffffffffffffffffff\n      and\n      0x90890809c654f11d6e72a28fa60149770a0d11ec6c92319d6ceb2bb0a4ea1a15\n        /* \"wallet/singleSig.sol\":510:516  amount */\n      dup3\n        /* \"wallet/singleSig.sol\":518:525  balance */\n      sload(0x01)\n        /* \"wallet/singleSig.sol\":490:526  Deposit(msg.sender, amount, balance) */\n      mload(0x40)\n      tag_40\n      swap3\n      swap2\n      swap1\n      tag_41\n      jump\t// in\n    tag_40:\n      mload(0x40)\n      dup1\n      swap2\n      sub\n      swap1\n      log2\n        /* \"wallet/singleSig.sol\":399:533  function deposit(uint amount) public payable {... */\n      pop\n      jump\t// out\n        /* \"#utility.yul\":88:205   */\n    tag_43:\n        /* \"#utility.yul\":197:198   */\n      0x00\n        /* \"#utility.yul\":194:195   */\n      dup1\n        /* \"#utility.yul\":187:199   */\n      revert\n        /* \"#utility.yul\":334:411   */\n    tag_45:\n        /* \"#utility.yul\":371:378   */\n      0x00\n        /* \"#utility.yul\":400:405   */\n      dup2\n        /* \"#utility.yul\":389:405   */\n      swap1\n      pop\n        /* \"#utility.yul\":334:411   */\n      swap2\n      swap1\n      pop\n      jump\t// out\n        /* \"#utility.yul\":417:539   */\n    tag_46:\n        /* \"#utility.yul\":490:514   */\n      tag_64\n        /* \"#utility.yul\":508:513   */\n      dup2\n        /* \"#utility.yul\":490:514   */\n      tag_45\n      jump\t// in\n    tag_64:\n        /* \"#utility.yul\":483:488   */\n      dup2\n        /* \"#utility.yul\":480:515   */\n      eq\n        /* \"#utility.yul\":470:533   */\n      tag_65\n      jumpi\n        /* \"#utility.yul\":529:530   */\n      0x00\n        /* \"#utility.yul\":526:527   */\n      dup1\n        /* \"#utility.yul\":519:531   */\n      revert\n        /* \"#utility.yul\":470:533   */\n    tag_65:\n        /* \"#utility.yul\":417:539   */\n      pop\n      jump\t// out\n        /* \"#utility.yul\":545:684   */\n    tag_47:\n        /* \"#utility.yul\":591:596   */\n      0x00\n        /* \"#utility.yul\":629:635   */\n      dup2\n        /* \"#utility.yul\":616:636   */\n      calldataload\n        /* \"#utility.yul\":607:636   */\n      swap1\n      pop\n        /* \"#utility.yul\":645:678   */\n      tag_67\n        /* \"#utility.yul\":672:677   */\n      dup2\n        /* \"#utility.yul\":645:678   */\n      tag_46\n      jump\t// in\n    tag_67:\n        /* \"#utility.yul\":545:684   */\n      swap3\n      swap2\n      pop\n      pop\n      jump\t// out\n        /* \"#utility.yul\":690:1019   */\n    tag_9:\n        /* \"#utility.yul\":749:755   */\n      0x00\n        /* \"#utility.yul\":798:800   */\n      0x20\n        /* \"#utility.yul\":786:795   */\n      dup3\n        /* \"#utility.yul\":777:784   */\n      dup5\n        /* \"#utility.yul\":773:796   */\n      sub\n        /* \"#utility.yul\":769:801   */\n      slt\n        /* \"#utility.yul\":766:885   */\n      iszero\n      tag_69\n      jumpi\n        /* \"#utility.yul\":804:883   */\n      tag_70\n      tag_43\n      jump\t// in\n    tag_70:\n        /* \"#utility.yul\":766:885   */\n    tag_69:\n        /* \"#utility.yul\":924:925   */\n      0x00\n        /* \"#utility.yul\":949:1002   */\n      tag_71\n        /* \"#utility.yul\":994:1001   */\n      dup5\n        /* \"#utility.yul\":985:991   */\n      dup3\n        /* \"#utility.yul\":974:983   */\n      dup6\n        /* \"#utility.yul\":970:992   */\n      add\n        /* \"#utility.yul\":949:1002   */\n      tag_47\n      jump\t// in\n    tag_71:\n        /* \"#utility.yul\":939:1002   */\n      swap2\n      pop\n        /* \"#utility.yul\":895:1012   */\n      pop\n        /* \"#utility.yul\":690:1019   */\n      swap3\n      swap2\n      pop\n      pop\n      jump\t// out\n        /* \"#utility.yul\":1025:1151   */\n    tag_48:\n        /* \"#utility.yul\":1062:1069   */\n      0x00\n        /* \"#utility.yul\":1102:1144   */\n      0xffffffffffffffffffffffffffffffffffffffff\n        /* \"#utility.yul\":1095:1100   */\n      dup3\n        /* \"#utility.yul\":1091:1145   */\n      and\n        /* \"#utility.yul\":1080:1145   */\n      swap1\n      pop\n        /* \"#utility.yul\":1025:1151   */\n      swap2\n      swap1\n      pop\n      jump\t// out\n        /* \"#utility.yul\":1157:1253   */\n    tag_49:\n        /* \"#utility.yul\":1194:1201   */\n      0x00\n        /* \"#utility.yul\":1223:1247   */\n      tag_74\n        /* \"#utility.yul\":1241:1246   */\n      dup3\n        /* \"#utility.yul\":1223:1247   */\n      tag_48\n      jump\t// in\n    tag_74:\n        /* \"#utility.yul\":1212:1247   */\n      swap1\n      pop\n        /* \"#utility.yul\":1157:1253   */\n      swap2\n      swap1\n      pop\n      jump\t// out\n        /* \"#utility.yul\":1259:1377   */\n    tag_50:\n        /* \"#utility.yul\":1346:1370   */\n      tag_76\n        /* \"#utility.yul\":1364:1369   */\n      dup2\n        /* \"#utility.yul\":1346:1370   */\n      tag_49\n      jump\t// in\n    tag_76:\n        /* \"#utility.yul\":1341:1344   */\n      dup3\n        /* \"#utility.yul\":1334:1371   */\n      mstore\n        /* \"#utility.yul\":1259:1377   */\n      pop\n      pop\n      jump\t// out\n        /* \"#utility.yul\":1383:1605   */\n    tag_15:\n        /* \"#utility.yul\":1476:1480   */\n      0x00\n        /* \"#utility.yul\":1514:1516   */\n      0x20\n        /* \"#utility.yul\":1503:1512   */\n      dup3\n        /* \"#utility.yul\":1499:1517   */\n      add\n        /* \"#utility.yul\":1491:1517   */\n      swap1\n      pop\n        /* \"#utility.yul\":1527:1598   */\n      tag_78\n        /* \"#utility.yul\":1595:1596   */\n      0x00\n        /* \"#utility.yul\":1584:1593   */\n      dup4\n        /* \"#utility.yul\":1580:1597   */\n      add\n        /* \"#utility.yul\":1571:1577   */\n      dup5\n        /* \"#utility.yul\":1527:1598   */\n      tag_50\n      jump\t// in\n    tag_78:\n        /* \"#utility.yul\":1383:1605   */\n      swap3\n      swap2\n      pop\n      pop\n      jump\t// out\n        /* \"#utility.yul\":1611:1729   */\n    tag_51:\n        /* \"#utility.yul\":1698:1722   */\n      tag_80\n        /* \"#utility.yul\":1716:1721   */\n      dup2\n        /* \"#utility.yul\":1698:1722   */\n      tag_45\n      jump\t// in\n    tag_80:\n        /* \"#utility.yul\":1693:1696   */\n      dup3\n        /* \"#utility.yul\":1686:1723   */\n      mstore\n        /* \"#utility.yul\":1611:1729   */\n      pop\n      pop\n      jump\t// out\n        /* \"#utility.yul\":1735:1957   */\n    tag_20:\n        /* \"#utility.yul\":1828:1832   */\n      0x00\n        /* \"#utility.yul\":1866:1868   */\n      0x20\n        /* \"#utility.yul\":1855:1864   */\n      dup3\n        /* \"#utility.yul\":1851:1869   */\n      add\n        /* \"#utility.yul\":1843:1869   */\n      swap1\n      pop\n        /* \"#utility.yul\":1879:1950   */\n      tag_82\n        /* \"#utility.yul\":1947:1948   */\n      0x00\n        /* \"#utility.yul\":1936:1945   */\n      dup4\n        /* \"#utility.yul\":1932:1949   */\n      add\n        /* \"#utility.yul\":1923:1929   */\n      dup5\n        /* \"#utility.yul\":1879:1950   */\n      tag_51\n      jump\t// in\n    tag_82:\n        /* \"#utility.yul\":1735:1957   */\n      swap3\n      swap2\n      pop\n      pop\n      jump\t// out\n        /* \"#utility.yul\":1963:2132   */\n    tag_52:\n        /* \"#utility.yul\":2047:2058   */\n      0x00\n        /* \"#utility.yul\":2081:2087   */\n      dup3\n        /* \"#utility.yul\":2076:2079   */\n      dup3\n        /* \"#utility.yul\":2069:2088   */\n      mstore\n        /* \"#utility.yul\":2121:2125   */\n      0x20\n        /* \"#utility.yul\":2116:2119   */\n      dup3\n        /* \"#utility.yul\":2112:2126   */\n      add\n        /* \"#utility.yul\":2097:2126   */\n      swap1\n      pop\n        /* \"#utility.yul\":1963:2132   */\n      swap3\n      swap2\n      pop\n      pop\n      jump\t// out\n        /* \"#utility.yul\":2138:2301   */\n    tag_53:\n        /* \"#utility.yul\":2278:2293   */\n      0x4e6f7420746865206f776e657200000000000000000000000000000000000000\n        /* \"#utility.yul\":2274:2275   */\n      0x00\n        /* \"#utility.yul\":2266:2272   */\n      dup3\n        /* \"#utility.yul\":2262:2276   */\n      add\n        /* \"#utility.yul\":2255:2294   */\n      mstore\n        /* \"#utility.yul\":2138:2301   */\n      pop\n      jump\t// out\n        /* \"#utility.yul\":2307:2673   */\n    tag_54:\n        /* \"#utility.yul\":2449:2452   */\n      0x00\n        /* \"#utility.yul\":2470:2537   */\n      tag_86\n        /* \"#utility.yul\":2534:2536   */\n      0x0d\n        /* \"#utility.yul\":2529:2532   */\n      dup4\n        /* \"#utility.yul\":2470:2537   */\n      tag_52\n      jump\t// in\n    tag_86:\n        /* \"#utility.yul\":2463:2537   */\n      swap2\n      pop\n        /* \"#utility.yul\":2546:2639   */\n      tag_87\n        /* \"#utility.yul\":2635:2638   */\n      dup3\n        /* \"#utility.yul\":2546:2639   */\n      tag_53\n      jump\t// in\n    tag_87:\n        /* \"#utility.yul\":2664:2666   */\n      0x20\n        /* \"#utility.yul\":2659:2662   */\n      dup3\n        /* \"#utility.yul\":2655:2667   */\n      add\n        /* \"#utility.yul\":2648:2667   */\n      swap1\n      pop\n        /* \"#utility.yul\":2307:2673   */\n      swap2\n      swap1\n      pop\n      jump\t// out\n        /* \"#utility.yul\":2679:3098   */\n    tag_27:\n        /* \"#utility.yul\":2845:2849   */\n      0x00\n        /* \"#utility.yul\":2883:2885   */\n      0x20\n        /* \"#utility.yul\":2872:2881   */\n      dup3\n        /* \"#utility.yul\":2868:2886   */\n      add\n        /* \"#utility.yul\":2860:2886   */\n      swap1\n      pop\n        /* \"#utility.yul\":2932:2941   */\n      dup2\n        /* \"#utility.yul\":2926:2930   */\n      dup2\n        /* \"#utility.yul\":2922:2942   */\n      sub\n        /* \"#utility.yul\":2918:2919   */\n      0x00\n        /* \"#utility.yul\":2907:2916   */\n      dup4\n        /* \"#utility.yul\":2903:2920   */\n      add\n        /* \"#utility.yul\":2896:2943   */\n      mstore\n        /* \"#utility.yul\":2960:3091   */\n      tag_89\n        /* \"#utility.yul\":3086:3090   */\n      dup2\n        /* \"#utility.yul\":2960:3091   */\n      tag_54\n      jump\t// in\n    tag_89:\n        /* \"#utility.yul\":2952:3091   */\n      swap1\n      pop\n        /* \"#utility.yul\":2679:3098   */\n      swap2\n      swap1\n      pop\n      jump\t// out\n        /* \"#utility.yul\":3104:3274   */\n    tag_55:\n        /* \"#utility.yul\":3244:3266   */\n      0x496e73756666696369656e742062616c616e6365000000000000000000000000\n        /* \"#utility.yul\":3240:3241   */\n      0x00\n        /* \"#utility.yul\":3232:3238   */\n      dup3\n        /* \"#utility.yul\":3228:3242   */\n      add\n        /* \"#utility.yul\":3221:3267   */\n      mstore\n        /* \"#utility.yul\":3104:3274   */\n      pop\n      jump\t// out\n        /* \"#utility.yul\":3280:3646   */\n    tag_56:\n        /* \"#utility.yul\":3422:3425   */\n      0x00\n        /* \"#utility.yul\":3443:3510   */\n      tag_92\n        /* \"#utility.yul\":3507:3509   */\n      0x14\n        /* \"#utility.yul\":3502:3505   */\n      dup4\n        /* \"#utility.yul\":3443:3510   */\n      tag_52\n      jump\t// in\n    tag_92:\n        /* \"#utility.yul\":3436:3510   */\n      swap2\n      pop\n        /* \"#utility.yul\":3519:3612   */\n      tag_93\n        /* \"#utility.yul\":3608:3611   */\n      dup3\n        /* \"#utility.yul\":3519:3612   */\n      tag_55\n      jump\t// in\n    tag_93:\n        /* \"#utility.yul\":3637:3639   */\n      0x20\n        /* \"#utility.yul\":3632:3635   */\n      dup3\n        /* \"#utility.yul\":3628:3640   */\n      add\n        /* \"#utility.yul\":3621:3640   */\n      swap1\n      pop\n        /* \"#utility.yul\":3280:3646   */\n      swap2\n      swap1\n      pop\n      jump\t// out\n        /* \"#utility.yul\":3652:4071   */\n    tag_31:\n        /* \"#utility.yul\":3818:3822   */\n      0x00\n        /* \"#utility.yul\":3856:3858   */\n      0x20\n        /* \"#utility.yul\":3845:3854   */\n      dup3\n        /* \"#utility.yul\":3841:3859   */\n      add\n        /* \"#utility.yul\":3833:3859   */\n      swap1\n      pop\n        /* \"#utility.yul\":3905:3914   */\n      dup2\n        /* \"#utility.yul\":3899:3903   */\n      dup2\n        /* \"#utility.yul\":3895:3915   */\n      sub\n        /* \"#utility.yul\":3891:3892   */\n      0x00\n        /* \"#utility.yul\":3880:3889   */\n      dup4\n        /* \"#utility.yul\":3876:3893   */\n      add\n        /* \"#utility.yul\":3869:3916   */\n      mstore\n        /* \"#utility.yul\":3933:4064   */\n      tag_95\n        /* \"#utility.yul\":4059:4063   */\n      dup2\n        /* \"#utility.yul\":3933:4064   */\n      tag_56\n      jump\t// in\n    tag_95:\n        /* \"#utility.yul\":3925:4064   */\n      swap1\n      pop\n        /* \"#utility.yul\":3652:4071   */\n      swap2\n      swap1\n      pop\n      jump\t// out\n        /* \"#utility.yul\":4077:4257   */\n    tag_57:\n        /* \"#utility.yul\":4125:4202   */\n      0x4e487b7100000000000000000000000000000000000000000000000000000000\n        /* \"#utility.yul\":4122:4123   */\n      0x00\n        /* \"#utility.yul\":4115:4203   */\n      mstore\n        /* \"#utility.yul\":4222:4226   */\n      0x11\n        /* \"#utility.yul\":4219:4220   */\n      0x04\n        /* \"#utility.yul\":4212:4227   */\n      mstore\n        /* \"#utility.yul\":4246:4250   */\n      0x24\n        /* \"#utility.yul\":4243:4244   */\n      0x00\n        /* \"#utility.yul\":4236:4251   */\n      revert\n        /* \"#utility.yul\":4263:4457   */\n    tag_33:\n        /* \"#utility.yul\":4303:4307   */\n      0x00\n        /* \"#utility.yul\":4323:4343   */\n      tag_98\n        /* \"#utility.yul\":4341:4342   */\n      dup3\n        /* \"#utility.yul\":4323:4343   */\n      tag_45\n      jump\t// in\n    tag_98:\n        /* \"#utility.yul\":4318:4343   */\n      swap2\n      pop\n        /* \"#utility.yul\":4357:4377   */\n      tag_99\n        /* \"#utility.yul\":4375:4376   */\n      dup4\n        /* \"#utility.yul\":4357:4377   */\n      tag_45\n      jump\t// in\n    tag_99:\n        /* \"#utility.yul\":4352:4377   */\n      swap3\n      pop\n        /* \"#utility.yul\":4401:4402   */\n      dup3\n        /* \"#utility.yul\":4398:4399   */\n      dup3\n        /* \"#utility.yul\":4394:4403   */\n      sub\n        /* \"#utility.yul\":4386:4403   */\n      swap1\n      pop\n        /* \"#utility.yul\":4425:4426   */\n      dup2\n        /* \"#utility.yul\":4419:4423   */\n      dup2\n        /* \"#utility.yul\":4416:4427   */\n      gt\n        /* \"#utility.yul\":4413:4450   */\n      iszero\n      tag_100\n      jumpi\n        /* \"#utility.yul\":4430:4448   */\n      tag_101\n      tag_57\n      jump\t// in\n    tag_101:\n        /* \"#utility.yul\":4413:4450   */\n    tag_100:\n        /* \"#utility.yul\":4263:4457   */\n      swap3\n      swap2\n      pop\n      pop\n      jump\t// out\n        /* \"#utility.yul\":4463:4654   */\n    tag_39:\n        /* \"#utility.yul\":4503:4506   */\n      0x00\n        /* \"#utility.yul\":4522:4542   */\n      tag_103\n        /* \"#utility.yul\":4540:4541   */\n      dup3\n        /* \"#utility.yul\":4522:4542   */\n      tag_45\n      jump\t// in\n    tag_103:\n        /* \"#utility.yul\":4517:4542   */\n      swap2\n      pop\n        /* \"#utility.yul\":4556:4576   */\n      tag_104\n        /* \"#utility.yul\":4574:4575   */\n      dup4\n        /* \"#utility.yul\":4556:4576   */\n      tag_45\n      jump\t// in\n    tag_104:\n        /* \"#utility.yul\":4551:4576   */\n      swap3\n      pop\n        /* \"#utility.yul\":4599:4600   */\n      dup3\n        /* \"#utility.yul\":4596:4597   */\n      dup3\n        /* \"#utility.yul\":4592:4601   */\n      add\n        /* \"#utility.yul\":4585:4601   */\n      swap1\n      pop\n        /* \"#utility.yul\":4620:4623   */\n      dup1\n        /* \"#utility.yul\":4617:4618   */\n      dup3\n        /* \"#utility.yul\":4614:4624   */\n      gt\n        /* \"#utility.yul\":4611:4647   */\n      iszero\n      tag_105\n      jumpi\n        /* \"#utility.yul\":4627:4645   */\n      tag_106\n      tag_57\n      jump\t// in\n    tag_106:\n        /* \"#utility.yul\":4611:4647   */\n    tag_105:\n        /* \"#utility.yul\":4463:4654   */\n      swap3\n      swap2\n      pop\n      pop\n      jump\t// out\n        /* \"#utility.yul\":4660:4992   */\n    tag_41:\n        /* \"#utility.yul\":4781:4785   */\n      0x00\n        /* \"#utility.yul\":4819:4821   */\n      0x40\n        /* \"#utility.yul\":4808:4817   */\n      dup3\n        /* \"#utility.yul\":4804:4822   */\n      add\n        /* \"#utility.yul\":4796:4822   */\n      swap1\n      pop\n        /* \"#utility.yul\":4832:4903   */\n      tag_108\n        /* \"#utility.yul\":4900:4901   */\n      0x00\n        /* \"#utility.yul\":4889:4898   */\n      dup4\n        /* \"#utility.yul\":4885:4902   */\n      add\n        /* \"#utility.yul\":4876:4882   */\n      dup6\n        /* \"#utility.yul\":4832:4903   */\n      tag_51\n      jump\t// in\n    tag_108:\n        /* \"#utility.yul\":4913:4985   */\n      tag_109\n        /* \"#utility.yul\":4981:4983   */\n      0x20\n        /* \"#utility.yul\":4970:4979   */\n      dup4\n        /* \"#utility.yul\":4966:4984   */\n      add\n        /* \"#utility.yul\":4957:4963   */\n      dup5\n        /* \"#utility.yul\":4913:4985   */\n      tag_51\n      jump\t// in\n    tag_109:\n        /* \"#utility.yul\":4660:4992   */\n      swap4\n      swap3\n      pop\n      pop\n      pop\n      jump\t// out\n\n    auxdata: 0xa26469706673582212201c61f3a341a3b5d55cd94611ddeec25722753d9ec188af11615ef297d411d69264736f6c63430008160033\n}\n",
				"bytecode": {
					"linkReferences": {},
					"object": "608060405234801561000f575f80fd5b50335f806101000a81548173ffffffffffffffffffffffffffffffffffffffff021916908373ffffffffffffffffffffffffffffffffffffffff1602179055506105a98061005c5f395ff3fe60806040526004361061003e575f3560e01c80632e1a7d4d146100425780638da5cb5b1461006a578063b69ef8a814610094578063b6b55f25146100be575b5f80fd5b34801561004d575f80fd5b506100686004803603810190610063919061032e565b6100da565b005b348015610075575f80fd5b5061007e610261565b60405161008b9190610398565b60405180910390f35b34801561009f575f80fd5b506100a8610284565b6040516100b591906103c0565b60405180910390f35b6100d860048036038101906100d3919061032e565b61028a565b005b5f8054906101000a900473ffffffffffffffffffffffffffffffffffffffff1673ffffffffffffffffffffffffffffffffffffffff163373ffffffffffffffffffffffffffffffffffffffff1614610167576040517f08c379a000000000000000000000000000000000000000000000000000000000815260040161015e90610433565b60405180910390fd5b6001548111156101ac576040517f08c379a00000000000000000000000000000000000000000000000000000000081526004016101a39061049b565b60405180910390fd5b8060015f8282546101bd91906104e6565b925050819055505f8054906101000a900473ffffffffffffffffffffffffffffffffffffffff1673ffffffffffffffffffffffffffffffffffffffff166108fc8290811502906040515f60405180830381858888f19350505050158015610226573d5f803e3d5ffd5b507f5b6b431d4476a211bb7d41c20d1aab9ae2321deee0d20be3d9fc9b1093fa6e3d8160405161025691906103c0565b60405180910390a150565b5f8054906101000a900473ffffffffffffffffffffffffffffffffffffffff1681565b60015481565b3460015f82825461029b9190610519565b925050819055503373ffffffffffffffffffffffffffffffffffffffff167f90890809c654f11d6e72a28fa60149770a0d11ec6c92319d6ceb2bb0a4ea1a15826001546040516102ec92919061054c565b60405180910390a250565b5f80fd5b5f819050919050565b61030d816102fb565b8114610317575f80fd5b50565b5f8135905061032881610304565b92915050565b5f60208284031215610343576103426102f7565b5b5f6103508482850161031a565b91505092915050565b5f73ffffffffffffffffffffffffffffffffffffffff82169050919050565b5f61038282610359565b9050919050565b61039281610378565b82525050565b5f6020820190506103ab5f830184610389565b92915050565b6103ba816102fb565b82525050565b5f6020820190506103d35f8301846103b1565b92915050565b5f82825260208201905092915050565b7f4e6f7420746865206f776e6572000000000000000000000000000000000000005f82015250565b5f61041d600d836103d9565b9150610428826103e9565b602082019050919050565b5f6020820190508181035f83015261044a81610411565b9050919050565b7f496e73756666696369656e742062616c616e63650000000000000000000000005f82015250565b5f6104856014836103d9565b915061049082610451565b602082019050919050565b5f6020820190508181035f8301526104b281610479565b9050919050565b7f4e487b71000000000000000000000000000000000000000000000000000000005f52601160045260245ffd5b5f6104f0826102fb565b91506104fb836102fb565b9250828203905081811115610513576105126104b9565b5b92915050565b5f610523826102fb565b915061052e836102fb565b9250828201905080821115610546576105456104b9565b5b92915050565b5f60408201905061055f5f8301856103b1565b61056c60208301846103b1565b939250505056fea26469706673582212201c61f3a341a3b5d55cd94611ddeec25722753d9ec188af11615ef297d411d69264736f6c63430008160033",
					"opcodes": "PUSH1 0x80 PUSH1 0x40 MSTORE CALLVALUE DUP1 ISZERO PUSH2 0xF JUMPI PUSH0 DUP1 REVERT JUMPDEST POP CALLER PUSH0 DUP1 PUSH2 0x100 EXP DUP2 SLOAD DUP2 PUSH20 0xFFFFFFFFFFFFFFFFFFFFFFFFFFFFFFFFFFFFFFFF MUL NOT AND SWAP1 DUP4 PUSH20 0xFFFFFFFFFFFFFFFFFFFFFFFFFFFFFFFFFFFFFFFF AND MUL OR SWAP1 SSTORE POP PUSH2 0x5A9 DUP1 PUSH2 0x5C PUSH0 CODECOPY PUSH0 RETURN INVALID PUSH1 0x80 PUSH1 0x40 MSTORE PUSH1 0x4 CALLDATASIZE LT PUSH2 0x3E JUMPI PUSH0 CALLDATALOAD PUSH1 0xE0 SHR DUP1 PUSH4 0x2E1A7D4D EQ PUSH2 0x42 JUMPI DUP1 PUSH4 0x8DA5CB5B EQ PUSH2 0x6A JUMPI DUP1 PUSH4 0xB69EF8A8 EQ PUSH2 0x94 JUMPI DUP1 PUSH4 0xB6B55F25 EQ PUSH2 0xBE JUMPI JUMPDEST PUSH0 DUP1 REVERT JUMPDEST CALLVALUE DUP1 ISZERO PUSH2 0x4D JUMPI PUSH0 DUP1 REVERT JUMPDEST POP PUSH2 0x68 PUSH1 0x4 DUP1 CALLDATASIZE SUB DUP2 ADD SWAP1 PUSH2 0x63 SWAP2 SWAP1 PUSH2 0x32E JUMP JUMPDEST PUSH2 0xDA JUMP JUMPDEST STOP JUMPDEST CALLVALUE DUP1 ISZERO PUSH2 0x75 JUMPI PUSH0 DUP1 REVERT JUMPDEST POP PUSH2 0x7E PUSH2 0x261 JUMP JUMPDEST PUSH1 0x40 MLOAD PUSH2 0x8B SWAP2 SWAP1 PUSH2 0x398 JUMP JUMPDEST PUSH1 0x40 MLOAD DUP1 SWAP2 SUB SWAP1 RETURN JUMPDEST CALLVALUE DUP1 ISZERO PUSH2 0x9F JUMPI PUSH0 DUP1 REVERT JUMPDEST POP PUSH2 0xA8 PUSH2 0x284 JUMP JUMPDEST PUSH1 0x40 MLOAD PUSH2 0xB5 SWAP2 SWAP1 PUSH2 0x3C0 JUMP JUMPDEST PUSH1 0x40 MLOAD DUP1 SWAP2 SUB SWAP1 RETURN JUMPDEST PUSH2 0xD8 PUSH1 0x4 DUP1 CALLDATASIZE SUB DUP2 ADD SWAP1 PUSH2 0xD3 SWAP2 SWAP1 PUSH2 0x32E JUMP JUMPDEST PUSH2 0x28A JUMP JUMPDEST STOP JUMPDEST PUSH0 DUP1 SLOAD SWAP1 PUSH2 0x100 EXP SWAP1 DIV PUSH20 0xFFFFFFFFFFFFFFFFFFFFFFFFFFFFFFFFFFFFFFFF AND PUSH20 0xFFFFFFFFFFFFFFFFFFFFFFFFFFFFFFFFFFFFFFFF AND CALLER PUSH20 0xFFFFFFFFFFFFFFFFFFFFFFFFFFFFFFFFFFFFFFFF AND EQ PUSH2 0x167 JUMPI PUSH1 0x40 MLOAD PUSH32 0x8C379A000000000000000000000000000000000000000000000000000000000 DUP2 MSTORE PUSH1 0x4 ADD PUSH2 0x15E SWAP1 PUSH2 0x433 JUMP JUMPDEST PUSH1 0x40 MLOAD DUP1 SWAP2 SUB SWAP1 REVERT JUMPDEST PUSH1 0x1 SLOAD DUP2 GT ISZERO PUSH2 0x1AC JUMPI PUSH1 0x40 MLOAD PUSH32 0x8C379A000000000000000000000000000000000000000000000000000000000 DUP2 MSTORE PUSH1 0x4 ADD PUSH2 0x1A3 SWAP1 PUSH2 0x49B JUMP JUMPDEST PUSH1 0x40 MLOAD DUP1 SWAP2 SUB SWAP1 REVERT JUMPDEST DUP1 PUSH1 0x1 PUSH0 DUP3 DUP3 SLOAD PUSH2 0x1BD SWAP2 SWAP1 PUSH2 0x4E6 JUMP JUMPDEST SWAP3 POP POP DUP2 SWAP1 SSTORE POP PUSH0 DUP1 SLOAD SWAP1 PUSH2 0x100 EXP SWAP1 DIV PUSH20 0xFFFFFFFFFFFFFFFFFFFFFFFFFFFFFFFFFFFFFFFF AND PUSH20 0xFFFFFFFFFFFFFFFFFFFFFFFFFFFFFFFFFFFFFFFF AND PUSH2 0x8FC DUP3 SWAP1 DUP2 ISZERO MUL SWAP1 PUSH1 0x40 MLOAD PUSH0 PUSH1 0x40 MLOAD DUP1 DUP4 SUB DUP2 DUP6 DUP9 DUP9 CALL SWAP4 POP POP POP POP ISZERO DUP1 ISZERO PUSH2 0x226 JUMPI RETURNDATASIZE PUSH0 DUP1 RETURNDATACOPY RETURNDATASIZE PUSH0 REVERT JUMPDEST POP PUSH32 0x5B6B431D4476A211BB7D41C20D1AAB9AE2321DEEE0D20BE3D9FC9B1093FA6E3D DUP2 PUSH1 0x40 MLOAD PUSH2 0x256 SWAP2 SWAP1 PUSH2 0x3C0 JUMP JUMPDEST PUSH1 0x40 MLOAD DUP1 SWAP2 SUB SWAP1 LOG1 POP JUMP JUMPDEST PUSH0 DUP1 SLOAD SWAP1 PUSH2 0x100 EXP SWAP1 DIV PUSH20 0xFFFFFFFFFFFFFFFFFFFFFFFFFFFFFFFFFFFFFFFF AND DUP2 JUMP JUMPDEST PUSH1 0x1 SLOAD DUP2 JUMP JUMPDEST CALLVALUE PUSH1 0x1 PUSH0 DUP3 DUP3 SLOAD PUSH2 0x29B SWAP2 SWAP1 PUSH2 0x519 JUMP JUMPDEST SWAP3 POP POP DUP2 SWAP1 SSTORE POP CALLER PUSH20 0xFFFFFFFFFFFFFFFFFFFFFFFFFFFFFFFFFFFFFFFF AND PUSH32 0x90890809C654F11D6E72A28FA60149770A0D11EC6C92319D6CEB2BB0A4EA1A15 DUP3 PUSH1 0x1 SLOAD PUSH1 0x40 MLOAD PUSH2 0x2EC SWAP3 SWAP2 SWAP1 PUSH2 0x54C JUMP JUMPDEST PUSH1 0x40 MLOAD DUP1 SWAP2 SUB SWAP1 LOG2 POP JUMP JUMPDEST PUSH0 DUP1 REVERT JUMPDEST PUSH0 DUP2 SWAP1 POP SWAP2 SWAP1 POP JUMP JUMPDEST PUSH2 0x30D DUP2 PUSH2 0x2FB JUMP JUMPDEST DUP2 EQ PUSH2 0x317 JUMPI PUSH0 DUP1 REVERT JUMPDEST POP JUMP JUMPDEST PUSH0 DUP2 CALLDATALOAD SWAP1 POP PUSH2 0x328 DUP2 PUSH2 0x304 JUMP JUMPDEST SWAP3 SWAP2 POP POP JUMP JUMPDEST PUSH0 PUSH1 0x20 DUP3 DUP5 SUB SLT ISZERO PUSH2 0x343 JUMPI PUSH2 0x342 PUSH2 0x2F7 JUMP JUMPDEST JUMPDEST PUSH0 PUSH2 0x350 DUP5 DUP3 DUP6 ADD PUSH2 0x31A JUMP JUMPDEST SWAP2 POP POP SWAP3 SWAP2 POP POP JUMP JUMPDEST PUSH0 PUSH20 0xFFFFFFFFFFFFFFFFFFFFFFFFFFFFFFFFFFFFFFFF DUP3 AND SWAP1 POP SWAP2 SWAP1 POP JUMP JUMPDEST PUSH0 PUSH2 0x382 DUP3 PUSH2 0x359 JUMP JUMPDEST SWAP1 POP SWAP2 SWAP1 POP JUMP JUMPDEST PUSH2 0x392 DUP2 PUSH2 0x378 JUMP JUMPDEST DUP3 MSTORE POP POP JUMP JUMPDEST PUSH0 PUSH1 0x20 DUP3 ADD SWAP1 POP PUSH2 0x3AB PUSH0 DUP4 ADD DUP5 PUSH2 0x389 JUMP JUMPDEST SWAP3 SWAP2 POP POP JUMP JUMPDEST PUSH2 0x3BA DUP2 PUSH2 0x2FB JUMP JUMPDEST DUP3 MSTORE POP POP JUMP JUMPDEST PUSH0 PUSH1 0x20 DUP3 ADD SWAP1 POP PUSH2 0x3D3 PUSH0 DUP4 ADD DUP5 PUSH2 0x3B1 JUMP JUMPDEST SWAP3 SWAP2 POP POP JUMP JUMPDEST PUSH0 DUP3 DUP3 MSTORE PUSH1 0x20 DUP3 ADD SWAP1 POP SWAP3 SWAP2 POP POP JUMP JUMPDEST PUSH32 0x4E6F7420746865206F776E657200000000000000000000000000000000000000 PUSH0 DUP3 ADD MSTORE POP JUMP JUMPDEST PUSH0 PUSH2 0x41D PUSH1 0xD DUP4 PUSH2 0x3D9 JUMP JUMPDEST SWAP2 POP PUSH2 0x428 DUP3 PUSH2 0x3E9 JUMP JUMPDEST PUSH1 0x20 DUP3 ADD SWAP1 POP SWAP2 SWAP1 POP JUMP JUMPDEST PUSH0 PUSH1 0x20 DUP3 ADD SWAP1 POP DUP2 DUP2 SUB PUSH0 DUP4 ADD MSTORE PUSH2 0x44A DUP2 PUSH2 0x411 JUMP JUMPDEST SWAP1 POP SWAP2 SWAP1 POP JUMP JUMPDEST PUSH32 0x496E73756666696369656E742062616C616E6365000000000000000000000000 PUSH0 DUP3 ADD MSTORE POP JUMP JUMPDEST PUSH0 PUSH2 0x485 PUSH1 0x14 DUP4 PUSH2 0x3D9 JUMP JUMPDEST SWAP2 POP PUSH2 0x490 DUP3 PUSH2 0x451 JUMP JUMPDEST PUSH1 0x20 DUP3 ADD SWAP1 POP SWAP2 SWAP1 POP JUMP JUMPDEST PUSH0 PUSH1 0x20 DUP3 ADD SWAP1 POP DUP2 DUP2 SUB PUSH0 DUP4 ADD MSTORE PUSH2 0x4B2 DUP2 PUSH2 0x479 JUMP JUMPDEST SWAP1 POP SWAP2 SWAP1 POP JUMP JUMPDEST PUSH32 0x4E487B7100000000000000000000000000000000000000000000000000000000 PUSH0 MSTORE PUSH1 0x11 PUSH1 0x4 MSTORE PUSH1 0x24 PUSH0 REVERT JUMPDEST PUSH0 PUSH2 0x4F0 DUP3 PUSH2 0x2FB JUMP JUMPDEST SWAP2 POP PUSH2 0x4FB DUP4 PUSH2 0x2FB JUMP JUMPDEST SWAP3 POP DUP3 DUP3 SUB SWAP1 POP DUP2 DUP2 GT ISZERO PUSH2 0x513 JUMPI PUSH2 0x512 PUSH2 0x4B9 JUMP JUMPDEST JUMPDEST SWAP3 SWAP2 POP POP JUMP JUMPDEST PUSH0 PUSH2 0x523 DUP3 PUSH2 0x2FB JUMP JUMPDEST SWAP2 POP PUSH2 0x52E DUP4 PUSH2 0x2FB JUMP JUMPDEST SWAP3 POP DUP3 DUP3 ADD SWAP1 POP DUP1 DUP3 GT ISZERO PUSH2 0x546 JUMPI PUSH2 0x545 PUSH2 0x4B9 JUMP JUMPDEST JUMPDEST SWAP3 SWAP2 POP POP JUMP JUMPDEST PUSH0 PUSH1 0x40 DUP3 ADD SWAP1 POP PUSH2 0x55F PUSH0 DUP4 ADD DUP6 PUSH2 0x3B1 JUMP JUMPDEST PUSH2 0x56C PUSH1 0x20 DUP4 ADD DUP5 PUSH2 0x3B1 JUMP JUMPDEST SWAP4 SWAP3 POP POP POP JUMP INVALID LOG2 PUSH5 0x6970667358 0x22 SLT KECCAK256 SHR PUSH2 0xF3A3 COINBASE LOG3 0xB5 0xD5 0x5C 0xD9 CHAINID GT 0xDD 0xEE 0xC2 JUMPI 0x22 PUSH22 0x3D9EC188AF11615EF297D411D69264736F6C63430008 AND STOP CALLER "
				},
				"gasEstimates": {
					"creation": {
						"codeDepositCost": "289800",
						"executionCost": "24594",
						"totalCost": "314394"
					},
					"external": {
						"balance()": "2447",
						"deposit(uint256)": "infinite",
						"owner()": "2505",
						"withdraw(uint256)": "infinite"
					}
				},
				"methodIdentifiers": {
					"balance()": "b69ef8a8",
					"deposit(uint256)": "b6b55f25",
					"owner()": "8da5cb5b",
					"withdraw(uint256)": "2e1a7d4d"
				}
			},
			"storageLayout": {
				"storage": [
					{
						"astId": 15,
						"contract": "wallet/singleSig.sol:singleSigWallet",
						"label": "owner",
						"offset": 0,
						"slot": "0",
						"type": "t_address"
					},
					{
						"astId": 17,
						"contract": "wallet/singleSig.sol:singleSigWallet",
						"label": "balance",
						"offset": 0,
						"slot": "1",
						"type": "t_uint256"
					}
				],
				"types": {
					"t_address": {
						"encoding": "inplace",
						"label": "address",
						"numberOfBytes": "20"
					},
					"t_uint256": {
						"encoding": "inplace",
						"label": "uint256",
						"numberOfBytes": "32"
					}
				}
			},
			"userdoc": {
				"kind": "user",
				"methods": {},
				"version": 1
			}
		}
	}
}