{
	"wallet/multiSigwallet.sol": {
		"MultiSigWallet": {
			"abi": [
				{
					"anonymous": false,
					"inputs": [
						{
							"indexed": true,
							"internalType": "address",
							"name": "sender",
							"type": "address"
						},
						{
							"indexed": false,
							"internalType": "uint256",
							"name": "amount",
							"type": "uint256"
						},
						{
							"indexed": false,
							"internalType": "uint256",
							"name": "balance",
							"type": "uint256"
						}
					],
					"name": "Deposit",
					"type": "event"
				},
				{
					"anonymous": false,
					"inputs": [
						{
							"indexed": true,
							"internalType": "address",
							"name": "owner",
							"type": "address"
						},
						{
							"indexed": true,
							"internalType": "uint256",
							"name": "txIndex",
							"type": "uint256"
						}
					],
					"name": "RevokeTransaction",
					"type": "event"
				},
				{
					"anonymous": false,
					"inputs": [
						{
							"indexed": true,
							"internalType": "address",
							"name": "owner",
							"type": "address"
						},
						{
							"indexed": true,
							"internalType": "uint256",
							"name": "txIndex",
							"type": "uint256"
						}
					],
					"name": "confirmTransaction",
					"type": "event"
				},
				{
					"anonymous": false,
					"inputs": [
						{
							"indexed": true,
							"internalType": "address",
							"name": "sender",
							"type": "address"
						},
						{
							"indexed": true,
							"internalType": "uint256",
							"name": "txIndex",
							"type": "uint256"
						}
					],
					"name": "executeTransaction",
					"type": "event"
				},
				{
					"anonymous": false,
					"inputs": [
						{
							"indexed": true,
							"internalType": "address",
							"name": "owner",
							"type": "address"
						},
						{
							"indexed": true,
							"internalType": "uint256",
							"name": "txIndex",
							"type": "uint256"
						},
						{
							"indexed": true,
							"internalType": "address",
							"name": "to",
							"type": "address"
						},
						{
							"indexed": false,
							"internalType": "uint256",
							"name": "value",
							"type": "uint256"
						},
						{
							"indexed": false,
							"internalType": "bytes",
							"name": "data",
							"type": "bytes"
						}
					],
					"name": "submitTransaction",
					"type": "event"
				},
				{
					"inputs": [
						{
							"internalType": "uint256",
							"name": "",
							"type": "uint256"
						},
						{
							"internalType": "address",
							"name": "",
							"type": "address"
						}
					],
					"name": "isConfirmed",
					"outputs": [
						{
							"internalType": "bool",
							"name": "",
							"type": "bool"
						}
					],
					"stateMutability": "view",
					"type": "function"
				},
				{
					"inputs": [
						{
							"internalType": "address",
							"name": "",
							"type": "address"
						}
					],
					"name": "isOwner",
					"outputs": [
						{
							"internalType": "bool",
							"name": "",
							"type": "bool"
						}
					],
					"stateMutability": "view",
					"type": "function"
				},
				{
					"inputs": [],
					"name": "numConfirmations",
					"outputs": [
						{
							"internalType": "uint256",
							"name": "",
							"type": "uint256"
						}
					],
					"stateMutability": "view",
					"type": "function"
				},
				{
					"inputs": [
						{
							"internalType": "uint256",
							"name": "",
							"type": "uint256"
						}
					],
					"name": "owners",
					"outputs": [
						{
							"internalType": "address",
							"name": "",
							"type": "address"
						}
					],
					"stateMutability": "view",
					"type": "function"
				},
				{
					"inputs": [
						{
							"internalType": "uint256",
							"name": "",
							"type": "uint256"
						}
					],
					"name": "transactions",
					"outputs": [
						{
							"internalType": "address",
							"name": "to",
							"type": "address"
						},
						{
							"internalType": "uint256",
							"name": "value",
							"type": "uint256"
						},
						{
							"internalType": "bytes",
							"name": "data",
							"type": "bytes"
						},
						{
							"internalType": "bool",
							"name": "executed",
							"type": "bool"
						},
						{
							"internalType": "uint256",
							"name": "numConfirmations",
							"type": "uint256"
						}
					],
					"stateMutability": "view",
					"type": "function"
				}
			],
			"devdoc": {
				"kind": "dev",
				"methods": {},
				"version": 1
			},
			"evm": {
				"assembly": "    /* \"wallet/multiSigwallet.sol\":58:1664  contract MultiSigWallet {... */\n  mstore(0x40, 0x80)\n  callvalue\n  dup1\n  iszero\n  tag_1\n  jumpi\n  0x00\n  dup1\n  revert\ntag_1:\n  pop\n  dataSize(sub_0)\n  dup1\n  dataOffset(sub_0)\n  0x00\n  codecopy\n  0x00\n  return\nstop\n\nsub_0: assembly {\n        /* \"wallet/multiSigwallet.sol\":58:1664  contract MultiSigWallet {... */\n      mstore(0x40, 0x80)\n      callvalue\n      dup1\n      iszero\n      tag_1\n      jumpi\n      0x00\n      dup1\n      revert\n    tag_1:\n      pop\n      jumpi(tag_2, lt(calldatasize, 0x04))\n      shr(0xe0, calldataload(0x00))\n      dup1\n      0x025e7c27\n      eq\n      tag_3\n      jumpi\n      dup1\n      0x2f54bf6e\n      eq\n      tag_4\n      jumpi\n      dup1\n      0x80f59a65\n      eq\n      tag_5\n      jumpi\n      dup1\n      0x9ace38c2\n      eq\n      tag_6\n      jumpi\n      dup1\n      0xdc108deb\n      eq\n      tag_7\n      jumpi\n    tag_2:\n      0x00\n      dup1\n      revert\n        /* \"wallet/multiSigwallet.sol\":669:693  address [] public owners */\n    tag_3:\n      tag_8\n      0x04\n      dup1\n      calldatasize\n      sub\n      dup2\n      add\n      swap1\n      tag_9\n      swap2\n      swap1\n      tag_10\n      jump\t// in\n    tag_9:\n      tag_11\n      jump\t// in\n    tag_8:\n      mload(0x40)\n      tag_12\n      swap2\n      swap1\n      tag_13\n      jump\t// in\n    tag_12:\n      mload(0x40)\n      dup1\n      swap2\n      sub\n      swap1\n      return\n        /* \"wallet/multiSigwallet.sol\":699:738  mapping(address => bool) public isOwner */\n    tag_4:\n      tag_14\n      0x04\n      dup1\n      calldatasize\n      sub\n      dup2\n      add\n      swap1\n      tag_15\n      swap2\n      swap1\n      tag_16\n      jump\t// in\n    tag_15:\n      tag_17\n      jump\t// in\n    tag_14:\n      mload(0x40)\n      tag_18\n      swap2\n      swap1\n      tag_19\n      jump\t// in\n    tag_18:\n      mload(0x40)\n      dup1\n      swap2\n      sub\n      swap1\n      return\n        /* \"wallet/multiSigwallet.sol\":970:1030  mapping(uint => mapping(address => bool)) public isConfirmed */\n    tag_5:\n      tag_20\n      0x04\n      dup1\n      calldatasize\n      sub\n      dup2\n      add\n      swap1\n      tag_21\n      swap2\n      swap1\n      tag_22\n      jump\t// in\n    tag_21:\n      tag_23\n      jump\t// in\n    tag_20:\n      mload(0x40)\n      tag_24\n      swap2\n      swap1\n      tag_19\n      jump\t// in\n    tag_24:\n      mload(0x40)\n      dup1\n      swap2\n      sub\n      swap1\n      return\n        /* \"wallet/multiSigwallet.sol\":1083:1116  Transaction[] public transactions */\n    tag_6:\n      tag_25\n      0x04\n      dup1\n      calldatasize\n      sub\n      dup2\n      add\n      swap1\n      tag_26\n      swap2\n      swap1\n      tag_10\n      jump\t// in\n    tag_26:\n      tag_27\n      jump\t// in\n    tag_25:\n      mload(0x40)\n      tag_28\n      swap6\n      swap5\n      swap4\n      swap3\n      swap2\n      swap1\n      tag_29\n      jump\t// in\n    tag_28:\n      mload(0x40)\n      dup1\n      swap2\n      sub\n      swap1\n      return\n        /* \"wallet/multiSigwallet.sol\":744:772  uint public numConfirmations */\n    tag_7:\n      tag_30\n      tag_31\n      jump\t// in\n    tag_30:\n      mload(0x40)\n      tag_32\n      swap2\n      swap1\n      tag_33\n      jump\t// in\n    tag_32:\n      mload(0x40)\n      dup1\n      swap2\n      sub\n      swap1\n      return\n        /* \"wallet/multiSigwallet.sol\":669:693  address [] public owners */\n    tag_11:\n      0x00\n      dup2\n      dup2\n      sload\n      dup2\n      lt\n      tag_34\n      jumpi\n      0x00\n      dup1\n      revert\n    tag_34:\n      swap1\n      0x00\n      mstore\n      keccak256(0x00, 0x20)\n      add\n      0x00\n      swap2\n      pop\n      sload\n      swap1\n      0x0100\n      exp\n      swap1\n      div\n      0xffffffffffffffffffffffffffffffffffffffff\n      and\n      dup2\n      jump\t// out\n        /* \"wallet/multiSigwallet.sol\":699:738  mapping(address => bool) public isOwner */\n    tag_17:\n      mstore(0x20, 0x01)\n      dup1\n      0x00\n      mstore\n      keccak256(0x00, 0x40)\n      0x00\n      swap2\n      pop\n      sload\n      swap1\n      0x0100\n      exp\n      swap1\n      div\n      0xff\n      and\n      dup2\n      jump\t// out\n        /* \"wallet/multiSigwallet.sol\":970:1030  mapping(uint => mapping(address => bool)) public isConfirmed */\n    tag_23:\n      mstore(0x20, 0x03)\n      dup2\n      0x00\n      mstore\n      mstore(0x20, keccak256(0x00, 0x40))\n      dup1\n      0x00\n      mstore\n      keccak256(0x00, 0x40)\n      0x00\n      swap2\n      pop\n      swap2\n      pop\n      swap1\n      sload\n      swap1\n      0x0100\n      exp\n      swap1\n      div\n      0xff\n      and\n      dup2\n      jump\t// out\n        /* \"wallet/multiSigwallet.sol\":1083:1116  Transaction[] public transactions */\n    tag_27:\n      0x04\n      dup2\n      dup2\n      sload\n      dup2\n      lt\n      tag_36\n      jumpi\n      0x00\n      dup1\n      revert\n    tag_36:\n      swap1\n      0x00\n      mstore\n      keccak256(0x00, 0x20)\n      swap1\n      0x05\n      mul\n      add\n      0x00\n      swap2\n      pop\n      swap1\n      pop\n      dup1\n      0x00\n      add\n      0x00\n      swap1\n      sload\n      swap1\n      0x0100\n      exp\n      swap1\n      div\n      0xffffffffffffffffffffffffffffffffffffffff\n      and\n      swap1\n      dup1\n      0x01\n      add\n      sload\n      swap1\n      dup1\n      0x02\n      add\n      dup1\n      sload\n      tag_38\n      swap1\n      tag_39\n      jump\t// in\n    tag_38:\n      dup1\n      0x1f\n      add\n      0x20\n      dup1\n      swap2\n      div\n      mul\n      0x20\n      add\n      mload(0x40)\n      swap1\n      dup2\n      add\n      0x40\n      mstore\n      dup1\n      swap3\n      swap2\n      swap1\n      dup2\n      dup2\n      mstore\n      0x20\n      add\n      dup3\n      dup1\n      sload\n      tag_40\n      swap1\n      tag_39\n      jump\t// in\n    tag_40:\n      dup1\n      iszero\n      tag_41\n      jumpi\n      dup1\n      0x1f\n      lt\n      tag_42\n      jumpi\n      0x0100\n      dup1\n      dup4\n      sload\n      div\n      mul\n      dup4\n      mstore\n      swap2\n      0x20\n      add\n      swap2\n      jump(tag_41)\n    tag_42:\n      dup3\n      add\n      swap2\n      swap1\n      0x00\n      mstore\n      keccak256(0x00, 0x20)\n      swap1\n    tag_43:\n      dup2\n      sload\n      dup2\n      mstore\n      swap1\n      0x01\n      add\n      swap1\n      0x20\n      add\n      dup1\n      dup4\n      gt\n      tag_43\n      jumpi\n      dup3\n      swap1\n      sub\n      0x1f\n      and\n      dup3\n      add\n      swap2\n    tag_41:\n      pop\n      pop\n      pop\n      pop\n      pop\n      swap1\n      dup1\n      0x03\n      add\n      0x00\n      swap1\n      sload\n      swap1\n      0x0100\n      exp\n      swap1\n      div\n      0xff\n      and\n      swap1\n      dup1\n      0x04\n      add\n      sload\n      swap1\n      pop\n      dup6\n      jump\t// out\n        /* \"wallet/multiSigwallet.sol\":744:772  uint public numConfirmations */\n    tag_31:\n      sload(0x02)\n      dup2\n      jump\t// out\n        /* \"#utility.yul\":88:205   */\n    tag_45:\n        /* \"#utility.yul\":197:198   */\n      0x00\n        /* \"#utility.yul\":194:195   */\n      dup1\n        /* \"#utility.yul\":187:199   */\n      revert\n        /* \"#utility.yul\":334:411   */\n    tag_47:\n        /* \"#utility.yul\":371:378   */\n      0x00\n        /* \"#utility.yul\":400:405   */\n      dup2\n        /* \"#utility.yul\":389:405   */\n      swap1\n      pop\n        /* \"#utility.yul\":334:411   */\n      swap2\n      swap1\n      pop\n      jump\t// out\n        /* \"#utility.yul\":417:539   */\n    tag_48:\n        /* \"#utility.yul\":490:514   */\n      tag_70\n        /* \"#utility.yul\":508:513   */\n      dup2\n        /* \"#utility.yul\":490:514   */\n      tag_47\n      jump\t// in\n    tag_70:\n        /* \"#utility.yul\":483:488   */\n      dup2\n        /* \"#utility.yul\":480:515   */\n      eq\n        /* \"#utility.yul\":470:533   */\n      tag_71\n      jumpi\n        /* \"#utility.yul\":529:530   */\n      0x00\n        /* \"#utility.yul\":526:527   */\n      dup1\n        /* \"#utility.yul\":519:531   */\n      revert\n        /* \"#utility.yul\":470:533   */\n    tag_71:\n        /* \"#utility.yul\":417:539   */\n      pop\n      jump\t// out\n        /* \"#utility.yul\":545:684   */\n    tag_49:\n        /* \"#utility.yul\":591:596   */\n      0x00\n        /* \"#utility.yul\":629:635   */\n      dup2\n        /* \"#utility.yul\":616:636   */\n      calldataload\n        /* \"#utility.yul\":607:636   */\n      swap1\n      pop\n        /* \"#utility.yul\":645:678   */\n      tag_73\n        /* \"#utility.yul\":672:677   */\n      dup2\n        /* \"#utility.yul\":645:678   */\n      tag_48\n      jump\t// in\n    tag_73:\n        /* \"#utility.yul\":545:684   */\n      swap3\n      swap2\n      pop\n      pop\n      jump\t// out\n        /* \"#utility.yul\":690:1019   */\n    tag_10:\n        /* \"#utility.yul\":749:755   */\n      0x00\n        /* \"#utility.yul\":798:800   */\n      0x20\n        /* \"#utility.yul\":786:795   */\n      dup3\n        /* \"#utility.yul\":777:784   */\n      dup5\n        /* \"#utility.yul\":773:796   */\n      sub\n        /* \"#utility.yul\":769:801   */\n      slt\n        /* \"#utility.yul\":766:885   */\n      iszero\n      tag_75\n      jumpi\n        /* \"#utility.yul\":804:883   */\n      tag_76\n      tag_45\n      jump\t// in\n    tag_76:\n        /* \"#utility.yul\":766:885   */\n    tag_75:\n        /* \"#utility.yul\":924:925   */\n      0x00\n        /* \"#utility.yul\":949:1002   */\n      tag_77\n        /* \"#utility.yul\":994:1001   */\n      dup5\n        /* \"#utility.yul\":985:991   */\n      dup3\n        /* \"#utility.yul\":974:983   */\n      dup6\n        /* \"#utility.yul\":970:992   */\n      add\n        /* \"#utility.yul\":949:1002   */\n      tag_49\n      jump\t// in\n    tag_77:\n        /* \"#utility.yul\":939:1002   */\n      swap2\n      pop\n        /* \"#utility.yul\":895:1012   */\n      pop\n        /* \"#utility.yul\":690:1019   */\n      swap3\n      swap2\n      pop\n      pop\n      jump\t// out\n        /* \"#utility.yul\":1025:1151   */\n    tag_50:\n        /* \"#utility.yul\":1062:1069   */\n      0x00\n        /* \"#utility.yul\":1102:1144   */\n      0xffffffffffffffffffffffffffffffffffffffff\n        /* \"#utility.yul\":1095:1100   */\n      dup3\n        /* \"#utility.yul\":1091:1145   */\n      and\n        /* \"#utility.yul\":1080:1145   */\n      swap1\n      pop\n        /* \"#utility.yul\":1025:1151   */\n      swap2\n      swap1\n      pop\n      jump\t// out\n        /* \"#utility.yul\":1157:1253   */\n    tag_51:\n        /* \"#utility.yul\":1194:1201   */\n      0x00\n        /* \"#utility.yul\":1223:1247   */\n      tag_80\n        /* \"#utility.yul\":1241:1246   */\n      dup3\n        /* \"#utility.yul\":1223:1247   */\n      tag_50\n      jump\t// in\n    tag_80:\n        /* \"#utility.yul\":1212:1247   */\n      swap1\n      pop\n        /* \"#utility.yul\":1157:1253   */\n      swap2\n      swap1\n      pop\n      jump\t// out\n        /* \"#utility.yul\":1259:1377   */\n    tag_52:\n        /* \"#utility.yul\":1346:1370   */\n      tag_82\n        /* \"#utility.yul\":1364:1369   */\n      dup2\n        /* \"#utility.yul\":1346:1370   */\n      tag_51\n      jump\t// in\n    tag_82:\n        /* \"#utility.yul\":1341:1344   */\n      dup3\n        /* \"#utility.yul\":1334:1371   */\n      mstore\n        /* \"#utility.yul\":1259:1377   */\n      pop\n      pop\n      jump\t// out\n        /* \"#utility.yul\":1383:1605   */\n    tag_13:\n        /* \"#utility.yul\":1476:1480   */\n      0x00\n        /* \"#utility.yul\":1514:1516   */\n      0x20\n        /* \"#utility.yul\":1503:1512   */\n      dup3\n        /* \"#utility.yul\":1499:1517   */\n      add\n        /* \"#utility.yul\":1491:1517   */\n      swap1\n      pop\n        /* \"#utility.yul\":1527:1598   */\n      tag_84\n        /* \"#utility.yul\":1595:1596   */\n      0x00\n        /* \"#utility.yul\":1584:1593   */\n      dup4\n        /* \"#utility.yul\":1580:1597   */\n      add\n        /* \"#utility.yul\":1571:1577   */\n      dup5\n        /* \"#utility.yul\":1527:1598   */\n      tag_52\n      jump\t// in\n    tag_84:\n        /* \"#utility.yul\":1383:1605   */\n      swap3\n      swap2\n      pop\n      pop\n      jump\t// out\n        /* \"#utility.yul\":1611:1733   */\n    tag_53:\n        /* \"#utility.yul\":1684:1708   */\n      tag_86\n        /* \"#utility.yul\":1702:1707   */\n      dup2\n        /* \"#utility.yul\":1684:1708   */\n      tag_51\n      jump\t// in\n    tag_86:\n        /* \"#utility.yul\":1677:1682   */\n      dup2\n        /* \"#utility.yul\":1674:1709   */\n      eq\n        /* \"#utility.yul\":1664:1727   */\n      tag_87\n      jumpi\n        /* \"#utility.yul\":1723:1724   */\n      0x00\n        /* \"#utility.yul\":1720:1721   */\n      dup1\n        /* \"#utility.yul\":1713:1725   */\n      revert\n        /* \"#utility.yul\":1664:1727   */\n    tag_87:\n        /* \"#utility.yul\":1611:1733   */\n      pop\n      jump\t// out\n        /* \"#utility.yul\":1739:1878   */\n    tag_54:\n        /* \"#utility.yul\":1785:1790   */\n      0x00\n        /* \"#utility.yul\":1823:1829   */\n      dup2\n        /* \"#utility.yul\":1810:1830   */\n      calldataload\n        /* \"#utility.yul\":1801:1830   */\n      swap1\n      pop\n        /* \"#utility.yul\":1839:1872   */\n      tag_89\n        /* \"#utility.yul\":1866:1871   */\n      dup2\n        /* \"#utility.yul\":1839:1872   */\n      tag_53\n      jump\t// in\n    tag_89:\n        /* \"#utility.yul\":1739:1878   */\n      swap3\n      swap2\n      pop\n      pop\n      jump\t// out\n        /* \"#utility.yul\":1884:2213   */\n    tag_16:\n        /* \"#utility.yul\":1943:1949   */\n      0x00\n        /* \"#utility.yul\":1992:1994   */\n      0x20\n        /* \"#utility.yul\":1980:1989   */\n      dup3\n        /* \"#utility.yul\":1971:1978   */\n      dup5\n        /* \"#utility.yul\":1967:1990   */\n      sub\n        /* \"#utility.yul\":1963:1995   */\n      slt\n        /* \"#utility.yul\":1960:2079   */\n      iszero\n      tag_91\n      jumpi\n        /* \"#utility.yul\":1998:2077   */\n      tag_92\n      tag_45\n      jump\t// in\n    tag_92:\n        /* \"#utility.yul\":1960:2079   */\n    tag_91:\n        /* \"#utility.yul\":2118:2119   */\n      0x00\n        /* \"#utility.yul\":2143:2196   */\n      tag_93\n        /* \"#utility.yul\":2188:2195   */\n      dup5\n        /* \"#utility.yul\":2179:2185   */\n      dup3\n        /* \"#utility.yul\":2168:2177   */\n      dup6\n        /* \"#utility.yul\":2164:2186   */\n      add\n        /* \"#utility.yul\":2143:2196   */\n      tag_54\n      jump\t// in\n    tag_93:\n        /* \"#utility.yul\":2133:2196   */\n      swap2\n      pop\n        /* \"#utility.yul\":2089:2206   */\n      pop\n        /* \"#utility.yul\":1884:2213   */\n      swap3\n      swap2\n      pop\n      pop\n      jump\t// out\n        /* \"#utility.yul\":2219:2309   */\n    tag_55:\n        /* \"#utility.yul\":2253:2260   */\n      0x00\n        /* \"#utility.yul\":2296:2301   */\n      dup2\n        /* \"#utility.yul\":2289:2302   */\n      iszero\n        /* \"#utility.yul\":2282:2303   */\n      iszero\n        /* \"#utility.yul\":2271:2303   */\n      swap1\n      pop\n        /* \"#utility.yul\":2219:2309   */\n      swap2\n      swap1\n      pop\n      jump\t// out\n        /* \"#utility.yul\":2315:2424   */\n    tag_56:\n        /* \"#utility.yul\":2396:2417   */\n      tag_96\n        /* \"#utility.yul\":2411:2416   */\n      dup2\n        /* \"#utility.yul\":2396:2417   */\n      tag_55\n      jump\t// in\n    tag_96:\n        /* \"#utility.yul\":2391:2394   */\n      dup3\n        /* \"#utility.yul\":2384:2418   */\n      mstore\n        /* \"#utility.yul\":2315:2424   */\n      pop\n      pop\n      jump\t// out\n        /* \"#utility.yul\":2430:2640   */\n    tag_19:\n        /* \"#utility.yul\":2517:2521   */\n      0x00\n        /* \"#utility.yul\":2555:2557   */\n      0x20\n        /* \"#utility.yul\":2544:2553   */\n      dup3\n        /* \"#utility.yul\":2540:2558   */\n      add\n        /* \"#utility.yul\":2532:2558   */\n      swap1\n      pop\n        /* \"#utility.yul\":2568:2633   */\n      tag_98\n        /* \"#utility.yul\":2630:2631   */\n      0x00\n        /* \"#utility.yul\":2619:2628   */\n      dup4\n        /* \"#utility.yul\":2615:2632   */\n      add\n        /* \"#utility.yul\":2606:2612   */\n      dup5\n        /* \"#utility.yul\":2568:2633   */\n      tag_56\n      jump\t// in\n    tag_98:\n        /* \"#utility.yul\":2430:2640   */\n      swap3\n      swap2\n      pop\n      pop\n      jump\t// out\n        /* \"#utility.yul\":2646:3120   */\n    tag_22:\n        /* \"#utility.yul\":2714:2720   */\n      0x00\n        /* \"#utility.yul\":2722:2728   */\n      dup1\n        /* \"#utility.yul\":2771:2773   */\n      0x40\n        /* \"#utility.yul\":2759:2768   */\n      dup4\n        /* \"#utility.yul\":2750:2757   */\n      dup6\n        /* \"#utility.yul\":2746:2769   */\n      sub\n        /* \"#utility.yul\":2742:2774   */\n      slt\n        /* \"#utility.yul\":2739:2858   */\n      iszero\n      tag_100\n      jumpi\n        /* \"#utility.yul\":2777:2856   */\n      tag_101\n      tag_45\n      jump\t// in\n    tag_101:\n        /* \"#utility.yul\":2739:2858   */\n    tag_100:\n        /* \"#utility.yul\":2897:2898   */\n      0x00\n        /* \"#utility.yul\":2922:2975   */\n      tag_102\n        /* \"#utility.yul\":2967:2974   */\n      dup6\n        /* \"#utility.yul\":2958:2964   */\n      dup3\n        /* \"#utility.yul\":2947:2956   */\n      dup7\n        /* \"#utility.yul\":2943:2965   */\n      add\n        /* \"#utility.yul\":2922:2975   */\n      tag_49\n      jump\t// in\n    tag_102:\n        /* \"#utility.yul\":2912:2975   */\n      swap3\n      pop\n        /* \"#utility.yul\":2868:2985   */\n      pop\n        /* \"#utility.yul\":3024:3026   */\n      0x20\n        /* \"#utility.yul\":3050:3103   */\n      tag_103\n        /* \"#utility.yul\":3095:3102   */\n      dup6\n        /* \"#utility.yul\":3086:3092   */\n      dup3\n        /* \"#utility.yul\":3075:3084   */\n      dup7\n        /* \"#utility.yul\":3071:3093   */\n      add\n        /* \"#utility.yul\":3050:3103   */\n      tag_54\n      jump\t// in\n    tag_103:\n        /* \"#utility.yul\":3040:3103   */\n      swap2\n      pop\n        /* \"#utility.yul\":2995:3113   */\n      pop\n        /* \"#utility.yul\":2646:3120   */\n      swap3\n      pop\n      swap3\n      swap1\n      pop\n      jump\t// out\n        /* \"#utility.yul\":3126:3244   */\n    tag_57:\n        /* \"#utility.yul\":3213:3237   */\n      tag_105\n        /* \"#utility.yul\":3231:3236   */\n      dup2\n        /* \"#utility.yul\":3213:3237   */\n      tag_47\n      jump\t// in\n    tag_105:\n        /* \"#utility.yul\":3208:3211   */\n      dup3\n        /* \"#utility.yul\":3201:3238   */\n      mstore\n        /* \"#utility.yul\":3126:3244   */\n      pop\n      pop\n      jump\t// out\n        /* \"#utility.yul\":3250:3348   */\n    tag_58:\n        /* \"#utility.yul\":3301:3307   */\n      0x00\n        /* \"#utility.yul\":3335:3340   */\n      dup2\n        /* \"#utility.yul\":3329:3341   */\n      mload\n        /* \"#utility.yul\":3319:3341   */\n      swap1\n      pop\n        /* \"#utility.yul\":3250:3348   */\n      swap2\n      swap1\n      pop\n      jump\t// out\n        /* \"#utility.yul\":3354:3522   */\n    tag_59:\n        /* \"#utility.yul\":3437:3448   */\n      0x00\n        /* \"#utility.yul\":3471:3477   */\n      dup3\n        /* \"#utility.yul\":3466:3469   */\n      dup3\n        /* \"#utility.yul\":3459:3478   */\n      mstore\n        /* \"#utility.yul\":3511:3515   */\n      0x20\n        /* \"#utility.yul\":3506:3509   */\n      dup3\n        /* \"#utility.yul\":3502:3516   */\n      add\n        /* \"#utility.yul\":3487:3516   */\n      swap1\n      pop\n        /* \"#utility.yul\":3354:3522   */\n      swap3\n      swap2\n      pop\n      pop\n      jump\t// out\n        /* \"#utility.yul\":3528:3774   */\n    tag_60:\n        /* \"#utility.yul\":3609:3610   */\n      0x00\n        /* \"#utility.yul\":3619:3732   */\n    tag_109:\n        /* \"#utility.yul\":3633:3639   */\n      dup4\n        /* \"#utility.yul\":3630:3631   */\n      dup2\n        /* \"#utility.yul\":3627:3640   */\n      lt\n        /* \"#utility.yul\":3619:3732   */\n      iszero\n      tag_111\n      jumpi\n        /* \"#utility.yul\":3718:3719   */\n      dup1\n        /* \"#utility.yul\":3713:3716   */\n      dup3\n        /* \"#utility.yul\":3709:3720   */\n      add\n        /* \"#utility.yul\":3703:3721   */\n      mload\n        /* \"#utility.yul\":3699:3700   */\n      dup2\n        /* \"#utility.yul\":3694:3697   */\n      dup5\n        /* \"#utility.yul\":3690:3701   */\n      add\n        /* \"#utility.yul\":3683:3722   */\n      mstore\n        /* \"#utility.yul\":3655:3657   */\n      0x20\n        /* \"#utility.yul\":3652:3653   */\n      dup2\n        /* \"#utility.yul\":3648:3658   */\n      add\n        /* \"#utility.yul\":3643:3658   */\n      swap1\n      pop\n        /* \"#utility.yul\":3619:3732   */\n      jump(tag_109)\n    tag_111:\n        /* \"#utility.yul\":3766:3767   */\n      0x00\n        /* \"#utility.yul\":3757:3763   */\n      dup5\n        /* \"#utility.yul\":3752:3755   */\n      dup5\n        /* \"#utility.yul\":3748:3764   */\n      add\n        /* \"#utility.yul\":3741:3768   */\n      mstore\n        /* \"#utility.yul\":3590:3774   */\n      pop\n        /* \"#utility.yul\":3528:3774   */\n      pop\n      pop\n      pop\n      jump\t// out\n        /* \"#utility.yul\":3780:3882   */\n    tag_61:\n        /* \"#utility.yul\":3821:3827   */\n      0x00\n        /* \"#utility.yul\":3872:3874   */\n      0x1f\n        /* \"#utility.yul\":3868:3875   */\n      not\n        /* \"#utility.yul\":3863:3865   */\n      0x1f\n        /* \"#utility.yul\":3856:3861   */\n      dup4\n        /* \"#utility.yul\":3852:3866   */\n      add\n        /* \"#utility.yul\":3848:3876   */\n      and\n        /* \"#utility.yul\":3838:3876   */\n      swap1\n      pop\n        /* \"#utility.yul\":3780:3882   */\n      swap2\n      swap1\n      pop\n      jump\t// out\n        /* \"#utility.yul\":3888:4261   */\n    tag_62:\n        /* \"#utility.yul\":3974:3977   */\n      0x00\n        /* \"#utility.yul\":4002:4040   */\n      tag_114\n        /* \"#utility.yul\":4034:4039   */\n      dup3\n        /* \"#utility.yul\":4002:4040   */\n      tag_58\n      jump\t// in\n    tag_114:\n        /* \"#utility.yul\":4056:4126   */\n      tag_115\n        /* \"#utility.yul\":4119:4125   */\n      dup2\n        /* \"#utility.yul\":4114:4117   */\n      dup6\n        /* \"#utility.yul\":4056:4126   */\n      tag_59\n      jump\t// in\n    tag_115:\n        /* \"#utility.yul\":4049:4126   */\n      swap4\n      pop\n        /* \"#utility.yul\":4135:4200   */\n      tag_116\n        /* \"#utility.yul\":4193:4199   */\n      dup2\n        /* \"#utility.yul\":4188:4191   */\n      dup6\n        /* \"#utility.yul\":4181:4185   */\n      0x20\n        /* \"#utility.yul\":4174:4179   */\n      dup7\n        /* \"#utility.yul\":4170:4186   */\n      add\n        /* \"#utility.yul\":4135:4200   */\n      tag_60\n      jump\t// in\n    tag_116:\n        /* \"#utility.yul\":4225:4254   */\n      tag_117\n        /* \"#utility.yul\":4247:4253   */\n      dup2\n        /* \"#utility.yul\":4225:4254   */\n      tag_61\n      jump\t// in\n    tag_117:\n        /* \"#utility.yul\":4220:4223   */\n      dup5\n        /* \"#utility.yul\":4216:4255   */\n      add\n        /* \"#utility.yul\":4209:4255   */\n      swap2\n      pop\n        /* \"#utility.yul\":3978:4261   */\n      pop\n        /* \"#utility.yul\":3888:4261   */\n      swap3\n      swap2\n      pop\n      pop\n      jump\t// out\n        /* \"#utility.yul\":4267:5006   */\n    tag_29:\n        /* \"#utility.yul\":4484:4488   */\n      0x00\n        /* \"#utility.yul\":4522:4525   */\n      0xa0\n        /* \"#utility.yul\":4511:4520   */\n      dup3\n        /* \"#utility.yul\":4507:4526   */\n      add\n        /* \"#utility.yul\":4499:4526   */\n      swap1\n      pop\n        /* \"#utility.yul\":4536:4607   */\n      tag_119\n        /* \"#utility.yul\":4604:4605   */\n      0x00\n        /* \"#utility.yul\":4593:4602   */\n      dup4\n        /* \"#utility.yul\":4589:4606   */\n      add\n        /* \"#utility.yul\":4580:4586   */\n      dup9\n        /* \"#utility.yul\":4536:4607   */\n      tag_52\n      jump\t// in\n    tag_119:\n        /* \"#utility.yul\":4617:4689   */\n      tag_120\n        /* \"#utility.yul\":4685:4687   */\n      0x20\n        /* \"#utility.yul\":4674:4683   */\n      dup4\n        /* \"#utility.yul\":4670:4688   */\n      add\n        /* \"#utility.yul\":4661:4667   */\n      dup8\n        /* \"#utility.yul\":4617:4689   */\n      tag_57\n      jump\t// in\n    tag_120:\n        /* \"#utility.yul\":4736:4745   */\n      dup2\n        /* \"#utility.yul\":4730:4734   */\n      dup2\n        /* \"#utility.yul\":4726:4746   */\n      sub\n        /* \"#utility.yul\":4721:4723   */\n      0x40\n        /* \"#utility.yul\":4710:4719   */\n      dup4\n        /* \"#utility.yul\":4706:4724   */\n      add\n        /* \"#utility.yul\":4699:4747   */\n      mstore\n        /* \"#utility.yul\":4764:4840   */\n      tag_121\n        /* \"#utility.yul\":4835:4839   */\n      dup2\n        /* \"#utility.yul\":4826:4832   */\n      dup7\n        /* \"#utility.yul\":4764:4840   */\n      tag_62\n      jump\t// in\n    tag_121:\n        /* \"#utility.yul\":4756:4840   */\n      swap1\n      pop\n        /* \"#utility.yul\":4850:4916   */\n      tag_122\n        /* \"#utility.yul\":4912:4914   */\n      0x60\n        /* \"#utility.yul\":4901:4910   */\n      dup4\n        /* \"#utility.yul\":4897:4915   */\n      add\n        /* \"#utility.yul\":4888:4894   */\n      dup6\n        /* \"#utility.yul\":4850:4916   */\n      tag_56\n      jump\t// in\n    tag_122:\n        /* \"#utility.yul\":4926:4999   */\n      tag_123\n        /* \"#utility.yul\":4994:4997   */\n      0x80\n        /* \"#utility.yul\":4983:4992   */\n      dup4\n        /* \"#utility.yul\":4979:4998   */\n      add\n        /* \"#utility.yul\":4970:4976   */\n      dup5\n        /* \"#utility.yul\":4926:4999   */\n      tag_57\n      jump\t// in\n    tag_123:\n        /* \"#utility.yul\":4267:5006   */\n      swap7\n      swap6\n      pop\n      pop\n      pop\n      pop\n      pop\n      pop\n      jump\t// out\n        /* \"#utility.yul\":5012:5234   */\n    tag_33:\n        /* \"#utility.yul\":5105:5109   */\n      0x00\n        /* \"#utility.yul\":5143:5145   */\n      0x20\n        /* \"#utility.yul\":5132:5141   */\n      dup3\n        /* \"#utility.yul\":5128:5146   */\n      add\n        /* \"#utility.yul\":5120:5146   */\n      swap1\n      pop\n        /* \"#utility.yul\":5156:5227   */\n      tag_125\n        /* \"#utility.yul\":5224:5225   */\n      0x00\n        /* \"#utility.yul\":5213:5222   */\n      dup4\n        /* \"#utility.yul\":5209:5226   */\n      add\n        /* \"#utility.yul\":5200:5206   */\n      dup5\n        /* \"#utility.yul\":5156:5227   */\n      tag_57\n      jump\t// in\n    tag_125:\n        /* \"#utility.yul\":5012:5234   */\n      swap3\n      swap2\n      pop\n      pop\n      jump\t// out\n        /* \"#utility.yul\":5240:5420   */\n    tag_63:\n        /* \"#utility.yul\":5288:5365   */\n      0x4e487b7100000000000000000000000000000000000000000000000000000000\n        /* \"#utility.yul\":5285:5286   */\n      0x00\n        /* \"#utility.yul\":5278:5366   */\n      mstore\n        /* \"#utility.yul\":5385:5389   */\n      0x22\n        /* \"#utility.yul\":5382:5383   */\n      0x04\n        /* \"#utility.yul\":5375:5390   */\n      mstore\n        /* \"#utility.yul\":5409:5413   */\n      0x24\n        /* \"#utility.yul\":5406:5407   */\n      0x00\n        /* \"#utility.yul\":5399:5414   */\n      revert\n        /* \"#utility.yul\":5426:5746   */\n    tag_39:\n        /* \"#utility.yul\":5470:5476   */\n      0x00\n        /* \"#utility.yul\":5507:5508   */\n      0x02\n        /* \"#utility.yul\":5501:5505   */\n      dup3\n        /* \"#utility.yul\":5497:5509   */\n      div\n        /* \"#utility.yul\":5487:5509   */\n      swap1\n      pop\n        /* \"#utility.yul\":5554:5555   */\n      0x01\n        /* \"#utility.yul\":5548:5552   */\n      dup3\n        /* \"#utility.yul\":5544:5556   */\n      and\n        /* \"#utility.yul\":5575:5593   */\n      dup1\n        /* \"#utility.yul\":5565:5646   */\n      tag_128\n      jumpi\n        /* \"#utility.yul\":5631:5635   */\n      0x7f\n        /* \"#utility.yul\":5623:5629   */\n      dup3\n        /* \"#utility.yul\":5619:5636   */\n      and\n        /* \"#utility.yul\":5609:5636   */\n      swap2\n      pop\n        /* \"#utility.yul\":5565:5646   */\n    tag_128:\n        /* \"#utility.yul\":5693:5695   */\n      0x20\n        /* \"#utility.yul\":5685:5691   */\n      dup3\n        /* \"#utility.yul\":5682:5696   */\n      lt\n        /* \"#utility.yul\":5662:5680   */\n      dup2\n        /* \"#utility.yul\":5659:5697   */\n      sub\n        /* \"#utility.yul\":5656:5740   */\n      tag_129\n      jumpi\n        /* \"#utility.yul\":5712:5730   */\n      tag_130\n      tag_63\n      jump\t// in\n    tag_130:\n        /* \"#utility.yul\":5656:5740   */\n    tag_129:\n        /* \"#utility.yul\":5477:5746   */\n      pop\n        /* \"#utility.yul\":5426:5746   */\n      swap2\n      swap1\n      pop\n      jump\t// out\n\n    auxdata: 0xa26469706673582212208790a112076419f8c51689eb2ee5a2a07d549107c5952a436aaea8c70dc5afcc64736f6c63430008160033\n}\n",
				"bytecode": {
					"linkReferences": {},
					"object": "608060405234801561000f575f80fd5b506105d18061001d5f395ff3fe608060405234801561000f575f80fd5b5060043610610055575f3560e01c8063025e7c27146100595780632f54bf6e1461008957806380f59a65146100b95780639ace38c2146100e9578063dc108deb1461011d575b5f80fd5b610073600480360381019061006e91906102eb565b61013b565b6040516100809190610355565b60405180910390f35b6100a3600480360381019061009e9190610398565b610175565b6040516100b091906103dd565b60405180910390f35b6100d360048036038101906100ce91906103f6565b610192565b6040516100e091906103dd565b60405180910390f35b61010360048036038101906100fe91906102eb565b6101bc565b6040516101149594939291906104cd565b60405180910390f35b6101256102ae565b6040516101329190610525565b60405180910390f35b5f8181548110610149575f80fd5b905f5260205f20015f915054906101000a900473ffffffffffffffffffffffffffffffffffffffff1681565b6001602052805f5260405f205f915054906101000a900460ff1681565b6003602052815f5260405f20602052805f5260405f205f915091509054906101000a900460ff1681565b600481815481106101cb575f80fd5b905f5260205f2090600502015f91509050805f015f9054906101000a900473ffffffffffffffffffffffffffffffffffffffff16908060010154908060020180546102159061056b565b80601f01602080910402602001604051908101604052809291908181526020018280546102419061056b565b801561028c5780601f106102635761010080835404028352916020019161028c565b820191905f5260205f20905b81548152906001019060200180831161026f57829003601f168201915b505050505090806003015f9054906101000a900460ff16908060040154905085565b60025481565b5f80fd5b5f819050919050565b6102ca816102b8565b81146102d4575f80fd5b50565b5f813590506102e5816102c1565b92915050565b5f60208284031215610300576102ff6102b4565b5b5f61030d848285016102d7565b91505092915050565b5f73ffffffffffffffffffffffffffffffffffffffff82169050919050565b5f61033f82610316565b9050919050565b61034f81610335565b82525050565b5f6020820190506103685f830184610346565b92915050565b61037781610335565b8114610381575f80fd5b50565b5f813590506103928161036e565b92915050565b5f602082840312156103ad576103ac6102b4565b5b5f6103ba84828501610384565b91505092915050565b5f8115159050919050565b6103d7816103c3565b82525050565b5f6020820190506103f05f8301846103ce565b92915050565b5f806040838503121561040c5761040b6102b4565b5b5f610419858286016102d7565b925050602061042a85828601610384565b9150509250929050565b61043d816102b8565b82525050565b5f81519050919050565b5f82825260208201905092915050565b5f5b8381101561047a57808201518184015260208101905061045f565b5f8484015250505050565b5f601f19601f8301169050919050565b5f61049f82610443565b6104a9818561044d565b93506104b981856020860161045d565b6104c281610485565b840191505092915050565b5f60a0820190506104e05f830188610346565b6104ed6020830187610434565b81810360408301526104ff8186610495565b905061050e60608301856103ce565b61051b6080830184610434565b9695505050505050565b5f6020820190506105385f830184610434565b92915050565b7f4e487b71000000000000000000000000000000000000000000000000000000005f52602260045260245ffd5b5f600282049050600182168061058257607f821691505b6020821081036105955761059461053e565b5b5091905056fea26469706673582212208790a112076419f8c51689eb2ee5a2a07d549107c5952a436aaea8c70dc5afcc64736f6c63430008160033",
					"opcodes": "PUSH1 0x80 PUSH1 0x40 MSTORE CALLVALUE DUP1 ISZERO PUSH2 0xF JUMPI PUSH0 DUP1 REVERT JUMPDEST POP PUSH2 0x5D1 DUP1 PUSH2 0x1D PUSH0 CODECOPY PUSH0 RETURN INVALID PUSH1 0x80 PUSH1 0x40 MSTORE CALLVALUE DUP1 ISZERO PUSH2 0xF JUMPI PUSH0 DUP1 REVERT JUMPDEST POP PUSH1 0x4 CALLDATASIZE LT PUSH2 0x55 JUMPI PUSH0 CALLDATALOAD PUSH1 0xE0 SHR DUP1 PUSH4 0x25E7C27 EQ PUSH2 0x59 JUMPI DUP1 PUSH4 0x2F54BF6E EQ PUSH2 0x89 JUMPI DUP1 PUSH4 0x80F59A65 EQ PUSH2 0xB9 JUMPI DUP1 PUSH4 0x9ACE38C2 EQ PUSH2 0xE9 JUMPI DUP1 PUSH4 0xDC108DEB EQ PUSH2 0x11D JUMPI JUMPDEST PUSH0 DUP1 REVERT JUMPDEST PUSH2 0x73 PUSH1 0x4 DUP1 CALLDATASIZE SUB DUP2 ADD SWAP1 PUSH2 0x6E SWAP2 SWAP1 PUSH2 0x2EB JUMP JUMPDEST PUSH2 0x13B JUMP JUMPDEST PUSH1 0x40 MLOAD PUSH2 0x80 SWAP2 SWAP1 PUSH2 0x355 JUMP JUMPDEST PUSH1 0x40 MLOAD DUP1 SWAP2 SUB SWAP1 RETURN JUMPDEST PUSH2 0xA3 PUSH1 0x4 DUP1 CALLDATASIZE SUB DUP2 ADD SWAP1 PUSH2 0x9E SWAP2 SWAP1 PUSH2 0x398 JUMP JUMPDEST PUSH2 0x175 JUMP JUMPDEST PUSH1 0x40 MLOAD PUSH2 0xB0 SWAP2 SWAP1 PUSH2 0x3DD JUMP JUMPDEST PUSH1 0x40 MLOAD DUP1 SWAP2 SUB SWAP1 RETURN JUMPDEST PUSH2 0xD3 PUSH1 0x4 DUP1 CALLDATASIZE SUB DUP2 ADD SWAP1 PUSH2 0xCE SWAP2 SWAP1 PUSH2 0x3F6 JUMP JUMPDEST PUSH2 0x192 JUMP JUMPDEST PUSH1 0x40 MLOAD PUSH2 0xE0 SWAP2 SWAP1 PUSH2 0x3DD JUMP JUMPDEST PUSH1 0x40 MLOAD DUP1 SWAP2 SUB SWAP1 RETURN JUMPDEST PUSH2 0x103 PUSH1 0x4 DUP1 CALLDATASIZE SUB DUP2 ADD SWAP1 PUSH2 0xFE SWAP2 SWAP1 PUSH2 0x2EB JUMP JUMPDEST PUSH2 0x1BC JUMP JUMPDEST PUSH1 0x40 MLOAD PUSH2 0x114 SWAP6 SWAP5 SWAP4 SWAP3 SWAP2 SWAP1 PUSH2 0x4CD JUMP JUMPDEST PUSH1 0x40 MLOAD DUP1 SWAP2 SUB SWAP1 RETURN JUMPDEST PUSH2 0x125 PUSH2 0x2AE JUMP JUMPDEST PUSH1 0x40 MLOAD PUSH2 0x132 SWAP2 SWAP1 PUSH2 0x525 JUMP JUMPDEST PUSH1 0x40 MLOAD DUP1 SWAP2 SUB SWAP1 RETURN JUMPDEST PUSH0 DUP2 DUP2 SLOAD DUP2 LT PUSH2 0x149 JUMPI PUSH0 DUP1 REVERT JUMPDEST SWAP1 PUSH0 MSTORE PUSH1 0x20 PUSH0 KECCAK256 ADD PUSH0 SWAP2 POP SLOAD SWAP1 PUSH2 0x100 EXP SWAP1 DIV PUSH20 0xFFFFFFFFFFFFFFFFFFFFFFFFFFFFFFFFFFFFFFFF AND DUP2 JUMP JUMPDEST PUSH1 0x1 PUSH1 0x20 MSTORE DUP1 PUSH0 MSTORE PUSH1 0x40 PUSH0 KECCAK256 PUSH0 SWAP2 POP SLOAD SWAP1 PUSH2 0x100 EXP SWAP1 DIV PUSH1 0xFF AND DUP2 JUMP JUMPDEST PUSH1 0x3 PUSH1 0x20 MSTORE DUP2 PUSH0 MSTORE PUSH1 0x40 PUSH0 KECCAK256 PUSH1 0x20 MSTORE DUP1 PUSH0 MSTORE PUSH1 0x40 PUSH0 KECCAK256 PUSH0 SWAP2 POP SWAP2 POP SWAP1 SLOAD SWAP1 PUSH2 0x100 EXP SWAP1 DIV PUSH1 0xFF AND DUP2 JUMP JUMPDEST PUSH1 0x4 DUP2 DUP2 SLOAD DUP2 LT PUSH2 0x1CB JUMPI PUSH0 DUP1 REVERT JUMPDEST SWAP1 PUSH0 MSTORE PUSH1 0x20 PUSH0 KECCAK256 SWAP1 PUSH1 0x5 MUL ADD PUSH0 SWAP2 POP SWAP1 POP DUP1 PUSH0 ADD PUSH0 SWAP1 SLOAD SWAP1 PUSH2 0x100 EXP SWAP1 DIV PUSH20 0xFFFFFFFFFFFFFFFFFFFFFFFFFFFFFFFFFFFFFFFF AND SWAP1 DUP1 PUSH1 0x1 ADD SLOAD SWAP1 DUP1 PUSH1 0x2 ADD DUP1 SLOAD PUSH2 0x215 SWAP1 PUSH2 0x56B JUMP JUMPDEST DUP1 PUSH1 0x1F ADD PUSH1 0x20 DUP1 SWAP2 DIV MUL PUSH1 0x20 ADD PUSH1 0x40 MLOAD SWAP1 DUP2 ADD PUSH1 0x40 MSTORE DUP1 SWAP3 SWAP2 SWAP1 DUP2 DUP2 MSTORE PUSH1 0x20 ADD DUP3 DUP1 SLOAD PUSH2 0x241 SWAP1 PUSH2 0x56B JUMP JUMPDEST DUP1 ISZERO PUSH2 0x28C JUMPI DUP1 PUSH1 0x1F LT PUSH2 0x263 JUMPI PUSH2 0x100 DUP1 DUP4 SLOAD DIV MUL DUP4 MSTORE SWAP2 PUSH1 0x20 ADD SWAP2 PUSH2 0x28C JUMP JUMPDEST DUP3 ADD SWAP2 SWAP1 PUSH0 MSTORE PUSH1 0x20 PUSH0 KECCAK256 SWAP1 JUMPDEST DUP2 SLOAD DUP2 MSTORE SWAP1 PUSH1 0x1 ADD SWAP1 PUSH1 0x20 ADD DUP1 DUP4 GT PUSH2 0x26F JUMPI DUP3 SWAP1 SUB PUSH1 0x1F AND DUP3 ADD SWAP2 JUMPDEST POP POP POP POP POP SWAP1 DUP1 PUSH1 0x3 ADD PUSH0 SWAP1 SLOAD SWAP1 PUSH2 0x100 EXP SWAP1 DIV PUSH1 0xFF AND SWAP1 DUP1 PUSH1 0x4 ADD SLOAD SWAP1 POP DUP6 JUMP JUMPDEST PUSH1 0x2 SLOAD DUP2 JUMP JUMPDEST PUSH0 DUP1 REVERT JUMPDEST PUSH0 DUP2 SWAP1 POP SWAP2 SWAP1 POP JUMP JUMPDEST PUSH2 0x2CA DUP2 PUSH2 0x2B8 JUMP JUMPDEST DUP2 EQ PUSH2 0x2D4 JUMPI PUSH0 DUP1 REVERT JUMPDEST POP JUMP JUMPDEST PUSH0 DUP2 CALLDATALOAD SWAP1 POP PUSH2 0x2E5 DUP2 PUSH2 0x2C1 JUMP JUMPDEST SWAP3 SWAP2 POP POP JUMP JUMPDEST PUSH0 PUSH1 0x20 DUP3 DUP5 SUB SLT ISZERO PUSH2 0x300 JUMPI PUSH2 0x2FF PUSH2 0x2B4 JUMP JUMPDEST JUMPDEST PUSH0 PUSH2 0x30D DUP5 DUP3 DUP6 ADD PUSH2 0x2D7 JUMP JUMPDEST SWAP2 POP POP SWAP3 SWAP2 POP POP JUMP JUMPDEST PUSH0 PUSH20 0xFFFFFFFFFFFFFFFFFFFFFFFFFFFFFFFFFFFFFFFF DUP3 AND SWAP1 POP SWAP2 SWAP1 POP JUMP JUMPDEST PUSH0 PUSH2 0x33F DUP3 PUSH2 0x316 JUMP JUMPDEST SWAP1 POP SWAP2 SWAP1 POP JUMP JUMPDEST PUSH2 0x34F DUP2 PUSH2 0x335 JUMP JUMPDEST DUP3 MSTORE POP POP JUMP JUMPDEST PUSH0 PUSH1 0x20 DUP3 ADD SWAP1 POP PUSH2 0x368 PUSH0 DUP4 ADD DUP5 PUSH2 0x346 JUMP JUMPDEST SWAP3 SWAP2 POP POP JUMP JUMPDEST PUSH2 0x377 DUP2 PUSH2 0x335 JUMP JUMPDEST DUP2 EQ PUSH2 0x381 JUMPI PUSH0 DUP1 REVERT JUMPDEST POP JUMP JUMPDEST PUSH0 DUP2 CALLDATALOAD SWAP1 POP PUSH2 0x392 DUP2 PUSH2 0x36E JUMP JUMPDEST SWAP3 SWAP2 POP POP JUMP JUMPDEST PUSH0 PUSH1 0x20 DUP3 DUP5 SUB SLT ISZERO PUSH2 0x3AD JUMPI PUSH2 0x3AC PUSH2 0x2B4 JUMP JUMPDEST JUMPDEST PUSH0 PUSH2 0x3BA DUP5 DUP3 DUP6 ADD PUSH2 0x384 JUMP JUMPDEST SWAP2 POP POP SWAP3 SWAP2 POP POP JUMP JUMPDEST PUSH0 DUP2 ISZERO ISZERO SWAP1 POP SWAP2 SWAP1 POP JUMP JUMPDEST PUSH2 0x3D7 DUP2 PUSH2 0x3C3 JUMP JUMPDEST DUP3 MSTORE POP POP JUMP JUMPDEST PUSH0 PUSH1 0x20 DUP3 ADD SWAP1 POP PUSH2 0x3F0 PUSH0 DUP4 ADD DUP5 PUSH2 0x3CE JUMP JUMPDEST SWAP3 SWAP2 POP POP JUMP JUMPDEST PUSH0 DUP1 PUSH1 0x40 DUP4 DUP6 SUB SLT ISZERO PUSH2 0x40C JUMPI PUSH2 0x40B PUSH2 0x2B4 JUMP JUMPDEST JUMPDEST PUSH0 PUSH2 0x419 DUP6 DUP3 DUP7 ADD PUSH2 0x2D7 JUMP JUMPDEST SWAP3 POP POP PUSH1 0x20 PUSH2 0x42A DUP6 DUP3 DUP7 ADD PUSH2 0x384 JUMP JUMPDEST SWAP2 POP POP SWAP3 POP SWAP3 SWAP1 POP JUMP JUMPDEST PUSH2 0x43D DUP2 PUSH2 0x2B8 JUMP JUMPDEST DUP3 MSTORE POP POP JUMP JUMPDEST PUSH0 DUP2 MLOAD SWAP1 POP SWAP2 SWAP1 POP JUMP JUMPDEST PUSH0 DUP3 DUP3 MSTORE PUSH1 0x20 DUP3 ADD SWAP1 POP SWAP3 SWAP2 POP POP JUMP JUMPDEST PUSH0 JUMPDEST DUP4 DUP2 LT ISZERO PUSH2 0x47A JUMPI DUP1 DUP3 ADD MLOAD DUP2 DUP5 ADD MSTORE PUSH1 0x20 DUP2 ADD SWAP1 POP PUSH2 0x45F JUMP JUMPDEST PUSH0 DUP5 DUP5 ADD MSTORE POP POP POP POP JUMP JUMPDEST PUSH0 PUSH1 0x1F NOT PUSH1 0x1F DUP4 ADD AND SWAP1 POP SWAP2 SWAP1 POP JUMP JUMPDEST PUSH0 PUSH2 0x49F DUP3 PUSH2 0x443 JUMP JUMPDEST PUSH2 0x4A9 DUP2 DUP6 PUSH2 0x44D JUMP JUMPDEST SWAP4 POP PUSH2 0x4B9 DUP2 DUP6 PUSH1 0x20 DUP7 ADD PUSH2 0x45D JUMP JUMPDEST PUSH2 0x4C2 DUP2 PUSH2 0x485 JUMP JUMPDEST DUP5 ADD SWAP2 POP POP SWAP3 SWAP2 POP POP JUMP JUMPDEST PUSH0 PUSH1 0xA0 DUP3 ADD SWAP1 POP PUSH2 0x4E0 PUSH0 DUP4 ADD DUP9 PUSH2 0x346 JUMP JUMPDEST PUSH2 0x4ED PUSH1 0x20 DUP4 ADD DUP8 PUSH2 0x434 JUMP JUMPDEST DUP2 DUP2 SUB PUSH1 0x40 DUP4 ADD MSTORE PUSH2 0x4FF DUP2 DUP7 PUSH2 0x495 JUMP JUMPDEST SWAP1 POP PUSH2 0x50E PUSH1 0x60 DUP4 ADD DUP6 PUSH2 0x3CE JUMP JUMPDEST PUSH2 0x51B PUSH1 0x80 DUP4 ADD DUP5 PUSH2 0x434 JUMP JUMPDEST SWAP7 SWAP6 POP POP POP POP POP POP JUMP JUMPDEST PUSH0 PUSH1 0x20 DUP3 ADD SWAP1 POP PUSH2 0x538 PUSH0 DUP4 ADD DUP5 PUSH2 0x434 JUMP JUMPDEST SWAP3 SWAP2 POP POP JUMP JUMPDEST PUSH32 0x4E487B7100000000000000000000000000000000000000000000000000000000 PUSH0 MSTORE PUSH1 0x22 PUSH1 0x4 MSTORE PUSH1 0x24 PUSH0 REVERT JUMPDEST PUSH0 PUSH1 0x2 DUP3 DIV SWAP1 POP PUSH1 0x1 DUP3 AND DUP1 PUSH2 0x582 JUMPI PUSH1 0x7F DUP3 AND SWAP2 POP JUMPDEST PUSH1 0x20 DUP3 LT DUP2 SUB PUSH2 0x595 JUMPI PUSH2 0x594 PUSH2 0x53E JUMP JUMPDEST JUMPDEST POP SWAP2 SWAP1 POP JUMP INVALID LOG2 PUSH5 0x6970667358 0x22 SLT KECCAK256 DUP8 SWAP1 LOG1 SLT SMOD PUSH5 0x19F8C51689 0xEB 0x2E 0xE5 LOG2 LOG0 PUSH30 0x549107C5952A436AAEA8C70DC5AFCC64736F6C6343000816003300000000 "
				},
				"gasEstimates": {
					"creation": {
						"codeDepositCost": "297800",
						"executionCost": "335",
						"totalCost": "298135"
					},
					"external": {
						"isConfirmed(uint256,address)": "3093",
						"isOwner(address)": "2833",
						"numConfirmations()": "2491",
						"owners(uint256)": "4921",
						"transactions(uint256)": "infinite"
					}
				},
				"methodIdentifiers": {
					"isConfirmed(uint256,address)": "80f59a65",
					"isOwner(address)": "2f54bf6e",
					"numConfirmations()": "dc108deb",
					"owners(uint256)": "025e7c27",
					"transactions(uint256)": "9ace38c2"
				}
			},
			"storageLayout": {
				"storage": [
					{
						"astId": 42,
						"contract": "wallet/multiSigwallet.sol:MultiSigWallet",
						"label": "owners",
						"offset": 0,
						"slot": "0",
						"type": "t_array(t_address)dyn_storage"
					},
					{
						"astId": 46,
						"contract": "wallet/multiSigwallet.sol:MultiSigWallet",
						"label": "isOwner",
						"offset": 0,
						"slot": "1",
						"type": "t_mapping(t_address,t_bool)"
					},
					{
						"astId": 48,
						"contract": "wallet/multiSigwallet.sol:MultiSigWallet",
						"label": "numConfirmations",
						"offset": 0,
						"slot": "2",
						"type": "t_uint256"
					},
					{
						"astId": 65,
						"contract": "wallet/multiSigwallet.sol:MultiSigWallet",
						"label": "isConfirmed",
						"offset": 0,
						"slot": "3",
						"type": "t_mapping(t_uint256,t_mapping(t_address,t_bool))"
					},
					{
						"astId": 69,
						"contract": "wallet/multiSigwallet.sol:MultiSigWallet",
						"label": "transactions",
						"offset": 0,
						"slot": "4",
						"type": "t_array(t_struct(Transaction)59_storage)dyn_storage"
					}
				],
				"types": {
					"t_address": {
						"encoding": "inplace",
						"label": "address",
						"numberOfBytes": "20"
					},
					"t_array(t_address)dyn_storage": {
						"base": "t_address",
						"encoding": "dynamic_array",
						"label": "address[]",
						"numberOfBytes": "32"
					},
					"t_array(t_struct(Transaction)59_storage)dyn_storage": {
						"base": "t_struct(Transaction)59_storage",
						"encoding": "dynamic_array",
						"label": "struct MultiSigWallet.Transaction[]",
						"numberOfBytes": "32"
					},
					"t_bool": {
						"encoding": "inplace",
						"label": "bool",
						"numberOfBytes": "1"
					},
					"t_bytes_storage": {
						"encoding": "bytes",
						"label": "bytes",
						"numberOfBytes": "32"
					},
					"t_mapping(t_address,t_bool)": {
						"encoding": "mapping",
						"key": "t_address",
						"label": "mapping(address => bool)",
						"numberOfBytes": "32",
						"value": "t_bool"
					},
					"t_mapping(t_uint256,t_mapping(t_address,t_bool))": {
						"encoding": "mapping",
						"key": "t_uint256",
						"label": "mapping(uint256 => mapping(address => bool))",
						"numberOfBytes": "32",
						"value": "t_mapping(t_address,t_bool)"
					},
					"t_struct(Transaction)59_storage": {
						"encoding": "inplace",
						"label": "struct MultiSigWallet.Transaction",
						"members": [
							{
								"astId": 50,
								"contract": "wallet/multiSigwallet.sol:MultiSigWallet",
								"label": "to",
								"offset": 0,
								"slot": "0",
								"type": "t_address"
							},
							{
								"astId": 52,
								"contract": "wallet/multiSigwallet.sol:MultiSigWallet",
								"label": "value",
								"offset": 0,
								"slot": "1",
								"type": "t_uint256"
							},
							{
								"astId": 54,
								"contract": "wallet/multiSigwallet.sol:MultiSigWallet",
								"label": "data",
								"offset": 0,
								"slot": "2",
								"type": "t_bytes_storage"
							},
							{
								"astId": 56,
								"contract": "wallet/multiSigwallet.sol:MultiSigWallet",
								"label": "executed",
								"offset": 0,
								"slot": "3",
								"type": "t_bool"
							},
							{
								"astId": 58,
								"contract": "wallet/multiSigwallet.sol:MultiSigWallet",
								"label": "numConfirmations",
								"offset": 0,
								"slot": "4",
								"type": "t_uint256"
							}
						],
						"numberOfBytes": "160"
					},
					"t_uint256": {
						"encoding": "inplace",
						"label": "uint256",
						"numberOfBytes": "32"
					}
				}
			},
			"userdoc": {
				"kind": "user",
				"methods": {},
				"version": 1
			}
		}
	}
}