{
	"data": {
		"bytecode": {
			"linkReferences": {},
			"object": "608060405234801561000f575f80fd5b506104448061001d5f395ff3fe608060405260043610610033575f3560e01c8063237c980a146100375780632e1a7d4d14610073578063b6b55f251461009b575b5f80fd5b348015610042575f80fd5b5061005d60048036038101906100589190610252565b6100b7565b60405161006a9190610295565b60405180910390f35b34801561007e575f80fd5b50610099600480360381019061009491906102d8565b6100cb565b005b6100b560048036038101906100b091906102d8565b61019f565b005b5f602052805f5260405f205f915090505481565b805f803373ffffffffffffffffffffffffffffffffffffffff1673ffffffffffffffffffffffffffffffffffffffff1681526020019081526020015f2054101561014a576040517f08c379a00000000000000000000000000000000000000000000000000000000081526004016101419061035d565b60405180910390fd5b805f803373ffffffffffffffffffffffffffffffffffffffff1673ffffffffffffffffffffffffffffffffffffffff1681526020019081526020015f205f82825461019591906103a8565b9250508190555050565b805f803373ffffffffffffffffffffffffffffffffffffffff1673ffffffffffffffffffffffffffffffffffffffff1681526020019081526020015f205f8282546101ea91906103db565b9250508190555050565b5f80fd5b5f73ffffffffffffffffffffffffffffffffffffffff82169050919050565b5f610221826101f8565b9050919050565b61023181610217565b811461023b575f80fd5b50565b5f8135905061024c81610228565b92915050565b5f60208284031215610267576102666101f4565b5b5f6102748482850161023e565b91505092915050565b5f819050919050565b61028f8161027d565b82525050565b5f6020820190506102a85f830184610286565b92915050565b6102b78161027d565b81146102c1575f80fd5b50565b5f813590506102d2816102ae565b92915050565b5f602082840312156102ed576102ec6101f4565b5b5f6102fa848285016102c4565b91505092915050565b5f82825260208201905092915050565b7f496e73756666696369656e742042616c616e63650000000000000000000000005f82015250565b5f610347601483610303565b915061035282610313565b602082019050919050565b5f6020820190508181035f8301526103748161033b565b9050919050565b7f4e487b71000000000000000000000000000000000000000000000000000000005f52601160045260245ffd5b5f6103b28261027d565b91506103bd8361027d565b92508282039050818111156103d5576103d461037b565b5b92915050565b5f6103e58261027d565b91506103f08361027d565b92508282019050808211156104085761040761037b565b5b9291505056fea2646970667358221220f9db7fbad6075bc5bbdf9bc818b5a6122c12b79d209c589391c29a2d363637f164736f6c63430008160033",
			"opcodes": "PUSH1 0x80 PUSH1 0x40 MSTORE CALLVALUE DUP1 ISZERO PUSH2 0xF JUMPI PUSH0 DUP1 REVERT JUMPDEST POP PUSH2 0x444 DUP1 PUSH2 0x1D PUSH0 CODECOPY PUSH0 RETURN INVALID PUSH1 0x80 PUSH1 0x40 MSTORE PUSH1 0x4 CALLDATASIZE LT PUSH2 0x33 JUMPI PUSH0 CALLDATALOAD PUSH1 0xE0 SHR DUP1 PUSH4 0x237C980A EQ PUSH2 0x37 JUMPI DUP1 PUSH4 0x2E1A7D4D EQ PUSH2 0x73 JUMPI DUP1 PUSH4 0xB6B55F25 EQ PUSH2 0x9B JUMPI JUMPDEST PUSH0 DUP1 REVERT JUMPDEST CALLVALUE DUP1 ISZERO PUSH2 0x42 JUMPI PUSH0 DUP1 REVERT JUMPDEST POP PUSH2 0x5D PUSH1 0x4 DUP1 CALLDATASIZE SUB DUP2 ADD SWAP1 PUSH2 0x58 SWAP2 SWAP1 PUSH2 0x252 JUMP JUMPDEST PUSH2 0xB7 JUMP JUMPDEST PUSH1 0x40 MLOAD PUSH2 0x6A SWAP2 SWAP1 PUSH2 0x295 JUMP JUMPDEST PUSH1 0x40 MLOAD DUP1 SWAP2 SUB SWAP1 RETURN JUMPDEST CALLVALUE DUP1 ISZERO PUSH2 0x7E JUMPI PUSH0 DUP1 REVERT JUMPDEST POP PUSH2 0x99 PUSH1 0x4 DUP1 CALLDATASIZE SUB DUP2 ADD SWAP1 PUSH2 0x94 SWAP2 SWAP1 PUSH2 0x2D8 JUMP JUMPDEST PUSH2 0xCB JUMP JUMPDEST STOP JUMPDEST PUSH2 0xB5 PUSH1 0x4 DUP1 CALLDATASIZE SUB DUP2 ADD SWAP1 PUSH2 0xB0 SWAP2 SWAP1 PUSH2 0x2D8 JUMP JUMPDEST PUSH2 0x19F JUMP JUMPDEST STOP JUMPDEST PUSH0 PUSH1 0x20 MSTORE DUP1 PUSH0 MSTORE PUSH1 0x40 PUSH0 KECCAK256 PUSH0 SWAP2 POP SWAP1 POP SLOAD DUP2 JUMP JUMPDEST DUP1 PUSH0 DUP1 CALLER PUSH20 0xFFFFFFFFFFFFFFFFFFFFFFFFFFFFFFFFFFFFFFFF AND PUSH20 0xFFFFFFFFFFFFFFFFFFFFFFFFFFFFFFFFFFFFFFFF AND DUP2 MSTORE PUSH1 0x20 ADD SWAP1 DUP2 MSTORE PUSH1 0x20 ADD PUSH0 KECCAK256 SLOAD LT ISZERO PUSH2 0x14A JUMPI PUSH1 0x40 MLOAD PUSH32 0x8C379A000000000000000000000000000000000000000000000000000000000 DUP2 MSTORE PUSH1 0x4 ADD PUSH2 0x141 SWAP1 PUSH2 0x35D JUMP JUMPDEST PUSH1 0x40 MLOAD DUP1 SWAP2 SUB SWAP1 REVERT JUMPDEST DUP1 PUSH0 DUP1 CALLER PUSH20 0xFFFFFFFFFFFFFFFFFFFFFFFFFFFFFFFFFFFFFFFF AND PUSH20 0xFFFFFFFFFFFFFFFFFFFFFFFFFFFFFFFFFFFFFFFF AND DUP2 MSTORE PUSH1 0x20 ADD SWAP1 DUP2 MSTORE PUSH1 0x20 ADD PUSH0 KECCAK256 PUSH0 DUP3 DUP3 SLOAD PUSH2 0x195 SWAP2 SWAP1 PUSH2 0x3A8 JUMP JUMPDEST SWAP3 POP POP DUP2 SWAP1 SSTORE POP POP JUMP JUMPDEST DUP1 PUSH0 DUP1 CALLER PUSH20 0xFFFFFFFFFFFFFFFFFFFFFFFFFFFFFFFFFFFFFFFF AND PUSH20 0xFFFFFFFFFFFFFFFFFFFFFFFFFFFFFFFFFFFFFFFF AND DUP2 MSTORE PUSH1 0x20 ADD SWAP1 DUP2 MSTORE PUSH1 0x20 ADD PUSH0 KECCAK256 PUSH0 DUP3 DUP3 SLOAD PUSH2 0x1EA SWAP2 SWAP1 PUSH2 0x3DB JUMP JUMPDEST SWAP3 POP POP DUP2 SWAP1 SSTORE POP POP JUMP JUMPDEST PUSH0 DUP1 REVERT JUMPDEST PUSH0 PUSH20 0xFFFFFFFFFFFFFFFFFFFFFFFFFFFFFFFFFFFFFFFF DUP3 AND SWAP1 POP SWAP2 SWAP1 POP JUMP JUMPDEST PUSH0 PUSH2 0x221 DUP3 PUSH2 0x1F8 JUMP JUMPDEST SWAP1 POP SWAP2 SWAP1 POP JUMP JUMPDEST PUSH2 0x231 DUP2 PUSH2 0x217 JUMP JUMPDEST DUP2 EQ PUSH2 0x23B JUMPI PUSH0 DUP1 REVERT JUMPDEST POP JUMP JUMPDEST PUSH0 DUP2 CALLDATALOAD SWAP1 POP PUSH2 0x24C DUP2 PUSH2 0x228 JUMP JUMPDEST SWAP3 SWAP2 POP POP JUMP JUMPDEST PUSH0 PUSH1 0x20 DUP3 DUP5 SUB SLT ISZERO PUSH2 0x267 JUMPI PUSH2 0x266 PUSH2 0x1F4 JUMP JUMPDEST JUMPDEST PUSH0 PUSH2 0x274 DUP5 DUP3 DUP6 ADD PUSH2 0x23E JUMP JUMPDEST SWAP2 POP POP SWAP3 SWAP2 POP POP JUMP JUMPDEST PUSH0 DUP2 SWAP1 POP SWAP2 SWAP1 POP JUMP JUMPDEST PUSH2 0x28F DUP2 PUSH2 0x27D JUMP JUMPDEST DUP3 MSTORE POP POP JUMP JUMPDEST PUSH0 PUSH1 0x20 DUP3 ADD SWAP1 POP PUSH2 0x2A8 PUSH0 DUP4 ADD DUP5 PUSH2 0x286 JUMP JUMPDEST SWAP3 SWAP2 POP POP JUMP JUMPDEST PUSH2 0x2B7 DUP2 PUSH2 0x27D JUMP JUMPDEST DUP2 EQ PUSH2 0x2C1 JUMPI PUSH0 DUP1 REVERT JUMPDEST POP JUMP JUMPDEST PUSH0 DUP2 CALLDATALOAD SWAP1 POP PUSH2 0x2D2 DUP2 PUSH2 0x2AE JUMP JUMPDEST SWAP3 SWAP2 POP POP JUMP JUMPDEST PUSH0 PUSH1 0x20 DUP3 DUP5 SUB SLT ISZERO PUSH2 0x2ED JUMPI PUSH2 0x2EC PUSH2 0x1F4 JUMP JUMPDEST JUMPDEST PUSH0 PUSH2 0x2FA DUP5 DUP3 DUP6 ADD PUSH2 0x2C4 JUMP JUMPDEST SWAP2 POP POP SWAP3 SWAP2 POP POP JUMP JUMPDEST PUSH0 DUP3 DUP3 MSTORE PUSH1 0x20 DUP3 ADD SWAP1 POP SWAP3 SWAP2 POP POP JUMP JUMPDEST PUSH32 0x496E73756666696369656E742042616C616E6365000000000000000000000000 PUSH0 DUP3 ADD MSTORE POP JUMP JUMPDEST PUSH0 PUSH2 0x347 PUSH1 0x14 DUP4 PUSH2 0x303 JUMP JUMPDEST SWAP2 POP PUSH2 0x352 DUP3 PUSH2 0x313 JUMP JUMPDEST PUSH1 0x20 DUP3 ADD SWAP1 POP SWAP2 SWAP1 POP JUMP JUMPDEST PUSH0 PUSH1 0x20 DUP3 ADD SWAP1 POP DUP2 DUP2 SUB PUSH0 DUP4 ADD MSTORE PUSH2 0x374 DUP2 PUSH2 0x33B JUMP JUMPDEST SWAP1 POP SWAP2 SWAP1 POP JUMP JUMPDEST PUSH32 0x4E487B7100000000000000000000000000000000000000000000000000000000 PUSH0 MSTORE PUSH1 0x11 PUSH1 0x4 MSTORE PUSH1 0x24 PUSH0 REVERT JUMPDEST PUSH0 PUSH2 0x3B2 DUP3 PUSH2 0x27D JUMP JUMPDEST SWAP2 POP PUSH2 0x3BD DUP4 PUSH2 0x27D JUMP JUMPDEST SWAP3 POP DUP3 DUP3 SUB SWAP1 POP DUP2 DUP2 GT ISZERO PUSH2 0x3D5 JUMPI PUSH2 0x3D4 PUSH2 0x37B JUMP JUMPDEST JUMPDEST SWAP3 SWAP2 POP POP JUMP JUMPDEST PUSH0 PUSH2 0x3E5 DUP3 PUSH2 0x27D JUMP JUMPDEST SWAP2 POP PUSH2 0x3F0 DUP4 PUSH2 0x27D JUMP JUMPDEST SWAP3 POP DUP3 DUP3 ADD SWAP1 POP DUP1 DUP3 GT ISZERO PUSH2 0x408 JUMPI PUSH2 0x407 PUSH2 0x37B JUMP JUMPDEST JUMPDEST SWAP3 SWAP2 POP POP JUMP INVALID LOG2 PUSH5 0x6970667358 0x22 SLT KECCAK256 0xF9 0xDB PUSH32 0xBAD6075BC5BBDF9BC818B5A6122C12B79D209C589391C29A2D363637F164736F PUSH13 0x63430008160033000000000000 "
		},
		"gasEstimates": {
			"creation": {
				"codeDepositCost": "218400",
				"executionCost": "261",
				"totalCost": "218661"
			},
			"external": {
				"addressToBalance(address)": "2779",
				"deposit(uint256)": "infinite",
				"withdraw(uint256)": "infinite"
			}
		},
		"methodIdentifiers": {
			"addressToBalance(address)": "237c980a",
			"deposit(uint256)": "b6b55f25",
			"withdraw(uint256)": "2e1a7d4d"
		}
	},
	"abi": [
		{
			"inputs": [
				{
					"internalType": "address",
					"name": "",
					"type": "address"
				}
			],
			"name": "addressToBalance",
			"outputs": [
				{
					"internalType": "uint256",
					"name": "",
					"type": "uint256"
				}
			],
			"stateMutability": "view",
			"type": "function"
		},
		{
			"inputs": [
				{
					"internalType": "uint256",
					"name": "amount",
					"type": "uint256"
				}
			],
			"name": "deposit",
			"outputs": [],
			"stateMutability": "payable",
			"type": "function"
		},
		{
			"inputs": [
				{
					"internalType": "uint256",
					"name": "amount",
					"type": "uint256"
				}
			],
			"name": "withdraw",
			"outputs": [],
			"stateMutability": "nonpayable",
			"type": "function"
		}
	]
}